{
  "_format": "hh-sol-artifact-1",
  "contractName": "TreasuryFacet",
  "sourceName": "contracts/facets/Treasury/TreasuryFacet.sol",
  "abi": [
    {
      "anonymous": false,
      "inputs": [
        {
          "indexed": true,
          "internalType": "enum TreasuryFacet.MANAGING",
          "name": "managing",
          "type": "uint8"
        },
        {
          "indexed": false,
          "internalType": "address",
          "name": "activated",
          "type": "address"
        },
        {
          "indexed": false,
          "internalType": "bool",
          "name": "result",
          "type": "bool"
        }
      ],
      "name": "ChangeActivated",
      "type": "event"
    },
    {
      "anonymous": false,
      "inputs": [
        {
          "indexed": true,
          "internalType": "enum TreasuryFacet.MANAGING",
          "name": "managing",
          "type": "uint8"
        },
        {
          "indexed": false,
          "internalType": "address",
          "name": "queued",
          "type": "address"
        }
      ],
      "name": "ChangeQueued",
      "type": "event"
    },
    {
      "anonymous": false,
      "inputs": [
        {
          "indexed": true,
          "internalType": "address",
          "name": "debtor",
          "type": "address"
        },
        {
          "indexed": true,
          "internalType": "address",
          "name": "token",
          "type": "address"
        },
        {
          "indexed": false,
          "internalType": "uint256",
          "name": "amount",
          "type": "uint256"
        },
        {
          "indexed": false,
          "internalType": "uint256",
          "name": "value",
          "type": "uint256"
        }
      ],
      "name": "CreateDebt",
      "type": "event"
    },
    {
      "anonymous": false,
      "inputs": [
        {
          "indexed": true,
          "internalType": "address",
          "name": "token",
          "type": "address"
        },
        {
          "indexed": false,
          "internalType": "uint256",
          "name": "amount",
          "type": "uint256"
        },
        {
          "indexed": false,
          "internalType": "uint256",
          "name": "value",
          "type": "uint256"
        }
      ],
      "name": "Deposit",
      "type": "event"
    },
    {
      "anonymous": false,
      "inputs": [
        {
          "indexed": true,
          "internalType": "address",
          "name": "debtor",
          "type": "address"
        },
        {
          "indexed": true,
          "internalType": "address",
          "name": "token",
          "type": "address"
        },
        {
          "indexed": false,
          "internalType": "uint256",
          "name": "amount",
          "type": "uint256"
        },
        {
          "indexed": false,
          "internalType": "uint256",
          "name": "value",
          "type": "uint256"
        }
      ],
      "name": "RepayDebt",
      "type": "event"
    },
    {
      "anonymous": false,
      "inputs": [
        {
          "indexed": true,
          "internalType": "uint256",
          "name": "totalReserves",
          "type": "uint256"
        }
      ],
      "name": "ReservesAudited",
      "type": "event"
    },
    {
      "anonymous": false,
      "inputs": [
        {
          "indexed": true,
          "internalType": "address",
          "name": "token",
          "type": "address"
        },
        {
          "indexed": false,
          "internalType": "uint256",
          "name": "amount",
          "type": "uint256"
        }
      ],
      "name": "ReservesManaged",
      "type": "event"
    },
    {
      "anonymous": false,
      "inputs": [
        {
          "indexed": true,
          "internalType": "uint256",
          "name": "totalReserves",
          "type": "uint256"
        }
      ],
      "name": "ReservesUpdated",
      "type": "event"
    },
    {
      "anonymous": false,
      "inputs": [
        {
          "indexed": true,
          "internalType": "address",
          "name": "caller",
          "type": "address"
        },
        {
          "indexed": true,
          "internalType": "address",
          "name": "recipient",
          "type": "address"
        },
        {
          "indexed": false,
          "internalType": "uint256",
          "name": "amount",
          "type": "uint256"
        }
      ],
      "name": "RewardsMinted",
      "type": "event"
    },
    {
      "anonymous": false,
      "inputs": [
        {
          "indexed": true,
          "internalType": "address",
          "name": "token",
          "type": "address"
        },
        {
          "indexed": false,
          "internalType": "uint256",
          "name": "amount",
          "type": "uint256"
        },
        {
          "indexed": false,
          "internalType": "uint256",
          "name": "value",
          "type": "uint256"
        }
      ],
      "name": "Withdrawal",
      "type": "event"
    },
    {
      "inputs": [],
      "name": "auditReserves",
      "outputs": [],
      "stateMutability": "nonpayable",
      "type": "function"
    },
    {
      "inputs": [
        {
          "internalType": "uint256",
          "name": "_amount",
          "type": "uint256"
        },
        {
          "internalType": "address",
          "name": "_token",
          "type": "address"
        },
        {
          "internalType": "uint256",
          "name": "_profit",
          "type": "uint256"
        }
      ],
      "name": "deposit",
      "outputs": [
        {
          "internalType": "uint256",
          "name": "send_",
          "type": "uint256"
        }
      ],
      "stateMutability": "nonpayable",
      "type": "function"
    },
    {
      "inputs": [],
      "name": "excessReserves",
      "outputs": [
        {
          "internalType": "uint256",
          "name": "",
          "type": "uint256"
        }
      ],
      "stateMutability": "view",
      "type": "function"
    },
    {
      "inputs": [
        {
          "internalType": "uint256",
          "name": "_amount",
          "type": "uint256"
        },
        {
          "internalType": "address",
          "name": "_token",
          "type": "address"
        }
      ],
      "name": "incurDebt",
      "outputs": [],
      "stateMutability": "nonpayable",
      "type": "function"
    },
    {
      "inputs": [
        {
          "internalType": "address",
          "name": "_Necc",
          "type": "address"
        },
        {
          "internalType": "address",
          "name": "_nNecc",
          "type": "address"
        },
        {
          "internalType": "address",
          "name": "_NDOL",
          "type": "address"
        },
        {
          "internalType": "uint256",
          "name": "_blocksNeededForQueue",
          "type": "uint256"
        }
      ],
      "name": "initializeTreasury",
      "outputs": [],
      "stateMutability": "nonpayable",
      "type": "function"
    },
    {
      "inputs": [
        {
          "internalType": "address",
          "name": "_depositor",
          "type": "address"
        }
      ],
      "name": "isReserveDepositor",
      "outputs": [
        {
          "internalType": "bool",
          "name": "",
          "type": "bool"
        }
      ],
      "stateMutability": "view",
      "type": "function"
    },
    {
      "inputs": [
        {
          "internalType": "address",
          "name": "_principle",
          "type": "address"
        }
      ],
      "name": "isReserveToken",
      "outputs": [
        {
          "internalType": "bool",
          "name": "",
          "type": "bool"
        }
      ],
      "stateMutability": "view",
      "type": "function"
    },
    {
      "inputs": [
        {
          "internalType": "address",
          "name": "_token",
          "type": "address"
        },
        {
          "internalType": "uint256",
          "name": "_amount",
          "type": "uint256"
        }
      ],
      "name": "manage",
      "outputs": [],
      "stateMutability": "nonpayable",
      "type": "function"
    },
    {
      "inputs": [
        {
          "internalType": "address",
          "name": "_recipient",
          "type": "address"
        },
        {
          "internalType": "uint256",
          "name": "_amount",
          "type": "uint256"
        }
      ],
      "name": "mintRewards",
      "outputs": [],
      "stateMutability": "nonpayable",
      "type": "function"
    },
    {
      "inputs": [
        {
          "internalType": "enum TreasuryFacet.MANAGING",
          "name": "_managing",
          "type": "uint8"
        },
        {
          "internalType": "address",
          "name": "_address",
          "type": "address"
        }
      ],
      "name": "queue",
      "outputs": [
        {
          "internalType": "bool",
          "name": "",
          "type": "bool"
        }
      ],
      "stateMutability": "nonpayable",
      "type": "function"
    },
    {
      "inputs": [
        {
          "internalType": "uint256",
          "name": "_amount",
          "type": "uint256"
        }
      ],
      "name": "repayDebtWithNecc",
      "outputs": [],
      "stateMutability": "nonpayable",
      "type": "function"
    },
    {
      "inputs": [
        {
          "internalType": "uint256",
          "name": "_amount",
          "type": "uint256"
        },
        {
          "internalType": "address",
          "name": "_token",
          "type": "address"
        }
      ],
      "name": "repayDebtWithReserve",
      "outputs": [],
      "stateMutability": "nonpayable",
      "type": "function"
    },
    {
      "inputs": [
        {
          "internalType": "enum TreasuryFacet.MANAGING",
          "name": "_managing",
          "type": "uint8"
        },
        {
          "internalType": "address",
          "name": "_address",
          "type": "address"
        }
      ],
      "name": "toggle",
      "outputs": [
        {
          "internalType": "bool",
          "name": "",
          "type": "bool"
        }
      ],
      "stateMutability": "nonpayable",
      "type": "function"
    },
    {
      "inputs": [
        {
          "internalType": "address",
          "name": "_token",
          "type": "address"
        },
        {
          "internalType": "uint256",
          "name": "_amount",
          "type": "uint256"
        }
      ],
      "name": "valueOfToken",
      "outputs": [
        {
          "internalType": "uint256",
          "name": "_value",
          "type": "uint256"
        }
      ],
      "stateMutability": "view",
      "type": "function"
    },
    {
      "inputs": [
        {
          "internalType": "uint256",
          "name": "_amount",
          "type": "uint256"
        },
        {
          "internalType": "address",
          "name": "_token",
          "type": "address"
        }
      ],
      "name": "withdraw",
      "outputs": [],
      "stateMutability": "nonpayable",
      "type": "function"
    }
  ],
  "bytecode": "0x608060405234801561001057600080fd5b50614cb8806100206000396000f3fe608060405234801561001057600080fd5b50600436106100f45760003560e01c80636a20de9211610097578063d1b317e511610066578063d1b317e514610259578063d5e8be0d14610289578063d796ffb8146102b9578063e83afee3146102d5576100f4565b80636a20de92146101d55780637823f58e146101f1578063bc157ac11461020d578063cad9311e1461023d576100f4565b8063124154ca116100d3578063124154ca1461014f57806312422d231461017f5780632b7ce5001461019b57806368c31dd5146101a5576100f4565b8062f714ce146100f95780630b0eee30146101155780630c3513a814610131575b600080fd5b610113600480360381019061010e9190613f57565b610305565b005b61012f600480360381019061012a9190613f97565b61059c565b005b61013961083e565b6040516101469190613fe6565b60405180910390f35b61016960048036038101906101649190614001565b610906565b6040516101769190614049565b60405180910390f35b61019960048036038101906101949190613f57565b61095e565b005b6101a3610dc4565b005b6101bf60048036038101906101ba9190614001565b6110b8565b6040516101cc9190614049565b60405180910390f35b6101ef60048036038101906101ea9190613f97565b611110565b005b61020b60048036038101906102069190614064565b6112e3565b005b610227600480360381019061022291906140cb565b6114b7565b6040516102349190613fe6565b60405180910390f35b6102576004803603810190610252919061411e565b6118a3565b005b610273600480360381019061026e9190613f97565b611b0d565b6040516102809190613fe6565b60405180910390f35b6102a3600480360381019061029e9190614170565b611d82565b6040516102b09190614049565b60405180910390f35b6102d360048036038101906102ce9190613f57565b612ef9565b005b6102ef60048036038101906102ea9190614170565b6131cd565b6040516102fc9190614049565b60405180910390f35b600060080160008273ffffffffffffffffffffffffffffffffffffffff1673ffffffffffffffffffffffffffffffffffffffff16815260200190815260200160002060009054906101000a900460ff16610394576040517f08c379a000000000000000000000000000000000000000000000000000000000815260040161038b9061420d565b60405180910390fd5b600115156000600e0160003373ffffffffffffffffffffffffffffffffffffffff1673ffffffffffffffffffffffffffffffffffffffff16815260200190815260200160002060009054906101000a900460ff1615151461042a576040517f08c379a000000000000000000000000000000000000000000000000000000000815260040161042190614279565b60405180910390fd5b60006104368284611b0d565b90506000800160009054906101000a900473ffffffffffffffffffffffffffffffffffffffff1673ffffffffffffffffffffffffffffffffffffffff166379cc679033836040518363ffffffff1660e01b81526004016104979291906142a8565b600060405180830381600087803b1580156104b157600080fd5b505af11580156104c5573d6000803e3d6000fd5b505050506104e18160006006015461380090919063ffffffff16565b6000600601819055506000600601547f93bb8edd35984706eee1b92541281f7f62d33c01c5b2ec0929a113603bd21d6660405160405180910390a261054733848473ffffffffffffffffffffffffffffffffffffffff166138169092919063ffffffff16565b8173ffffffffffffffffffffffffffffffffffffffff167fdf273cb619d95419a9cd0ec88123a0538c85064229baa6363788f743fff90deb848360405161058f9291906142d1565b60405180910390a2505050565b600060110160008373ffffffffffffffffffffffffffffffffffffffff1673ffffffffffffffffffffffffffffffffffffffff16815260200190815260200160002060009054906101000a900460ff1615610685576000601a0160003373ffffffffffffffffffffffffffffffffffffffff1673ffffffffffffffffffffffffffffffffffffffff16815260200190815260200160002060009054906101000a900460ff16610680576040517f08c379a000000000000000000000000000000000000000000000000000000000815260040161067790614279565b60405180910390fd5b610715565b600060170160003373ffffffffffffffffffffffffffffffffffffffff1673ffffffffffffffffffffffffffffffffffffffff16815260200190815260200160002060009054906101000a900460ff16610714576040517f08c379a000000000000000000000000000000000000000000000000000000000815260040161070b90614279565b60405180910390fd5b5b60006107218383611b0d565b905061072b61083e565b81111561076d576040517f08c379a000000000000000000000000000000000000000000000000000000000815260040161076490614346565b60405180910390fd5b6107858160006006015461380090919063ffffffff16565b6000600601819055506000600601547f93bb8edd35984706eee1b92541281f7f62d33c01c5b2ec0929a113603bd21d6660405160405180910390a26107eb33838573ffffffffffffffffffffffffffffffffffffffff166138169092919063ffffffff16565b8273ffffffffffffffffffffffffffffffffffffffff167f2bb2640731848fe9820ba48dbc978c1fc9bbd5f11b948bfab05b7dee3378fd80836040516108319190613fe6565b60405180910390a2505050565b60006109016108ed6000600701546000800160009054906101000a900473ffffffffffffffffffffffffffffffffffffffff1673ffffffffffffffffffffffffffffffffffffffff166318160ddd6040518163ffffffff1660e01b8152600401602060405180830381865afa1580156108bb573d6000803e3d6000fd5b505050506040513d601f19601f820116820180604052508101906108df919061437b565b61380090919063ffffffff16565b60006006015461380090919063ffffffff16565b905090565b600080600b0160008373ffffffffffffffffffffffffffffffffffffffff1673ffffffffffffffffffffffffffffffffffffffff16815260200190815260200160002060009054906101000a900460ff169050919050565b6000601d0160003373ffffffffffffffffffffffffffffffffffffffff1673ffffffffffffffffffffffffffffffffffffffff16815260200190815260200160002060009054906101000a900460ff166109ed576040517f08c379a00000000000000000000000000000000000000000000000000000000081526004016109e490614279565b60405180910390fd5b600060080160008273ffffffffffffffffffffffffffffffffffffffff1673ffffffffffffffffffffffffffffffffffffffff16815260200190815260200160002060009054906101000a900460ff16610a7c576040517f08c379a0000000000000000000000000000000000000000000000000000000008152600401610a739061420d565b60405180910390fd5b6000610a888284611b0d565b905060008060020160009054906101000a900473ffffffffffffffffffffffffffffffffffffffff1673ffffffffffffffffffffffffffffffffffffffff166370a08231336040518263ffffffff1660e01b8152600401610ae991906143a8565b602060405180830381865afa158015610b06573d6000803e3d6000fd5b505050506040513d601f19601f82011682018060405250810190610b2a919061437b565b90506000610b836000601f0160003373ffffffffffffffffffffffffffffffffffffffff1673ffffffffffffffffffffffffffffffffffffffff168152602001908152602001600020548361380090919063ffffffff16565b905080831115610bc8576040517f08c379a0000000000000000000000000000000000000000000000000000000008152600401610bbf9061440f565b60405180910390fd5b610c1d836000601f0160003373ffffffffffffffffffffffffffffffffffffffff1673ffffffffffffffffffffffffffffffffffffffff1681526020019081526020016000205461389c90919063ffffffff16565b6000601f0160003373ffffffffffffffffffffffffffffffffffffffff1673ffffffffffffffffffffffffffffffffffffffff16815260200190815260200160002081905550610c7b8360006007015461389c90919063ffffffff16565b600060070181905550610c9c8360006006015461380090919063ffffffff16565b6000600601819055506000600601547f93bb8edd35984706eee1b92541281f7f62d33c01c5b2ec0929a113603bd21d6660405160405180910390a28373ffffffffffffffffffffffffffffffffffffffff1663a9059cbb33876040518363ffffffff1660e01b8152600401610d129291906142a8565b6020604051808303816000875af1158015610d31573d6000803e3d6000fd5b505050506040513d601f19601f82011682018060405250810190610d55919061445b565b508373ffffffffffffffffffffffffffffffffffffffff163373ffffffffffffffffffffffffffffffffffffffff167f7e1a939bed137a819b5d2979822c67f877689f7a863d5e4cb57cdca97b2977d68786604051610db59291906142d1565b60405180910390a35050505050565b610dcc6138b2565b600080600090505b600060040180549050811015610f1057610efb610eec60006004018381548110610e0157610e00614488565b5b9060005260206000200160009054906101000a900473ffffffffffffffffffffffffffffffffffffffff1660006004018481548110610e4357610e42614488565b5b9060005260206000200160009054906101000a900473ffffffffffffffffffffffffffffffffffffffff1673ffffffffffffffffffffffffffffffffffffffff166370a08231306040518263ffffffff1660e01b8152600401610ea691906143a8565b602060405180830381865afa158015610ec3573d6000803e3d6000fd5b505050506040513d601f19601f82011682018060405250810190610ee7919061437b565b611b0d565b8361389c90919063ffffffff16565b91508080610f08906144e6565b915050610dd4565b5060005b6000601001805490508110156110505761103b61102c60006010018381548110610f4157610f40614488565b5b9060005260206000200160009054906101000a900473ffffffffffffffffffffffffffffffffffffffff1660006010018481548110610f8357610f82614488565b5b9060005260206000200160009054906101000a900473ffffffffffffffffffffffffffffffffffffffff1673ffffffffffffffffffffffffffffffffffffffff166370a08231306040518263ffffffff1660e01b8152600401610fe691906143a8565b602060405180830381865afa158015611003573d6000803e3d6000fd5b505050506040513d601f19601f82011682018060405250810190611027919061437b565b611b0d565b8361389c90919063ffffffff16565b91508080611048906144e6565b915050610f14565b5080600060060181905550807f93bb8edd35984706eee1b92541281f7f62d33c01c5b2ec0929a113603bd21d6660405160405180910390a2807fec691f09f6924b27932253f85caf99bacc30360cc0e50a1cc4d2acc24601446660405160405180910390a250565b60008060080160008373ffffffffffffffffffffffffffffffffffffffff1673ffffffffffffffffffffffffffffffffffffffff16815260200190815260200160002060009054906101000a900460ff169050919050565b600060210160003373ffffffffffffffffffffffffffffffffffffffff1673ffffffffffffffffffffffffffffffffffffffff16815260200190815260200160002060009054906101000a900460ff1661119f576040517f08c379a000000000000000000000000000000000000000000000000000000000815260040161119690614279565b60405180910390fd5b6111a761083e565b8111156111e9576040517f08c379a00000000000000000000000000000000000000000000000000000000081526004016111e090614346565b60405180910390fd5b6000800160009054906101000a900473ffffffffffffffffffffffffffffffffffffffff1673ffffffffffffffffffffffffffffffffffffffff166340c10f1983836040518363ffffffff1660e01b81526004016112489291906142a8565b600060405180830381600087803b15801561126257600080fd5b505af1158015611276573d6000803e3d6000fd5b505050508173ffffffffffffffffffffffffffffffffffffffff163373ffffffffffffffffffffffffffffffffffffffff167ffa8ccab40e7da8146c2304cd0950334fd30a6ba093abe86261aa13911fed849c836040516112d79190613fe6565b60405180910390a35050565b6112eb6138b2565b600073ffffffffffffffffffffffffffffffffffffffff168473ffffffffffffffffffffffffffffffffffffffff16141561132557600080fd5b600073ffffffffffffffffffffffffffffffffffffffff168373ffffffffffffffffffffffffffffffffffffffff16141561135f57600080fd5b82600060010160006101000a81548173ffffffffffffffffffffffffffffffffffffffff021916908373ffffffffffffffffffffffffffffffffffffffff160217905550836000800160006101000a81548173ffffffffffffffffffffffffffffffffffffffff021916908373ffffffffffffffffffffffffffffffffffffffff1602179055506001600060080160008473ffffffffffffffffffffffffffffffffffffffff1673ffffffffffffffffffffffffffffffffffffffff16815260200190815260200160002060006101000a81548160ff0219169083151502179055506000600401829080600181540180825580915050600190039060005260206000200160009091909190916101000a81548173ffffffffffffffffffffffffffffffffffffffff021916908373ffffffffffffffffffffffffffffffffffffffff1602179055508060006003018190555050505050565b60008060080160008473ffffffffffffffffffffffffffffffffffffffff1673ffffffffffffffffffffffffffffffffffffffff16815260200190815260200160002060009054906101000a900460ff168061155f5750600060110160008473ffffffffffffffffffffffffffffffffffffffff1673ffffffffffffffffffffffffffffffffffffffff16815260200190815260200160002060009054906101000a900460ff165b61159e576040517f08c379a00000000000000000000000000000000000000000000000000000000081526004016115959061420d565b60405180910390fd5b6115cb3330868673ffffffffffffffffffffffffffffffffffffffff166138bc909392919063ffffffff16565b600060080160008473ffffffffffffffffffffffffffffffffffffffff1673ffffffffffffffffffffffffffffffffffffffff16815260200190815260200160002060009054906101000a900460ff16156116b4576000600b0160003373ffffffffffffffffffffffffffffffffffffffff1673ffffffffffffffffffffffffffffffffffffffff16815260200190815260200160002060009054906101000a900460ff166116af576040517f08c379a00000000000000000000000000000000000000000000000000000000081526004016116a690614279565b60405180910390fd5b611744565b600060140160003373ffffffffffffffffffffffffffffffffffffffff1673ffffffffffffffffffffffffffffffffffffffff16815260200190815260200160002060009054906101000a900460ff16611743576040517f08c379a000000000000000000000000000000000000000000000000000000000815260040161173a90614279565b60405180910390fd5b5b60006117508486611b0d565b9050611765838261380090919063ffffffff16565b91506000800160009054906101000a900473ffffffffffffffffffffffffffffffffffffffff1673ffffffffffffffffffffffffffffffffffffffff166340c10f1933846040518363ffffffff1660e01b81526004016117c69291906142a8565b600060405180830381600087803b1580156117e057600080fd5b505af11580156117f4573d6000803e3d6000fd5b505050506118108160006006015461389c90919063ffffffff16565b6000600601819055506000600601547f93bb8edd35984706eee1b92541281f7f62d33c01c5b2ec0929a113603bd21d6660405160405180910390a28373ffffffffffffffffffffffffffffffffffffffff167f90890809c654f11d6e72a28fa60149770a0d11ec6c92319d6ceb2bb0a4ea1a1586836040516118939291906142d1565b60405180910390a2509392505050565b6000601d0160003373ffffffffffffffffffffffffffffffffffffffff1673ffffffffffffffffffffffffffffffffffffffff16815260200190815260200160002060009054906101000a900460ff16611932576040517f08c379a000000000000000000000000000000000000000000000000000000000815260040161192990614279565b60405180910390fd5b6000800160009054906101000a900473ffffffffffffffffffffffffffffffffffffffff1673ffffffffffffffffffffffffffffffffffffffff166379cc679033836040518363ffffffff1660e01b81526004016119919291906142a8565b600060405180830381600087803b1580156119ab57600080fd5b505af11580156119bf573d6000803e3d6000fd5b50505050611a18816000601f0160003373ffffffffffffffffffffffffffffffffffffffff1673ffffffffffffffffffffffffffffffffffffffff1681526020019081526020016000205461380090919063ffffffff16565b6000601f0160003373ffffffffffffffffffffffffffffffffffffffff1673ffffffffffffffffffffffffffffffffffffffff16815260200190815260200160002081905550611a768160006007015461380090919063ffffffff16565b6000600701819055506000800160009054906101000a900473ffffffffffffffffffffffffffffffffffffffff1673ffffffffffffffffffffffffffffffffffffffff163373ffffffffffffffffffffffffffffffffffffffff167fc6d98eecfc9c78ab62c89a82950079b54874749f1f6f24090f7acc758bc2f3098384604051611b029291906142d1565b60405180910390a350565b60008060080160008473ffffffffffffffffffffffffffffffffffffffff1673ffffffffffffffffffffffffffffffffffffffff16815260200190815260200160002060009054906101000a900460ff1615611ca757611ca08373ffffffffffffffffffffffffffffffffffffffff1663313ce5676040518163ffffffff1660e01b8152600401602060405180830381865afa158015611bb1573d6000803e3d6000fd5b505050506040513d601f19601f82011682018060405250810190611bd5919061437b565b600a611be19190614662565b611c926000800160009054906101000a900473ffffffffffffffffffffffffffffffffffffffff1673ffffffffffffffffffffffffffffffffffffffff1663313ce5676040518163ffffffff1660e01b8152600401602060405180830381865afa158015611c53573d6000803e3d6000fd5b505050506040513d601f19601f82011682018060405250810190611c77919061437b565b600a611c839190614662565b8561394590919063ffffffff16565b61395b90919063ffffffff16565b9050611d7c565b600060110160008473ffffffffffffffffffffffffffffffffffffffff1673ffffffffffffffffffffffffffffffffffffffff16815260200190815260200160002060009054906101000a900460ff1615611d7b573073ffffffffffffffffffffffffffffffffffffffff16634249719f84846040518363ffffffff1660e01b8152600401611d379291906142a8565b602060405180830381865afa158015611d54573d6000803e3d6000fd5b505050506040513d601f19601f82011682018060405250810190611d78919061437b565b90505b5b92915050565b6000611d8c6138b2565b600073ffffffffffffffffffffffffffffffffffffffff168273ffffffffffffffffffffffffffffffffffffffff161415611dc657600080fd5b6000806009811115611ddb57611dda6146ad565b5b846009811115611dee57611ded6146ad565b5b1415611f7f57611e076000600c016000600b0185613971565b15611ecd57600080600c0160008573ffffffffffffffffffffffffffffffffffffffff1673ffffffffffffffffffffffffffffffffffffffff16815260200190815260200160002081905550611e616000600a0184613adb565b611ecc576000600a01839080600181540180825580915050600190039060005260206000200160009091909190916101000a81548173ffffffffffffffffffffffffffffffffffffffff021916908373ffffffffffffffffffffffffffffffffffffffff1602179055505b5b6000600b0160008473ffffffffffffffffffffffffffffffffffffffff1673ffffffffffffffffffffffffffffffffffffffff16815260200190815260200160002060009054906101000a900460ff16159050806000600b0160008573ffffffffffffffffffffffffffffffffffffffff1673ffffffffffffffffffffffffffffffffffffffff16815260200190815260200160002060006101000a81548160ff021916908315150217905550612ea1565b60016009811115611f9357611f926146ad565b5b846009811115611fa657611fa56146ad565b5b141561213757611fbf6000600f016000600e0185613971565b1561208557600080600f0160008573ffffffffffffffffffffffffffffffffffffffff1673ffffffffffffffffffffffffffffffffffffffff168152602001908152602001600020819055506120196000600d0184613adb565b612084576000600d01839080600181540180825580915050600190039060005260206000200160009091909190916101000a81548173ffffffffffffffffffffffffffffffffffffffff021916908373ffffffffffffffffffffffffffffffffffffffff1602179055505b5b6000600e0160008473ffffffffffffffffffffffffffffffffffffffff1673ffffffffffffffffffffffffffffffffffffffff16815260200190815260200160002060009054906101000a900460ff16159050806000600e0160008573ffffffffffffffffffffffffffffffffffffffff1673ffffffffffffffffffffffffffffffffffffffff16815260200190815260200160002060006101000a81548160ff021916908315150217905550612ea0565b6002600981111561214b5761214a6146ad565b5b84600981111561215e5761215d6146ad565b5b14156122ef576121776000600901600060080185613971565b1561223d5760008060090160008573ffffffffffffffffffffffffffffffffffffffff1673ffffffffffffffffffffffffffffffffffffffff168152602001908152602001600020819055506121d1600060040184613adb565b61223c576000600401839080600181540180825580915050600190039060005260206000200160009091909190916101000a81548173ffffffffffffffffffffffffffffffffffffffff021916908373ffffffffffffffffffffffffffffffffffffffff1602179055505b5b600060080160008473ffffffffffffffffffffffffffffffffffffffff1673ffffffffffffffffffffffffffffffffffffffff16815260200190815260200160002060009054906101000a900460ff1615905080600060080160008573ffffffffffffffffffffffffffffffffffffffff1673ffffffffffffffffffffffffffffffffffffffff16815260200190815260200160002060006101000a81548160ff021916908315150217905550612e9f565b60036009811115612303576123026146ad565b5b846009811115612316576123156146ad565b5b141561250d5761232f6000601801600060170185613971565b1561245b576000601601839080600181540180825580915050600190039060005260206000200160009091909190916101000a81548173ffffffffffffffffffffffffffffffffffffffff021916908373ffffffffffffffffffffffffffffffffffffffff16021790555060008060180160008573ffffffffffffffffffffffffffffffffffffffff1673ffffffffffffffffffffffffffffffffffffffff168152602001908152602001600020819055506123ef600060160184613adb565b61245a576000601601839080600181540180825580915050600190039060005260206000200160009091909190916101000a81548173ffffffffffffffffffffffffffffffffffffffff021916908373ffffffffffffffffffffffffffffffffffffffff1602179055505b5b600060170160008473ffffffffffffffffffffffffffffffffffffffff1673ffffffffffffffffffffffffffffffffffffffff16815260200190815260200160002060009054906101000a900460ff1615905080600060170160008573ffffffffffffffffffffffffffffffffffffffff1673ffffffffffffffffffffffffffffffffffffffff16815260200190815260200160002060006101000a81548160ff021916908315150217905550612e9e565b60046009811115612521576125206146ad565b5b846009811115612534576125336146ad565b5b141561272b5761254d6000601501600060140185613971565b15612679576000601301839080600181540180825580915050600190039060005260206000200160009091909190916101000a81548173ffffffffffffffffffffffffffffffffffffffff021916908373ffffffffffffffffffffffffffffffffffffffff16021790555060008060150160008573ffffffffffffffffffffffffffffffffffffffff1673ffffffffffffffffffffffffffffffffffffffff1681526020019081526020016000208190555061260d600060130184613adb565b612678576000601301839080600181540180825580915050600190039060005260206000200160009091909190916101000a81548173ffffffffffffffffffffffffffffffffffffffff021916908373ffffffffffffffffffffffffffffffffffffffff1602179055505b5b600060140160008473ffffffffffffffffffffffffffffffffffffffff1673ffffffffffffffffffffffffffffffffffffffff16815260200190815260200160002060009054906101000a900460ff1615905080600060140160008573ffffffffffffffffffffffffffffffffffffffff1673ffffffffffffffffffffffffffffffffffffffff16815260200190815260200160002060006101000a81548160ff021916908315150217905550612e9d565b6005600981111561273f5761273e6146ad565b5b846009811115612752576127516146ad565b5b14156128e35761276b6000601201600060110185613971565b156128315760008060120160008573ffffffffffffffffffffffffffffffffffffffff1673ffffffffffffffffffffffffffffffffffffffff168152602001908152602001600020819055506127c5600060100184613adb565b612830576000601001839080600181540180825580915050600190039060005260206000200160009091909190916101000a81548173ffffffffffffffffffffffffffffffffffffffff021916908373ffffffffffffffffffffffffffffffffffffffff1602179055505b5b600060110160008473ffffffffffffffffffffffffffffffffffffffff1673ffffffffffffffffffffffffffffffffffffffff16815260200190815260200160002060009054906101000a900460ff1615905080600060110160008573ffffffffffffffffffffffffffffffffffffffff1673ffffffffffffffffffffffffffffffffffffffff16815260200190815260200160002060006101000a81548160ff021916908315150217905550612e9c565b600660098111156128f7576128f66146ad565b5b84600981111561290a576129096146ad565b5b1415612a9b576129236000601b016000601a0185613971565b156129e957600080601b0160008573ffffffffffffffffffffffffffffffffffffffff1673ffffffffffffffffffffffffffffffffffffffff1681526020019081526020016000208190555061297d600060190184613adb565b6129e8576000601901839080600181540180825580915050600190039060005260206000200160009091909190916101000a81548173ffffffffffffffffffffffffffffffffffffffff021916908373ffffffffffffffffffffffffffffffffffffffff1602179055505b5b6000601a0160008473ffffffffffffffffffffffffffffffffffffffff1673ffffffffffffffffffffffffffffffffffffffff16815260200190815260200160002060009054906101000a900460ff16159050806000601a0160008573ffffffffffffffffffffffffffffffffffffffff1673ffffffffffffffffffffffffffffffffffffffff16815260200190815260200160002060006101000a81548160ff021916908315150217905550612e9b565b60076009811115612aaf57612aae6146ad565b5b846009811115612ac257612ac16146ad565b5b1415612c5357612adb6000601e016000601d0185613971565b15612ba157600080601e0160008573ffffffffffffffffffffffffffffffffffffffff1673ffffffffffffffffffffffffffffffffffffffff16815260200190815260200160002081905550612b356000601c0184613adb565b612ba0576000601c01839080600181540180825580915050600190039060005260206000200160009091909190916101000a81548173ffffffffffffffffffffffffffffffffffffffff021916908373ffffffffffffffffffffffffffffffffffffffff1602179055505b5b6000601d0160008473ffffffffffffffffffffffffffffffffffffffff1673ffffffffffffffffffffffffffffffffffffffff16815260200190815260200160002060009054906101000a900460ff16159050806000601d0160008573ffffffffffffffffffffffffffffffffffffffff1673ffffffffffffffffffffffffffffffffffffffff16815260200190815260200160002060006101000a81548160ff021916908315150217905550612e9a565b60086009811115612c6757612c666146ad565b5b846009811115612c7a57612c796146ad565b5b1415612e0b57612c936000602201600060210185613971565b15612d595760008060220160008573ffffffffffffffffffffffffffffffffffffffff1673ffffffffffffffffffffffffffffffffffffffff16815260200190815260200160002081905550612ced600060200184613adb565b612d58576000602001839080600181540180825580915050600190039060005260206000200160009091909190916101000a81548173ffffffffffffffffffffffffffffffffffffffff021916908373ffffffffffffffffffffffffffffffffffffffff1602179055505b5b600060210160008473ffffffffffffffffffffffffffffffffffffffff1673ffffffffffffffffffffffffffffffffffffffff16815260200190815260200160002060009054906101000a900460ff1615905080600060210160008573ffffffffffffffffffffffffffffffffffffffff1673ffffffffffffffffffffffffffffffffffffffff16815260200190815260200160002060006101000a81548160ff021916908315150217905550612e99565b600980811115612e1e57612e1d6146ad565b5b846009811115612e3157612e306146ad565b5b1415612e8e576000806005018190555082600060020160006101000a81548173ffffffffffffffffffffffffffffffffffffffff021916908373ffffffffffffffffffffffffffffffffffffffff16021790555060019050612e98565b6000915050612ef3565b5b5b5b5b5b5b5b5b5b836009811115612eb457612eb36146ad565b5b7f0dcacb7e392f3d6a216ed2660e3dcfd40b7793d33591db2ba185a6b8e44fc4778483604051612ee59291906146dc565b60405180910390a260019150505b92915050565b6000601d0160003373ffffffffffffffffffffffffffffffffffffffff1673ffffffffffffffffffffffffffffffffffffffff16815260200190815260200160002060009054906101000a900460ff16612f88576040517f08c379a0000000000000000000000000000000000000000000000000000000008152600401612f7f90614279565b60405180910390fd5b600060080160008273ffffffffffffffffffffffffffffffffffffffff1673ffffffffffffffffffffffffffffffffffffffff16815260200190815260200160002060009054906101000a900460ff16613017576040517f08c379a000000000000000000000000000000000000000000000000000000000815260040161300e9061420d565b60405180910390fd5b6130443330848473ffffffffffffffffffffffffffffffffffffffff166138bc909392919063ffffffff16565b60006130508284611b0d565b90506130a7816000601f0160003373ffffffffffffffffffffffffffffffffffffffff1673ffffffffffffffffffffffffffffffffffffffff1681526020019081526020016000205461380090919063ffffffff16565b6000601f0160003373ffffffffffffffffffffffffffffffffffffffff1673ffffffffffffffffffffffffffffffffffffffff168152602001908152602001600020819055506131058160006007015461380090919063ffffffff16565b6000600701819055506131268160006006015461389c90919063ffffffff16565b6000600601819055506000600601547f93bb8edd35984706eee1b92541281f7f62d33c01c5b2ec0929a113603bd21d6660405160405180910390a28173ffffffffffffffffffffffffffffffffffffffff163373ffffffffffffffffffffffffffffffffffffffff167fc6d98eecfc9c78ab62c89a82950079b54874749f1f6f24090f7acc758bc2f30985846040516131c09291906142d1565b60405180910390a3505050565b60006131d76138b2565b600073ffffffffffffffffffffffffffffffffffffffff168273ffffffffffffffffffffffffffffffffffffffff16141561321157600080fd5b60006009811115613225576132246146ad565b5b836009811115613238576132376146ad565b5b14156132a1576132566000600301544361389c90919063ffffffff16565b6000600c0160008473ffffffffffffffffffffffffffffffffffffffff1673ffffffffffffffffffffffffffffffffffffffff168152602001908152602001600020819055506137ab565b600160098111156132b5576132b46146ad565b5b8360098111156132c8576132c76146ad565b5b1415613331576132e66000600301544361389c90919063ffffffff16565b6000600f0160008473ffffffffffffffffffffffffffffffffffffffff1673ffffffffffffffffffffffffffffffffffffffff168152602001908152602001600020819055506137aa565b60026009811115613345576133446146ad565b5b836009811115613358576133576146ad565b5b14156133c1576133766000600301544361389c90919063ffffffff16565b600060090160008473ffffffffffffffffffffffffffffffffffffffff1673ffffffffffffffffffffffffffffffffffffffff168152602001908152602001600020819055506137a9565b600360098111156133d5576133d46146ad565b5b8360098111156133e8576133e76146ad565b5b14156134645761341961340a600260006003015461394590919063ffffffff16565b4361389c90919063ffffffff16565b600060180160008473ffffffffffffffffffffffffffffffffffffffff1673ffffffffffffffffffffffffffffffffffffffff168152602001908152602001600020819055506137a8565b60046009811115613478576134776146ad565b5b83600981111561348b5761348a6146ad565b5b14156134f4576134a96000600301544361389c90919063ffffffff16565b600060150160008473ffffffffffffffffffffffffffffffffffffffff1673ffffffffffffffffffffffffffffffffffffffff168152602001908152602001600020819055506137a7565b60056009811115613508576135076146ad565b5b83600981111561351b5761351a6146ad565b5b1415613584576135396000600301544361389c90919063ffffffff16565b600060120160008473ffffffffffffffffffffffffffffffffffffffff1673ffffffffffffffffffffffffffffffffffffffff168152602001908152602001600020819055506137a6565b60066009811115613598576135976146ad565b5b8360098111156135ab576135aa6146ad565b5b1415613627576135dc6135cd600260006003015461394590919063ffffffff16565b4361389c90919063ffffffff16565b6000601b0160008473ffffffffffffffffffffffffffffffffffffffff1673ffffffffffffffffffffffffffffffffffffffff168152602001908152602001600020819055506137a5565b6007600981111561363b5761363a6146ad565b5b83600981111561364e5761364d6146ad565b5b14156136b75761366c6000600301544361389c90919063ffffffff16565b6000601e0160008473ffffffffffffffffffffffffffffffffffffffff1673ffffffffffffffffffffffffffffffffffffffff168152602001908152602001600020819055506137a4565b600860098111156136cb576136ca6146ad565b5b8360098111156136de576136dd6146ad565b5b1415613747576136fc6000600301544361389c90919063ffffffff16565b600060220160008473ffffffffffffffffffffffffffffffffffffffff1673ffffffffffffffffffffffffffffffffffffffff168152602001908152602001600020819055506137a3565b60098081111561375a576137596146ad565b5b83600981111561376d5761376c6146ad565b5b14156137995761378b6000600301544361389c90919063ffffffff16565b6000600501819055506137a2565b600090506137fa565b5b5b5b5b5b5b5b5b5b8260098111156137be576137bd6146ad565b5b7f0e4f2c4b5bc209d509bc3d49348c787fefadc66a79351b470599ac0f5be52eaf836040516137ed91906143a8565b60405180910390a2600190505b92915050565b6000818361380e9190614705565b905092915050565b6138978363a9059cbb60e01b84846040516024016138359291906142a8565b604051602081830303815290604052907bffffffffffffffffffffffffffffffffffffffffffffffffffffffff19166020820180517bffffffffffffffffffffffffffffffffffffffffffffffffffffffff8381831617835250505050613b89565b505050565b600081836138aa9190614739565b905092915050565b6138ba613c50565b565b61393f846323b872dd60e01b8585856040516024016138dd9392919061478f565b604051602081830303815290604052907bffffffffffffffffffffffffffffffffffffffffffffffffffffffff19166020820180517bffffffffffffffffffffffffffffffffffffffffffffffffffffffff8381831617835250505050613b89565b50505050565b6000818361395391906147c6565b905092915050565b60008183613969919061484f565b905092915050565b60008260008373ffffffffffffffffffffffffffffffffffffffff1673ffffffffffffffffffffffffffffffffffffffff16815260200190815260200160002060009054906101000a900460ff16613acf5760008460008473ffffffffffffffffffffffffffffffffffffffff1673ffffffffffffffffffffffffffffffffffffffff168152602001908152602001600020541415613a45576040517f08c379a0000000000000000000000000000000000000000000000000000000008152600401613a3c906148cc565b60405180910390fd5b438460008473ffffffffffffffffffffffffffffffffffffffff1673ffffffffffffffffffffffffffffffffffffffff168152602001908152602001600020541115613ac6576040517f08c379a0000000000000000000000000000000000000000000000000000000008152600401613abd90614938565b60405180910390fd5b60019050613ad4565b600090505b9392505050565b600080600090505b8380549050811015613b7d578273ffffffffffffffffffffffffffffffffffffffff16848281548110613b1957613b18614488565b5b9060005260206000200160009054906101000a900473ffffffffffffffffffffffffffffffffffffffff1673ffffffffffffffffffffffffffffffffffffffff161415613b6a576001915050613b83565b8080613b75906144e6565b915050613ae3565b50600090505b92915050565b6000613beb826040518060400160405280602081526020017f5361666545524332303a206c6f772d6c6576656c2063616c6c206661696c65648152508573ffffffffffffffffffffffffffffffffffffffff16613ceb9092919063ffffffff16565b9050600081511115613c4b5780806020019051810190613c0b919061445b565b613c4a576040517f08c379a0000000000000000000000000000000000000000000000000000000008152600401613c41906149ca565b60405180910390fd5b5b505050565b613c58613d03565b60040160009054906101000a900473ffffffffffffffffffffffffffffffffffffffff1673ffffffffffffffffffffffffffffffffffffffff163373ffffffffffffffffffffffffffffffffffffffff1614613ce9576040517f08c379a0000000000000000000000000000000000000000000000000000000008152600401613ce090614a5c565b60405180910390fd5b565b6060613cfa8484600085613d30565b90509392505050565b6000807fc8fcad8db84d3cc18b4c41d551ea0ee66dd599cde068d998e57d5e09332c131c90508091505090565b606082471015613d75576040517f08c379a0000000000000000000000000000000000000000000000000000000008152600401613d6c90614aee565b60405180910390fd5b613d7e85613e44565b613dbd576040517f08c379a0000000000000000000000000000000000000000000000000000000008152600401613db490614b5a565b60405180910390fd5b6000808673ffffffffffffffffffffffffffffffffffffffff168587604051613de69190614bf4565b60006040518083038185875af1925050503d8060008114613e23576040519150601f19603f3d011682016040523d82523d6000602084013e613e28565b606091505b5091509150613e38828286613e57565b92505050949350505050565b600080823b905060008111915050919050565b60608315613e6757829050613eb7565b600083511115613e7a5782518084602001fd5b816040517f08c379a0000000000000000000000000000000000000000000000000000000008152600401613eae9190614c60565b60405180910390fd5b9392505050565b600080fd5b6000819050919050565b613ed681613ec3565b8114613ee157600080fd5b50565b600081359050613ef381613ecd565b92915050565b600073ffffffffffffffffffffffffffffffffffffffff82169050919050565b6000613f2482613ef9565b9050919050565b613f3481613f19565b8114613f3f57600080fd5b50565b600081359050613f5181613f2b565b92915050565b60008060408385031215613f6e57613f6d613ebe565b5b6000613f7c85828601613ee4565b9250506020613f8d85828601613f42565b9150509250929050565b60008060408385031215613fae57613fad613ebe565b5b6000613fbc85828601613f42565b9250506020613fcd85828601613ee4565b9150509250929050565b613fe081613ec3565b82525050565b6000602082019050613ffb6000830184613fd7565b92915050565b60006020828403121561401757614016613ebe565b5b600061402584828501613f42565b91505092915050565b60008115159050919050565b6140438161402e565b82525050565b600060208201905061405e600083018461403a565b92915050565b6000806000806080858703121561407e5761407d613ebe565b5b600061408c87828801613f42565b945050602061409d87828801613f42565b93505060406140ae87828801613f42565b92505060606140bf87828801613ee4565b91505092959194509250565b6000806000606084860312156140e4576140e3613ebe565b5b60006140f286828701613ee4565b935050602061410386828701613f42565b925050604061411486828701613ee4565b9150509250925092565b60006020828403121561413457614133613ebe565b5b600061414284828501613ee4565b91505092915050565b600a811061415857600080fd5b50565b60008135905061416a8161414b565b92915050565b6000806040838503121561418757614186613ebe565b5b60006141958582860161415b565b92505060206141a685828601613f42565b9150509250929050565b600082825260208201905092915050565b7f54726561737572793a204e6f7420616363657074656400000000000000000000600082015250565b60006141f76016836141b0565b9150614202826141c1565b602082019050919050565b60006020820190508181036000830152614226816141ea565b9050919050565b7f54726561737572793a204e6f7420617070726f76656400000000000000000000600082015250565b60006142636016836141b0565b915061426e8261422d565b602082019050919050565b6000602082019050818103600083015261429281614256565b9050919050565b6142a281613f19565b82525050565b60006040820190506142bd6000830185614299565b6142ca6020830184613fd7565b9392505050565b60006040820190506142e66000830185613fd7565b6142f36020830184613fd7565b9392505050565b7f54726561737572793a20496e73756666696369656e7420726573657276657300600082015250565b6000614330601f836141b0565b915061433b826142fa565b602082019050919050565b6000602082019050818103600083015261435f81614323565b9050919050565b60008151905061437581613ecd565b92915050565b60006020828403121561439157614390613ebe565b5b600061439f84828501614366565b91505092915050565b60006020820190506143bd6000830184614299565b92915050565b7f457863656564732064656274206c696d69740000000000000000000000000000600082015250565b60006143f96012836141b0565b9150614404826143c3565b602082019050919050565b60006020820190508181036000830152614428816143ec565b9050919050565b6144388161402e565b811461444357600080fd5b50565b6000815190506144558161442f565b92915050565b60006020828403121561447157614470613ebe565b5b600061447f84828501614446565b91505092915050565b7f4e487b7100000000000000000000000000000000000000000000000000000000600052603260045260246000fd5b7f4e487b7100000000000000000000000000000000000000000000000000000000600052601160045260246000fd5b60006144f182613ec3565b91507fffffffffffffffffffffffffffffffffffffffffffffffffffffffffffffffff821415614524576145236144b7565b5b600182019050919050565b60008160011c9050919050565b6000808291508390505b600185111561458657808604811115614562576145616144b7565b5b60018516156145715780820291505b808102905061457f8561452f565b9450614546565b94509492505050565b60008261459f576001905061465b565b816145ad576000905061465b565b81600181146145c357600281146145cd576145fc565b600191505061465b565b60ff8411156145df576145de6144b7565b5b8360020a9150848211156145f6576145f56144b7565b5b5061465b565b5060208310610133831016604e8410600b84101617156146315782820a90508381111561462c5761462b6144b7565b5b61465b565b61463e848484600161453c565b92509050818404811115614655576146546144b7565b5b81810290505b9392505050565b600061466d82613ec3565b915061467883613ec3565b92506146a57fffffffffffffffffffffffffffffffffffffffffffffffffffffffffffffffff848461458f565b905092915050565b7f4e487b7100000000000000000000000000000000000000000000000000000000600052602160045260246000fd5b60006040820190506146f16000830185614299565b6146fe602083018461403a565b9392505050565b600061471082613ec3565b915061471b83613ec3565b92508282101561472e5761472d6144b7565b5b828203905092915050565b600061474482613ec3565b915061474f83613ec3565b9250827fffffffffffffffffffffffffffffffffffffffffffffffffffffffffffffffff03821115614784576147836144b7565b5b828201905092915050565b60006060820190506147a46000830186614299565b6147b16020830185614299565b6147be6040830184613fd7565b949350505050565b60006147d182613ec3565b91506147dc83613ec3565b9250817fffffffffffffffffffffffffffffffffffffffffffffffffffffffffffffffff0483118215151615614815576148146144b7565b5b828202905092915050565b7f4e487b7100000000000000000000000000000000000000000000000000000000600052601260045260246000fd5b600061485a82613ec3565b915061486583613ec3565b92508261487557614874614820565b5b828204905092915050565b7f4d75737420717565756500000000000000000000000000000000000000000000600082015250565b60006148b6600a836141b0565b91506148c182614880565b602082019050919050565b600060208201905081810360008301526148e5816148a9565b9050919050565b7f5175657565206e6f742065787069726564000000000000000000000000000000600082015250565b60006149226011836141b0565b915061492d826148ec565b602082019050919050565b6000602082019050818103600083015261495181614915565b9050919050565b7f5361666545524332303a204552433230206f7065726174696f6e20646964206e60008201527f6f74207375636365656400000000000000000000000000000000000000000000602082015250565b60006149b4602a836141b0565b91506149bf82614958565b604082019050919050565b600060208201905081810360008301526149e3816149a7565b9050919050565b7f4c69624469616d6f6e643a20696e76616c696420636f6e7472616374206f776e60008201527f6572000000000000000000000000000000000000000000000000000000000000602082015250565b6000614a466022836141b0565b9150614a51826149ea565b604082019050919050565b60006020820190508181036000830152614a7581614a39565b9050919050565b7f416464726573733a20696e73756666696369656e742062616c616e636520666f60008201527f722063616c6c0000000000000000000000000000000000000000000000000000602082015250565b6000614ad86026836141b0565b9150614ae382614a7c565b604082019050919050565b60006020820190508181036000830152614b0781614acb565b9050919050565b7f416464726573733a2063616c6c20746f206e6f6e2d636f6e7472616374000000600082015250565b6000614b44601d836141b0565b9150614b4f82614b0e565b602082019050919050565b60006020820190508181036000830152614b7381614b37565b9050919050565b600081519050919050565b600081905092915050565b60005b83811015614bae578082015181840152602081019050614b93565b83811115614bbd576000848401525b50505050565b6000614bce82614b7a565b614bd88185614b85565b9350614be8818560208601614b90565b80840191505092915050565b6000614c008284614bc3565b915081905092915050565b600081519050919050565b6000601f19601f8301169050919050565b6000614c3282614c0b565b614c3c81856141b0565b9350614c4c818560208601614b90565b614c5581614c16565b840191505092915050565b60006020820190508181036000830152614c7a8184614c27565b90509291505056fea26469706673582212203f0474a291cc4fa94b2038a167d63a59a9b762b9ca8d66ea9cf4ab03494fa9f164736f6c634300080a0033",
  "linkReferences": {},
  "deployedLinkReferences": {}
}