{
  "_format": "hh-sol-artifact-1",
  "contractName": "VaultPriceFeedFacet",
  "sourceName": "contracts/facets/VaultPriceFeed/VaultPriceFeedFacet.sol",
  "abi": [
    {
      "inputs": [
        {
          "internalType": "address",
          "name": "_token",
          "type": "address"
        },
        {
          "internalType": "uint256",
          "name": "_primaryPrice",
          "type": "uint256"
        }
      ],
      "name": "getAmmPrice",
      "outputs": [
        {
          "internalType": "uint256",
          "name": "",
          "type": "uint256"
        }
      ],
      "stateMutability": "view",
      "type": "function"
    },
    {
      "inputs": [
        {
          "internalType": "address",
          "name": "_pair",
          "type": "address"
        },
        {
          "internalType": "bool",
          "name": "_divByReserve0",
          "type": "bool"
        }
      ],
      "name": "getPairPrice",
      "outputs": [
        {
          "internalType": "uint256",
          "name": "",
          "type": "uint256"
        }
      ],
      "stateMutability": "view",
      "type": "function"
    },
    {
      "inputs": [
        {
          "internalType": "address",
          "name": "_token",
          "type": "address"
        },
        {
          "internalType": "bool",
          "name": "_maximise",
          "type": "bool"
        },
        {
          "internalType": "bool",
          "name": "_includeAmmPrice",
          "type": "bool"
        }
      ],
      "name": "getPrice",
      "outputs": [
        {
          "internalType": "uint256",
          "name": "",
          "type": "uint256"
        }
      ],
      "stateMutability": "view",
      "type": "function"
    },
    {
      "inputs": [
        {
          "internalType": "address",
          "name": "_token",
          "type": "address"
        },
        {
          "internalType": "bool",
          "name": "_maximise",
          "type": "bool"
        }
      ],
      "name": "getPrimaryPrice",
      "outputs": [
        {
          "internalType": "uint256",
          "name": "",
          "type": "uint256"
        }
      ],
      "stateMutability": "view",
      "type": "function"
    }
  ],
  "bytecode": "0x608060405234801561001057600080fd5b5060008060000160006101000a81548160ff0219169083151502179055506110608061003d6000396000f3fe608060405234801561001057600080fd5b506004361061004c5760003560e01c806356c8c2c1146100515780635ae69163146100b5578063a2ad7b9314610125578063e5d902ff14610189575b600080fd5b61009f6004803603604081101561006757600080fd5b81019080803573ffffffffffffffffffffffffffffffffffffffff1690602001909291908035151590602001909291905050506101eb565b6040518082815260200191505060405180910390f35b61010f600480360360608110156100cb57600080fd5b81019080803573ffffffffffffffffffffffffffffffffffffffff16906020019092919080351515906020019092919080351515906020019092919050505061076c565b6040518082815260200191505060405180910390f35b6101736004803603604081101561013b57600080fd5b81019080803573ffffffffffffffffffffffffffffffffffffffff169060200190929190803515159060200190929190505050610a51565b6040518082815260200191505060405180910390f35b6101d56004803603604081101561019f57600080fd5b81019080803573ffffffffffffffffffffffffffffffffffffffff16906020019092919080359060200190929190505050610bb6565b6040518082815260200191505060405180910390f35b600080600060150160008573ffffffffffffffffffffffffffffffffffffffff1673ffffffffffffffffffffffffffffffffffffffff16815260200190815260200160002060009054906101000a900473ffffffffffffffffffffffffffffffffffffffff169050600073ffffffffffffffffffffffffffffffffffffffff168173ffffffffffffffffffffffffffffffffffffffff1614156102f6576040517f08c379a000000000000000000000000000000000000000000000000000000000815260040180806020018281038252601d8152602001807f5072696365466565643a20696e76616c6964207072696365206665656400000081525060200191505060405180910390fd5b60008190506000808273ffffffffffffffffffffffffffffffffffffffff1663668a0f026040518163ffffffff1660e01b815260040160206040518083038186803b15801561034457600080fd5b505afa158015610358573d6000803e3d6000fd5b505050506040513d602081101561036e57600080fd5b8101908080519060200190929190505050905060005b60018169ffffffffffffffffffff16101561066d578069ffffffffffffffffffff168269ffffffffffffffffffff16116103bd5761066d565b6000808269ffffffffffffffffffff1614156104d75760008573ffffffffffffffffffffffffffffffffffffffff166350d25bcd6040518163ffffffff1660e01b815260040160206040518083038186803b15801561041b57600080fd5b505afa15801561042f573d6000803e3d6000fd5b505050506040513d602081101561044557600080fd5b81019080805190602001909291905050509050600081136104ce576040517f08c379a00000000000000000000000000000000000000000000000000000000081526004018080602001828103825260188152602001807f5072696365466565643a20696e76616c6964207072696365000000000000000081525060200191505060405180910390fd5b8091505061061c565b60008573ffffffffffffffffffffffffffffffffffffffff16639a6fc8f58486036040518263ffffffff1660e01b8152600401808269ffffffffffffffffffff16815260200191505060a06040518083038186803b15801561053857600080fd5b505afa15801561054c573d6000803e3d6000fd5b505050506040513d60a081101561056257600080fd5b81019080805190602001909291908051906020019092919080519060200190929190805190602001909291908051906020019092919050505050505091505060008113610617576040517f08c379a00000000000000000000000000000000000000000000000000000000081526004018080602001828103825260188152602001807f5072696365466565643a20696e76616c6964207072696365000000000000000081525060200191505060405180910390fd5b809150505b600084141561062e5780935050610660565b87801561063a57508381115b156106485780935050610660565b8715801561065557508381105b1561065e578093505b505b8080600101915050610384565b50600082116106e4576040517f08c379a00000000000000000000000000000000000000000000000000000000081526004018080602001828103825260208152602001807f5072696365466565643a20636f756c64206e6f7420666574636820707269636581525060200191505060405180910390fd5b60008060160160008973ffffffffffffffffffffffffffffffffffffffff1673ffffffffffffffffffffffffffffffffffffffff16815260200190815260200160002054905061075f81600a0a6107516c0c9f2c9cd04674edea4000000086610def90919063ffffffff16565b610e7590919063ffffffff16565b9550505050505092915050565b600080600060150160008673ffffffffffffffffffffffffffffffffffffffff1673ffffffffffffffffffffffffffffffffffffffff16815260200190815260200160002060009054906101000a900473ffffffffffffffffffffffffffffffffffffffff16905060008060170160008773ffffffffffffffffffffffffffffffffffffffff1673ffffffffffffffffffffffffffffffffffffffff16815260200190815260200160002054905060008073ffffffffffffffffffffffffffffffffffffffff168373ffffffffffffffffffffffffffffffffffffffff16146108605761085987876101eb565b90506109aa565b8480156108fc5750600073ffffffffffffffffffffffffffffffffffffffff16600060180160008973ffffffffffffffffffffffffffffffffffffffff1673ffffffffffffffffffffffffffffffffffffffff16815260200190815260200160002060009054906101000a900473ffffffffffffffffffffffffffffffffffffffff1673ffffffffffffffffffffffffffffffffffffffff1614155b80156109975750600073ffffffffffffffffffffffffffffffffffffffff16600060190160008973ffffffffffffffffffffffffffffffffffffffff1673ffffffffffffffffffffffffffffffffffffffff16815260200190815260200160002060009054906101000a900473ffffffffffffffffffffffffffffffffffffffff1673ffffffffffffffffffffffffffffffffffffffff1614155b156109a9576109a68782610bb6565b90505b5b60008114156109be57809350505050610a4a565b8515610a09576109ff6127106109f16109e285612710610efe90919063ffffffff16565b84610def90919063ffffffff16565b610e7590919063ffffffff16565b9350505050610a4a565b610a44612710610a36610a2785612710610f8690919063ffffffff16565b84610def90919063ffffffff16565b610e7590919063ffffffff16565b93505050505b9392505050565b60008060008473ffffffffffffffffffffffffffffffffffffffff16630902f1ac6040518163ffffffff1660e01b815260040160606040518083038186803b158015610a9c57600080fd5b505afa158015610ab0573d6000803e3d6000fd5b505050506040513d6060811015610ac657600080fd5b81019080805190602001909291908051906020019092919080519060200190929190505050506dffffffffffffffffffffffffffff1691506dffffffffffffffffffffffffffff1691508315610b65576000821415610b2a57600092505050610bb0565b610b5c82610b4e6c0c9f2c9cd04674edea4000000084610def90919063ffffffff16565b610e7590919063ffffffff16565b92505050610bb0565b6000811415610b7957600092505050610bb0565b610bab81610b9d6c0c9f2c9cd04674edea4000000085610def90919063ffffffff16565b610e7590919063ffffffff16565b925050505b92915050565b600080600060180160008573ffffffffffffffffffffffffffffffffffffffff1673ffffffffffffffffffffffffffffffffffffffff16815260200190815260200160002060009054906101000a900473ffffffffffffffffffffffffffffffffffffffff16905060008060190160008673ffffffffffffffffffffffffffffffffffffffff1673ffffffffffffffffffffffffffffffffffffffff16815260200190815260200160002060009054906101000a900473ffffffffffffffffffffffffffffffffffffffff1690506000610c91836000610a51565b90506000610ca0836000610a51565b90508273ffffffffffffffffffffffffffffffffffffffff168473ffffffffffffffffffffffffffffffffffffffff161415610d3957610d2e600060160160008973ffffffffffffffffffffffffffffffffffffffff1673ffffffffffffffffffffffffffffffffffffffff16815260200190815260200160002054600a0a83610def90919063ffffffff16565b945050505050610de9565b6000821480610d485750600081145b15610d595785945050505050610de9565b610de26c0c9f2c9cd04674edea40000000610dd4600060160160008b73ffffffffffffffffffffffffffffffffffffffff1673ffffffffffffffffffffffffffffffffffffffff16815260200190815260200160002054600a0a610dc68587610def90919063ffffffff16565b610def90919063ffffffff16565b610e7590919063ffffffff16565b9450505050505b92915050565b600080831415610e025760009050610e6f565b6000828402905082848281610e1357fe5b0414610e6a576040517f08c379a000000000000000000000000000000000000000000000000000000000815260040180806020018281038252602181526020018061100a6021913960400191505060405180910390fd5b809150505b92915050565b6000808211610eec576040517f08c379a000000000000000000000000000000000000000000000000000000000815260040180806020018281038252601a8152602001807f536166654d6174683a206469766973696f6e206279207a65726f00000000000081525060200191505060405180910390fd5b818381610ef557fe5b04905092915050565b600080828401905083811015610f7c576040517f08c379a000000000000000000000000000000000000000000000000000000000815260040180806020018281038252601b8152602001807f536166654d6174683a206164646974696f6e206f766572666c6f77000000000081525060200191505060405180910390fd5b8091505092915050565b600082821115610ffe576040517f08c379a000000000000000000000000000000000000000000000000000000000815260040180806020018281038252601e8152602001807f536166654d6174683a207375627472616374696f6e206f766572666c6f77000081525060200191505060405180910390fd5b81830390509291505056fe536166654d6174683a206d756c7469706c69636174696f6e206f766572666c6f77a264697066735822122070dab3b0bed04ea843766ffc0f82eb13a0d9fed6d571e687e17c70ca7fd909e964736f6c63430007050033",
  "linkReferences": {},
  "deployedLinkReferences": {}
}