{
  "_format": "hh-sol-artifact-1",
  "contractName": "VaultPriceFeedFacet",
  "sourceName": "contracts/facets/VaultPriceFeed/VaultPriceFeedFacet.sol",
  "abi": [
    {
      "inputs": [
        {
          "internalType": "address",
          "name": "_token",
          "type": "address"
        },
        {
          "internalType": "uint256",
          "name": "_primaryPrice",
          "type": "uint256"
        }
      ],
      "name": "getAmmPrice",
      "outputs": [
        {
          "internalType": "uint256",
          "name": "",
          "type": "uint256"
        }
      ],
      "stateMutability": "view",
      "type": "function"
    },
    {
      "inputs": [
        {
          "internalType": "address",
          "name": "_pair",
          "type": "address"
        },
        {
          "internalType": "bool",
          "name": "_divByReserve0",
          "type": "bool"
        }
      ],
      "name": "getPairPrice",
      "outputs": [
        {
          "internalType": "uint256",
          "name": "",
          "type": "uint256"
        }
      ],
      "stateMutability": "view",
      "type": "function"
    },
    {
      "inputs": [
        {
          "internalType": "address",
          "name": "_token",
          "type": "address"
        },
        {
          "internalType": "bool",
          "name": "_maximise",
          "type": "bool"
        },
        {
          "internalType": "bool",
          "name": "_includeAmmPrice",
          "type": "bool"
        }
      ],
      "name": "getPrice",
      "outputs": [
        {
          "internalType": "uint256",
          "name": "",
          "type": "uint256"
        }
      ],
      "stateMutability": "view",
      "type": "function"
    },
    {
      "inputs": [
        {
          "internalType": "address",
          "name": "_token",
          "type": "address"
        },
        {
          "internalType": "bool",
          "name": "_maximise",
          "type": "bool"
        }
      ],
      "name": "getPrimaryPrice",
      "outputs": [
        {
          "internalType": "uint256",
          "name": "",
          "type": "uint256"
        }
      ],
      "stateMutability": "view",
      "type": "function"
    }
  ],
  "bytecode": "0x608060405234801561001057600080fd5b5060008060000160006101000a81548160ff02191690831515021790555061154d8061003d6000396000f3fe608060405234801561001057600080fd5b506004361061004c5760003560e01c806356c8c2c1146100515780635ae6916314610081578063a2ad7b93146100b1578063e5d902ff146100e1575b600080fd5b61006b60048036038101906100669190610cd6565b610111565b6040516100789190610d2f565b60405180910390f35b61009b60048036038101906100969190610d4a565b610574565b6040516100a89190610d2f565b60405180910390f35b6100cb60048036038101906100c69190610cd6565b610859565b6040516100d89190610d2f565b60405180910390f35b6100fb60048036038101906100f69190610dc9565b610998565b6040516101089190610d2f565b60405180910390f35b600080600060150160008573ffffffffffffffffffffffffffffffffffffffff1673ffffffffffffffffffffffffffffffffffffffff16815260200190815260200160002060009054906101000a900473ffffffffffffffffffffffffffffffffffffffff169050600073ffffffffffffffffffffffffffffffffffffffff168173ffffffffffffffffffffffffffffffffffffffff1614156101e9576040517f08c379a00000000000000000000000000000000000000000000000000000000081526004016101e090610e66565b60405180910390fd5b60008190506000808273ffffffffffffffffffffffffffffffffffffffff1663668a0f026040518163ffffffff1660e01b8152600401602060405180830381865afa15801561023c573d6000803e3d6000fd5b505050506040513d601f19601f820116820180604052508101906102609190610ec8565b905060005b60018169ffffffffffffffffffff16101561049f578069ffffffffffffffffffff168269ffffffffffffffffffff161161029e5761049f565b6000808269ffffffffffffffffffff1614156103735760008573ffffffffffffffffffffffffffffffffffffffff166350d25bcd6040518163ffffffff1660e01b8152600401602060405180830381865afa158015610301573d6000803e3d6000fd5b505050506040513d601f19601f820116820180604052508101906103259190610f2b565b90506000811361036a576040517f08c379a000000000000000000000000000000000000000000000000000000000815260040161036190610fa4565b60405180910390fd5b80915050610448565b60008573ffffffffffffffffffffffffffffffffffffffff16639a6fc8f5848661039d9190610ff3565b6040518263ffffffff1660e01b81526004016103b99190611036565b60a060405180830381865afa1580156103d6573d6000803e3d6000fd5b505050506040513d601f19601f820116820180604052508101906103fa9190611066565b50505091505060008113610443576040517f08c379a000000000000000000000000000000000000000000000000000000000815260040161043a90610fa4565b60405180910390fd5b809150505b600084141561045a578093505061048c565b87801561046657508381115b15610474578093505061048c565b8715801561048157508381105b1561048a578093505b505b8080610497906110e1565b915050610265565b50600082116104e3576040517f08c379a00000000000000000000000000000000000000000000000000000000081526004016104da90611160565b60405180910390fd5b60008060160160008973ffffffffffffffffffffffffffffffffffffffff1673ffffffffffffffffffffffffffffffffffffffff16815260200190815260200160002054905061056781600a61053991906112b3565b6105596c0c9f2c9cd04674edea4000000086610be390919063ffffffff16565b610bf990919063ffffffff16565b9550505050505092915050565b600080600060150160008673ffffffffffffffffffffffffffffffffffffffff1673ffffffffffffffffffffffffffffffffffffffff16815260200190815260200160002060009054906101000a900473ffffffffffffffffffffffffffffffffffffffff16905060008060170160008773ffffffffffffffffffffffffffffffffffffffff1673ffffffffffffffffffffffffffffffffffffffff16815260200190815260200160002054905060008073ffffffffffffffffffffffffffffffffffffffff168373ffffffffffffffffffffffffffffffffffffffff1614610668576106618787610111565b90506107b2565b8480156107045750600073ffffffffffffffffffffffffffffffffffffffff16600060180160008973ffffffffffffffffffffffffffffffffffffffff1673ffffffffffffffffffffffffffffffffffffffff16815260200190815260200160002060009054906101000a900473ffffffffffffffffffffffffffffffffffffffff1673ffffffffffffffffffffffffffffffffffffffff1614155b801561079f5750600073ffffffffffffffffffffffffffffffffffffffff16600060190160008973ffffffffffffffffffffffffffffffffffffffff1673ffffffffffffffffffffffffffffffffffffffff16815260200190815260200160002060009054906101000a900473ffffffffffffffffffffffffffffffffffffffff1673ffffffffffffffffffffffffffffffffffffffff1614155b156107b1576107ae8782610998565b90505b5b60008114156107c657809350505050610852565b8515610811576108076127106107f96107ea85612710610c0f90919063ffffffff16565b84610be390919063ffffffff16565b610bf990919063ffffffff16565b9350505050610852565b61084c61271061083e61082f85612710610c2590919063ffffffff16565b84610be390919063ffffffff16565b610bf990919063ffffffff16565b93505050505b9392505050565b60008060008473ffffffffffffffffffffffffffffffffffffffff16630902f1ac6040518163ffffffff1660e01b8152600401606060405180830381865afa1580156108a9573d6000803e3d6000fd5b505050506040513d601f19601f820116820180604052508101906108cd9190611380565b506dffffffffffffffffffffffffffff1691506dffffffffffffffffffffffffffff169150831561094757600082141561090c57600092505050610992565b61093e826109306c0c9f2c9cd04674edea4000000084610be390919063ffffffff16565b610bf990919063ffffffff16565b92505050610992565b600081141561095b57600092505050610992565b61098d8161097f6c0c9f2c9cd04674edea4000000085610be390919063ffffffff16565b610bf990919063ffffffff16565b925050505b92915050565b600080600060180160008573ffffffffffffffffffffffffffffffffffffffff1673ffffffffffffffffffffffffffffffffffffffff16815260200190815260200160002060009054906101000a900473ffffffffffffffffffffffffffffffffffffffff16905060008060190160008673ffffffffffffffffffffffffffffffffffffffff1673ffffffffffffffffffffffffffffffffffffffff16815260200190815260200160002060009054906101000a900473ffffffffffffffffffffffffffffffffffffffff1690506000610a73836000610859565b90506000610a82836000610859565b90508273ffffffffffffffffffffffffffffffffffffffff168473ffffffffffffffffffffffffffffffffffffffff161415610b2457610b19600060160160008973ffffffffffffffffffffffffffffffffffffffff1673ffffffffffffffffffffffffffffffffffffffff16815260200190815260200160002054600a610b0a91906112b3565b83610be390919063ffffffff16565b945050505050610bdd565b6000821480610b335750600081145b15610b445785945050505050610bdd565b610bd66c0c9f2c9cd04674edea40000000610bc8600060160160008b73ffffffffffffffffffffffffffffffffffffffff1673ffffffffffffffffffffffffffffffffffffffff16815260200190815260200160002054600a610ba791906112b3565b610bba8587610be390919063ffffffff16565b610be390919063ffffffff16565b610bf990919063ffffffff16565b9450505050505b92915050565b60008183610bf191906113d3565b905092915050565b60008183610c07919061145c565b905092915050565b60008183610c1d919061148d565b905092915050565b60008183610c3391906114e3565b905092915050565b600080fd5b600073ffffffffffffffffffffffffffffffffffffffff82169050919050565b6000610c6b82610c40565b9050919050565b610c7b81610c60565b8114610c8657600080fd5b50565b600081359050610c9881610c72565b92915050565b60008115159050919050565b610cb381610c9e565b8114610cbe57600080fd5b50565b600081359050610cd081610caa565b92915050565b60008060408385031215610ced57610cec610c3b565b5b6000610cfb85828601610c89565b9250506020610d0c85828601610cc1565b9150509250929050565b6000819050919050565b610d2981610d16565b82525050565b6000602082019050610d446000830184610d20565b92915050565b600080600060608486031215610d6357610d62610c3b565b5b6000610d7186828701610c89565b9350506020610d8286828701610cc1565b9250506040610d9386828701610cc1565b9150509250925092565b610da681610d16565b8114610db157600080fd5b50565b600081359050610dc381610d9d565b92915050565b60008060408385031215610de057610ddf610c3b565b5b6000610dee85828601610c89565b9250506020610dff85828601610db4565b9150509250929050565b600082825260208201905092915050565b7f5072696365466565643a20696e76616c69642070726963652066656564000000600082015250565b6000610e50601d83610e09565b9150610e5b82610e1a565b602082019050919050565b60006020820190508181036000830152610e7f81610e43565b9050919050565b600069ffffffffffffffffffff82169050919050565b610ea581610e86565b8114610eb057600080fd5b50565b600081519050610ec281610e9c565b92915050565b600060208284031215610ede57610edd610c3b565b5b6000610eec84828501610eb3565b91505092915050565b6000819050919050565b610f0881610ef5565b8114610f1357600080fd5b50565b600081519050610f2581610eff565b92915050565b600060208284031215610f4157610f40610c3b565b5b6000610f4f84828501610f16565b91505092915050565b7f5072696365466565643a20696e76616c69642070726963650000000000000000600082015250565b6000610f8e601883610e09565b9150610f9982610f58565b602082019050919050565b60006020820190508181036000830152610fbd81610f81565b9050919050565b7f4e487b7100000000000000000000000000000000000000000000000000000000600052601160045260246000fd5b6000610ffe82610e86565b915061100983610e86565b92508282101561101c5761101b610fc4565b5b828203905092915050565b61103081610e86565b82525050565b600060208201905061104b6000830184611027565b92915050565b60008151905061106081610d9d565b92915050565b600080600080600060a0868803121561108257611081610c3b565b5b600061109088828901610eb3565b95505060206110a188828901610f16565b94505060406110b288828901611051565b93505060606110c388828901611051565b92505060806110d488828901610eb3565b9150509295509295909350565b60006110ec82610e86565b915069ffffffffffffffffffff82141561110957611108610fc4565b5b600182019050919050565b7f5072696365466565643a20636f756c64206e6f74206665746368207072696365600082015250565b600061114a602083610e09565b915061115582611114565b602082019050919050565b600060208201905081810360008301526111798161113d565b9050919050565b60008160011c9050919050565b6000808291508390505b60018511156111d7578086048111156111b3576111b2610fc4565b5b60018516156111c25780820291505b80810290506111d085611180565b9450611197565b94509492505050565b6000826111f057600190506112ac565b816111fe57600090506112ac565b8160018114611214576002811461121e5761124d565b60019150506112ac565b60ff8411156112305761122f610fc4565b5b8360020a91508482111561124757611246610fc4565b5b506112ac565b5060208310610133831016604e8410600b84101617156112825782820a90508381111561127d5761127c610fc4565b5b6112ac565b61128f848484600161118d565b925090508184048111156112a6576112a5610fc4565b5b81810290505b9392505050565b60006112be82610d16565b91506112c983610d16565b92506112f67fffffffffffffffffffffffffffffffffffffffffffffffffffffffffffffffff84846111e0565b905092915050565b60006dffffffffffffffffffffffffffff82169050919050565b611321816112fe565b811461132c57600080fd5b50565b60008151905061133e81611318565b92915050565b600063ffffffff82169050919050565b61135d81611344565b811461136857600080fd5b50565b60008151905061137a81611354565b92915050565b60008060006060848603121561139957611398610c3b565b5b60006113a78682870161132f565b93505060206113b88682870161132f565b92505060406113c98682870161136b565b9150509250925092565b60006113de82610d16565b91506113e983610d16565b9250817fffffffffffffffffffffffffffffffffffffffffffffffffffffffffffffffff048311821515161561142257611421610fc4565b5b828202905092915050565b7f4e487b7100000000000000000000000000000000000000000000000000000000600052601260045260246000fd5b600061146782610d16565b915061147283610d16565b9250826114825761148161142d565b5b828204905092915050565b600061149882610d16565b91506114a383610d16565b9250827fffffffffffffffffffffffffffffffffffffffffffffffffffffffffffffffff038211156114d8576114d7610fc4565b5b828201905092915050565b60006114ee82610d16565b91506114f983610d16565b92508282101561150c5761150b610fc4565b5b82820390509291505056fea2646970667358221220543a7a35211e4af17d047d94f9a6204e90ddcf693aa44fd9bd28280b1321344964736f6c634300080a0033",
  "linkReferences": {},
  "deployedLinkReferences": {}
}