{
  "_format": "hh-sol-artifact-1",
  "contractName": "TestableVM",
  "sourceName": "contracts/weiroll/TestableVM.sol",
  "abi": [
    {
      "inputs": [
        {
          "internalType": "contract VM",
          "name": "_vm",
          "type": "address"
        }
      ],
      "stateMutability": "nonpayable",
      "type": "constructor"
    },
    {
      "inputs": [
        {
          "internalType": "bytes32[]",
          "name": "commands",
          "type": "bytes32[]"
        },
        {
          "internalType": "bytes[]",
          "name": "state",
          "type": "bytes[]"
        }
      ],
      "name": "execute",
      "outputs": [
        {
          "internalType": "bytes[]",
          "name": "",
          "type": "bytes[]"
        }
      ],
      "stateMutability": "nonpayable",
      "type": "function"
    },
    {
      "inputs": [],
      "name": "vm",
      "outputs": [
        {
          "internalType": "contract VM",
          "name": "",
          "type": "address"
        }
      ],
      "stateMutability": "view",
      "type": "function"
    }
  ],
  "bytecode": "0x608060405234801561001057600080fd5b50604051610b79380380610b79833981810160405281019061003291906100ed565b806000806101000a81548173ffffffffffffffffffffffffffffffffffffffff021916908373ffffffffffffffffffffffffffffffffffffffff1602179055505061011a565b600080fd5b600073ffffffffffffffffffffffffffffffffffffffff82169050919050565b60006100a88261007d565b9050919050565b60006100ba8261009d565b9050919050565b6100ca816100af565b81146100d557600080fd5b50565b6000815190506100e7816100c1565b92915050565b60006020828403121561010357610102610078565b5b6000610111848285016100d8565b91505092915050565b610a50806101296000396000f3fe608060405234801561001057600080fd5b50600436106100365760003560e01c80633a7684631461003b578063de792d5f14610059575b600080fd5b610043610089565b6040516100509190610293565b60405180910390f35b610073600480360381019061006e9190610549565b6100ad565b604051610080919061070f565b60405180910390f35b60008054906101000a900473ffffffffffffffffffffffffffffffffffffffff1681565b606060008060008054906101000a900473ffffffffffffffffffffffffffffffffffffffff1673ffffffffffffffffffffffffffffffffffffffff1663de792d5f60e01b878787604051602401610106939291906107a3565b604051602081830303815290604052907bffffffffffffffffffffffffffffffffffffffffffffffffffffffff19166020820180517bffffffffffffffffffffffffffffffffffffffffffffffffffffffff83818316178352505050506040516101709190610818565b600060405180830381855af49150503d80600081146101ab576040519150601f19603f3d011682016040523d82523d6000602084013e6101b0565b606091505b5091509150816101f5576040517f08c379a00000000000000000000000000000000000000000000000000000000081526004016101ec9061088c565b60405180910390fd5b8080602001905181019061020991906109d1565b925050509392505050565b600073ffffffffffffffffffffffffffffffffffffffff82169050919050565b6000819050919050565b600061025961025461024f84610214565b610234565b610214565b9050919050565b600061026b8261023e565b9050919050565b600061027d82610260565b9050919050565b61028d81610272565b82525050565b60006020820190506102a86000830184610284565b92915050565b6000604051905090565b600080fd5b600080fd5b600080fd5b600080fd5b600080fd5b60008083601f8401126102e7576102e66102c2565b5b8235905067ffffffffffffffff811115610304576103036102c7565b5b6020830191508360208202830111156103205761031f6102cc565b5b9250929050565b6000601f19601f8301169050919050565b7f4e487b7100000000000000000000000000000000000000000000000000000000600052604160045260246000fd5b61037082610327565b810181811067ffffffffffffffff8211171561038f5761038e610338565b5b80604052505050565b60006103a26102ae565b90506103ae8282610367565b919050565b600067ffffffffffffffff8211156103ce576103cd610338565b5b602082029050602081019050919050565b600080fd5b600067ffffffffffffffff8211156103ff576103fe610338565b5b61040882610327565b9050602081019050919050565b82818337600083830152505050565b6000610437610432846103e4565b610398565b905082815260208101848484011115610453576104526103df565b5b61045e848285610415565b509392505050565b600082601f83011261047b5761047a6102c2565b5b813561048b848260208601610424565b91505092915050565b60006104a76104a2846103b3565b610398565b905080838252602082019050602084028301858111156104ca576104c96102cc565b5b835b8181101561051157803567ffffffffffffffff8111156104ef576104ee6102c2565b5b8086016104fc8982610466565b855260208501945050506020810190506104cc565b5050509392505050565b600082601f8301126105305761052f6102c2565b5b8135610540848260208601610494565b91505092915050565b600080600060408486031215610562576105616102b8565b5b600084013567ffffffffffffffff8111156105805761057f6102bd565b5b61058c868287016102d1565b9350935050602084013567ffffffffffffffff8111156105af576105ae6102bd565b5b6105bb8682870161051b565b9150509250925092565b600081519050919050565b600082825260208201905092915050565b6000819050602082019050919050565b600081519050919050565b600082825260208201905092915050565b60005b8381101561062b578082015181840152602081019050610610565b8381111561063a576000848401525b50505050565b600061064b826105f1565b61065581856105fc565b935061066581856020860161060d565b61066e81610327565b840191505092915050565b60006106858383610640565b905092915050565b6000602082019050919050565b60006106a5826105c5565b6106af81856105d0565b9350836020820285016106c1856105e1565b8060005b858110156106fd57848403895281516106de8582610679565b94506106e98361068d565b925060208a019950506001810190506106c5565b50829750879550505050505092915050565b60006020820190508181036000830152610729818461069a565b905092915050565b600082825260208201905092915050565b600080fd5b60006107538385610731565b93507f07ffffffffffffffffffffffffffffffffffffffffffffffffffffffffffffff83111561078657610785610742565b5b602083029250610797838584610415565b82840190509392505050565b600060408201905081810360008301526107be818587610747565b905081810360208301526107d2818461069a565b9050949350505050565b600081905092915050565b60006107f2826105f1565b6107fc81856107dc565b935061080c81856020860161060d565b80840191505092915050565b600061082482846107e7565b915081905092915050565b600082825260208201905092915050565b7f5465737461626c65564d3a20657865637574696f6e206661696c656400000000600082015250565b6000610876601c8361082f565b915061088182610840565b602082019050919050565b600060208201905081810360008301526108a581610869565b9050919050565b60006108bf6108ba846103e4565b610398565b9050828152602081018484840111156108db576108da6103df565b5b6108e684828561060d565b509392505050565b600082601f830112610903576109026102c2565b5b81516109138482602086016108ac565b91505092915050565b600061092f61092a846103b3565b610398565b90508083825260208201905060208402830185811115610952576109516102cc565b5b835b8181101561099957805167ffffffffffffffff811115610977576109766102c2565b5b80860161098489826108ee565b85526020850194505050602081019050610954565b5050509392505050565b600082601f8301126109b8576109b76102c2565b5b81516109c884826020860161091c565b91505092915050565b6000602082840312156109e7576109e66102b8565b5b600082015167ffffffffffffffff811115610a0557610a046102bd565b5b610a11848285016109a3565b9150509291505056fea2646970667358221220ae67aa346373e6a93de491ec028f4b809cd1c1b78a038fc67b2eca4a7ab5bafc64736f6c634300080a0033",
  "linkReferences": {},
  "deployedLinkReferences": {}
}