{
  "_format": "hh-sol-artifact-1",
  "contractName": "TestableVM",
  "sourceName": "contracts/weiroll/TestableVM.sol",
  "abi": [
    {
      "inputs": [
        {
          "internalType": "contract VM",
          "name": "_vm",
          "type": "address"
        }
      ],
      "stateMutability": "nonpayable",
      "type": "constructor"
    },
    {
      "inputs": [
        {
          "internalType": "bytes32[]",
          "name": "commands",
          "type": "bytes32[]"
        },
        {
          "internalType": "bytes[]",
          "name": "state",
          "type": "bytes[]"
        }
      ],
      "name": "execute",
      "outputs": [
        {
          "internalType": "bytes[]",
          "name": "",
          "type": "bytes[]"
        }
      ],
      "stateMutability": "nonpayable",
      "type": "function"
    },
    {
      "inputs": [],
      "name": "vm",
      "outputs": [
        {
          "internalType": "contract VM",
          "name": "",
          "type": "address"
        }
      ],
      "stateMutability": "view",
      "type": "function"
    }
  ],
  "bytecode": "0x608060405234801561001057600080fd5b50604051610b6d380380610b6d8339818101604052810190610032919061008d565b806000806101000a81548173ffffffffffffffffffffffffffffffffffffffff021916908373ffffffffffffffffffffffffffffffffffffffff1602179055505061011a565b60008151905061008781610103565b92915050565b6000602082840312156100a3576100a26100fe565b5b60006100b184828501610078565b91505092915050565b60006100c5826100de565b9050919050565b60006100d7826100ba565b9050919050565b600073ffffffffffffffffffffffffffffffffffffffff82169050919050565b600080fd5b61010c816100cc565b811461011757600080fd5b50565b610a44806101296000396000f3fe608060405234801561001057600080fd5b50600436106100365760003560e01c80633a7684631461003b578063de792d5f14610059575b600080fd5b610043610089565b604051610050919061077a565b60405180910390f35b610073600480360381019061006e91906104c2565b6100ad565b6040516100809190610758565b60405180910390f35b60008054906101000a900473ffffffffffffffffffffffffffffffffffffffff1681565b606060008060008054906101000a900473ffffffffffffffffffffffffffffffffffffffff1673ffffffffffffffffffffffffffffffffffffffff1663de792d5f60e01b8787876040516024016101069392919061071f565b604051602081830303815290604052907bffffffffffffffffffffffffffffffffffffffffffffffffffffffff19166020820180517bffffffffffffffffffffffffffffffffffffffffffffffffffffffff83818316178352505050506040516101709190610708565b600060405180830381855af49150503d80600081146101ab576040519150601f19603f3d011682016040523d82523d6000602084013e6101b0565b606091505b5091509150816101f5576040517f08c379a00000000000000000000000000000000000000000000000000000000081526004016101ec90610795565b60405180910390fd5b80806020019051810190610209919061053e565b925050509392505050565b6000610227610222846107da565b6107b5565b9050808382526020820190508285602086028201111561024a576102496109bb565b5b60005b8581101561029857813567ffffffffffffffff8111156102705761026f6109b6565b5b80860161027d8982610466565b8552602085019450602084019350505060018101905061024d565b5050509392505050565b60006102b56102b0846107da565b6107b5565b905080838252602082019050828560208602820111156102d8576102d76109bb565b5b60005b8581101561032657815167ffffffffffffffff8111156102fe576102fd6109b6565b5b80860161030b8982610494565b855260208501945060208401935050506001810190506102db565b5050509392505050565b600061034361033e84610806565b6107b5565b90508281526020810184848401111561035f5761035e6109c0565b5b61036a84828561090f565b509392505050565b600061038561038084610806565b6107b5565b9050828152602081018484840111156103a1576103a06109c0565b5b6103ac84828561091e565b509392505050565b60008083601f8401126103ca576103c96109b6565b5b8235905067ffffffffffffffff8111156103e7576103e66109b1565b5b602083019150836020820283011115610403576104026109bb565b5b9250929050565b600082601f83011261041f5761041e6109b6565b5b813561042f848260208601610214565b91505092915050565b600082601f83011261044d5761044c6109b6565b5b815161045d8482602086016102a2565b91505092915050565b600082601f83011261047b5761047a6109b6565b5b813561048b848260208601610330565b91505092915050565b600082601f8301126104a9576104a86109b6565b5b81516104b9848260208601610372565b91505092915050565b6000806000604084860312156104db576104da6109cf565b5b600084013567ffffffffffffffff8111156104f9576104f86109c5565b5b610505868287016103b4565b9350935050602084013567ffffffffffffffff811115610528576105276109c5565b5b6105348682870161040a565b9150509250925092565b600060208284031215610554576105536109cf565b5b600082015167ffffffffffffffff811115610572576105716109c5565b5b61057e84828501610438565b91505092915050565b6000610593838361066c565b905092915050565b60006105a7838561086a565b93507f07ffffffffffffffffffffffffffffffffffffffffffffffffffffffffffffff8311156105da576105d96109ca565b5b6020830292506105eb83858461090f565b82840190509392505050565b600061060282610847565b61060c818561087b565b93508360208202850161061e85610837565b8060005b8581101561065a578484038952815161063b8582610587565b94506106468361085d565b925060208a01995050600181019050610622565b50829750879550505050505092915050565b600061067782610852565b610681818561088c565b935061069181856020860161091e565b61069a816109d4565b840191505092915050565b60006106b082610852565b6106ba818561089d565b93506106ca81856020860161091e565b80840191505092915050565b6106df816108d9565b82525050565b60006106f2601c836108a8565b91506106fd826109e5565b602082019050919050565b600061071482846106a5565b915081905092915050565b6000604082019050818103600083015261073a81858761059b565b9050818103602083015261074e81846105f7565b9050949350505050565b6000602082019050818103600083015261077281846105f7565b905092915050565b600060208201905061078f60008301846106d6565b92915050565b600060208201905081810360008301526107ae816106e5565b9050919050565b60006107bf6107d0565b90506107cb8282610951565b919050565b6000604051905090565b600067ffffffffffffffff8211156107f5576107f4610982565b5b602082029050602081019050919050565b600067ffffffffffffffff82111561082157610820610982565b5b61082a826109d4565b9050602081019050919050565b6000819050602082019050919050565b600081519050919050565b600081519050919050565b6000602082019050919050565b600082825260208201905092915050565b600082825260208201905092915050565b600082825260208201905092915050565b600081905092915050565b600082825260208201905092915050565b600073ffffffffffffffffffffffffffffffffffffffff82169050919050565b60006108e4826108eb565b9050919050565b60006108f6826108fd565b9050919050565b6000610908826108b9565b9050919050565b82818337600083830152505050565b60005b8381101561093c578082015181840152602081019050610921565b8381111561094b576000848401525b50505050565b61095a826109d4565b810181811067ffffffffffffffff8211171561097957610978610982565b5b80604052505050565b7f4e487b7100000000000000000000000000000000000000000000000000000000600052604160045260246000fd5b600080fd5b600080fd5b600080fd5b600080fd5b600080fd5b600080fd5b600080fd5b6000601f19601f8301169050919050565b7f5465737461626c65564d3a20657865637574696f6e206661696c65640000000060008201525056fea2646970667358221220349934e542d3c4e6e134c37054d1a40b6f14ed2f9c8fc703a2237a1d05d6cfad64736f6c63430008070033",
  "linkReferences": {},
  "deployedLinkReferences": {}
}