{
  "_format": "hh-sol-artifact-1",
  "contractName": "BondConfigFacet",
  "sourceName": "contracts/facets/Bond/BondConfigFacet.sol",
  "abi": [
    {
      "inputs": [
        {
          "internalType": "address",
          "name": "_recipient",
          "type": "address"
        },
        {
          "internalType": "uint256",
          "name": "_rewardRate",
          "type": "uint256"
        }
      ],
      "name": "addRecipient",
      "outputs": [],
      "stateMutability": "nonpayable",
      "type": "function"
    },
    {
      "inputs": [
        {
          "internalType": "address",
          "name": "_ndol",
          "type": "address"
        },
        {
          "internalType": "address",
          "name": "_Necc",
          "type": "address"
        },
        {
          "internalType": "address",
          "name": "_treasury",
          "type": "address"
        },
        {
          "internalType": "address",
          "name": "_DAO",
          "type": "address"
        }
      ],
      "name": "initializeBondDepository",
      "outputs": [],
      "stateMutability": "nonpayable",
      "type": "function"
    },
    {
      "inputs": [
        {
          "internalType": "uint256",
          "name": "_controlVariable",
          "type": "uint256"
        },
        {
          "internalType": "uint256",
          "name": "_minimumPrice",
          "type": "uint256"
        },
        {
          "internalType": "uint256",
          "name": "_maxPayout",
          "type": "uint256"
        },
        {
          "internalType": "uint256",
          "name": "_fee",
          "type": "uint256"
        },
        {
          "internalType": "uint256",
          "name": "_maxDebt",
          "type": "uint256"
        },
        {
          "internalType": "uint256",
          "name": "_initialDebt",
          "type": "uint256"
        },
        {
          "internalType": "uint256",
          "name": "_vestingTerm",
          "type": "uint256"
        },
        {
          "internalType": "bool",
          "name": "_isLiquidityBond",
          "type": "bool"
        },
        {
          "internalType": "address",
          "name": "_priceFeed",
          "type": "address"
        },
        {
          "internalType": "address",
          "name": "_principle",
          "type": "address"
        }
      ],
      "name": "initializeBondTerms",
      "outputs": [],
      "stateMutability": "nonpayable",
      "type": "function"
    },
    {
      "inputs": [
        {
          "internalType": "uint256",
          "name": "_epochLength",
          "type": "uint256"
        },
        {
          "internalType": "uint256",
          "name": "_nextEpochTimestamp",
          "type": "uint256"
        },
        {
          "internalType": "address",
          "name": "_principle",
          "type": "address"
        }
      ],
      "name": "initializeDistributor",
      "outputs": [],
      "stateMutability": "nonpayable",
      "type": "function"
    },
    {
      "inputs": [
        {
          "internalType": "uint256",
          "name": "_firstEpochNumber",
          "type": "uint256"
        },
        {
          "internalType": "uint32",
          "name": "_firstEpochTime",
          "type": "uint32"
        },
        {
          "internalType": "address",
          "name": "_sNecc",
          "type": "address"
        },
        {
          "internalType": "address",
          "name": "_nNecc",
          "type": "address"
        }
      ],
      "name": "initializeStaking",
      "outputs": [],
      "stateMutability": "nonpayable",
      "type": "function"
    },
    {
      "inputs": [
        {
          "internalType": "address",
          "name": "_token",
          "type": "address"
        }
      ],
      "name": "recoverLostToken",
      "outputs": [
        {
          "internalType": "bool",
          "name": "",
          "type": "bool"
        }
      ],
      "stateMutability": "nonpayable",
      "type": "function"
    },
    {
      "inputs": [
        {
          "internalType": "uint256",
          "name": "_index",
          "type": "uint256"
        },
        {
          "internalType": "address",
          "name": "_recipient",
          "type": "address"
        }
      ],
      "name": "removeRecipient",
      "outputs": [],
      "stateMutability": "nonpayable",
      "type": "function"
    },
    {
      "inputs": [
        {
          "internalType": "bool",
          "name": "_addition",
          "type": "bool"
        },
        {
          "internalType": "uint256",
          "name": "_delta",
          "type": "uint256"
        },
        {
          "internalType": "uint256",
          "name": "_timeToTargetInSeconds",
          "type": "uint256"
        },
        {
          "internalType": "address",
          "name": "_principle",
          "type": "address"
        }
      ],
      "name": "setAdjustment",
      "outputs": [],
      "stateMutability": "nonpayable",
      "type": "function"
    },
    {
      "inputs": [
        {
          "internalType": "uint256",
          "name": "_index",
          "type": "uint256"
        },
        {
          "internalType": "bool",
          "name": "_add",
          "type": "bool"
        },
        {
          "internalType": "uint256",
          "name": "_rate",
          "type": "uint256"
        },
        {
          "internalType": "uint256",
          "name": "_target",
          "type": "uint256"
        }
      ],
      "name": "setAdjustment",
      "outputs": [],
      "stateMutability": "nonpayable",
      "type": "function"
    },
    {
      "inputs": [
        {
          "internalType": "enum PARAMETER",
          "name": "_parameter",
          "type": "uint8"
        },
        {
          "internalType": "uint256",
          "name": "_input",
          "type": "uint256"
        },
        {
          "internalType": "address",
          "name": "_principle",
          "type": "address"
        }
      ],
      "name": "setBondTerms",
      "outputs": [],
      "stateMutability": "nonpayable",
      "type": "function"
    },
    {
      "inputs": [
        {
          "internalType": "enum CONTRACTS",
          "name": "_contract",
          "type": "uint8"
        },
        {
          "internalType": "address",
          "name": "_address",
          "type": "address"
        }
      ],
      "name": "setContract",
      "outputs": [],
      "stateMutability": "nonpayable",
      "type": "function"
    },
    {
      "inputs": [
        {
          "internalType": "address",
          "name": "_farmDistributor",
          "type": "address"
        }
      ],
      "name": "setFarmDistributor",
      "outputs": [],
      "stateMutability": "nonpayable",
      "type": "function"
    },
    {
      "inputs": [
        {
          "internalType": "uint256",
          "name": "_warmupPeriod",
          "type": "uint256"
        }
      ],
      "name": "setWarmup",
      "outputs": [],
      "stateMutability": "nonpayable",
      "type": "function"
    },
    {
      "inputs": [
        {
          "internalType": "address",
          "name": "_maliciousDepositor",
          "type": "address"
        }
      ],
      "name": "toggleDepositLock",
      "outputs": [],
      "stateMutability": "nonpayable",
      "type": "function"
    }
  ],
  "bytecode": "0x608060405234801561001057600080fd5b5061267a806100206000396000f3fe608060405234801561001057600080fd5b50600436106100ea5760003560e01c8063b00785cc1161008c578063d247cfe911610066578063d247cfe91461021b578063f54fef4014610237578063f798224314610253578063fe3fbbad1461026f576100ea565b8063b00785cc146101b3578063b4abccba146101cf578063c9f464ff146101ff576100ea565b80634a30c463116100c85780634a30c463146101435780635db854b01461015f578063865e6fd31461017b5780638e9068e614610197576100ea565b806307cafdfc146100ef578063128bae671461010b57806319b59e9714610127575b600080fd5b6101096004803603810190610104919061188e565b61028b565b005b61012560048036038101906101209190611929565b6102da565b005b610141600480360381019061013c91906119cc565b6104a4565b005b61015d60048036038101906101589190611a33565b610603565b005b61017960048036038101906101749190611a9a565b610808565b005b61019560048036038101906101909190611b26565b610880565b005b6101b160048036038101906101ac919061188e565b610991565b005b6101cd60048036038101906101c89190611b66565b610a4c565b005b6101e960048036038101906101e4919061188e565b610c4e565b6040516101f69190611c54565b60405180910390f35b61021960048036038101906102149190611c6f565b610d97565b005b61023560048036038101906102309190611c9c565b610dac565b005b610251600480360381019061024c9190611d14565b610def565b005b61026d60048036038101906102689190611d67565b611074565b005b61028960048036038101906102849190611da7565b611166565b005b610293611286565b80600060060160006101000a81548173ffffffffffffffffffffffffffffffffffffffff021916908373ffffffffffffffffffffffffffffffffffffffff16021790555050565b60006102e4611290565b90503073ffffffffffffffffffffffffffffffffffffffff163373ffffffffffffffffffffffffffffffffffffffff16148061036f57508060040160009054906101000a900473ffffffffffffffffffffffffffffffffffffffff1673ffffffffffffffffffffffffffffffffffffffff163373ffffffffffffffffffffffffffffffffffffffff16145b6103ae576040517f08c379a00000000000000000000000000000000000000000000000000000000081526004016103a590611e6a565b60405180910390fd5b60006103c48360006112bd90919063ffffffff16565b90506000600a01600080815260200190815260200160002060050154841015610422576040517f08c379a000000000000000000000000000000000000000000000000000000000815260040161041990611ed6565b60405180910390fd5b60405180608001604052808715158152602001868152602001858152602001428152506000600b01600083815260200190815260200160002060008201518160000160006101000a81548160ff021916908315150217905550602082015181600101556040820151816002015560608201518160030155905050505050505050565b600073ffffffffffffffffffffffffffffffffffffffff168273ffffffffffffffffffffffffffffffffffffffff1614156104de57600080fd5b600073ffffffffffffffffffffffffffffffffffffffff168173ffffffffffffffffffffffffffffffffffffffff16141561051857600080fd5b81600060010160006101000a81548173ffffffffffffffffffffffffffffffffffffffff021916908373ffffffffffffffffffffffffffffffffffffffff16021790555080600060020160006101000a81548173ffffffffffffffffffffffffffffffffffffffff021916908373ffffffffffffffffffffffffffffffffffffffff16021790555060405180608001604052808581526020016000815260200160006017015481526020018463ffffffff1681525060006013016000820151816000015560208201518160010155604082015181600201556060820151816003015590505050505050565b61060b611286565b600073ffffffffffffffffffffffffffffffffffffffff168373ffffffffffffffffffffffffffffffffffffffff16141561064557600080fd5b826000800160006101000a81548173ffffffffffffffffffffffffffffffffffffffff021916908373ffffffffffffffffffffffffffffffffffffffff160217905550600073ffffffffffffffffffffffffffffffffffffffff168273ffffffffffffffffffffffffffffffffffffffff1614156106c257600080fd5b81600060040160006101000a81548173ffffffffffffffffffffffffffffffffffffffff021916908373ffffffffffffffffffffffffffffffffffffffff160217905550600073ffffffffffffffffffffffffffffffffffffffff168173ffffffffffffffffffffffffffffffffffffffff16141561074057600080fd5b80600060050160006101000a81548173ffffffffffffffffffffffffffffffffffffffff021916908373ffffffffffffffffffffffffffffffffffffffff160217905550600073ffffffffffffffffffffffffffffffffffffffff168473ffffffffffffffffffffffffffffffffffffffff1614156107be57600080fd5b83600060030160006101000a81548173ffffffffffffffffffffffffffffffffffffffff021916908373ffffffffffffffffffffffffffffffffffffffff16021790555050505050565b610810611286565b60405180606001604052808415158152602001838152602001828152506000601201600086815260200190815260200160002060008201518160000160006101000a81548160ff021916908315150217905550602082015181600101556040820151816002015590505050505050565b610888611286565b60028081111561089b5761089a611ef6565b5b8260028111156108ae576108ad611ef6565b5b141561098d57600073ffffffffffffffffffffffffffffffffffffffff16600060190160009054906101000a900473ffffffffffffffffffffffffffffffffffffffff1673ffffffffffffffffffffffffffffffffffffffff1614610948576040517f08c379a000000000000000000000000000000000000000000000000000000000815260040161093f90611f97565b60405180910390fd5b80600060190160006101000a81548173ffffffffffffffffffffffffffffffffffffffff021916908373ffffffffffffffffffffffffffffffffffffffff1602179055505b5050565b610999611286565b6000601b0160008273ffffffffffffffffffffffffffffffffffffffff1673ffffffffffffffffffffffffffffffffffffffff16815260200190815260200160002060030160009054906101000a900460ff16156000601b0160008373ffffffffffffffffffffffffffffffffffffffff1673ffffffffffffffffffffffffffffffffffffffff16815260200190815260200160002060030160006101000a81548160ff02191690831515021790555050565b610a54611286565b610a6260006008018261133f565b506000610a798260006112bd90919063ffffffff16565b9050600080600a016000838152602001908152602001600020600001541015610ad7576040517f08c379a0000000000000000000000000000000000000000000000000000000008152600401610ace90612003565b60405180910390fd5b6040518060e001604052808c81526020018b81526020018a81526020018981526020018881526020018681526020018515158152506000600a016000838152602001908152602001600020600082015181600001556020820151816001015560408201518160020155606082015181600301556080820151816004015560a0820151816005015560c08201518160060160006101000a81548160ff021916908315150217905550905050856000600d01600083815260200190815260200160002081905550426000600e01600083815260200190815260200160002081905550600073ffffffffffffffffffffffffffffffffffffffff168373ffffffffffffffffffffffffffffffffffffffff1614610c4157826000601001600083815260200190815260200160002060006101000a81548173ffffffffffffffffffffffffffffffffffffffff021916908373ffffffffffffffffffffffffffffffffffffffff1602179055505b5050505050505050505050565b60008060000160009054906101000a900473ffffffffffffffffffffffffffffffffffffffff1673ffffffffffffffffffffffffffffffffffffffff168273ffffffffffffffffffffffffffffffffffffffff161415610cad57600080fd5b610cbb60006008018361136f565b15610cc557600080fd5b610d8e600060050160009054906101000a900473ffffffffffffffffffffffffffffffffffffffff168373ffffffffffffffffffffffffffffffffffffffff166370a08231306040518263ffffffff1660e01b8152600401610d279190612032565b602060405180830381865afa158015610d44573d6000803e3d6000fd5b505050506040513d601f19601f82011682018060405250810190610d689190612062565b8473ffffffffffffffffffffffffffffffffffffffff1661139f9092919063ffffffff16565b60019050919050565b610d9f611286565b806000601a018190555050565b6000610dc28260006112bd90919063ffffffff16565b905083600060170181905550826000600f0160008381526020019081526020016000208190555050505050565b610df7611286565b6000610e0d8260006112bd90919063ffffffff16565b905060006004811115610e2357610e22611ef6565b5b846004811115610e3657610e35611ef6565b5b1415610ea5576201fa40831015610e82576040517f08c379a0000000000000000000000000000000000000000000000000000000008152600401610e7990612101565b60405180910390fd5b826000600a0160008381526020019081526020016000206005018190555061106e565b60016004811115610eb957610eb8611ef6565b5b846004811115610ecc57610ecb611ef6565b5b1415610f3a576103e8831115610f17576040517f08c379a0000000000000000000000000000000000000000000000000000000008152600401610f0e9061216d565b60405180910390fd5b826000600a0160008381526020019081526020016000206002018190555061106d565b60026004811115610f4e57610f4d611ef6565b5b846004811115610f6157610f60611ef6565b5b1415610fcf57612710831115610fac576040517f08c379a0000000000000000000000000000000000000000000000000000000008152600401610fa3906121d9565b60405180910390fd5b826000600a0160008381526020019081526020016000206003018190555061106c565b60036004811115610fe357610fe2611ef6565b5b846004811115610ff657610ff5611ef6565b5b141561101f57826000600a0160008381526020019081526020016000206004018190555061106b565b60048081111561103257611031611ef6565b5b84600481111561104557611044611ef6565b5b141561106a57826000600a016000838152602001908152602001600020600101819055505b5b5b5b5b50505050565b61107c611286565b600073ffffffffffffffffffffffffffffffffffffffff168273ffffffffffffffffffffffffffffffffffffffff1614156110b657600080fd5b600060110160405180604001604052808381526020018473ffffffffffffffffffffffffffffffffffffffff1681525090806001815401808255809150506001900390600052602060002090600202016000909190919091506000820151816000015560208201518160010160006101000a81548173ffffffffffffffffffffffffffffffffffffffff021916908373ffffffffffffffffffffffffffffffffffffffff16021790555050505050565b61116e611286565b60006011018281548110611185576111846121f9565b5b906000526020600020906002020160010160009054906101000a900473ffffffffffffffffffffffffffffffffffffffff1673ffffffffffffffffffffffffffffffffffffffff168173ffffffffffffffffffffffffffffffffffffffff16146111ee57600080fd5b6000806011018381548110611206576112056121f9565b5b906000526020600020906002020160010160006101000a81548173ffffffffffffffffffffffffffffffffffffffff021916908373ffffffffffffffffffffffffffffffffffffffff160217905550600080601101838154811061126d5761126c6121f9565b5b9060005260206000209060020201600001819055505050565b61128e611425565b565b6000807fc8fcad8db84d3cc18b4c41d551ea0ee66dd599cde068d998e57d5e09332c131c90508091505090565b6000806112cc846008016114c0565b905060005b81811015611336578373ffffffffffffffffffffffffffffffffffffffff166112fd86600801836114d5565b73ffffffffffffffffffffffffffffffffffffffff161415611323578092505050611339565b808061132e90612257565b9150506112d1565b50505b92915050565b6000611367836000018373ffffffffffffffffffffffffffffffffffffffff1660001b6114ef565b905092915050565b6000611397836000018373ffffffffffffffffffffffffffffffffffffffff1660001b61155f565b905092915050565b6114208363a9059cbb60e01b84846040516024016113be9291906122af565b604051602081830303815290604052907bffffffffffffffffffffffffffffffffffffffffffffffffffffffff19166020820180517bffffffffffffffffffffffffffffffffffffffffffffffffffffffff8381831617835250505050611582565b505050565b61142d611290565b60040160009054906101000a900473ffffffffffffffffffffffffffffffffffffffff1673ffffffffffffffffffffffffffffffffffffffff163373ffffffffffffffffffffffffffffffffffffffff16146114be576040517f08c379a00000000000000000000000000000000000000000000000000000000081526004016114b59061234a565b60405180910390fd5b565b60006114ce82600001611649565b9050919050565b60006114e4836000018361165a565b60001c905092915050565b60006114fb838361155f565b611554578260000182908060018154018082558091505060019003906000526020600020016000909190919091505582600001805490508360010160008481526020019081526020016000208190555060019050611559565b600090505b92915050565b600080836001016000848152602001908152602001600020541415905092915050565b60006115e4826040518060400160405280602081526020017f5361666545524332303a206c6f772d6c6576656c2063616c6c206661696c65648152508573ffffffffffffffffffffffffffffffffffffffff166116859092919063ffffffff16565b90506000815111156116445780806020019051810190611604919061237f565b611643576040517f08c379a000000000000000000000000000000000000000000000000000000000815260040161163a9061241e565b60405180910390fd5b5b505050565b600081600001805490509050919050565b6000826000018281548110611672576116716121f9565b5b9060005260206000200154905092915050565b6060611694848460008561169d565b90509392505050565b6060824710156116e2576040517f08c379a00000000000000000000000000000000000000000000000000000000081526004016116d9906124b0565b60405180910390fd5b6116eb856117b1565b61172a576040517f08c379a00000000000000000000000000000000000000000000000000000000081526004016117219061251c565b60405180910390fd5b6000808673ffffffffffffffffffffffffffffffffffffffff16858760405161175391906125b6565b60006040518083038185875af1925050503d8060008114611790576040519150601f19603f3d011682016040523d82523d6000602084013e611795565b606091505b50915091506117a58282866117c4565b92505050949350505050565b600080823b905060008111915050919050565b606083156117d457829050611824565b6000835111156117e75782518084602001fd5b816040517f08c379a000000000000000000000000000000000000000000000000000000000815260040161181b9190612622565b60405180910390fd5b9392505050565b600080fd5b600073ffffffffffffffffffffffffffffffffffffffff82169050919050565b600061185b82611830565b9050919050565b61186b81611850565b811461187657600080fd5b50565b60008135905061188881611862565b92915050565b6000602082840312156118a4576118a361182b565b5b60006118b284828501611879565b91505092915050565b60008115159050919050565b6118d0816118bb565b81146118db57600080fd5b50565b6000813590506118ed816118c7565b92915050565b6000819050919050565b611906816118f3565b811461191157600080fd5b50565b600081359050611923816118fd565b92915050565b600080600080608085870312156119435761194261182b565b5b6000611951878288016118de565b945050602061196287828801611914565b935050604061197387828801611914565b925050606061198487828801611879565b91505092959194509250565b600063ffffffff82169050919050565b6119a981611990565b81146119b457600080fd5b50565b6000813590506119c6816119a0565b92915050565b600080600080608085870312156119e6576119e561182b565b5b60006119f487828801611914565b9450506020611a05878288016119b7565b9350506040611a1687828801611879565b9250506060611a2787828801611879565b91505092959194509250565b60008060008060808587031215611a4d57611a4c61182b565b5b6000611a5b87828801611879565b9450506020611a6c87828801611879565b9350506040611a7d87828801611879565b9250506060611a8e87828801611879565b91505092959194509250565b60008060008060808587031215611ab457611ab361182b565b5b6000611ac287828801611914565b9450506020611ad3878288016118de565b9350506040611ae487828801611914565b9250506060611af587828801611914565b91505092959194509250565b60038110611b0e57600080fd5b50565b600081359050611b2081611b01565b92915050565b60008060408385031215611b3d57611b3c61182b565b5b6000611b4b85828601611b11565b9250506020611b5c85828601611879565b9150509250929050565b6000806000806000806000806000806101408b8d031215611b8a57611b8961182b565b5b6000611b988d828e01611914565b9a50506020611ba98d828e01611914565b9950506040611bba8d828e01611914565b9850506060611bcb8d828e01611914565b9750506080611bdc8d828e01611914565b96505060a0611bed8d828e01611914565b95505060c0611bfe8d828e01611914565b94505060e0611c0f8d828e016118de565b935050610100611c218d828e01611879565b925050610120611c338d828e01611879565b9150509295989b9194979a5092959850565b611c4e816118bb565b82525050565b6000602082019050611c696000830184611c45565b92915050565b600060208284031215611c8557611c8461182b565b5b6000611c9384828501611914565b91505092915050565b600080600060608486031215611cb557611cb461182b565b5b6000611cc386828701611914565b9350506020611cd486828701611914565b9250506040611ce586828701611879565b9150509250925092565b60058110611cfc57600080fd5b50565b600081359050611d0e81611cef565b92915050565b600080600060608486031215611d2d57611d2c61182b565b5b6000611d3b86828701611cff565b9350506020611d4c86828701611914565b9250506040611d5d86828701611879565b9150509250925092565b60008060408385031215611d7e57611d7d61182b565b5b6000611d8c85828601611879565b9250506020611d9d85828601611914565b9150509250929050565b60008060408385031215611dbe57611dbd61182b565b5b6000611dcc85828601611914565b9250506020611ddd85828601611879565b9150509250929050565b600082825260208201905092915050565b7f426f6e644465706f7369746f72793a20496e76616c696420636f6e747261637460008201527f206f776e65720000000000000000000000000000000000000000000000000000602082015250565b6000611e54602683611de7565b9150611e5f82611df8565b604082019050919050565b60006020820190508181036000830152611e8381611e47565b9050919050565b7f41646a7573746d656e743a204368616e676520746f6f20666173740000000000600082015250565b6000611ec0601b83611de7565b9150611ecb82611e8a565b602082019050919050565b60006020820190508181036000830152611eef81611eb3565b9050919050565b7f4e487b7100000000000000000000000000000000000000000000000000000000600052602160045260246000fd5b7f4c6f636b65722063616e6e6f7420626520736574206d6f7265207468616e206f60008201527f6e63650000000000000000000000000000000000000000000000000000000000602082015250565b6000611f81602383611de7565b9150611f8c82611f25565b604082019050919050565b60006020820190508181036000830152611fb081611f74565b9050919050565b7f426f6e6473206d75737420626520696e697469616c697a65642066726f6d2030600082015250565b6000611fed602083611de7565b9150611ff882611fb7565b602082019050919050565b6000602082019050818103600083015261201c81611fe0565b9050919050565b61202c81611850565b82525050565b60006020820190506120476000830184612023565b92915050565b60008151905061205c816118fd565b92915050565b6000602082840312156120785761207761182b565b5b60006120868482850161204d565b91505092915050565b7f56657374696e67206d757374206265206c6f6e676572207468616e203336206860008201527f6f75727300000000000000000000000000000000000000000000000000000000602082015250565b60006120eb602483611de7565b91506120f68261208f565b604082019050919050565b6000602082019050818103600083015261211a816120de565b9050919050565b7f5061796f75742063616e6e6f742062652061626f766520312070657263656e74600082015250565b6000612157602083611de7565b915061216282612121565b602082019050919050565b600060208201905081810360008301526121868161214a565b9050919050565b7f44414f206665652063616e6e6f7420657863656564207061796f757400000000600082015250565b60006121c3601c83611de7565b91506121ce8261218d565b602082019050919050565b600060208201905081810360008301526121f2816121b6565b9050919050565b7f4e487b7100000000000000000000000000000000000000000000000000000000600052603260045260246000fd5b7f4e487b7100000000000000000000000000000000000000000000000000000000600052601160045260246000fd5b6000612262826118f3565b91507fffffffffffffffffffffffffffffffffffffffffffffffffffffffffffffffff82141561229557612294612228565b5b600182019050919050565b6122a9816118f3565b82525050565b60006040820190506122c46000830185612023565b6122d160208301846122a0565b9392505050565b7f4c69624469616d6f6e643a20696e76616c696420636f6e7472616374206f776e60008201527f6572000000000000000000000000000000000000000000000000000000000000602082015250565b6000612334602283611de7565b915061233f826122d8565b604082019050919050565b6000602082019050818103600083015261236381612327565b9050919050565b600081519050612379816118c7565b92915050565b6000602082840312156123955761239461182b565b5b60006123a38482850161236a565b91505092915050565b7f5361666545524332303a204552433230206f7065726174696f6e20646964206e60008201527f6f74207375636365656400000000000000000000000000000000000000000000602082015250565b6000612408602a83611de7565b9150612413826123ac565b604082019050919050565b60006020820190508181036000830152612437816123fb565b9050919050565b7f416464726573733a20696e73756666696369656e742062616c616e636520666f60008201527f722063616c6c0000000000000000000000000000000000000000000000000000602082015250565b600061249a602683611de7565b91506124a58261243e565b604082019050919050565b600060208201905081810360008301526124c98161248d565b9050919050565b7f416464726573733a2063616c6c20746f206e6f6e2d636f6e7472616374000000600082015250565b6000612506601d83611de7565b9150612511826124d0565b602082019050919050565b60006020820190508181036000830152612535816124f9565b9050919050565b600081519050919050565b600081905092915050565b60005b83811015612570578082015181840152602081019050612555565b8381111561257f576000848401525b50505050565b60006125908261253c565b61259a8185612547565b93506125aa818560208601612552565b80840191505092915050565b60006125c28284612585565b915081905092915050565b600081519050919050565b6000601f19601f8301169050919050565b60006125f4826125cd565b6125fe8185611de7565b935061260e818560208601612552565b612617816125d8565b840191505092915050565b6000602082019050818103600083015261263c81846125e9565b90509291505056fea2646970667358221220fb926744a05fc52fe32b222a9bf7dd22998858dc8c97eadf8147d1572660c6b864736f6c634300080a0033",
  "linkReferences": {},
  "deployedLinkReferences": {}
}