{
  "_format": "hh-sol-artifact-1",
  "contractName": "BondDepositoryFacet",
  "sourceName": "contracts/facets/Bond/BondDepositoryFacet.sol",
  "abi": [
    {
      "anonymous": false,
      "inputs": [
        {
          "indexed": false,
          "internalType": "uint256",
          "name": "deposit",
          "type": "uint256"
        },
        {
          "indexed": true,
          "internalType": "uint256",
          "name": "payout",
          "type": "uint256"
        },
        {
          "indexed": true,
          "internalType": "uint256",
          "name": "expires",
          "type": "uint256"
        },
        {
          "indexed": true,
          "internalType": "uint256",
          "name": "priceInUSD",
          "type": "uint256"
        }
      ],
      "name": "BondCreated",
      "type": "event"
    },
    {
      "anonymous": false,
      "inputs": [
        {
          "indexed": true,
          "internalType": "uint256",
          "name": "priceInUSD",
          "type": "uint256"
        },
        {
          "indexed": true,
          "internalType": "uint256",
          "name": "internalPrice",
          "type": "uint256"
        },
        {
          "indexed": true,
          "internalType": "uint256",
          "name": "debtRatio",
          "type": "uint256"
        }
      ],
      "name": "BondPriceChanged",
      "type": "event"
    },
    {
      "anonymous": false,
      "inputs": [
        {
          "indexed": true,
          "internalType": "address",
          "name": "recipient",
          "type": "address"
        },
        {
          "indexed": false,
          "internalType": "uint256",
          "name": "payout",
          "type": "uint256"
        },
        {
          "indexed": false,
          "internalType": "uint256",
          "name": "remaining",
          "type": "uint256"
        }
      ],
      "name": "BondRedeemed",
      "type": "event"
    },
    {
      "anonymous": false,
      "inputs": [
        {
          "indexed": false,
          "internalType": "uint256",
          "name": "initialBCV",
          "type": "uint256"
        },
        {
          "indexed": false,
          "internalType": "uint256",
          "name": "newBCV",
          "type": "uint256"
        },
        {
          "indexed": false,
          "internalType": "uint256",
          "name": "adjustment",
          "type": "uint256"
        },
        {
          "indexed": false,
          "internalType": "bool",
          "name": "addition",
          "type": "bool"
        }
      ],
      "name": "ControlVariableAdjustment",
      "type": "event"
    },
    {
      "inputs": [
        {
          "internalType": "address",
          "name": "_principle",
          "type": "address"
        }
      ],
      "name": "BCV",
      "outputs": [
        {
          "internalType": "uint256",
          "name": "BCV_",
          "type": "uint256"
        }
      ],
      "stateMutability": "view",
      "type": "function"
    },
    {
      "inputs": [
        {
          "internalType": "address",
          "name": "_principle",
          "type": "address"
        }
      ],
      "name": "assetPrice",
      "outputs": [
        {
          "internalType": "int256",
          "name": "",
          "type": "int256"
        }
      ],
      "stateMutability": "view",
      "type": "function"
    },
    {
      "inputs": [
        {
          "internalType": "address",
          "name": "_depositor",
          "type": "address"
        },
        {
          "internalType": "address",
          "name": "_principle",
          "type": "address"
        }
      ],
      "name": "bondInfo",
      "outputs": [
        {
          "components": [
            {
              "internalType": "uint256",
              "name": "payout",
              "type": "uint256"
            },
            {
              "internalType": "uint256",
              "name": "pricePaid",
              "type": "uint256"
            },
            {
              "internalType": "uint256",
              "name": "lastTime",
              "type": "uint256"
            },
            {
              "internalType": "uint256",
              "name": "vesting",
              "type": "uint256"
            }
          ],
          "internalType": "struct LibBondStorage.Bond",
          "name": "",
          "type": "tuple"
        }
      ],
      "stateMutability": "view",
      "type": "function"
    },
    {
      "inputs": [
        {
          "internalType": "address",
          "name": "_principle",
          "type": "address"
        }
      ],
      "name": "bondPrice",
      "outputs": [
        {
          "internalType": "uint256",
          "name": "price_",
          "type": "uint256"
        }
      ],
      "stateMutability": "view",
      "type": "function"
    },
    {
      "inputs": [
        {
          "internalType": "address",
          "name": "_principle",
          "type": "address"
        }
      ],
      "name": "bondPriceInUSD",
      "outputs": [
        {
          "internalType": "uint256",
          "name": "price_",
          "type": "uint256"
        }
      ],
      "stateMutability": "view",
      "type": "function"
    },
    {
      "inputs": [
        {
          "internalType": "address",
          "name": "_principle",
          "type": "address"
        }
      ],
      "name": "currentDebt",
      "outputs": [
        {
          "internalType": "uint256",
          "name": "",
          "type": "uint256"
        }
      ],
      "stateMutability": "view",
      "type": "function"
    },
    {
      "inputs": [
        {
          "internalType": "address",
          "name": "_principle",
          "type": "address"
        }
      ],
      "name": "debtDecay",
      "outputs": [
        {
          "internalType": "uint256",
          "name": "decay_",
          "type": "uint256"
        }
      ],
      "stateMutability": "view",
      "type": "function"
    },
    {
      "inputs": [
        {
          "internalType": "address",
          "name": "_principle",
          "type": "address"
        }
      ],
      "name": "debtRatio",
      "outputs": [
        {
          "internalType": "uint256",
          "name": "debtRatio_",
          "type": "uint256"
        }
      ],
      "stateMutability": "view",
      "type": "function"
    },
    {
      "inputs": [
        {
          "internalType": "uint256",
          "name": "_amount",
          "type": "uint256"
        },
        {
          "internalType": "uint256",
          "name": "_maxPrice",
          "type": "uint256"
        },
        {
          "internalType": "address",
          "name": "_depositor",
          "type": "address"
        },
        {
          "internalType": "address",
          "name": "_principle",
          "type": "address"
        }
      ],
      "name": "deposit",
      "outputs": [
        {
          "internalType": "uint256",
          "name": "",
          "type": "uint256"
        }
      ],
      "stateMutability": "nonpayable",
      "type": "function"
    },
    {
      "inputs": [
        {
          "internalType": "address",
          "name": "_principle",
          "type": "address"
        }
      ],
      "name": "maxPayout",
      "outputs": [
        {
          "internalType": "uint256",
          "name": "",
          "type": "uint256"
        }
      ],
      "stateMutability": "view",
      "type": "function"
    },
    {
      "inputs": [
        {
          "internalType": "uint256",
          "name": "_value",
          "type": "uint256"
        },
        {
          "internalType": "address",
          "name": "_principle",
          "type": "address"
        }
      ],
      "name": "payoutFor",
      "outputs": [
        {
          "internalType": "uint256",
          "name": "",
          "type": "uint256"
        }
      ],
      "stateMutability": "view",
      "type": "function"
    },
    {
      "inputs": [
        {
          "internalType": "address",
          "name": "_depositor",
          "type": "address"
        },
        {
          "internalType": "address",
          "name": "_principle",
          "type": "address"
        }
      ],
      "name": "pendingPayoutFor",
      "outputs": [
        {
          "internalType": "uint256",
          "name": "pendingPayout_",
          "type": "uint256"
        }
      ],
      "stateMutability": "view",
      "type": "function"
    },
    {
      "inputs": [
        {
          "internalType": "address",
          "name": "_depositor",
          "type": "address"
        },
        {
          "internalType": "address",
          "name": "_principle",
          "type": "address"
        }
      ],
      "name": "percentVestedFor",
      "outputs": [
        {
          "internalType": "uint256",
          "name": "percentVested_",
          "type": "uint256"
        }
      ],
      "stateMutability": "view",
      "type": "function"
    },
    {
      "inputs": [
        {
          "internalType": "address",
          "name": "_recipient",
          "type": "address"
        },
        {
          "internalType": "address",
          "name": "_principle",
          "type": "address"
        },
        {
          "internalType": "bool",
          "name": "_stake",
          "type": "bool"
        }
      ],
      "name": "redeem",
      "outputs": [
        {
          "internalType": "uint256",
          "name": "",
          "type": "uint256"
        }
      ],
      "stateMutability": "nonpayable",
      "type": "function"
    },
    {
      "inputs": [
        {
          "internalType": "address",
          "name": "_principle",
          "type": "address"
        }
      ],
      "name": "standardizedDebtRatio",
      "outputs": [
        {
          "internalType": "uint256",
          "name": "",
          "type": "uint256"
        }
      ],
      "stateMutability": "view",
      "type": "function"
    },
    {
      "inputs": [
        {
          "internalType": "address",
          "name": "_principle",
          "type": "address"
        }
      ],
      "name": "terms",
      "outputs": [
        {
          "components": [
            {
              "internalType": "uint256",
              "name": "controlVariable",
              "type": "uint256"
            },
            {
              "internalType": "uint256",
              "name": "minimumPrice",
              "type": "uint256"
            },
            {
              "internalType": "uint256",
              "name": "maxPayout",
              "type": "uint256"
            },
            {
              "internalType": "uint256",
              "name": "fee",
              "type": "uint256"
            },
            {
              "internalType": "uint256",
              "name": "maxDebt",
              "type": "uint256"
            },
            {
              "internalType": "uint256",
              "name": "vestingTerm",
              "type": "uint256"
            },
            {
              "internalType": "bool",
              "name": "isLiquidityBond",
              "type": "bool"
            }
          ],
          "internalType": "struct LibBondStorage.Terms",
          "name": "",
          "type": "tuple"
        }
      ],
      "stateMutability": "view",
      "type": "function"
    }
  ],
  "bytecode": "0x608060405234801561001057600080fd5b506142aa806100206000396000f3fe608060405234801561001057600080fd5b50600436106101005760003560e01c8063aa58834511610097578063c8c819ac11610066578063c8c819ac14610345578063dc1d35a214610375578063de8d9708146103a5578063e300e98b146103d557610100565b8063aa58834514610285578063ad5fe5eb146102b5578063b11512e2146102e5578063b883b0581461031557610100565b80636fcb5622116100d35780636fcb5622146101c557806384715b11146101f5578063884719f2146102255780638b429ae81461025557610100565b80630523f1c3146101055780632ddc1465146101355780632f74f46114610165578063415d9f6514610195575b600080fd5b61011f600480360381019061011a9190613a61565b610405565b60405161012c9190613f87565b60405180910390f35b61014f600480360381019061014a919061395b565b610555565b60405161015c9190613f87565b60405180910390f35b61017f600480360381019061017a919061395b565b6107b9565b60405161018c9190613f87565b60405180910390f35b6101af60048036038101906101aa9190613984565b6108b2565b6040516101bc9190613f87565b60405180910390f35b6101df60048036038101906101da9190613984565b610977565b6040516101ec9190613f87565b60405180910390f35b61020f600480360381019061020a9190613a9d565b610a8a565b60405161021c9190613f87565b60405180910390f35b61023f600480360381019061023a919061395b565b61164c565b60405161024c9190613f87565b60405180910390f35b61026f600480360381019061026a91906139c0565b61169e565b60405161027c9190613f87565b60405180910390f35b61029f600480360381019061029a919061395b565b611a17565b6040516102ac9190613f87565b60405180910390f35b6102cf60048036038101906102ca9190613984565b611b02565b6040516102dc9190613f51565b60405180910390f35b6102ff60048036038101906102fa919061395b565b611bb1565b60405161030c9190613f87565b60405180910390f35b61032f600480360381019061032a919061395b565b611dac565b60405161033c9190613e96565b60405180910390f35b61035f600480360381019061035a919061395b565b611e8a565b60405161036c9190613f6c565b60405180910390f35b61038f600480360381019061038a919061395b565b611f2a565b60405161039c9190613f87565b60405180910390f35b6103bf60048036038101906103ba919061395b565b61217f565b6040516103cc9190613f87565b60405180910390f35b6103ef60048036038101906103ea919061395b565b61225a565b6040516103fc9190613f87565b60405180910390f35b60008061041c83600061235d90919063ffffffff16565b90506000600901600082815260200190815260200160002060060160009054906101000a900460ff16156104855761047d662386f26fc1000061046f61046a8761046588611bb1565b6123d9565b6126ba565b6126f690919063ffffffff16565b91505061054f565b600060020160009054906101000a900473ffffffffffffffffffffffffffffffffffffffff1673ffffffffffffffffffffffffffffffffffffffff168373ffffffffffffffffffffffffffffffffffffffff16141561051957610511662386f26fc100006105036104fe876104f988611bb1565b6123d9565b6126ba565b6126f690919063ffffffff16565b91505061054f565b61054b655af3107a400061053d6105388761053388611bb1565b6123d9565b6126ba565b6126f690919063ffffffff16565b9150505b92915050565b60008061056c83600061235d90919063ffffffff16565b90506000600901600082815260200190815260200160002060060160009054906101000a900460ff161561065b57610653633b9aca006106453073ffffffffffffffffffffffffffffffffffffffff166332da80a3876040518263ffffffff1660e01b81526004016105de9190613e52565b60206040518083038186803b1580156105f657600080fd5b505afa15801561060a573d6000803e3d6000fd5b505050506040513d601f19601f8201168201806040525081019061062e9190613a38565b610637876107b9565b61277f90919063ffffffff16565b6126f690919063ffffffff16565b9150506107b4565b600060020160009054906101000a900473ffffffffffffffffffffffffffffffffffffffff1673ffffffffffffffffffffffffffffffffffffffff168373ffffffffffffffffffffffffffffffffffffffff1614156106c5576106bd836107b9565b9150506107b4565b6107b06000600f01600083815260200190815260200160002060009054906101000a900473ffffffffffffffffffffffffffffffffffffffff1673ffffffffffffffffffffffffffffffffffffffff1663313ce5676040518163ffffffff1660e01b815260040160206040518083038186803b15801561074457600080fd5b505afa158015610758573d6000803e3d6000fd5b505050506040513d601f19601f8201168201806040525081019061077c9190613b77565b60ff166107a261078b86611dac565b610794876107b9565b61277f90919063ffffffff16565b6126f690919063ffffffff16565b9150505b919050565b6000806000800160009054906101000a900473ffffffffffffffffffffffffffffffffffffffff1673ffffffffffffffffffffffffffffffffffffffff166318160ddd6040518163ffffffff1660e01b815260040160206040518083038186803b15801561082657600080fd5b505afa15801561083a573d6000803e3d6000fd5b505050506040513d601f19601f8201168201806040525081019061085e9190613a38565b90506108aa670de0b6b3a764000061089c610897610891633b9aca006108838961164c565b61277f90919063ffffffff16565b856123d9565b6126ba565b6126f690919063ffffffff16565b915050919050565b6000806108c983600061235d90919063ffffffff16565b905060006108d78585610977565b9050600080600b0160008773ffffffffffffffffffffffffffffffffffffffff1673ffffffffffffffffffffffffffffffffffffffff168152602001908152602001600020600084815260200190815260200160002060000154905061271082106109445780935061096e565b61096b61271061095d848461277f90919063ffffffff16565b6126f690919063ffffffff16565b93505b50505092915050565b60008061098e83600061235d90919063ffffffff16565b90506109986137f1565b6000600b0160008673ffffffffffffffffffffffffffffffffffffffff1673ffffffffffffffffffffffffffffffffffffffff168152602001908152602001600020600083815260200190815260200160002060405180608001604052908160008201548152602001600182015481526020016002820154815260200160038201548152505090506000610a3982604001514261280590919063ffffffff16565b90506000826060015190506000811115610a7b57610a7481610a666127108561277f90919063ffffffff16565b6126f690919063ffffffff16565b9450610a80565b600094505b5050505092915050565b60008073ffffffffffffffffffffffffffffffffffffffff168373ffffffffffffffffffffffffffffffffffffffff161415610afb576040517f08c379a0000000000000000000000000000000000000000000000000000000008152600401610af290613eb1565b60405180910390fd5b6000610b1183600061235d90919063ffffffff16565b9050610b1c83612888565b60006009016000828152602001908152602001600020600401546000600c016000838152602001908152602001600020541115610b8e576040517f08c379a0000000000000000000000000000000000000000000000000000000008152600401610b8590613ed1565b60405180910390fd5b6000610b9984611f2a565b90506000610ba68561290a565b905080871015610beb576040517f08c379a0000000000000000000000000000000000000000000000000000000008152600401610be290613f11565b60405180910390fd5b60008060030160009054906101000a900473ffffffffffffffffffffffffffffffffffffffff1673ffffffffffffffffffffffffffffffffffffffff1663d1b317e5878b6040518363ffffffff1660e01b8152600401610c4c929190613e6d565b60206040518083038186803b158015610c6457600080fd5b505afa158015610c78573d6000803e3d6000fd5b505050506040513d601f19601f82011682018060405250810190610c9c9190613a38565b90506000610caa8288610405565b905062989680811015610cf2576040517f08c379a0000000000000000000000000000000000000000000000000000000008152600401610ce990613ef1565b60405180910390fd5b610cfb8761225a565b811115610d3d576040517f08c379a0000000000000000000000000000000000000000000000000000000008152600401610d3490613f31565b60405180910390fd5b6000610d7f612710610d71600060090160008a8152602001908152602001600020600301548561277f90919063ffffffff16565b6126f690919063ffffffff16565b90506000610d96838561280590919063ffffffff16565b9050600081111561142257610db4828261280590919063ffffffff16565b90506000600901600088815260200190815260200160002060060160009054906101000a900460ff1615610f7c57610e0f33308e8c73ffffffffffffffffffffffffffffffffffffffff16612b49909392919063ffffffff16565b8873ffffffffffffffffffffffffffffffffffffffff1663095ea7b3600060030160009054906101000a900473ffffffffffffffffffffffffffffffffffffffff168e6040518363ffffffff1660e01b8152600401610e6f929190613e6d565b602060405180830381600087803b158015610e8957600080fd5b505af1158015610e9d573d6000803e3d6000fd5b505050506040513d601f19601f82011682018060405250810190610ec19190613a0f565b50600060030160009054906101000a900473ffffffffffffffffffffffffffffffffffffffff1673ffffffffffffffffffffffffffffffffffffffff1663bc157ac18d8b846040518463ffffffff1660e01b8152600401610f2493929190613fcb565b602060405180830381600087803b158015610f3e57600080fd5b505af1158015610f52573d6000803e3d6000fd5b505050506040513d601f19601f82011682018060405250810190610f769190613a38565b50611255565b600060020160009054906101000a900473ffffffffffffffffffffffffffffffffffffffff1673ffffffffffffffffffffffffffffffffffffffff168973ffffffffffffffffffffffffffffffffffffffff16141561116f5761100233308e8c73ffffffffffffffffffffffffffffffffffffffff16612b49909392919063ffffffff16565b8873ffffffffffffffffffffffffffffffffffffffff1663095ea7b3600060030160009054906101000a900473ffffffffffffffffffffffffffffffffffffffff168e6040518363ffffffff1660e01b8152600401611062929190613e6d565b602060405180830381600087803b15801561107c57600080fd5b505af1158015611090573d6000803e3d6000fd5b505050506040513d601f19601f820116820180604052508101906110b49190613a0f565b50600060030160009054906101000a900473ffffffffffffffffffffffffffffffffffffffff1673ffffffffffffffffffffffffffffffffffffffff1663bc157ac18d8b846040518463ffffffff1660e01b815260040161111793929190613fcb565b602060405180830381600087803b15801561113157600080fd5b505af1158015611145573d6000803e3d6000fd5b505050506040513d601f19601f820116820180604052508101906111699190613a38565b50611254565b6111c133600060030160009054906101000a900473ffffffffffffffffffffffffffffffffffffffff168e8c73ffffffffffffffffffffffffffffffffffffffff16612b49909392919063ffffffff16565b600060030160009054906101000a900473ffffffffffffffffffffffffffffffffffffffff1673ffffffffffffffffffffffffffffffffffffffff16636a20de9230836040518363ffffffff1660e01b8152600401611221929190613e6d565b600060405180830381600087803b15801561123b57600080fd5b505af115801561124f573d6000803e3d6000fd5b505050505b5b6000821461142157600073ffffffffffffffffffffffffffffffffffffffff16600060040160009054906101000a900473ffffffffffffffffffffffffffffffffffffffff1673ffffffffffffffffffffffffffffffffffffffff161461132b5761132a600060040160009054906101000a900473ffffffffffffffffffffffffffffffffffffffff16836000800160009054906101000a900473ffffffffffffffffffffffffffffffffffffffff1673ffffffffffffffffffffffffffffffffffffffff16612c0a9092919063ffffffff16565b5b600073ffffffffffffffffffffffffffffffffffffffff16600060050160009054906101000a900473ffffffffffffffffffffffffffffffffffffffff1673ffffffffffffffffffffffffffffffffffffffff16146114205761141f600060050160009054906101000a900473ffffffffffffffffffffffffffffffffffffffff166113d56127106113c760648861277f90919063ffffffff16565b6126f690919063ffffffff16565b6000800160009054906101000a900473ffffffffffffffffffffffffffffffffffffffff1673ffffffffffffffffffffffffffffffffffffffff16612c0a9092919063ffffffff16565b5b5b5b61144b846000600c0160008a815260200190815260200160002054612cac90919063ffffffff16565b6000600c0160008981526020019081526020016000208190555060405180608001604052806114d9856000600b0160008f73ffffffffffffffffffffffffffffffffffffffff1673ffffffffffffffffffffffffffffffffffffffff16815260200190815260200160002060008c815260200190815260200160002060000154612cac90919063ffffffff16565b8152602001878152602001428152602001600060090160008a8152602001908152602001600020600501548152506000600b0160008c73ffffffffffffffffffffffffffffffffffffffff1673ffffffffffffffffffffffffffffffffffffffff168152602001908152602001600020600089815260200190815260200160002060008201518160000155602082015181600101556040820151816002015560608201518160030155905050856115b2600060090160008a81526020019081526020016000206005015442612cac90919063ffffffff16565b847f1fec6dc81f140574bf43f6b1e420ae1dd47928b9d57db8cbd7b8611063b85ae58f6040516115e29190613f87565b60405180910390a46115f3896107b9565b6115fc8a61290a565b6116058b611f2a565b7f375b221f40939bfd8f49723a17cf7bc6d576ebf72efe2cc3e991826f5b3f390a60405160405180910390a461163a89612d34565b82975050505050505050949350505050565b60008061166383600061235d90919063ffffffff16565b90506116966116718461217f565b6000600c0160008481526020019081526020016000205461280590919063ffffffff16565b915050919050565b6000806116b584600061235d90919063ffffffff16565b90506116bf6137f1565b6000600b0160008773ffffffffffffffffffffffffffffffffffffffff1673ffffffffffffffffffffffffffffffffffffffff1681526020019081526020016000206000838152602001908152602001600020604051806080016040529081600082015481526020016001820154815260200160028201548152602001600382015481525050905060006117538787610977565b90506127108110611843576000600b0160008873ffffffffffffffffffffffffffffffffffffffff1673ffffffffffffffffffffffffffffffffffffffff168152602001908152602001600020600084815260200190815260200160002060008082016000905560018201600090556002820160009055600382016000905550508673ffffffffffffffffffffffffffffffffffffffff167f51c99f515c87b0d95ba97f616edd182e8f161c4932eac17c6fefe9dab58b77b183600001516000604051611821929190614002565b60405180910390a26118398786846000015189612f00565b9350505050611a10565b600061187061271061186284866000015161277f90919063ffffffff16565b6126f690919063ffffffff16565b9050604051806080016040528061189483866000015161280590919063ffffffff16565b8152602001846020015181526020014281526020016118d66118c386604001514261280590919063ffffffff16565b866060015161280590919063ffffffff16565b8152506000600b0160008a73ffffffffffffffffffffffffffffffffffffffff1673ffffffffffffffffffffffffffffffffffffffff1681526020019081526020016000206000868152602001908152602001600020600082015181600001556020820151816001015560408201518160020155606082015181600301559050508773ffffffffffffffffffffffffffffffffffffffff167f51c99f515c87b0d95ba97f616edd182e8f161c4932eac17c6fefe9dab58b77b1826000600b0160008c73ffffffffffffffffffffffffffffffffffffffff1673ffffffffffffffffffffffffffffffffffffffff1681526020019081526020016000206000888152602001908152602001600020600001546040516119f592919061402b565b60405180910390a2611a098887838a612f00565b9450505050505b9392505050565b600080611a2e83600061235d90919063ffffffff16565b9050600080600a01600083815260200190815260200160002090506000611a548561310a565b90508160000160009054906101000a900460ff1615611aa057611a99816000600901600086815260200190815260200160002060000154612cac90919063ffffffff16565b9350611afa565b8060006009016000858152602001908152602001600020600001541115611af457611aed81600060090160008681526020019081526020016000206000015461280590919063ffffffff16565b9350611af9565b600193505b5b505050919050565b611b0a6137f1565b6000611b2083600061235d90919063ffffffff16565b90506000600b0160008573ffffffffffffffffffffffffffffffffffffffff1673ffffffffffffffffffffffffffffffffffffffff168152602001908152602001600020600082815260200190815260200160002060405180608001604052908160008201548152602001600182015481526020016002820154815260200160038201548152505091505092915050565b600080611bc883600061235d90919063ffffffff16565b90506000600901600082815260200190815260200160002060060160009054906101000a900460ff1615611c5c57611c5562989680611c47633b9aca00611c39611c11886107b9565b600060090160008881526020019081526020016000206000015461277f90919063ffffffff16565b612cac90919063ffffffff16565b6126f690919063ffffffff16565b9150611d68565b600060020160009054906101000a900473ffffffffffffffffffffffffffffffffffffffff1673ffffffffffffffffffffffffffffffffffffffff168373ffffffffffffffffffffffffffffffffffffffff161415611d1b57611d1462989680611d06633b9aca00611cf8611cd0886107b9565b600060090160008881526020019081526020016000206000015461277f90919063ffffffff16565b612cac90919063ffffffff16565b6126f690919063ffffffff16565b9150611d67565b611d64620186a0611d56611d2e866107b9565b600060090160008681526020019081526020016000206000015461277f90919063ffffffff16565b6126f690919063ffffffff16565b91505b5b6000600901600082815260200190815260200160002060010154821015611da657600060090160008281526020019081526020016000206001015491505b50919050565b600080611dc383600061235d90919063ffffffff16565b9050600080600f01600083815260200190815260200160002060009054906101000a900473ffffffffffffffffffffffffffffffffffffffff1673ffffffffffffffffffffffffffffffffffffffff1663feaf968c6040518163ffffffff1660e01b815260040160a06040518083038186803b158015611e4257600080fd5b505afa158015611e56573d6000803e3d6000fd5b505050506040513d601f19601f82011682018060405250810190611e7a9190613b00565b5050509150508092505050919050565b611e92613819565b6000611ea883600061235d90919063ffffffff16565b9050600060090160008281526020019081526020016000206040518060e00160405290816000820154815260200160018201548152602001600282015481526020016003820154815260200160048201548152602001600582015481526020016006820160009054906101000a900460ff161515151581525050915050919050565b600080611f4183600061235d90919063ffffffff16565b90506000600901600082815260200190815260200160002060060160009054906101000a900460ff161561202c5761202560646120173073ffffffffffffffffffffffffffffffffffffffff166332da80a3876040518263ffffffff1660e01b8152600401611fb09190613e52565b60206040518083038186803b158015611fc857600080fd5b505afa158015611fdc573d6000803e3d6000fd5b505050506040513d601f19601f820116820180604052508101906120009190613a38565b61200987611bb1565b61277f90919063ffffffff16565b6126f690919063ffffffff16565b9150612179565b600060020160009054906101000a900473ffffffffffffffffffffffffffffffffffffffff1673ffffffffffffffffffffffffffffffffffffffff168373ffffffffffffffffffffffffffffffffffffffff16141561213d5761213660646121288573ffffffffffffffffffffffffffffffffffffffff1663313ce5676040518163ffffffff1660e01b815260040160206040518083038186803b1580156120d357600080fd5b505afa1580156120e7573d6000803e3d6000fd5b505050506040513d601f19601f8201168201806040525081019061210b9190613b77565b60ff16600a0a61211a87611bb1565b61277f90919063ffffffff16565b6126f690919063ffffffff16565b9150612178565b612175620f424061216761215086611dac565b61215987611bb1565b61277f90919063ffffffff16565b61277f90919063ffffffff16565b91505b5b50919050565b60008061219683600061235d90919063ffffffff16565b905060006121c36000600d016000848152602001908152602001600020544261280590919063ffffffff16565b9050612219600060090160008481526020019081526020016000206005015461220b836000600c0160008781526020019081526020016000205461277f90919063ffffffff16565b6126f690919063ffffffff16565b92506000600c01600083815260200190815260200160002054831115612253576000600c0160008381526020019081526020016000205492505b5050919050565b60008061227183600061235d90919063ffffffff16565b9050612355620186a061234760006009016000858152602001908152602001600020600201546000800160009054906101000a900473ffffffffffffffffffffffffffffffffffffffff1673ffffffffffffffffffffffffffffffffffffffff166318160ddd6040518163ffffffff1660e01b815260040160206040518083038186803b15801561230157600080fd5b505afa158015612315573d6000803e3d6000fd5b505050506040513d601f19601f820116820180604052508101906123399190613a38565b61277f90919063ffffffff16565b6126f690919063ffffffff16565b915050919050565b60008061236c846007016131ed565b905060005b818110156123d0578373ffffffffffffffffffffffffffffffffffffffff1661239d8660070183613202565b73ffffffffffffffffffffffffffffffffffffffff1614156123c35780925050506123d3565b8080600101915050612371565b50505b92915050565b6123e1613858565b6000821161243a576040517f08c379a00000000000000000000000000000000000000000000000000000000081526004018080602001828103825260268152602001806142046026913960400191505060405180910390fd5b600083141561247857604051806020016040528060007bffffffffffffffffffffffffffffffffffffffffffffffffffffffff1681525090506126b4565b7fffffffffffffffffffffffffffffffffffffffffffffffffffffffffffffffff71ffffffffffffffffffffffffffffffffffff1683116125b157600082607060ff1685901b816124c557fe5b0490507fffffffffffffffffffffffffffffffffffffffffffffffffffffffffffffffff7bffffffffffffffffffffffffffffffffffffffffffffffffffffffff1681111561257c576040517f08c379a000000000000000000000000000000000000000000000000000000000815260040180806020018281038252601e8152602001807f4669786564506f696e743a3a6672616374696f6e3a206f766572666c6f77000081525060200191505060405180910390fd5b6040518060200160405280827bffffffffffffffffffffffffffffffffffffffffffffffffffffffff168152509150506126b4565b60006125cd846e0100000000000000000000000000008561321c565b90507fffffffffffffffffffffffffffffffffffffffffffffffffffffffffffffffff7bffffffffffffffffffffffffffffffffffffffffffffffffffffffff16811115612683576040517f08c379a000000000000000000000000000000000000000000000000000000000815260040180806020018281038252601e8152602001807f4669786564506f696e743a3a6672616374696f6e3a206f766572666c6f77000081525060200191505060405180910390fd5b6040518060200160405280827bffffffffffffffffffffffffffffffffffffffffffffffffffffffff168152509150505b92915050565b60006612725dd1d243ab82600001517bffffffffffffffffffffffffffffffffffffffffffffffffffffffff16816126ee57fe5b049050919050565b600080821161276d576040517f08c379a000000000000000000000000000000000000000000000000000000000815260040180806020018281038252601a8152602001807f536166654d6174683a206469766973696f6e206279207a65726f00000000000081525060200191505060405180910390fd5b81838161277657fe5b04905092915050565b60008083141561279257600090506127ff565b60008284029050828482816127a357fe5b04146127fa576040517f08c379a000000000000000000000000000000000000000000000000000000000815260040180806020018281038252602181526020018061422a6021913960400191505060405180910390fd5b809150505b92915050565b60008282111561287d576040517f08c379a000000000000000000000000000000000000000000000000000000000815260040180806020018281038252601e8152602001807f536166654d6174683a207375627472616374696f6e206f766572666c6f77000081525060200191505060405180910390fd5b818303905092915050565b600061289e82600061235d90919063ffffffff16565b90506128d16128ac8361217f565b6000600c0160008481526020019081526020016000205461280590919063ffffffff16565b6000600c01600083815260200190815260200160002081905550426000600d016000838152602001908152602001600020819055505050565b60008061292183600061235d90919063ffffffff16565b90506000600901600082815260200190815260200160002060060160009054906101000a900460ff16156129b5576129ae629896806129a0633b9aca0061299261296a886107b9565b600060090160008881526020019081526020016000206000015461277f90919063ffffffff16565b612cac90919063ffffffff16565b6126f690919063ffffffff16565b9150612ac1565b600060020160009054906101000a900473ffffffffffffffffffffffffffffffffffffffff1673ffffffffffffffffffffffffffffffffffffffff168373ffffffffffffffffffffffffffffffffffffffff161415612a7457612a6d62989680612a5f633b9aca00612a51612a29886107b9565b600060090160008881526020019081526020016000206000015461277f90919063ffffffff16565b612cac90919063ffffffff16565b6126f690919063ffffffff16565b9150612ac0565b612abd620186a0612aaf612a87866107b9565b600060090160008681526020019081526020016000206000015461277f90919063ffffffff16565b6126f690919063ffffffff16565b91505b5b6000600901600082815260200190815260200160002060010154821015612b035760006009016000828152602001908152602001600020600101549150612b43565b60008060090160008381526020019081526020016000206001015414612b42576000806009016000838152602001908152602001600020600101819055505b5b50919050565b612c04846323b872dd60e01b858585604051602401808473ffffffffffffffffffffffffffffffffffffffff1681526020018373ffffffffffffffffffffffffffffffffffffffff1681526020018281526020019350505050604051602081830303815290604052907bffffffffffffffffffffffffffffffffffffffffffffffffffffffff19166020820180517bffffffffffffffffffffffffffffffffffffffffffffffffffffffff83818316178352505050506132de565b50505050565b612ca78363a9059cbb60e01b8484604051602401808373ffffffffffffffffffffffffffffffffffffffff16815260200182815260200192505050604051602081830303815290604052907bffffffffffffffffffffffffffffffffffffffffffffffffffffffff19166020820180517bffffffffffffffffffffffffffffffffffffffffffffffffffffffff83818316178352505050506132de565b505050565b600080828401905083811015612d2a576040517f08c379a000000000000000000000000000000000000000000000000000000000815260040180806020018281038252601b8152602001807f536166654d6174683a206164646974696f6e206f766572666c6f77000000000081525060200191505060405180910390fd5b8091505092915050565b6000612d4a82600061235d90919063ffffffff16565b9050600080600a01600083815260200190815260200160002090506000806009016000848152602001908152602001600020905060008260010154118015612d96575060008260020154115b15612efa576000816000015490506000612dbd84600301544261280590919063ffffffff16565b90506000612dca8761310a565b905080856001015410612dfb57612dee81866001015461280590919063ffffffff16565b8560010181905550612e06565b600085600101819055505b81856002015410612e3557612e2882866002015461280590919063ffffffff16565b8560020181905550612e40565b600085600201819055505b8460000160009054906101000a900460ff1615612e7b57612e6e818560000154612cac90919063ffffffff16565b8460000181905550612e9b565b612e9281856000015461280590919063ffffffff16565b84600001819055505b4285600301819055507fb923e581a0f83128e9e1d8297aa52b18d6744310476e0b54509c054cd7a93b2a838560000154838860000160009054906101000a900460ff16604051612eee9493929190614054565b60405180910390a15050505b50505050565b600083612fbe576000800160009054906101000a900473ffffffffffffffffffffffffffffffffffffffff1673ffffffffffffffffffffffffffffffffffffffff1663a9059cbb86856040518363ffffffff1660e01b8152600401612f66929190613e6d565b602060405180830381600087803b158015612f8057600080fd5b505af1158015612f94573d6000803e3d6000fd5b505050506040513d601f19601f82011682018060405250810190612fb89190613a0f565b506130ff565b6000800160009054906101000a900473ffffffffffffffffffffffffffffffffffffffff1673ffffffffffffffffffffffffffffffffffffffff1663095ea7b330856040518363ffffffff1660e01b815260040161301d929190613e6d565b602060405180830381600087803b15801561303757600080fd5b505af115801561304b573d6000803e3d6000fd5b505050506040513d601f19601f8201168201806040525081019061306f9190613a0f565b503073ffffffffffffffffffffffffffffffffffffffff16637acb775784876040518363ffffffff1660e01b81526004016130ab929190613fa2565b602060405180830381600087803b1580156130c557600080fd5b505af11580156130d9573d6000803e3d6000fd5b505050506040513d601f19601f820116820180604052508101906130fd9190613a0f565b505b829050949350505050565b60008061312183600061235d90919063ffffffff16565b905061312b613889565b6000600a0160008381526020019081526020016000206040518060800160405290816000820160009054906101000a900460ff161515151581526020016001820154815260200160028201548152602001600382015481525050905060006131a082606001514261280590919063ffffffff16565b90506131cf82604001516131c183856020015161277f90919063ffffffff16565b6126f690919063ffffffff16565b935081602001518411156131e557816020015193505b505050919050565b60006131fb826000016133cd565b9050919050565b600061321183600001836133de565b60001c905092915050565b600080600061322b8686613461565b915091506000848061323957fe5b86880990508281111561324d576001820391505b80830392508482106132c7576040517f08c379a000000000000000000000000000000000000000000000000000000000815260040180806020018281038252601a8152602001807f46756c6c4d6174683a3a6d756c4469763a206f766572666c6f7700000000000081525060200191505060405180910390fd5b6132d28383876134b4565b93505050509392505050565b6060613340826040518060400160405280602081526020017f5361666545524332303a206c6f772d6c6576656c2063616c6c206661696c65648152508573ffffffffffffffffffffffffffffffffffffffff166135519092919063ffffffff16565b90506000815111156133c85780806020019051602081101561336157600080fd5b81019080805190602001909291905050506133c7576040517f08c379a000000000000000000000000000000000000000000000000000000000815260040180806020018281038252602a81526020018061424b602a913960400191505060405180910390fd5b5b505050565b600081600001805490509050919050565b60008183600001805490501161343f576040517f08c379a00000000000000000000000000000000000000000000000000000000081526004018080602001828103825260228152602001806141bc6022913960400191505060405180910390fd5b82600001828154811061344e57fe5b9060005260206000200154905092915050565b60008060007fffffffffffffffffffffffffffffffffffffffffffffffffffffffffffffffff8061348e57fe5b848609905083850292508281039150828110156134ac576001820391505b509250929050565b60008082600003831690508083816134c857fe5b0492508085816134d457fe5b04945060018182600003816134e557fe5b04018402850194506000600190508084026002038102905080840260020381029050808402600203810290508084026002038102905080840260020381029050808402600203810290508084026002038102905080840260020381029050808602925050509392505050565b60606135608484600085613569565b90509392505050565b6060824710156135c4576040517f08c379a00000000000000000000000000000000000000000000000000000000081526004018080602001828103825260268152602001806141de6026913960400191505060405180910390fd5b6135cd85613712565b61363f576040517f08c379a000000000000000000000000000000000000000000000000000000000815260040180806020018281038252601d8152602001807f416464726573733a2063616c6c20746f206e6f6e2d636f6e747261637400000081525060200191505060405180910390fd5b600060608673ffffffffffffffffffffffffffffffffffffffff1685876040518082805190602001908083835b6020831061368f578051825260208201915060208101905060208303925061366c565b6001836020036101000a03801982511681845116808217855250505050505090500191505060006040518083038185875af1925050503d80600081146136f1576040519150601f19603f3d011682016040523d82523d6000602084013e6136f6565b606091505b5091509150613706828286613725565b92505050949350505050565b600080823b905060008111915050919050565b60608315613735578290506137ea565b6000835111156137485782518084602001fd5b816040517f08c379a00000000000000000000000000000000000000000000000000000000081526004018080602001828103825283818151815260200191508051906020019080838360005b838110156137af578082015181840152602081019050613794565b50505050905090810190601f1680156137dc5780820380516001836020036101000a031916815260200191505b509250505060405180910390fd5b9392505050565b6040518060800160405280600081526020016000815260200160008152602001600081525090565b6040518060e001604052806000815260200160008152602001600081526020016000815260200160008152602001600081526020016000151581525090565b604051806020016040528060007bffffffffffffffffffffffffffffffffffffffffffffffffffffffff1681525090565b60405180608001604052806000151581526020016000815260200160008152602001600081525090565b6000813590506138c281614131565b92915050565b6000813590506138d781614148565b92915050565b6000815190506138ec81614148565b92915050565b6000815190506139018161415f565b92915050565b60008135905061391681614176565b92915050565b60008151905061392b81614176565b92915050565b600081519050613940816141a4565b92915050565b6000815190506139558161418d565b92915050565b60006020828403121561396d57600080fd5b600061397b848285016138b3565b91505092915050565b6000806040838503121561399757600080fd5b60006139a5858286016138b3565b92505060206139b6858286016138b3565b9150509250929050565b6000806000606084860312156139d557600080fd5b60006139e3868287016138b3565b93505060206139f4868287016138b3565b9250506040613a05868287016138c8565b9150509250925092565b600060208284031215613a2157600080fd5b6000613a2f848285016138dd565b91505092915050565b600060208284031215613a4a57600080fd5b6000613a588482850161391c565b91505092915050565b60008060408385031215613a7457600080fd5b6000613a8285828601613907565b9250506020613a93858286016138b3565b9150509250929050565b60008060008060808587031215613ab357600080fd5b6000613ac187828801613907565b9450506020613ad287828801613907565b9350506040613ae3878288016138b3565b9250506060613af4878288016138b3565b91505092959194509250565b600080600080600060a08688031215613b1857600080fd5b6000613b2688828901613931565b9550506020613b37888289016138f2565b9450506040613b488882890161391c565b9350506060613b598882890161391c565b9250506080613b6a88828901613931565b9150509295509295909350565b600060208284031215613b8957600080fd5b6000613b9784828501613946565b91505092915050565b613ba9816140aa565b82525050565b613bb8816140bc565b82525050565b613bc7816140bc565b82525050565b613bd6816140c8565b82525050565b613be58161411f565b82525050565b6000613bf8600f83614099565b91507f496e76616c6964206164647265737300000000000000000000000000000000006000830152602082019050919050565b6000613c38601483614099565b91507f4d617820636170616369747920726561636865640000000000000000000000006000830152602082019050919050565b6000613c78600e83614099565b91507f426f6e6420746f6f20736d616c6c0000000000000000000000000000000000006000830152602082019050919050565b6000613cb8602383614099565b91507f536c697070616765206c696d69743a206d6f7265207468616e206d617820707260008301527f69636500000000000000000000000000000000000000000000000000000000006020830152604082019050919050565b6000613d1e600e83614099565b91507f426f6e6420746f6f206c617267650000000000000000000000000000000000006000830152602082019050919050565b608082016000820151613d676000850182613e34565b506020820151613d7a6020850182613e34565b506040820151613d8d6040850182613e34565b506060820151613da06060850182613e34565b50505050565b60e082016000820151613dbc6000850182613e34565b506020820151613dcf6020850182613e34565b506040820151613de26040850182613e34565b506060820151613df56060850182613e34565b506080820151613e086080850182613e34565b5060a0820151613e1b60a0850182613e34565b5060c0820151613e2e60c0850182613baf565b50505050565b613e3d816140f2565b82525050565b613e4c816140f2565b82525050565b6000602082019050613e676000830184613ba0565b92915050565b6000604082019050613e826000830185613ba0565b613e8f6020830184613e43565b9392505050565b6000602082019050613eab6000830184613bcd565b92915050565b60006020820190508181036000830152613eca81613beb565b9050919050565b60006020820190508181036000830152613eea81613c2b565b9050919050565b60006020820190508181036000830152613f0a81613c6b565b9050919050565b60006020820190508181036000830152613f2a81613cab565b9050919050565b60006020820190508181036000830152613f4a81613d11565b9050919050565b6000608082019050613f666000830184613d51565b92915050565b600060e082019050613f816000830184613da6565b92915050565b6000602082019050613f9c6000830184613e43565b92915050565b6000604082019050613fb76000830185613e43565b613fc46020830184613ba0565b9392505050565b6000606082019050613fe06000830186613e43565b613fed6020830185613ba0565b613ffa6040830184613e43565b949350505050565b60006040820190506140176000830185613e43565b6140246020830184613bdc565b9392505050565b60006040820190506140406000830185613e43565b61404d6020830184613e43565b9392505050565b60006080820190506140696000830187613e43565b6140766020830186613e43565b6140836040830185613e43565b6140906060830184613bbe565b95945050505050565b600082825260208201905092915050565b60006140b5826140d2565b9050919050565b60008115159050919050565b6000819050919050565b600073ffffffffffffffffffffffffffffffffffffffff82169050919050565b6000819050919050565b600060ff82169050919050565b600069ffffffffffffffffffff82169050919050565b600061412a826140f2565b9050919050565b61413a816140aa565b811461414557600080fd5b50565b614151816140bc565b811461415c57600080fd5b50565b614168816140c8565b811461417357600080fd5b50565b61417f816140f2565b811461418a57600080fd5b50565b614196816140fc565b81146141a157600080fd5b50565b6141ad81614109565b81146141b857600080fd5b5056fe456e756d657261626c655365743a20696e646578206f7574206f6620626f756e6473416464726573733a20696e73756666696369656e742062616c616e636520666f722063616c6c4669786564506f696e743a3a6672616374696f6e3a206469766973696f6e206279207a65726f536166654d6174683a206d756c7469706c69636174696f6e206f766572666c6f775361666545524332303a204552433230206f7065726174696f6e20646964206e6f742073756363656564a2646970667358221220f956729b5066bfe8a5b2f80ba41ce60538c2bca053652cd31dc7ccfa2428371f64736f6c63430007050033",
  "linkReferences": {},
  "deployedLinkReferences": {}
}