{
  "_format": "hh-sol-artifact-1",
  "contractName": "VaultConfigFacet",
  "sourceName": "contracts/facets/Vault/VaultConfigFacet.sol",
  "abi": [
    {
      "anonymous": false,
      "inputs": [
        {
          "indexed": false,
          "internalType": "address",
          "name": "_token",
          "type": "address"
        }
      ],
      "name": "ClearTokenConfig",
      "type": "event"
    },
    {
      "anonymous": false,
      "inputs": [
        {
          "indexed": false,
          "internalType": "address",
          "name": "token",
          "type": "address"
        },
        {
          "indexed": false,
          "internalType": "uint256",
          "name": "amount",
          "type": "uint256"
        }
      ],
      "name": "DirectPoolDeposit",
      "type": "event"
    },
    {
      "anonymous": false,
      "inputs": [
        {
          "indexed": false,
          "internalType": "address",
          "name": "_token",
          "type": "address"
        },
        {
          "indexed": false,
          "internalType": "uint256",
          "name": "_priceSpreadBasisPoints",
          "type": "uint256"
        }
      ],
      "name": "SetPriceSpreadBasisPoints",
      "type": "event"
    },
    {
      "anonymous": false,
      "inputs": [
        {
          "indexed": false,
          "internalType": "address",
          "name": "_token",
          "type": "address"
        },
        {
          "indexed": false,
          "internalType": "uint256",
          "name": "_basisPoints",
          "type": "uint256"
        }
      ],
      "name": "SetRedemptionBasisPoints",
      "type": "event"
    },
    {
      "anonymous": false,
      "inputs": [
        {
          "indexed": false,
          "internalType": "address",
          "name": "_token",
          "type": "address"
        },
        {
          "indexed": false,
          "internalType": "uint256",
          "name": "_tokenDecimals",
          "type": "uint256"
        },
        {
          "indexed": false,
          "internalType": "uint256",
          "name": "_minProfitBasisPoints",
          "type": "uint256"
        },
        {
          "indexed": false,
          "internalType": "address",
          "name": "_priceFeed",
          "type": "address"
        },
        {
          "indexed": false,
          "internalType": "uint256",
          "name": "_priceDecimals",
          "type": "uint256"
        },
        {
          "indexed": false,
          "internalType": "uint256",
          "name": "_priceSpreadBasisPoints",
          "type": "uint256"
        },
        {
          "indexed": false,
          "internalType": "uint256",
          "name": "_tokenWeight",
          "type": "uint256"
        },
        {
          "indexed": false,
          "internalType": "address",
          "name": "_baseTokenPair",
          "type": "address"
        },
        {
          "indexed": false,
          "internalType": "address",
          "name": "_tokenPair",
          "type": "address"
        }
      ],
      "name": "SetTokenConfig",
      "type": "event"
    },
    {
      "anonymous": false,
      "inputs": [
        {
          "indexed": false,
          "internalType": "address",
          "name": "_token",
          "type": "address"
        },
        {
          "indexed": false,
          "internalType": "address",
          "name": "_receiver",
          "type": "address"
        },
        {
          "indexed": false,
          "internalType": "uint256",
          "name": "_amount",
          "type": "uint256"
        }
      ],
      "name": "WithdrawFees",
      "type": "event"
    },
    {
      "inputs": [
        {
          "internalType": "address",
          "name": "_token",
          "type": "address"
        }
      ],
      "name": "clearTokenConfig",
      "outputs": [],
      "stateMutability": "nonpayable",
      "type": "function"
    },
    {
      "inputs": [
        {
          "internalType": "address",
          "name": "_token",
          "type": "address"
        }
      ],
      "name": "directPoolDeposit",
      "outputs": [],
      "stateMutability": "nonpayable",
      "type": "function"
    },
    {
      "inputs": [],
      "name": "gov",
      "outputs": [
        {
          "internalType": "address",
          "name": "",
          "type": "address"
        }
      ],
      "stateMutability": "view",
      "type": "function"
    },
    {
      "inputs": [
        {
          "internalType": "address",
          "name": "_weth",
          "type": "address"
        },
        {
          "internalType": "address",
          "name": "_ndol",
          "type": "address"
        }
      ],
      "name": "initialize",
      "outputs": [],
      "stateMutability": "nonpayable",
      "type": "function"
    },
    {
      "inputs": [],
      "name": "isInitialized",
      "outputs": [
        {
          "internalType": "bool",
          "name": "",
          "type": "bool"
        }
      ],
      "stateMutability": "view",
      "type": "function"
    },
    {
      "inputs": [
        {
          "internalType": "address",
          "name": "_token",
          "type": "address"
        }
      ],
      "name": "minProfitBasisPoints",
      "outputs": [
        {
          "internalType": "uint256",
          "name": "",
          "type": "uint256"
        }
      ],
      "stateMutability": "view",
      "type": "function"
    },
    {
      "inputs": [
        {
          "internalType": "address",
          "name": "_token",
          "type": "address"
        }
      ],
      "name": "redemptionBasisPoints",
      "outputs": [
        {
          "internalType": "uint256",
          "name": "",
          "type": "uint256"
        }
      ],
      "stateMutability": "view",
      "type": "function"
    },
    {
      "inputs": [
        {
          "internalType": "address",
          "name": "_newGov",
          "type": "address"
        }
      ],
      "name": "setGov",
      "outputs": [],
      "stateMutability": "nonpayable",
      "type": "function"
    },
    {
      "inputs": [
        {
          "internalType": "address",
          "name": "_token",
          "type": "address"
        },
        {
          "internalType": "uint256",
          "name": "_priceSpreadBasisPoints",
          "type": "uint256"
        }
      ],
      "name": "setPriceSpreadBasisPoints",
      "outputs": [],
      "stateMutability": "nonpayable",
      "type": "function"
    },
    {
      "inputs": [
        {
          "internalType": "address",
          "name": "_token",
          "type": "address"
        },
        {
          "internalType": "uint256",
          "name": "_redemptionBasisPoints",
          "type": "uint256"
        }
      ],
      "name": "setRedemptionBasisPoints",
      "outputs": [],
      "stateMutability": "nonpayable",
      "type": "function"
    },
    {
      "inputs": [
        {
          "internalType": "address",
          "name": "_token",
          "type": "address"
        },
        {
          "internalType": "uint256",
          "name": "_tokenDecimals",
          "type": "uint256"
        },
        {
          "internalType": "uint256",
          "name": "_minProfitBasisPoints",
          "type": "uint256"
        },
        {
          "internalType": "address",
          "name": "_priceFeed",
          "type": "address"
        },
        {
          "internalType": "uint256",
          "name": "_priceDecimals",
          "type": "uint256"
        },
        {
          "internalType": "uint256",
          "name": "_priceSpreadBasisPoints",
          "type": "uint256"
        },
        {
          "internalType": "uint256",
          "name": "_tokenWeight",
          "type": "uint256"
        },
        {
          "internalType": "address",
          "name": "_baseTokenPair",
          "type": "address"
        },
        {
          "internalType": "address",
          "name": "_tokenPair",
          "type": "address"
        }
      ],
      "name": "setTokenConfig",
      "outputs": [],
      "stateMutability": "nonpayable",
      "type": "function"
    },
    {
      "inputs": [
        {
          "internalType": "address",
          "name": "_token",
          "type": "address"
        }
      ],
      "name": "tokenDecimals",
      "outputs": [
        {
          "internalType": "uint256",
          "name": "",
          "type": "uint256"
        }
      ],
      "stateMutability": "view",
      "type": "function"
    },
    {
      "inputs": [
        {
          "internalType": "address",
          "name": "_token",
          "type": "address"
        }
      ],
      "name": "tokenWeights",
      "outputs": [
        {
          "internalType": "uint256",
          "name": "",
          "type": "uint256"
        }
      ],
      "stateMutability": "view",
      "type": "function"
    },
    {
      "inputs": [],
      "name": "totalTokenWeight",
      "outputs": [
        {
          "internalType": "uint256",
          "name": "",
          "type": "uint256"
        }
      ],
      "stateMutability": "view",
      "type": "function"
    },
    {
      "inputs": [],
      "name": "whitelistedTokenCount",
      "outputs": [
        {
          "internalType": "uint256",
          "name": "",
          "type": "uint256"
        }
      ],
      "stateMutability": "view",
      "type": "function"
    },
    {
      "inputs": [
        {
          "internalType": "address",
          "name": "_token",
          "type": "address"
        }
      ],
      "name": "whitelistedTokens",
      "outputs": [
        {
          "internalType": "bool",
          "name": "",
          "type": "bool"
        }
      ],
      "stateMutability": "view",
      "type": "function"
    },
    {
      "inputs": [
        {
          "internalType": "address",
          "name": "_token",
          "type": "address"
        },
        {
          "internalType": "address",
          "name": "_receiver",
          "type": "address"
        }
      ],
      "name": "withdrawFees",
      "outputs": [
        {
          "internalType": "uint256",
          "name": "",
          "type": "uint256"
        }
      ],
      "stateMutability": "nonpayable",
      "type": "function"
    }
  ],
  "bytecode": "0x608060405234801561001057600080fd5b5060008060000160006101000a81548160ff021916908315150217905550612cdc8061003d6000396000f3fe608060405234801561001057600080fd5b506004361061010b5760003560e01c806371aa61e9116100a2578063ab2f3ad411610071578063ab2f3ad4146102a4578063cfad57a2146102d4578063daf9c210146102f0578063e67f59a714610320578063f25552781461033c5761010b565b806371aa61e9146101f85780637933dd0a1461021457806388b1fbdf146102445780638ee573ac146102745761010b565b8063485cc955116100de578063485cc955146101865780634ca439d3146101a25780635f7bc119146101be57806362287a32146101da5761010b565b806312d43a5114610110578063331fe19d1461012e578063392e53cd1461014a5780633ebd04bb14610168575b600080fd5b61011861036c565b60405161012591906120dc565b60405180910390f35b6101486004803603810190610143919061215e565b6103a4565b005b610152610430565b60405161015f91906121b9565b60405180910390f35b610170610449565b60405161017d91906121e3565b60405180910390f35b6101a0600480360381019061019b91906121fe565b610455565b005b6101bc60048036038101906101b7919061215e565b610658565b005b6101d860048036038101906101d3919061223e565b610728565b005b6101e26107df565b6040516101ef91906121e3565b60405180910390f35b610212600480360381019061020d919061226b565b6107f3565b005b61022e6004803603810190610229919061223e565b610d2d565b60405161023b91906121e3565b60405180910390f35b61025e6004803603810190610259919061223e565b610d78565b60405161026b91906121e3565b60405180910390f35b61028e6004803603810190610289919061223e565b610dc3565b60405161029b91906121e3565b60405180910390f35b6102be60048036038101906102b9919061223e565b610e0e565b6040516102cb91906121e3565b60405180910390f35b6102ee60048036038101906102e9919061223e565b610e59565b005b61030a6004803603810190610305919061223e565b610e65565b60405161031791906121b9565b60405180910390f35b61033a6004803603810190610335919061223e565b610e7c565b005b610356600480360381019061035191906121fe565b6112f0565b60405161036391906121e3565b60405180910390f35b6000806103776113ed565b90508060040160009054906101000a900473ffffffffffffffffffffffffffffffffffffffff1691505090565b6103ac61141a565b80600060080160008473ffffffffffffffffffffffffffffffffffffffff1673ffffffffffffffffffffffffffffffffffffffff168152602001908152602001600020819055507fb6aea5883739d50d55e232a8c883371c3717548b3626e3664e3dd5487b35dd388282604051610424929190612335565b60405180910390a15050565b60008060020160159054906101000a900460ff16905090565b60008060130154905090565b61045d61141a565b600060020160159054906101000a900460ff16156104b0576040517f08c379a00000000000000000000000000000000000000000000000000000000081526004016104a7906123bb565b60405180910390fd5b600073ffffffffffffffffffffffffffffffffffffffff168273ffffffffffffffffffffffffffffffffffffffff161415610520576040517f08c379a000000000000000000000000000000000000000000000000000000000815260040161051790612427565b60405180910390fd5b600073ffffffffffffffffffffffffffffffffffffffff168173ffffffffffffffffffffffffffffffffffffffff161415610590576040517f08c379a000000000000000000000000000000000000000000000000000000000815260040161058790612493565b60405180910390fd5b6001600060020160156101000a81548160ff0219169083151502179055506001600060020160146101000a81548160ff02191690831515021790555081600060010160006101000a81548173ffffffffffffffffffffffffffffffffffffffff021916908373ffffffffffffffffffffffffffffffffffffffff16021790555080600060020160006101000a81548173ffffffffffffffffffffffffffffffffffffffff021916908373ffffffffffffffffffffffffffffffffffffffff1602179055505050565b612710811061069c576040517f08c379a0000000000000000000000000000000000000000000000000000000008152600401610693906124ff565b60405180910390fd5b6106a461141a565b80600060170160008473ffffffffffffffffffffffffffffffffffffffff1673ffffffffffffffffffffffffffffffffffffffff168152602001908152602001600020819055507f326439cb2172b4d536badcf1616ca74141acb75a7a9746b6c4f8b96b4c4c3dc1828260405161071c929190612335565b60405180910390a15050565b610730611424565b61073b600082611495565b6000610748600083611527565b90506000811161078d576040517f08c379a00000000000000000000000000000000000000000000000000000000081526004016107849061256b565b60405180910390fd5b6107996000838361164f565b507fa5a389190ebf6170a133bda5c769b77f4d6715b8aa172ec0ddf8473d0b4944bd82826040516107cb929190612335565b60405180910390a16107db611778565b5050565b60006107ee6000600301611797565b905090565b6107fb61141a565b61080960006003018a6117ac565b506001600060050160008b73ffffffffffffffffffffffffffffffffffffffff1673ffffffffffffffffffffffffffffffffffffffff16815260200190815260200160002060006101000a81548160ff02191690831515021790555087600060070160008b73ffffffffffffffffffffffffffffffffffffffff1673ffffffffffffffffffffffffffffffffffffffff1681526020019081526020016000208190555086600060090160008b73ffffffffffffffffffffffffffffffffffffffff1673ffffffffffffffffffffffffffffffffffffffff1681526020019081526020016000208190555085600060150160008b73ffffffffffffffffffffffffffffffffffffffff1673ffffffffffffffffffffffffffffffffffffffff16815260200190815260200160002060006101000a81548173ffffffffffffffffffffffffffffffffffffffff021916908373ffffffffffffffffffffffffffffffffffffffff16021790555084600060160160008b73ffffffffffffffffffffffffffffffffffffffff1673ffffffffffffffffffffffffffffffffffffffff1681526020019081526020016000208190555083600060170160008b73ffffffffffffffffffffffffffffffffffffffff1673ffffffffffffffffffffffffffffffffffffffff1681526020019081526020016000208190555060008060120160008b73ffffffffffffffffffffffffffffffffffffffff1673ffffffffffffffffffffffffffffffffffffffff168152602001908152602001600020541415610a7257610a64836000601301546117dc90919063ffffffff16565b600060130181905550610af7565b610acc600060120160008b73ffffffffffffffffffffffffffffffffffffffff1673ffffffffffffffffffffffffffffffffffffffff168152602001908152602001600020546000601301546117f290919063ffffffff16565b600060130181905550610aed836000601301546117dc90919063ffffffff16565b6000601301819055505b82600060120160008b73ffffffffffffffffffffffffffffffffffffffff1673ffffffffffffffffffffffffffffffffffffffff16815260200190815260200160002081905550612710600060080160008b73ffffffffffffffffffffffffffffffffffffffff1673ffffffffffffffffffffffffffffffffffffffff16815260200190815260200160002081905550600073ffffffffffffffffffffffffffffffffffffffff168273ffffffffffffffffffffffffffffffffffffffff1614610cbe5781600060180160008b73ffffffffffffffffffffffffffffffffffffffff1673ffffffffffffffffffffffffffffffffffffffff16815260200190815260200160002060006101000a81548173ffffffffffffffffffffffffffffffffffffffff021916908373ffffffffffffffffffffffffffffffffffffffff16021790555080600060190160008b73ffffffffffffffffffffffffffffffffffffffff1673ffffffffffffffffffffffffffffffffffffffff16815260200190815260200160002060006101000a81548173ffffffffffffffffffffffffffffffffffffffff021916908373ffffffffffffffffffffffffffffffffffffffff1602179055505b610cda89600060020160149054906101000a900460ff16611808565b507f92b546b0c6e0fc06020aa248b1e5561da4f21768040a775e45a8b83afad4ebb0898989898989898989604051610d1a9998979695949392919061258b565b60405180910390a1505050505050505050565b60008060080160008373ffffffffffffffffffffffffffffffffffffffff1673ffffffffffffffffffffffffffffffffffffffff168152602001908152602001600020549050919050565b60008060090160008373ffffffffffffffffffffffffffffffffffffffff1673ffffffffffffffffffffffffffffffffffffffff168152602001908152602001600020549050919050565b60008060070160008373ffffffffffffffffffffffffffffffffffffffff1673ffffffffffffffffffffffffffffffffffffffff168152602001908152602001600020549050919050565b60008060120160008373ffffffffffffffffffffffffffffffffffffffff1673ffffffffffffffffffffffffffffffffffffffff168152602001908152602001600020549050919050565b610e6281611891565b50565b6000610e756000600301836118ec565b9050919050565b610e8461141a565b610e8f600082611495565b610e9d60006003018261191c565b50600060050160008273ffffffffffffffffffffffffffffffffffffffff1673ffffffffffffffffffffffffffffffffffffffff16815260200190815260200160002060006101000a81549060ff0219169055600060070160008273ffffffffffffffffffffffffffffffffffffffff1673ffffffffffffffffffffffffffffffffffffffff16815260200190815260200160002060009055600060080160008273ffffffffffffffffffffffffffffffffffffffff1673ffffffffffffffffffffffffffffffffffffffff16815260200190815260200160002060009055600060090160008273ffffffffffffffffffffffffffffffffffffffff1673ffffffffffffffffffffffffffffffffffffffff16815260200190815260200160002060009055600060150160008273ffffffffffffffffffffffffffffffffffffffff1673ffffffffffffffffffffffffffffffffffffffff16815260200190815260200160002060006101000a81549073ffffffffffffffffffffffffffffffffffffffff0219169055600060160160008273ffffffffffffffffffffffffffffffffffffffff1673ffffffffffffffffffffffffffffffffffffffff16815260200190815260200160002060009055600060170160008273ffffffffffffffffffffffffffffffffffffffff1673ffffffffffffffffffffffffffffffffffffffff1681526020019081526020016000206000905560008060120160008373ffffffffffffffffffffffffffffffffffffffff1673ffffffffffffffffffffffffffffffffffffffff16815260200190815260200160002054146111a657611156600060120160008373ffffffffffffffffffffffffffffffffffffffff1673ffffffffffffffffffffffffffffffffffffffff168152602001908152602001600020546000601301546117f290919063ffffffff16565b600060130181905550600060120160008273ffffffffffffffffffffffffffffffffffffffff1673ffffffffffffffffffffffffffffffffffffffff168152602001908152602001600020600090555b600060080160008273ffffffffffffffffffffffffffffffffffffffff1673ffffffffffffffffffffffffffffffffffffffff16815260200190815260200160002060009055600060180160008273ffffffffffffffffffffffffffffffffffffffff1673ffffffffffffffffffffffffffffffffffffffff16815260200190815260200160002060006101000a81549073ffffffffffffffffffffffffffffffffffffffff0219169055600060190160008273ffffffffffffffffffffffffffffffffffffffff1673ffffffffffffffffffffffffffffffffffffffff16815260200190815260200160002060006101000a81549073ffffffffffffffffffffffffffffffffffffffff02191690557f495c0be5e3d6684da4b5918801f3af90b89d76c64348d0177ec923537e87030d816040516112e591906120dc565b60405180910390a150565b60006112fa61141a565b60008060110160008573ffffffffffffffffffffffffffffffffffffffff1673ffffffffffffffffffffffffffffffffffffffff16815260200190815260200160002054905060008114156113535760009150506113e7565b60008060110160008673ffffffffffffffffffffffffffffffffffffffff1673ffffffffffffffffffffffffffffffffffffffff168152602001908152602001600020819055506113a7600085838661194c565b7f4f1b51dd7a2fcb861aa2670f668be66835c4ee12b4bbbf037e4d0018f39819e48484836040516113da93929190612618565b60405180910390a1809150505b92915050565b6000807fc8fcad8db84d3cc18b4c41d551ea0ee66dd599cde068d998e57d5e09332c131c90508091505090565b611422611a4e565b565b6000800160009054906101000a900460ff1615611476576040517f08c379a000000000000000000000000000000000000000000000000000000000815260040161146d9061269b565b60405180910390fd5b60016000800160006101000a81548160ff021916908315150217905550565b8160050160008273ffffffffffffffffffffffffffffffffffffffff1673ffffffffffffffffffffffffffffffffffffffff16815260200190815260200160002060009054906101000a900460ff16611523576040517f08c379a000000000000000000000000000000000000000000000000000000000815260040161151a90612707565b60405180910390fd5b5050565b60008083600a0160008473ffffffffffffffffffffffffffffffffffffffff1673ffffffffffffffffffffffffffffffffffffffff16815260200190815260200160002054905060008373ffffffffffffffffffffffffffffffffffffffff166370a08231306040518263ffffffff1660e01b81526004016115a991906120dc565b602060405180830381865afa1580156115c6573d6000803e3d6000fd5b505050506040513d601f19601f820116820180604052508101906115ea919061273c565b90508085600a0160008673ffffffffffffffffffffffffffffffffffffffff1673ffffffffffffffffffffffffffffffffffffffff1681526020019081526020016000208190555061164582826117f290919063ffffffff16565b9250505092915050565b60006116a58285600c0160008673ffffffffffffffffffffffffffffffffffffffff1673ffffffffffffffffffffffffffffffffffffffff168152602001908152602001600020546117dc90919063ffffffff16565b84600c0160008573ffffffffffffffffffffffffffffffffffffffff1673ffffffffffffffffffffffffffffffffffffffff168152602001908152602001600020819055506116f48484611ae9565b7f976177fbe09a15e5e43f848844963a42b41ef919ef17ff21a17a5421de8f47378383604051611725929190612335565b60405180910390a183600c0160008473ffffffffffffffffffffffffffffffffffffffff1673ffffffffffffffffffffffffffffffffffffffff1681526020019081526020016000205490509392505050565b60008060000160006101000a81548160ff021916908315150217905550565b60006117a582600001611bf0565b9050919050565b60006117d4836000018373ffffffffffffffffffffffffffffffffffffffff1660001b611c01565b905092915050565b600081836117ea9190612798565b905092915050565b6000818361180091906127ee565b905092915050565b60003073ffffffffffffffffffffffffffffffffffffffff16635ae69163846001856040518463ffffffff1660e01b815260040161184893929190612822565b602060405180830381865afa158015611865573d6000803e3d6000fd5b505050506040513d601f19601f82011682018060405250810190611889919061273c565b905092915050565b61189961141a565b60006118a36113ed565b9050818160040160006101000a81548173ffffffffffffffffffffffffffffffffffffffff021916908373ffffffffffffffffffffffffffffffffffffffff1602179055505050565b6000611914836000018373ffffffffffffffffffffffffffffffffffffffff1660001b611c71565b905092915050565b6000611944836000018373ffffffffffffffffffffffffffffffffffffffff1660001b611c94565b905092915050565b6119d8828473ffffffffffffffffffffffffffffffffffffffff166370a08231306040518263ffffffff1660e01b815260040161198991906120dc565b602060405180830381865afa1580156119a6573d6000803e3d6000fd5b505050506040513d601f19601f820116820180604052508101906119ca919061273c565b6117f290919063ffffffff16565b84600a0160008573ffffffffffffffffffffffffffffffffffffffff1673ffffffffffffffffffffffffffffffffffffffff16815260200190815260200160002081905550611a4881838573ffffffffffffffffffffffffffffffffffffffff16611da89092919063ffffffff16565b50505050565b611a566113ed565b60040160009054906101000a900473ffffffffffffffffffffffffffffffffffffffff1673ffffffffffffffffffffffffffffffffffffffff163373ffffffffffffffffffffffffffffffffffffffff1614611ae7576040517f08c379a0000000000000000000000000000000000000000000000000000000008152600401611ade906128cb565b60405180910390fd5b565b60008173ffffffffffffffffffffffffffffffffffffffff166370a08231306040518263ffffffff1660e01b8152600401611b2491906120dc565b602060405180830381865afa158015611b41573d6000803e3d6000fd5b505050506040513d601f19601f82011682018060405250810190611b65919061273c565b90508083600c0160008473ffffffffffffffffffffffffffffffffffffffff1673ffffffffffffffffffffffffffffffffffffffff168152602001908152602001600020541115611beb576040517f08c379a0000000000000000000000000000000000000000000000000000000008152600401611be290612937565b60405180910390fd5b505050565b600081600001805490509050919050565b6000611c0d8383611c71565b611c66578260000182908060018154018082558091505060019003906000526020600020016000909190919091505582600001805490508360010160008481526020019081526020016000208190555060019050611c6b565b600090505b92915050565b600080836001016000848152602001908152602001600020541415905092915050565b60008083600101600084815260200190815260200160002054905060008114611d9c576000600182611cc691906127ee565b9050600060018660000180549050611cde91906127ee565b9050818114611d4d576000866000018281548110611cff57611cfe612957565b5b9060005260206000200154905080876000018481548110611d2357611d22612957565b5b90600052602060002001819055508387600101600083815260200190815260200160002081905550505b85600001805480611d6157611d60612986565b5b600190038181906000526020600020016000905590558560010160008681526020019081526020016000206000905560019350505050611da2565b60009150505b92915050565b611e298363a9059cbb60e01b8484604051602401611dc7929190612335565b604051602081830303815290604052907bffffffffffffffffffffffffffffffffffffffffffffffffffffffff19166020820180517bffffffffffffffffffffffffffffffffffffffffffffffffffffffff8381831617835250505050611e2e565b505050565b6000611e90826040518060400160405280602081526020017f5361666545524332303a206c6f772d6c6576656c2063616c6c206661696c65648152508573ffffffffffffffffffffffffffffffffffffffff16611ef59092919063ffffffff16565b9050600081511115611ef05780806020019051810190611eb091906129e1565b611eef576040517f08c379a0000000000000000000000000000000000000000000000000000000008152600401611ee690612a80565b60405180910390fd5b5b505050565b6060611f048484600085611f0d565b90509392505050565b606082471015611f52576040517f08c379a0000000000000000000000000000000000000000000000000000000008152600401611f4990612b12565b60405180910390fd5b611f5b85612021565b611f9a576040517f08c379a0000000000000000000000000000000000000000000000000000000008152600401611f9190612b7e565b60405180910390fd5b6000808673ffffffffffffffffffffffffffffffffffffffff168587604051611fc39190612c18565b60006040518083038185875af1925050503d8060008114612000576040519150601f19603f3d011682016040523d82523d6000602084013e612005565b606091505b5091509150612015828286612034565b92505050949350505050565b600080823b905060008111915050919050565b6060831561204457829050612094565b6000835111156120575782518084602001fd5b816040517f08c379a000000000000000000000000000000000000000000000000000000000815260040161208b9190612c84565b60405180910390fd5b9392505050565b600073ffffffffffffffffffffffffffffffffffffffff82169050919050565b60006120c68261209b565b9050919050565b6120d6816120bb565b82525050565b60006020820190506120f160008301846120cd565b92915050565b600080fd5b612105816120bb565b811461211057600080fd5b50565b600081359050612122816120fc565b92915050565b6000819050919050565b61213b81612128565b811461214657600080fd5b50565b60008135905061215881612132565b92915050565b60008060408385031215612175576121746120f7565b5b600061218385828601612113565b925050602061219485828601612149565b9150509250929050565b60008115159050919050565b6121b38161219e565b82525050565b60006020820190506121ce60008301846121aa565b92915050565b6121dd81612128565b82525050565b60006020820190506121f860008301846121d4565b92915050565b60008060408385031215612215576122146120f7565b5b600061222385828601612113565b925050602061223485828601612113565b9150509250929050565b600060208284031215612254576122536120f7565b5b600061226284828501612113565b91505092915050565b60008060008060008060008060006101208a8c03121561228e5761228d6120f7565b5b600061229c8c828d01612113565b99505060206122ad8c828d01612149565b98505060406122be8c828d01612149565b97505060606122cf8c828d01612113565b96505060806122e08c828d01612149565b95505060a06122f18c828d01612149565b94505060c06123028c828d01612149565b93505060e06123138c828d01612113565b9250506101006123258c828d01612113565b9150509295985092959850929598565b600060408201905061234a60008301856120cd565b61235760208301846121d4565b9392505050565b600082825260208201905092915050565b7f5661756c743a20616c726561647920696e697469616c697a6564000000000000600082015250565b60006123a5601a8361235e565b91506123b08261236f565b602082019050919050565b600060208201905081810360008301526123d481612398565b9050919050565b7f5661756c743a20696e76616c6964205745544820616464726573730000000000600082015250565b6000612411601b8361235e565b915061241c826123db565b602082019050919050565b6000602082019050818103600083015261244081612404565b9050919050565b7f5661756c743a20696e76616c6964205f6e646f6c206164647265737300000000600082015250565b600061247d601c8361235e565b915061248882612447565b602082019050919050565b600060208201905081810360008301526124ac81612470565b9050919050565b7f5661756c743a2070726963652073707265616420746f6f206c61726765000000600082015250565b60006124e9601d8361235e565b91506124f4826124b3565b602082019050919050565b60006020820190508181036000830152612518816124dc565b9050919050565b7f5661756c743a20696e76616c6964205f746f6b656e416d6f756e740000000000600082015250565b6000612555601b8361235e565b91506125608261251f565b602082019050919050565b6000602082019050818103600083015261258481612548565b9050919050565b6000610120820190506125a1600083018c6120cd565b6125ae602083018b6121d4565b6125bb604083018a6121d4565b6125c860608301896120cd565b6125d560808301886121d4565b6125e260a08301876121d4565b6125ef60c08301866121d4565b6125fc60e08301856120cd565b61260a6101008301846120cd565b9a9950505050505050505050565b600060608201905061262d60008301866120cd565b61263a60208301856120cd565b61264760408301846121d4565b949350505050565b7f436f6e747261637420616c726561647920656e74657265640000000000000000600082015250565b600061268560188361235e565b91506126908261264f565b602082019050919050565b600060208201905081810360008301526126b481612678565b9050919050565b7f5661756c743a20746f6b656e206e6f742077686974656c697374656400000000600082015250565b60006126f1601c8361235e565b91506126fc826126bb565b602082019050919050565b60006020820190508181036000830152612720816126e4565b9050919050565b60008151905061273681612132565b92915050565b600060208284031215612752576127516120f7565b5b600061276084828501612727565b91505092915050565b7f4e487b7100000000000000000000000000000000000000000000000000000000600052601160045260246000fd5b60006127a382612128565b91506127ae83612128565b9250827fffffffffffffffffffffffffffffffffffffffffffffffffffffffffffffffff038211156127e3576127e2612769565b5b828201905092915050565b60006127f982612128565b915061280483612128565b92508282101561281757612816612769565b5b828203905092915050565b600060608201905061283760008301866120cd565b61284460208301856121aa565b61285160408301846121aa565b949350505050565b7f4c69624469616d6f6e643a20696e76616c696420636f6e7472616374206f776e60008201527f6572000000000000000000000000000000000000000000000000000000000000602082015250565b60006128b560228361235e565b91506128c082612859565b604082019050919050565b600060208201905081810360008301526128e4816128a8565b9050919050565b7f5661756c743a20696e76616c696420696e637265617365000000000000000000600082015250565b600061292160178361235e565b915061292c826128eb565b602082019050919050565b6000602082019050818103600083015261295081612914565b9050919050565b7f4e487b7100000000000000000000000000000000000000000000000000000000600052603260045260246000fd5b7f4e487b7100000000000000000000000000000000000000000000000000000000600052603160045260246000fd5b6129be8161219e565b81146129c957600080fd5b50565b6000815190506129db816129b5565b92915050565b6000602082840312156129f7576129f66120f7565b5b6000612a05848285016129cc565b91505092915050565b7f5361666545524332303a204552433230206f7065726174696f6e20646964206e60008201527f6f74207375636365656400000000000000000000000000000000000000000000602082015250565b6000612a6a602a8361235e565b9150612a7582612a0e565b604082019050919050565b60006020820190508181036000830152612a9981612a5d565b9050919050565b7f416464726573733a20696e73756666696369656e742062616c616e636520666f60008201527f722063616c6c0000000000000000000000000000000000000000000000000000602082015250565b6000612afc60268361235e565b9150612b0782612aa0565b604082019050919050565b60006020820190508181036000830152612b2b81612aef565b9050919050565b7f416464726573733a2063616c6c20746f206e6f6e2d636f6e7472616374000000600082015250565b6000612b68601d8361235e565b9150612b7382612b32565b602082019050919050565b60006020820190508181036000830152612b9781612b5b565b9050919050565b600081519050919050565b600081905092915050565b60005b83811015612bd2578082015181840152602081019050612bb7565b83811115612be1576000848401525b50505050565b6000612bf282612b9e565b612bfc8185612ba9565b9350612c0c818560208601612bb4565b80840191505092915050565b6000612c248284612be7565b915081905092915050565b600081519050919050565b6000601f19601f8301169050919050565b6000612c5682612c2f565b612c60818561235e565b9350612c70818560208601612bb4565b612c7981612c3a565b840191505092915050565b60006020820190508181036000830152612c9e8184612c4b565b90509291505056fea26469706673582212205de6bbc971d35c7170b7bb437b00fda20f998001acaeb47dfd341d8003eeb70064736f6c634300080a0033",
  "linkReferences": {},
  "deployedLinkReferences": {}
}