{
  "_format": "hh-sol-artifact-1",
  "contractName": "sNeccFacet",
  "sourceName": "contracts/facets/sNecc/sNeccFacet.sol",
  "abi": [
    {
      "anonymous": false,
      "inputs": [
        {
          "indexed": true,
          "internalType": "address",
          "name": "owner",
          "type": "address"
        },
        {
          "indexed": true,
          "internalType": "address",
          "name": "spender",
          "type": "address"
        },
        {
          "indexed": false,
          "internalType": "uint256",
          "name": "value",
          "type": "uint256"
        }
      ],
      "name": "Approval",
      "type": "event"
    },
    {
      "anonymous": false,
      "inputs": [
        {
          "indexed": true,
          "internalType": "uint256",
          "name": "epoch",
          "type": "uint256"
        },
        {
          "indexed": false,
          "internalType": "uint256",
          "name": "rebase",
          "type": "uint256"
        },
        {
          "indexed": false,
          "internalType": "uint256",
          "name": "index",
          "type": "uint256"
        }
      ],
      "name": "LogRebase",
      "type": "event"
    },
    {
      "anonymous": false,
      "inputs": [
        {
          "indexed": false,
          "internalType": "address",
          "name": "stakingContract",
          "type": "address"
        }
      ],
      "name": "LogStakingContractUpdated",
      "type": "event"
    },
    {
      "anonymous": false,
      "inputs": [
        {
          "indexed": true,
          "internalType": "uint256",
          "name": "epoch",
          "type": "uint256"
        },
        {
          "indexed": false,
          "internalType": "uint256",
          "name": "timestamp",
          "type": "uint256"
        },
        {
          "indexed": false,
          "internalType": "uint256",
          "name": "totalSupply",
          "type": "uint256"
        }
      ],
      "name": "LogSupply",
      "type": "event"
    },
    {
      "anonymous": false,
      "inputs": [
        {
          "indexed": true,
          "internalType": "address",
          "name": "from",
          "type": "address"
        },
        {
          "indexed": true,
          "internalType": "address",
          "name": "to",
          "type": "address"
        },
        {
          "indexed": false,
          "internalType": "uint256",
          "name": "value",
          "type": "uint256"
        }
      ],
      "name": "Transfer",
      "type": "event"
    },
    {
      "inputs": [
        {
          "internalType": "address",
          "name": "holder",
          "type": "address"
        },
        {
          "internalType": "address",
          "name": "spender",
          "type": "address"
        }
      ],
      "name": "allowance",
      "outputs": [
        {
          "internalType": "uint256",
          "name": "",
          "type": "uint256"
        }
      ],
      "stateMutability": "view",
      "type": "function"
    },
    {
      "inputs": [
        {
          "internalType": "address",
          "name": "spender",
          "type": "address"
        },
        {
          "internalType": "uint256",
          "name": "amount",
          "type": "uint256"
        }
      ],
      "name": "approve",
      "outputs": [
        {
          "internalType": "bool",
          "name": "",
          "type": "bool"
        }
      ],
      "stateMutability": "nonpayable",
      "type": "function"
    },
    {
      "inputs": [
        {
          "internalType": "uint256",
          "name": "gons",
          "type": "uint256"
        }
      ],
      "name": "balanceForGons",
      "outputs": [
        {
          "internalType": "uint256",
          "name": "",
          "type": "uint256"
        }
      ],
      "stateMutability": "view",
      "type": "function"
    },
    {
      "inputs": [
        {
          "internalType": "address",
          "name": "who",
          "type": "address"
        }
      ],
      "name": "balanceOf",
      "outputs": [
        {
          "internalType": "uint256",
          "name": "",
          "type": "uint256"
        }
      ],
      "stateMutability": "view",
      "type": "function"
    },
    {
      "inputs": [],
      "name": "circulatingSupply",
      "outputs": [
        {
          "internalType": "uint256",
          "name": "",
          "type": "uint256"
        }
      ],
      "stateMutability": "view",
      "type": "function"
    },
    {
      "inputs": [],
      "name": "decimals",
      "outputs": [
        {
          "internalType": "uint8",
          "name": "",
          "type": "uint8"
        }
      ],
      "stateMutability": "view",
      "type": "function"
    },
    {
      "inputs": [
        {
          "internalType": "address",
          "name": "spender",
          "type": "address"
        },
        {
          "internalType": "uint256",
          "name": "subtractedValue",
          "type": "uint256"
        }
      ],
      "name": "decreaseAllowance",
      "outputs": [
        {
          "internalType": "bool",
          "name": "",
          "type": "bool"
        }
      ],
      "stateMutability": "nonpayable",
      "type": "function"
    },
    {
      "inputs": [
        {
          "internalType": "uint256",
          "name": "amount",
          "type": "uint256"
        }
      ],
      "name": "fromN",
      "outputs": [
        {
          "internalType": "uint256",
          "name": "",
          "type": "uint256"
        }
      ],
      "stateMutability": "view",
      "type": "function"
    },
    {
      "inputs": [
        {
          "internalType": "uint256",
          "name": "amount",
          "type": "uint256"
        }
      ],
      "name": "gonsForBalance",
      "outputs": [
        {
          "internalType": "uint256",
          "name": "",
          "type": "uint256"
        }
      ],
      "stateMutability": "view",
      "type": "function"
    },
    {
      "inputs": [],
      "name": "gov",
      "outputs": [
        {
          "internalType": "address",
          "name": "",
          "type": "address"
        }
      ],
      "stateMutability": "view",
      "type": "function"
    },
    {
      "inputs": [
        {
          "internalType": "address",
          "name": "spender",
          "type": "address"
        },
        {
          "internalType": "uint256",
          "name": "addedValue",
          "type": "uint256"
        }
      ],
      "name": "increaseAllowance",
      "outputs": [
        {
          "internalType": "bool",
          "name": "",
          "type": "bool"
        }
      ],
      "stateMutability": "nonpayable",
      "type": "function"
    },
    {
      "inputs": [],
      "name": "index",
      "outputs": [
        {
          "internalType": "uint256",
          "name": "",
          "type": "uint256"
        }
      ],
      "stateMutability": "view",
      "type": "function"
    },
    {
      "inputs": [
        {
          "internalType": "address",
          "name": "_stakingContract",
          "type": "address"
        },
        {
          "internalType": "address",
          "name": "_nNecc",
          "type": "address"
        }
      ],
      "name": "initialize",
      "outputs": [],
      "stateMutability": "nonpayable",
      "type": "function"
    },
    {
      "inputs": [],
      "name": "name",
      "outputs": [
        {
          "internalType": "string",
          "name": "",
          "type": "string"
        }
      ],
      "stateMutability": "view",
      "type": "function"
    },
    {
      "inputs": [
        {
          "internalType": "address",
          "name": "owner",
          "type": "address"
        }
      ],
      "name": "nonces",
      "outputs": [
        {
          "internalType": "uint256",
          "name": "",
          "type": "uint256"
        }
      ],
      "stateMutability": "view",
      "type": "function"
    },
    {
      "inputs": [
        {
          "internalType": "address",
          "name": "owner",
          "type": "address"
        },
        {
          "internalType": "address",
          "name": "spender",
          "type": "address"
        },
        {
          "internalType": "uint256",
          "name": "amount",
          "type": "uint256"
        },
        {
          "internalType": "uint256",
          "name": "deadline",
          "type": "uint256"
        },
        {
          "internalType": "uint8",
          "name": "v",
          "type": "uint8"
        },
        {
          "internalType": "bytes32",
          "name": "r",
          "type": "bytes32"
        },
        {
          "internalType": "bytes32",
          "name": "s",
          "type": "bytes32"
        }
      ],
      "name": "permit",
      "outputs": [],
      "stateMutability": "nonpayable",
      "type": "function"
    },
    {
      "inputs": [
        {
          "internalType": "uint256",
          "name": "profit_",
          "type": "uint256"
        },
        {
          "internalType": "uint256",
          "name": "epoch_",
          "type": "uint256"
        }
      ],
      "name": "rebase",
      "outputs": [
        {
          "internalType": "uint256",
          "name": "",
          "type": "uint256"
        }
      ],
      "stateMutability": "nonpayable",
      "type": "function"
    },
    {
      "inputs": [
        {
          "internalType": "address",
          "name": "_newOwner",
          "type": "address"
        }
      ],
      "name": "setGov",
      "outputs": [],
      "stateMutability": "nonpayable",
      "type": "function"
    },
    {
      "inputs": [
        {
          "internalType": "uint256",
          "name": "_INDEX",
          "type": "uint256"
        }
      ],
      "name": "setIndex",
      "outputs": [
        {
          "internalType": "bool",
          "name": "",
          "type": "bool"
        }
      ],
      "stateMutability": "nonpayable",
      "type": "function"
    },
    {
      "inputs": [],
      "name": "stakingContract",
      "outputs": [
        {
          "internalType": "address",
          "name": "",
          "type": "address"
        }
      ],
      "stateMutability": "view",
      "type": "function"
    },
    {
      "inputs": [],
      "name": "symbol",
      "outputs": [
        {
          "internalType": "string",
          "name": "",
          "type": "string"
        }
      ],
      "stateMutability": "view",
      "type": "function"
    },
    {
      "inputs": [
        {
          "internalType": "uint256",
          "name": "amount",
          "type": "uint256"
        }
      ],
      "name": "toN",
      "outputs": [
        {
          "internalType": "uint256",
          "name": "",
          "type": "uint256"
        }
      ],
      "stateMutability": "view",
      "type": "function"
    },
    {
      "inputs": [],
      "name": "totalSupply",
      "outputs": [
        {
          "internalType": "uint256",
          "name": "",
          "type": "uint256"
        }
      ],
      "stateMutability": "view",
      "type": "function"
    },
    {
      "inputs": [
        {
          "internalType": "address",
          "name": "to",
          "type": "address"
        },
        {
          "internalType": "uint256",
          "name": "value",
          "type": "uint256"
        }
      ],
      "name": "transfer",
      "outputs": [
        {
          "internalType": "bool",
          "name": "",
          "type": "bool"
        }
      ],
      "stateMutability": "nonpayable",
      "type": "function"
    },
    {
      "inputs": [
        {
          "internalType": "address",
          "name": "from",
          "type": "address"
        },
        {
          "internalType": "address",
          "name": "to",
          "type": "address"
        },
        {
          "internalType": "uint256",
          "name": "value",
          "type": "uint256"
        }
      ],
      "name": "transferFrom",
      "outputs": [
        {
          "internalType": "bool",
          "name": "",
          "type": "bool"
        }
      ],
      "stateMutability": "nonpayable",
      "type": "function"
    }
  ],
  "bytecode": "0x608060405234801561001057600080fd5b50612f54806100206000396000f3fe608060405234801561001057600080fd5b50600436106101735760003560e01c80634a6b9245116100de57806395d89b4111610097578063cfad57a211610071578063cfad57a2146104d6578063d505accf146104f2578063dd62ed3e1461050e578063ee99205c1461053e57610173565b806395d89b4114610458578063a457c2d714610476578063a9059cbb146104a657610173565b80634a6b92451461034a5780636525d0651461037a57806370a08231146103aa5780637965d56d146103da5780637ecebe001461040a5780639358928b1461043a57610173565b806323b872dd1161013057806323b872dd146102625780632986c0e514610292578063313ce567146102b057806339509351146102ce57806340a5737f146102fe578063485cc9551461032e57610173565b8063058ecdb41461017857806306fdde03146101a8578063095ea7b3146101c657806312d43a51146101f657806318160ddd146102145780631bd3967414610232575b600080fd5b610192600480360381019061018d919061220f565b61055c565b60405161019f919061225e565b60405180910390f35b6101b061071c565b6040516101bd9190612312565b60405180910390f35b6101e060048036038101906101db9190612392565b6107b7565b6040516101ed91906123ed565b60405180910390f35b6101fe6107ce565b60405161020b9190612417565b60405180910390f35b61021c6107dd565b604051610229919061225e565b60405180910390f35b61024c60048036038101906102479190612432565b6107ec565b604051610259919061225e565b60405180910390f35b61027c6004803603810190610277919061245f565b610818565b60405161028991906123ed565b60405180910390f35b61029a610a4f565b6040516102a7919061225e565b60405180910390f35b6102b8610a6f565b6040516102c591906124ce565b60405180910390f35b6102e860048036038101906102e39190612392565b610a8f565b6040516102f591906123ed565b60405180910390f35b61031860048036038101906103139190612432565b610ac1565b60405161032591906123ed565b60405180910390f35b610348600480360381019061034391906124e9565b610b30565b005b610364600480360381019061035f9190612432565b610e09565b604051610371919061225e565b60405180910390f35b610394600480360381019061038f9190612432565b610ebc565b6040516103a1919061225e565b60405180910390f35b6103c460048036038101906103bf9190612529565b610f6f565b6040516103d1919061225e565b60405180910390f35b6103f460048036038101906103ef9190612432565b610fdc565b604051610401919061225e565b60405180910390f35b610424600480360381019061041f9190612529565b611008565b604051610431919061225e565b60405180910390f35b61044261105a565b60405161044f919061225e565b60405180910390f35b6104606111fe565b60405161046d9190612312565b60405180910390f35b610490600480360381019061048b9190612392565b611299565b60405161049d91906123ed565b60405180910390f35b6104c060048036038101906104bb9190612392565b6112e9565b6040516104cd91906123ed565b60405180910390f35b6104f060048036038101906104eb9190612529565b6114b4565b005b61050c600480360381019061050791906125b8565b6114c0565b005b610528600480360381019061052391906124e9565b6116e3565b604051610535919061225e565b60405180910390f35b610546611773565b6040516105539190612417565b60405180910390f35b6000806105676117ab565b905060006105736117d8565b905061057e82611805565b60008061058961105a565b9050600087141561062457857f917acfbe39be6509ccf7fecb66a7e42ce2be1083c2d7dd3b9b7491dabddb8da44285600201546040516105ca92919061265a565b60405180910390a2857f6012dbce857565c4a40974aa5de8373a761fc429077ef0c8c8611d1e20d63fb260006105fe610a4f565b60405161060c9291906126c8565b60405180910390a28260020154945050505050610716565b600081111561065d576106568161064885600201548a61189a90919063ffffffff16565b6118b090919063ffffffff16565b9150610661565b8691505b6106788284600201546118c690919063ffffffff16565b83600201819055506000196fffffffffffffffffffffffffffffffff16836002015411156106be576000196fffffffffffffffffffffffffffffffff1683600201819055505b6106f683600201546611c37937e080006000196106db9190612720565b6000196106e89190612780565b6118b090919063ffffffff16565b84600601819055506107098188886118dc565b5082600201549450505050505b92915050565b6060610726611a69565b6000018054610734906127e3565b80601f0160208091040260200160405190810160405280929190818152602001828054610760906127e3565b80156107ad5780601f10610782576101008083540402835291602001916107ad565b820191906000526020600020905b81548152906001019060200180831161079057829003601f168201915b5050505050905090565b60006107c4338484611a96565b6001905092915050565b60006107d8611c6a565b905090565b60006107e7611ca2565b905090565b6000806107f76117ab565b905061081081600601548461189a90919063ffffffff16565b915050919050565b6000806108236117ab565b905061082f8484611299565b503373ffffffffffffffffffffffffffffffffffffffff168573ffffffffffffffffffffffffffffffffffffffff167f8c5be1e5ebec7d5bd14f71427d1e84f3dd0314c0f7b2291e5b200ac8c7c3b92561088933886116e3565b604051610896919061225e565b60405180910390a360006108a9846107ec565b90506108ff818360070160008973ffffffffffffffffffffffffffffffffffffffff1673ffffffffffffffffffffffffffffffffffffffff16815260200190815260200160002054611cb590919063ffffffff16565b8260070160008873ffffffffffffffffffffffffffffffffffffffff1673ffffffffffffffffffffffffffffffffffffffff16815260200190815260200160002081905550610998818360070160008873ffffffffffffffffffffffffffffffffffffffff1673ffffffffffffffffffffffffffffffffffffffff168152602001908152602001600020546118c690919063ffffffff16565b8260070160008773ffffffffffffffffffffffffffffffffffffffff1673ffffffffffffffffffffffffffffffffffffffff168152602001908152602001600020819055508473ffffffffffffffffffffffffffffffffffffffff168673ffffffffffffffffffffffffffffffffffffffff167fddf252ad1be2c89b69c2b068fc378daa952ba7f163c4a11628f55a4df523b3ef86604051610a3a919061225e565b60405180910390a36001925050509392505050565b600080610a5a6117ab565b9050610a698160000154610fdc565b91505090565b6000610a79611a69565b60020160009054906101000a900460ff16905090565b6000610ab73384610ab285610aa433896116e3565b6118c690919063ffffffff16565b611a96565b6001905092915050565b600080610acc6117ab565b90506000816000015414610b15576040517f08c379a0000000000000000000000000000000000000000000000000000000008152600401610b0c90612861565b60405180910390fd5b610b1e836107ec565b81600001819055506001915050919050565b610b38611ccb565b6000610b426117d8565b90506000610b4e611a69565b90506000610b5a6117ab565b9050610ba46040518060400160405280600b81526020017f5374616b6564204e65636300000000000000000000000000000000000000000081525083611cd590919063ffffffff16565b610bec6040518060400160405280600581526020017f734e45434300000000000000000000000000000000000000000000000000000081525083611cf290919063ffffffff16565b610c00600983611d0f90919063ffffffff16565b6611c37937e080008360020181905550610c4883600201546611c37937e08000600019610c2d9190612720565b600019610c3a9190612780565b6118b090919063ffffffff16565b8160060181905550848160010160006101000a81548173ffffffffffffffffffffffffffffffffffffffff021916908373ffffffffffffffffffffffffffffffffffffffff160217905550838160020160006101000a81548173ffffffffffffffffffffffffffffffffffffffff021916908373ffffffffffffffffffffffffffffffffffffffff1602179055506611c37937e08000600019610ceb9190612720565b600019610cf89190612780565b8160070160008360010160009054906101000a900473ffffffffffffffffffffffffffffffffffffffff1673ffffffffffffffffffffffffffffffffffffffff1673ffffffffffffffffffffffffffffffffffffffff168152602001908152602001600020819055508473ffffffffffffffffffffffffffffffffffffffff16600073ffffffffffffffffffffffffffffffffffffffff167fddf252ad1be2c89b69c2b068fc378daa952ba7f163c4a11628f55a4df523b3ef8560020154604051610dc3919061225e565b60405180910390a37f817c653428858ed536dc085c5d8273734c517b55de44b55f5c5877a75e3373a185604051610dfa9190612417565b60405180910390a15050505050565b600080610e146117ab565b90508060020160009054906101000a900473ffffffffffffffffffffffffffffffffffffffff1673ffffffffffffffffffffffffffffffffffffffff1663a8248768846040518263ffffffff1660e01b8152600401610e73919061225e565b602060405180830381865afa158015610e90573d6000803e3d6000fd5b505050506040513d601f19601f82011682018060405250810190610eb49190612896565b915050919050565b600080610ec76117ab565b90508060020160009054906101000a900473ffffffffffffffffffffffffffffffffffffffff1673ffffffffffffffffffffffffffffffffffffffff166366a5236c846040518263ffffffff1660e01b8152600401610f26919061225e565b602060405180830381865afa158015610f43573d6000803e3d6000fd5b505050506040513d601f19601f82011682018060405250810190610f679190612896565b915050919050565b600080610f7a6117ab565b9050610fd481600601548260070160008673ffffffffffffffffffffffffffffffffffffffff1673ffffffffffffffffffffffffffffffffffffffff168152602001908152602001600020546118b090919063ffffffff16565b915050919050565b600080610fe76117ab565b90506110008160060154846118b090919063ffffffff16565b915050919050565b6000611012611d30565b60000160008373ffffffffffffffffffffffffffffffffffffffff1673ffffffffffffffffffffffffffffffffffffffff168152602001908152602001600020549050919050565b6000806110656117ab565b905060006110716117d8565b90506111f78260020160009054906101000a900473ffffffffffffffffffffffffffffffffffffffff1673ffffffffffffffffffffffffffffffffffffffff1663a82487688460020160009054906101000a900473ffffffffffffffffffffffffffffffffffffffff1673ffffffffffffffffffffffffffffffffffffffff166318160ddd6040518163ffffffff1660e01b8152600401602060405180830381865afa158015611125573d6000803e3d6000fd5b505050506040513d601f19601f820116820180604052508101906111499190612896565b6040518263ffffffff1660e01b8152600401611165919061225e565b602060405180830381865afa158015611182573d6000803e3d6000fd5b505050506040513d601f19601f820116820180604052508101906111a69190612896565b6111e96111d68560010160009054906101000a900473ffffffffffffffffffffffffffffffffffffffff16610f6f565b8460020154611cb590919063ffffffff16565b6118c690919063ffffffff16565b9250505090565b6060611208611a69565b6001018054611216906127e3565b80601f0160208091040260200160405190810160405280929190818152602001828054611242906127e3565b801561128f5780601f106112645761010080835404028352916020019161128f565b820191906000526020600020905b81548152906001019060200180831161127257829003601f168201915b5050505050905090565b6000806112a633856116e3565b90508083106112c0576112bb33856000611a96565b6112de565b6112dd33856112d88685611cb590919063ffffffff16565b611a96565b5b600191505092915050565b6000806112f46117ab565b9050600061130f82600601548561189a90919063ffffffff16565b9050611365818360070160003373ffffffffffffffffffffffffffffffffffffffff1673ffffffffffffffffffffffffffffffffffffffff16815260200190815260200160002054611cb590919063ffffffff16565b8260070160003373ffffffffffffffffffffffffffffffffffffffff1673ffffffffffffffffffffffffffffffffffffffff168152602001908152602001600020819055506113fe818360070160008873ffffffffffffffffffffffffffffffffffffffff1673ffffffffffffffffffffffffffffffffffffffff168152602001908152602001600020546118c690919063ffffffff16565b8260070160008773ffffffffffffffffffffffffffffffffffffffff1673ffffffffffffffffffffffffffffffffffffffff168152602001908152602001600020819055508473ffffffffffffffffffffffffffffffffffffffff163373ffffffffffffffffffffffffffffffffffffffff167fddf252ad1be2c89b69c2b068fc378daa952ba7f163c4a11628f55a4df523b3ef866040516114a0919061225e565b60405180910390a360019250505092915050565b6114bd81611d5d565b50565b83421115611503576040517f08c379a00000000000000000000000000000000000000000000000000000000081526004016114fa9061290f565b60405180910390fd5b60008061150e611d30565b60000160008a73ffffffffffffffffffffffffffffffffffffffff1673ffffffffffffffffffffffffffffffffffffffff1681526020019081526020016000205490506040517f6e71edae12b1b97f4d1f60370fef10105fa2faae0126114a169c64845d6126c981528960208201528860408201528760608201528160808201528660a082015260c0812092505060006115a6611db8565b905060006040517f190100000000000000000000000000000000000000000000000000000000000081528260028201528460228201526042812091505060006115fc88888885611e03909392919063ffffffff16565b90508b73ffffffffffffffffffffffffffffffffffffffff168173ffffffffffffffffffffffffffffffffffffffff161461166c576040517f08c379a00000000000000000000000000000000000000000000000000000000081526004016116639061297b565b60405180910390fd5b611674611d30565b60000160008d73ffffffffffffffffffffffffffffffffffffffff1673ffffffffffffffffffffffffffffffffffffffff16815260200190815260200160002060008154809291906116c59061299b565b91905055506116d58c8c8c611a96565b505050505050505050505050565b60006116ed6117d8565b60010160008473ffffffffffffffffffffffffffffffffffffffff1673ffffffffffffffffffffffffffffffffffffffff16815260200190815260200160002060008373ffffffffffffffffffffffffffffffffffffffff1673ffffffffffffffffffffffffffffffffffffffff16815260200190815260200160002054905092915050565b60008061177e6117ab565b90508060010160009054906101000a900473ffffffffffffffffffffffffffffffffffffffff1691505090565b6000807f85cc79b6be0f7f23d750ce271d29ecc56c7c1a80fc209736f2b226ac13ce4e5a90508091505090565b6000807fc991b2e918acaba8e5721668ed0b1982684e5a8692a621bcd2d7ef326bb015b490508091505090565b8060010160009054906101000a900473ffffffffffffffffffffffffffffffffffffffff1673ffffffffffffffffffffffffffffffffffffffff163373ffffffffffffffffffffffffffffffffffffffff1614611897576040517f08c379a000000000000000000000000000000000000000000000000000000000815260040161188e90612a30565b60405180910390fd5b50565b600081836118a89190612a50565b905092915050565b600081836118be9190612aaa565b905092915050565b600081836118d49190612adb565b905092915050565b6000806118e76117ab565b905060006118f36117d8565b9050600061192487611916670de0b6b3a76400008961189a90919063ffffffff16565b6118b090919063ffffffff16565b9050826005016040518060e0016040528087815260200183815260200189815260200161194f61105a565b8152602001888152602001611962610a4f565b8152602001438152509080600181540180825580915050600190039060005260206000209060070201600090919091909150600082015181600001556020820151816001015560408201518160020155606082015181600301556080820151816004015560a0820151816005015560c082015181600601555050847f917acfbe39be6509ccf7fecb66a7e42ce2be1083c2d7dd3b9b7491dabddb8da4428460020154604051611a1292919061265a565b60405180910390a2847f6012dbce857565c4a40974aa5de8373a761fc429077ef0c8c8611d1e20d63fb282611a45610a4f565b604051611a5392919061265a565b60405180910390a2600193505050509392505050565b6000807f2967a798b92539a1b9eefe4d8eb931f96b68d27665e276f1bee2d5db7f74304790508091505090565b600073ffffffffffffffffffffffffffffffffffffffff168373ffffffffffffffffffffffffffffffffffffffff161415611b06576040517f08c379a0000000000000000000000000000000000000000000000000000000008152600401611afd90612ba3565b60405180910390fd5b600073ffffffffffffffffffffffffffffffffffffffff168273ffffffffffffffffffffffffffffffffffffffff161415611b76576040517f08c379a0000000000000000000000000000000000000000000000000000000008152600401611b6d90612c35565b60405180910390fd5b80611b7f6117d8565b60010160008573ffffffffffffffffffffffffffffffffffffffff1673ffffffffffffffffffffffffffffffffffffffff16815260200190815260200160002060008473ffffffffffffffffffffffffffffffffffffffff1673ffffffffffffffffffffffffffffffffffffffff168152602001908152602001600020819055508173ffffffffffffffffffffffffffffffffffffffff168373ffffffffffffffffffffffffffffffffffffffff167f8c5be1e5ebec7d5bd14f71427d1e84f3dd0314c0f7b2291e5b200ac8c7c3b92583604051611c5d919061225e565b60405180910390a3505050565b600080611c75611f8e565b90508060040160009054906101000a900473ffffffffffffffffffffffffffffffffffffffff1691505090565b6000611cac6117d8565b60020154905090565b60008183611cc39190612780565b905092915050565b611cd3611fbb565b565b80826000019080519060200190611ced929190612131565b505050565b80826001019080519060200190611d0a929190612131565b505050565b808260020160006101000a81548160ff021916908360ff1602179055505050565b6000807fbb9c3660b51e1fafa886fcf600a68efa81371bd50359eccba98f0c4fff2cfeb990508091505090565b611d65611fbb565b6000611d6f611f8e565b9050818160040160006101000a81548173ffffffffffffffffffffffffffffffffffffffff021916908373ffffffffffffffffffffffffffffffffffffffff1602179055505050565b600080611dc3611d30565b6001016000611dd0612056565b81526020019081526020016000205490506000801b8114611df45780915050611e00565b611dfc61205e565b9150505b90565b60007f7fffffffffffffffffffffffffffffff5d576e7357a4501ddfe92f46681b20a08260001c1115611e6b576040517f08c379a0000000000000000000000000000000000000000000000000000000008152600401611e6290612cc7565b60405180910390fd5b601b8460ff161480611e805750601c8460ff16145b611ebf576040517f08c379a0000000000000000000000000000000000000000000000000000000008152600401611eb690612d59565b60405180910390fd5b600060018686868660405160008152602001604052604051611ee49493929190612d88565b6020604051602081039080840390855afa158015611f06573d6000803e3d6000fd5b505050602060405103519050600073ffffffffffffffffffffffffffffffffffffffff168173ffffffffffffffffffffffffffffffffffffffff161415611f82576040517f08c379a0000000000000000000000000000000000000000000000000000000008152600401611f7990612e19565b60405180910390fd5b80915050949350505050565b6000807fc8fcad8db84d3cc18b4c41d551ea0ee66dd599cde068d998e57d5e09332c131c90508091505090565b611fc3611f8e565b60040160009054906101000a900473ffffffffffffffffffffffffffffffffffffffff1673ffffffffffffffffffffffffffffffffffffffff163373ffffffffffffffffffffffffffffffffffffffff1614612054576040517f08c379a000000000000000000000000000000000000000000000000000000000815260040161204b90612eab565b60405180910390fd5b565b600046905090565b600080612069612056565b905060007f8b73c3c69bb8fe3d512ecc4cf759cc79239f7b179b0ffacaa9a75d522b39400f61209661071c565b805190602001206040518060400160405280600181526020017f31000000000000000000000000000000000000000000000000000000000000008152508051906020012084306040516020016120f0959493929190612ecb565b60405160208183030381529060405280519060200120905080612111611d30565b600101600084815260200190815260200160002081905550809250505090565b82805461213d906127e3565b90600052602060002090601f01602090048101928261215f57600085556121a6565b82601f1061217857805160ff19168380011785556121a6565b828001600101855582156121a6579182015b828111156121a557825182559160200191906001019061218a565b5b5090506121b391906121b7565b5090565b5b808211156121d05760008160009055506001016121b8565b5090565b600080fd5b6000819050919050565b6121ec816121d9565b81146121f757600080fd5b50565b600081359050612209816121e3565b92915050565b60008060408385031215612226576122256121d4565b5b6000612234858286016121fa565b9250506020612245858286016121fa565b9150509250929050565b612258816121d9565b82525050565b6000602082019050612273600083018461224f565b92915050565b600081519050919050565b600082825260208201905092915050565b60005b838110156122b3578082015181840152602081019050612298565b838111156122c2576000848401525b50505050565b6000601f19601f8301169050919050565b60006122e482612279565b6122ee8185612284565b93506122fe818560208601612295565b612307816122c8565b840191505092915050565b6000602082019050818103600083015261232c81846122d9565b905092915050565b600073ffffffffffffffffffffffffffffffffffffffff82169050919050565b600061235f82612334565b9050919050565b61236f81612354565b811461237a57600080fd5b50565b60008135905061238c81612366565b92915050565b600080604083850312156123a9576123a86121d4565b5b60006123b78582860161237d565b92505060206123c8858286016121fa565b9150509250929050565b60008115159050919050565b6123e7816123d2565b82525050565b600060208201905061240260008301846123de565b92915050565b61241181612354565b82525050565b600060208201905061242c6000830184612408565b92915050565b600060208284031215612448576124476121d4565b5b6000612456848285016121fa565b91505092915050565b600080600060608486031215612478576124776121d4565b5b60006124868682870161237d565b93505060206124978682870161237d565b92505060406124a8868287016121fa565b9150509250925092565b600060ff82169050919050565b6124c8816124b2565b82525050565b60006020820190506124e360008301846124bf565b92915050565b60008060408385031215612500576124ff6121d4565b5b600061250e8582860161237d565b925050602061251f8582860161237d565b9150509250929050565b60006020828403121561253f5761253e6121d4565b5b600061254d8482850161237d565b91505092915050565b61255f816124b2565b811461256a57600080fd5b50565b60008135905061257c81612556565b92915050565b6000819050919050565b61259581612582565b81146125a057600080fd5b50565b6000813590506125b28161258c565b92915050565b600080600080600080600060e0888a0312156125d7576125d66121d4565b5b60006125e58a828b0161237d565b97505060206125f68a828b0161237d565b96505060406126078a828b016121fa565b95505060606126188a828b016121fa565b94505060806126298a828b0161256d565b93505060a061263a8a828b016125a3565b92505060c061264b8a828b016125a3565b91505092959891949750929550565b600060408201905061266f600083018561224f565b61267c602083018461224f565b9392505050565b6000819050919050565b6000819050919050565b60006126b26126ad6126a884612683565b61268d565b6121d9565b9050919050565b6126c281612697565b82525050565b60006040820190506126dd60008301856126b9565b6126ea602083018461224f565b9392505050565b7f4e487b7100000000000000000000000000000000000000000000000000000000600052601260045260246000fd5b600061272b826121d9565b9150612736836121d9565b925082612746576127456126f1565b5b828206905092915050565b7f4e487b7100000000000000000000000000000000000000000000000000000000600052601160045260246000fd5b600061278b826121d9565b9150612796836121d9565b9250828210156127a9576127a8612751565b5b828203905092915050565b7f4e487b7100000000000000000000000000000000000000000000000000000000600052602260045260246000fd5b600060028204905060018216806127fb57607f821691505b6020821081141561280f5761280e6127b4565b5b50919050565b7f496e64657820616c726561647920736574000000000000000000000000000000600082015250565b600061284b601183612284565b915061285682612815565b602082019050919050565b6000602082019050818103600083015261287a8161283e565b9050919050565b600081519050612890816121e3565b92915050565b6000602082840312156128ac576128ab6121d4565b5b60006128ba84828501612881565b91505092915050565b7f45524332305065726d69743a206578706972656420646561646c696e65000000600082015250565b60006128f9601d83612284565b9150612904826128c3565b602082019050919050565b60006020820190508181036000830152612928816128ec565b9050919050565b7f45524332305065726d69743a20696e76616c6964207369676e61747572650000600082015250565b6000612965601e83612284565b91506129708261292f565b602082019050919050565b6000602082019050818103600083015261299481612958565b9050919050565b60006129a6826121d9565b91507fffffffffffffffffffffffffffffffffffffffffffffffffffffffffffffffff8214156129d9576129d8612751565b5b600182019050919050565b7f4e444f4c3a206f6e6c79207374616b696e67436f6e7472616374000000000000600082015250565b6000612a1a601a83612284565b9150612a25826129e4565b602082019050919050565b60006020820190508181036000830152612a4981612a0d565b9050919050565b6000612a5b826121d9565b9150612a66836121d9565b9250817fffffffffffffffffffffffffffffffffffffffffffffffffffffffffffffffff0483118215151615612a9f57612a9e612751565b5b828202905092915050565b6000612ab5826121d9565b9150612ac0836121d9565b925082612ad057612acf6126f1565b5b828204905092915050565b6000612ae6826121d9565b9150612af1836121d9565b9250827fffffffffffffffffffffffffffffffffffffffffffffffffffffffffffffffff03821115612b2657612b25612751565b5b828201905092915050565b7f45524332303a20617070726f76652066726f6d20746865207a65726f2061646460008201527f7265737300000000000000000000000000000000000000000000000000000000602082015250565b6000612b8d602483612284565b9150612b9882612b31565b604082019050919050565b60006020820190508181036000830152612bbc81612b80565b9050919050565b7f45524332303a20617070726f766520746f20746865207a65726f20616464726560008201527f7373000000000000000000000000000000000000000000000000000000000000602082015250565b6000612c1f602283612284565b9150612c2a82612bc3565b604082019050919050565b60006020820190508181036000830152612c4e81612c12565b9050919050565b7f45434453413a20696e76616c6964207369676e6174757265202773272076616c60008201527f7565000000000000000000000000000000000000000000000000000000000000602082015250565b6000612cb1602283612284565b9150612cbc82612c55565b604082019050919050565b60006020820190508181036000830152612ce081612ca4565b9050919050565b7f45434453413a20696e76616c6964207369676e6174757265202776272076616c60008201527f7565000000000000000000000000000000000000000000000000000000000000602082015250565b6000612d43602283612284565b9150612d4e82612ce7565b604082019050919050565b60006020820190508181036000830152612d7281612d36565b9050919050565b612d8281612582565b82525050565b6000608082019050612d9d6000830187612d79565b612daa60208301866124bf565b612db76040830185612d79565b612dc46060830184612d79565b95945050505050565b7f45434453413a20696e76616c6964207369676e61747572650000000000000000600082015250565b6000612e03601883612284565b9150612e0e82612dcd565b602082019050919050565b60006020820190508181036000830152612e3281612df6565b9050919050565b7f4c69624469616d6f6e643a20696e76616c696420636f6e7472616374206f776e60008201527f6572000000000000000000000000000000000000000000000000000000000000602082015250565b6000612e95602283612284565b9150612ea082612e39565b604082019050919050565b60006020820190508181036000830152612ec481612e88565b9050919050565b600060a082019050612ee06000830188612d79565b612eed6020830187612d79565b612efa6040830186612d79565b612f07606083018561224f565b612f146080830184612408565b969550505050505056fea26469706673582212206df104cae11c70dbac4c7cdc2fa4c9e680baf489b844111a80c7f66d0c665a6a64736f6c634300080a0033",
  "linkReferences": {},
  "deployedLinkReferences": {}
}