{
  "_format": "hh-sol-artifact-1",
  "contractName": "NdolFacet",
  "sourceName": "contracts/facets/Ndol/NdolFacet.sol",
  "abi": [
    {
      "anonymous": false,
      "inputs": [
        {
          "indexed": true,
          "internalType": "address",
          "name": "owner",
          "type": "address"
        },
        {
          "indexed": true,
          "internalType": "address",
          "name": "spender",
          "type": "address"
        },
        {
          "indexed": false,
          "internalType": "uint256",
          "name": "value",
          "type": "uint256"
        }
      ],
      "name": "Approval",
      "type": "event"
    },
    {
      "anonymous": false,
      "inputs": [
        {
          "indexed": true,
          "internalType": "address",
          "name": "from",
          "type": "address"
        },
        {
          "indexed": true,
          "internalType": "address",
          "name": "to",
          "type": "address"
        },
        {
          "indexed": false,
          "internalType": "uint256",
          "name": "value",
          "type": "uint256"
        }
      ],
      "name": "Transfer",
      "type": "event"
    },
    {
      "inputs": [
        {
          "internalType": "address",
          "name": "_vault",
          "type": "address"
        }
      ],
      "name": "addVault",
      "outputs": [],
      "stateMutability": "nonpayable",
      "type": "function"
    },
    {
      "inputs": [
        {
          "internalType": "address",
          "name": "holder",
          "type": "address"
        },
        {
          "internalType": "address",
          "name": "spender",
          "type": "address"
        }
      ],
      "name": "allowance",
      "outputs": [
        {
          "internalType": "uint256",
          "name": "",
          "type": "uint256"
        }
      ],
      "stateMutability": "view",
      "type": "function"
    },
    {
      "inputs": [
        {
          "internalType": "address",
          "name": "spender",
          "type": "address"
        },
        {
          "internalType": "uint256",
          "name": "amount",
          "type": "uint256"
        }
      ],
      "name": "approve",
      "outputs": [
        {
          "internalType": "bool",
          "name": "",
          "type": "bool"
        }
      ],
      "stateMutability": "nonpayable",
      "type": "function"
    },
    {
      "inputs": [
        {
          "internalType": "address",
          "name": "account",
          "type": "address"
        }
      ],
      "name": "balanceOf",
      "outputs": [
        {
          "internalType": "uint256",
          "name": "",
          "type": "uint256"
        }
      ],
      "stateMutability": "view",
      "type": "function"
    },
    {
      "inputs": [
        {
          "internalType": "address",
          "name": "_account",
          "type": "address"
        },
        {
          "internalType": "uint256",
          "name": "_amount",
          "type": "uint256"
        }
      ],
      "name": "burn",
      "outputs": [],
      "stateMutability": "nonpayable",
      "type": "function"
    },
    {
      "inputs": [],
      "name": "decimals",
      "outputs": [
        {
          "internalType": "uint8",
          "name": "",
          "type": "uint8"
        }
      ],
      "stateMutability": "view",
      "type": "function"
    },
    {
      "inputs": [
        {
          "internalType": "address",
          "name": "spender",
          "type": "address"
        },
        {
          "internalType": "uint256",
          "name": "amount",
          "type": "uint256"
        }
      ],
      "name": "decreaseAllowance",
      "outputs": [
        {
          "internalType": "bool",
          "name": "",
          "type": "bool"
        }
      ],
      "stateMutability": "nonpayable",
      "type": "function"
    },
    {
      "inputs": [],
      "name": "gov",
      "outputs": [
        {
          "internalType": "address",
          "name": "",
          "type": "address"
        }
      ],
      "stateMutability": "view",
      "type": "function"
    },
    {
      "inputs": [
        {
          "internalType": "address",
          "name": "spender",
          "type": "address"
        },
        {
          "internalType": "uint256",
          "name": "amount",
          "type": "uint256"
        }
      ],
      "name": "increaseAllowance",
      "outputs": [
        {
          "internalType": "bool",
          "name": "",
          "type": "bool"
        }
      ],
      "stateMutability": "nonpayable",
      "type": "function"
    },
    {
      "inputs": [
        {
          "internalType": "address",
          "name": "_vault",
          "type": "address"
        }
      ],
      "name": "initialize",
      "outputs": [],
      "stateMutability": "nonpayable",
      "type": "function"
    },
    {
      "inputs": [
        {
          "internalType": "address",
          "name": "_account",
          "type": "address"
        },
        {
          "internalType": "uint256",
          "name": "_amount",
          "type": "uint256"
        }
      ],
      "name": "mint",
      "outputs": [],
      "stateMutability": "nonpayable",
      "type": "function"
    },
    {
      "inputs": [],
      "name": "name",
      "outputs": [
        {
          "internalType": "string",
          "name": "",
          "type": "string"
        }
      ],
      "stateMutability": "view",
      "type": "function"
    },
    {
      "inputs": [
        {
          "internalType": "address",
          "name": "owner",
          "type": "address"
        }
      ],
      "name": "nonces",
      "outputs": [
        {
          "internalType": "uint256",
          "name": "",
          "type": "uint256"
        }
      ],
      "stateMutability": "view",
      "type": "function"
    },
    {
      "inputs": [
        {
          "internalType": "address",
          "name": "owner",
          "type": "address"
        },
        {
          "internalType": "address",
          "name": "spender",
          "type": "address"
        },
        {
          "internalType": "uint256",
          "name": "amount",
          "type": "uint256"
        },
        {
          "internalType": "uint256",
          "name": "deadline",
          "type": "uint256"
        },
        {
          "internalType": "uint8",
          "name": "v",
          "type": "uint8"
        },
        {
          "internalType": "bytes32",
          "name": "r",
          "type": "bytes32"
        },
        {
          "internalType": "bytes32",
          "name": "s",
          "type": "bytes32"
        }
      ],
      "name": "permit",
      "outputs": [],
      "stateMutability": "nonpayable",
      "type": "function"
    },
    {
      "inputs": [
        {
          "internalType": "address",
          "name": "_vault",
          "type": "address"
        }
      ],
      "name": "removeVault",
      "outputs": [],
      "stateMutability": "nonpayable",
      "type": "function"
    },
    {
      "inputs": [
        {
          "internalType": "address",
          "name": "_newOwner",
          "type": "address"
        }
      ],
      "name": "setGov",
      "outputs": [],
      "stateMutability": "nonpayable",
      "type": "function"
    },
    {
      "inputs": [],
      "name": "symbol",
      "outputs": [
        {
          "internalType": "string",
          "name": "",
          "type": "string"
        }
      ],
      "stateMutability": "view",
      "type": "function"
    },
    {
      "inputs": [],
      "name": "totalSupply",
      "outputs": [
        {
          "internalType": "uint256",
          "name": "",
          "type": "uint256"
        }
      ],
      "stateMutability": "view",
      "type": "function"
    },
    {
      "inputs": [
        {
          "internalType": "address",
          "name": "recipient",
          "type": "address"
        },
        {
          "internalType": "uint256",
          "name": "amount",
          "type": "uint256"
        }
      ],
      "name": "transfer",
      "outputs": [
        {
          "internalType": "bool",
          "name": "",
          "type": "bool"
        }
      ],
      "stateMutability": "nonpayable",
      "type": "function"
    },
    {
      "inputs": [
        {
          "internalType": "address",
          "name": "holder",
          "type": "address"
        },
        {
          "internalType": "address",
          "name": "recipient",
          "type": "address"
        },
        {
          "internalType": "uint256",
          "name": "amount",
          "type": "uint256"
        }
      ],
      "name": "transferFrom",
      "outputs": [
        {
          "internalType": "bool",
          "name": "",
          "type": "bool"
        }
      ],
      "stateMutability": "nonpayable",
      "type": "function"
    },
    {
      "inputs": [
        {
          "internalType": "address",
          "name": "vault",
          "type": "address"
        }
      ],
      "name": "vaults",
      "outputs": [
        {
          "internalType": "bool",
          "name": "",
          "type": "bool"
        }
      ],
      "stateMutability": "view",
      "type": "function"
    }
  ],
  "bytecode": "0x608060405234801561001057600080fd5b50612d6d806100206000396000f3fe608060405234801561001057600080fd5b50600436106101375760003560e01c80637ecebe00116100b8578063a9059cbb1161007c578063a9059cbb14610376578063c4d66de8146103a6578063ceb68c23146103c2578063cfad57a2146103de578063d505accf146103fa578063dd62ed3e1461041657610137565b80637ecebe00146102ac57806395d89b41146102dc5780639dc29fac146102fa578063a457c2d714610316578063a622ee7c1461034657610137565b8063256b5a02116100ff578063256b5a02146101f6578063313ce56714610212578063395093511461023057806340c10f191461026057806370a082311461027c57610137565b806306fdde031461013c578063095ea7b31461015a57806312d43a511461018a57806318160ddd146101a857806323b872dd146101c6575b600080fd5b610144610446565b6040516101519190611e27565b60405180910390f35b610174600480360381019061016f9190611ee2565b6104e1565b6040516101819190611f3d565b60405180910390f35b6101926104f8565b60405161019f9190611f67565b60405180910390f35b6101b0610507565b6040516101bd9190611f91565b60405180910390f35b6101e060048036038101906101db9190611fac565b610516565b6040516101ed9190611f3d565b60405180910390f35b610210600480360381019061020b9190611fff565b610608565b005b61021a61062b565b6040516102279190612048565b60405180910390f35b61024a60048036038101906102459190611ee2565b61064b565b6040516102579190611f3d565b60405180910390f35b61027a60048036038101906102759190611ee2565b61077a565b005b61029660048036038101906102919190611fff565b6107a8565b6040516102a39190611f91565b60405180910390f35b6102c660048036038101906102c19190611fff565b6107ba565b6040516102d39190611f91565b60405180910390f35b6102e461080c565b6040516102f19190611e27565b60405180910390f35b610314600480360381019061030f9190611ee2565b6108a7565b005b610330600480360381019061032b9190611ee2565b6108d5565b60405161033d9190611f3d565b60405180910390f35b610360600480360381019061035b9190611fff565b610a02565b60405161036d9190611f3d565b60405180910390f35b610390600480360381019061038b9190611ee2565b610a2a565b60405161039d9190611f3d565b60405180910390f35b6103c060048036038101906103bb9190611fff565b610a41565b005b6103dc60048036038101906103d79190611fff565b610b1d565b005b6103f860048036038101906103f39190611fff565b610b40565b005b610414600480360381019061040f91906120c5565b610b4c565b005b610430600480360381019061042b9190612167565b610d6f565b60405161043d9190611f91565b60405180910390f35b6060610450610dff565b600001805461045e906121d6565b80601f016020809104026020016040519081016040528092919081815260200182805461048a906121d6565b80156104d75780601f106104ac576101008083540402835291602001916104d7565b820191906000526020600020905b8154815290600101906020018083116104ba57829003601f168201915b5050505050905090565b60006104ee338484610e2c565b6001905092915050565b6000610502611000565b905090565b6000610511611038565b905090565b60008061052161104b565b60010160008673ffffffffffffffffffffffffffffffffffffffff1673ffffffffffffffffffffffffffffffffffffffff16815260200190815260200160002060003373ffffffffffffffffffffffffffffffffffffffff1673ffffffffffffffffffffffffffffffffffffffff168152602001908152602001600020549050828110156105e4576040517f08c379a00000000000000000000000000000000000000000000000000000000081526004016105db9061227a565b60405180910390fd5b6105f18533858403610e2c565b6105fc858585611078565b60019150509392505050565b6000610612611304565b9050610627828261133190919063ffffffff16565b5050565b6000610635610dff565b60020160009054906101000a900460ff16905090565b60008061065661104b565b60010160003373ffffffffffffffffffffffffffffffffffffffff1673ffffffffffffffffffffffffffffffffffffffff168152602001908152602001600020905060008160008673ffffffffffffffffffffffffffffffffffffffff1673ffffffffffffffffffffffffffffffffffffffff168152602001908152602001600020549050808482011015610720576040517f08c379a00000000000000000000000000000000000000000000000000000000081526004016107179061230c565b60405180910390fd5b61076e33868684018560008a73ffffffffffffffffffffffffffffffffffffffff1673ffffffffffffffffffffffffffffffffffffffff168152602001908152602001600020819055610e2c565b60019250505092915050565b6000610784611304565b9050610799338261139790919063ffffffff16565b6107a38383611429565b505050565b60006107b38261158f565b9050919050565b60006107c46115e1565b60000160008373ffffffffffffffffffffffffffffffffffffffff1673ffffffffffffffffffffffffffffffffffffffff168152602001908152602001600020549050919050565b6060610816610dff565b6001018054610824906121d6565b80601f0160208091040260200160405190810160405280929190818152602001828054610850906121d6565b801561089d5780601f106108725761010080835404028352916020019161089d565b820191906000526020600020905b81548152906001019060200180831161088057829003601f168201915b5050505050905090565b60006108b1611304565b90506108c6338261139790919063ffffffff16565b6108d0838361160e565b505050565b6000806108e061104b565b60010160003373ffffffffffffffffffffffffffffffffffffffff1673ffffffffffffffffffffffffffffffffffffffff168152602001908152602001600020905060008160008673ffffffffffffffffffffffffffffffffffffffff1673ffffffffffffffffffffffffffffffffffffffff168152602001908152602001600020549050808411156109a8576040517f08c379a000000000000000000000000000000000000000000000000000000000815260040161099f9061239e565b60405180910390fd5b6109f633868684038560008a73ffffffffffffffffffffffffffffffffffffffff1673ffffffffffffffffffffffffffffffffffffffff168152602001908152602001600020819055610e2c565b60019250505092915050565b600080610a0d611304565b9050610a2283826117ee90919063ffffffff16565b915050919050565b6000610a37338484611078565b6001905092915050565b6000610a4b611304565b90506000610a57610dff565b9050610a61611847565b610aa96040518060400160405280600c81526020017f4e65636320446f6c6c61727300000000000000000000000000000000000000008152508261185190919063ffffffff16565b610af16040518060400160405280600481526020017f4e444f4c000000000000000000000000000000000000000000000000000000008152508261186e90919063ffffffff16565b610b0560128261188b90919063ffffffff16565b610b18838361133190919063ffffffff16565b505050565b6000610b27611304565b9050610b3c82826118ac90919063ffffffff16565b5050565b610b4981611912565b50565b83421115610b8f576040517f08c379a0000000000000000000000000000000000000000000000000000000008152600401610b869061240a565b60405180910390fd5b600080610b9a6115e1565b60000160008a73ffffffffffffffffffffffffffffffffffffffff1673ffffffffffffffffffffffffffffffffffffffff1681526020019081526020016000205490506040517f6e71edae12b1b97f4d1f60370fef10105fa2faae0126114a169c64845d6126c981528960208201528860408201528760608201528160808201528660a082015260c081209250506000610c3261196d565b905060006040517f19010000000000000000000000000000000000000000000000000000000000008152826002820152846022820152604281209150506000610c88888888856119b8909392919063ffffffff16565b90508b73ffffffffffffffffffffffffffffffffffffffff168173ffffffffffffffffffffffffffffffffffffffff1614610cf8576040517f08c379a0000000000000000000000000000000000000000000000000000000008152600401610cef90612476565b60405180910390fd5b610d006115e1565b60000160008d73ffffffffffffffffffffffffffffffffffffffff1673ffffffffffffffffffffffffffffffffffffffff1681526020019081526020016000206000815480929190610d51906124c5565b9190505550610d618c8c8c610e2c565b505050505050505050505050565b6000610d7961104b565b60010160008473ffffffffffffffffffffffffffffffffffffffff1673ffffffffffffffffffffffffffffffffffffffff16815260200190815260200160002060008373ffffffffffffffffffffffffffffffffffffffff1673ffffffffffffffffffffffffffffffffffffffff16815260200190815260200160002054905092915050565b6000807f2967a798b92539a1b9eefe4d8eb931f96b68d27665e276f1bee2d5db7f74304790508091505090565b600073ffffffffffffffffffffffffffffffffffffffff168373ffffffffffffffffffffffffffffffffffffffff161415610e9c576040517f08c379a0000000000000000000000000000000000000000000000000000000008152600401610e9390612580565b60405180910390fd5b600073ffffffffffffffffffffffffffffffffffffffff168273ffffffffffffffffffffffffffffffffffffffff161415610f0c576040517f08c379a0000000000000000000000000000000000000000000000000000000008152600401610f0390612612565b60405180910390fd5b80610f1561104b565b60010160008573ffffffffffffffffffffffffffffffffffffffff1673ffffffffffffffffffffffffffffffffffffffff16815260200190815260200160002060008473ffffffffffffffffffffffffffffffffffffffff1673ffffffffffffffffffffffffffffffffffffffff168152602001908152602001600020819055508173ffffffffffffffffffffffffffffffffffffffff168373ffffffffffffffffffffffffffffffffffffffff167f8c5be1e5ebec7d5bd14f71427d1e84f3dd0314c0f7b2291e5b200ac8c7c3b92583604051610ff39190611f91565b60405180910390a3505050565b60008061100b611b43565b90508060040160009054906101000a900473ffffffffffffffffffffffffffffffffffffffff1691505090565b600061104261104b565b60020154905090565b6000807fc991b2e918acaba8e5721668ed0b1982684e5a8692a621bcd2d7ef326bb015b490508091505090565b600073ffffffffffffffffffffffffffffffffffffffff168373ffffffffffffffffffffffffffffffffffffffff1614156110e8576040517f08c379a00000000000000000000000000000000000000000000000000000000081526004016110df906126a4565b60405180910390fd5b600073ffffffffffffffffffffffffffffffffffffffff168273ffffffffffffffffffffffffffffffffffffffff161415611158576040517f08c379a000000000000000000000000000000000000000000000000000000000815260040161114f90612736565b60405180910390fd5b611163838383611b70565b600061116d61104b565b905060008160000160008673ffffffffffffffffffffffffffffffffffffffff1673ffffffffffffffffffffffffffffffffffffffff168152602001908152602001600020549050828110156111f8576040517f08c379a00000000000000000000000000000000000000000000000000000000081526004016111ef906127c8565b60405180910390fd5b8281038260000160008773ffffffffffffffffffffffffffffffffffffffff1673ffffffffffffffffffffffffffffffffffffffff16815260200190815260200160002081905550828260000160008673ffffffffffffffffffffffffffffffffffffffff1673ffffffffffffffffffffffffffffffffffffffff168152602001908152602001600020600082825461129191906127e8565b925050819055508373ffffffffffffffffffffffffffffffffffffffff168573ffffffffffffffffffffffffffffffffffffffff167fddf252ad1be2c89b69c2b068fc378daa952ba7f163c4a11628f55a4df523b3ef856040516112f59190611f91565b60405180910390a35050505050565b6000807fc44bf86f0b53fa836224f66e8e1673ab1d24877f9e8c87398930ec1c0322e68690508091505090565b611339611847565b60018260000160008373ffffffffffffffffffffffffffffffffffffffff1673ffffffffffffffffffffffffffffffffffffffff16815260200190815260200160002060006101000a81548160ff0219169083151502179055505050565b8160000160008273ffffffffffffffffffffffffffffffffffffffff1673ffffffffffffffffffffffffffffffffffffffff16815260200190815260200160002060009054906101000a900460ff16611425576040517f08c379a000000000000000000000000000000000000000000000000000000000815260040161141c9061288a565b60405180910390fd5b5050565b600073ffffffffffffffffffffffffffffffffffffffff168273ffffffffffffffffffffffffffffffffffffffff161415611499576040517f08c379a0000000000000000000000000000000000000000000000000000000008152600401611490906128f6565b60405180910390fd5b6114a560008383611b70565b60006114af61104b565b9050818160020160008282546114c591906127e8565b92505081905550818160000160008573ffffffffffffffffffffffffffffffffffffffff1673ffffffffffffffffffffffffffffffffffffffff168152602001908152602001600020600082825461151d91906127e8565b925050819055508273ffffffffffffffffffffffffffffffffffffffff16600073ffffffffffffffffffffffffffffffffffffffff167fddf252ad1be2c89b69c2b068fc378daa952ba7f163c4a11628f55a4df523b3ef846040516115829190611f91565b60405180910390a3505050565b600061159961104b565b60000160008373ffffffffffffffffffffffffffffffffffffffff1673ffffffffffffffffffffffffffffffffffffffff168152602001908152602001600020549050919050565b6000807fbb9c3660b51e1fafa886fcf600a68efa81371bd50359eccba98f0c4fff2cfeb990508091505090565b600073ffffffffffffffffffffffffffffffffffffffff168273ffffffffffffffffffffffffffffffffffffffff16141561167e576040517f08c379a000000000000000000000000000000000000000000000000000000000815260040161167590612988565b60405180910390fd5b61168a82600083611b70565b600061169461104b565b905060008160000160008573ffffffffffffffffffffffffffffffffffffffff1673ffffffffffffffffffffffffffffffffffffffff1681526020019081526020016000205490508281101561171f576040517f08c379a000000000000000000000000000000000000000000000000000000000815260040161171690612a1a565b60405180910390fd5b8281038260000160008673ffffffffffffffffffffffffffffffffffffffff1673ffffffffffffffffffffffffffffffffffffffff168152602001908152602001600020819055508282600201600082825461177b9190612a3a565b92505081905550600073ffffffffffffffffffffffffffffffffffffffff168473ffffffffffffffffffffffffffffffffffffffff167fddf252ad1be2c89b69c2b068fc378daa952ba7f163c4a11628f55a4df523b3ef856040516117e09190611f91565b60405180910390a350505050565b60008260000160008373ffffffffffffffffffffffffffffffffffffffff1673ffffffffffffffffffffffffffffffffffffffff16815260200190815260200160002060009054906101000a900460ff16905092915050565b61184f611b75565b565b80826000019080519060200190611869929190611ceb565b505050565b80826001019080519060200190611886929190611ceb565b505050565b808260020160006101000a81548160ff021916908360ff1602179055505050565b6118b4611847565b60008260000160008373ffffffffffffffffffffffffffffffffffffffff1673ffffffffffffffffffffffffffffffffffffffff16815260200190815260200160002060006101000a81548160ff0219169083151502179055505050565b61191a611b75565b6000611924611b43565b9050818160040160006101000a81548173ffffffffffffffffffffffffffffffffffffffff021916908373ffffffffffffffffffffffffffffffffffffffff1602179055505050565b6000806119786115e1565b6001016000611985611c10565b81526020019081526020016000205490506000801b81146119a957809150506119b5565b6119b1611c18565b9150505b90565b60007f7fffffffffffffffffffffffffffffff5d576e7357a4501ddfe92f46681b20a08260001c1115611a20576040517f08c379a0000000000000000000000000000000000000000000000000000000008152600401611a1790612ae0565b60405180910390fd5b601b8460ff161480611a355750601c8460ff16145b611a74576040517f08c379a0000000000000000000000000000000000000000000000000000000008152600401611a6b90612b72565b60405180910390fd5b600060018686868660405160008152602001604052604051611a999493929190612ba1565b6020604051602081039080840390855afa158015611abb573d6000803e3d6000fd5b505050602060405103519050600073ffffffffffffffffffffffffffffffffffffffff168173ffffffffffffffffffffffffffffffffffffffff161415611b37576040517f08c379a0000000000000000000000000000000000000000000000000000000008152600401611b2e90612c32565b60405180910390fd5b80915050949350505050565b6000807fc8fcad8db84d3cc18b4c41d551ea0ee66dd599cde068d998e57d5e09332c131c90508091505090565b505050565b611b7d611b43565b60040160009054906101000a900473ffffffffffffffffffffffffffffffffffffffff1673ffffffffffffffffffffffffffffffffffffffff163373ffffffffffffffffffffffffffffffffffffffff1614611c0e576040517f08c379a0000000000000000000000000000000000000000000000000000000008152600401611c0590612cc4565b60405180910390fd5b565b600046905090565b600080611c23611c10565b905060007f8b73c3c69bb8fe3d512ecc4cf759cc79239f7b179b0ffacaa9a75d522b39400f611c50610446565b805190602001206040518060400160405280600181526020017f3100000000000000000000000000000000000000000000000000000000000000815250805190602001208430604051602001611caa959493929190612ce4565b60405160208183030381529060405280519060200120905080611ccb6115e1565b600101600084815260200190815260200160002081905550809250505090565b828054611cf7906121d6565b90600052602060002090601f016020900481019282611d195760008555611d60565b82601f10611d3257805160ff1916838001178555611d60565b82800160010185558215611d60579182015b82811115611d5f578251825591602001919060010190611d44565b5b509050611d6d9190611d71565b5090565b5b80821115611d8a576000816000905550600101611d72565b5090565b600081519050919050565b600082825260208201905092915050565b60005b83811015611dc8578082015181840152602081019050611dad565b83811115611dd7576000848401525b50505050565b6000601f19601f8301169050919050565b6000611df982611d8e565b611e038185611d99565b9350611e13818560208601611daa565b611e1c81611ddd565b840191505092915050565b60006020820190508181036000830152611e418184611dee565b905092915050565b600080fd5b600073ffffffffffffffffffffffffffffffffffffffff82169050919050565b6000611e7982611e4e565b9050919050565b611e8981611e6e565b8114611e9457600080fd5b50565b600081359050611ea681611e80565b92915050565b6000819050919050565b611ebf81611eac565b8114611eca57600080fd5b50565b600081359050611edc81611eb6565b92915050565b60008060408385031215611ef957611ef8611e49565b5b6000611f0785828601611e97565b9250506020611f1885828601611ecd565b9150509250929050565b60008115159050919050565b611f3781611f22565b82525050565b6000602082019050611f526000830184611f2e565b92915050565b611f6181611e6e565b82525050565b6000602082019050611f7c6000830184611f58565b92915050565b611f8b81611eac565b82525050565b6000602082019050611fa66000830184611f82565b92915050565b600080600060608486031215611fc557611fc4611e49565b5b6000611fd386828701611e97565b9350506020611fe486828701611e97565b9250506040611ff586828701611ecd565b9150509250925092565b60006020828403121561201557612014611e49565b5b600061202384828501611e97565b91505092915050565b600060ff82169050919050565b6120428161202c565b82525050565b600060208201905061205d6000830184612039565b92915050565b61206c8161202c565b811461207757600080fd5b50565b60008135905061208981612063565b92915050565b6000819050919050565b6120a28161208f565b81146120ad57600080fd5b50565b6000813590506120bf81612099565b92915050565b600080600080600080600060e0888a0312156120e4576120e3611e49565b5b60006120f28a828b01611e97565b97505060206121038a828b01611e97565b96505060406121148a828b01611ecd565b95505060606121258a828b01611ecd565b94505060806121368a828b0161207a565b93505060a06121478a828b016120b0565b92505060c06121588a828b016120b0565b91505092959891949750929550565b6000806040838503121561217e5761217d611e49565b5b600061218c85828601611e97565b925050602061219d85828601611e97565b9150509250929050565b7f4e487b7100000000000000000000000000000000000000000000000000000000600052602260045260246000fd5b600060028204905060018216806121ee57607f821691505b60208210811415612202576122016121a7565b5b50919050565b7f45524332303a207472616e7366657220616d6f756e742065786365656473206160008201527f6c6c6f77616e6365000000000000000000000000000000000000000000000000602082015250565b6000612264602883611d99565b915061226f82612208565b604082019050919050565b6000602082019050818103600083015261229381612257565b9050919050565b7f4552433230457874656e6465643a2065786365737369766520616c6c6f77616e60008201527f6365000000000000000000000000000000000000000000000000000000000000602082015250565b60006122f6602283611d99565b91506123018261229a565b604082019050919050565b60006020820190508181036000830152612325816122e9565b9050919050565b7f4552433230457874656e6465643a20696e73756666696369656e7420616c6c6f60008201527f77616e6365000000000000000000000000000000000000000000000000000000602082015250565b6000612388602583611d99565b91506123938261232c565b604082019050919050565b600060208201905081810360008301526123b78161237b565b9050919050565b7f45524332305065726d69743a206578706972656420646561646c696e65000000600082015250565b60006123f4601d83611d99565b91506123ff826123be565b602082019050919050565b60006020820190508181036000830152612423816123e7565b9050919050565b7f45524332305065726d69743a20696e76616c6964207369676e61747572650000600082015250565b6000612460601e83611d99565b915061246b8261242a565b602082019050919050565b6000602082019050818103600083015261248f81612453565b9050919050565b7f4e487b7100000000000000000000000000000000000000000000000000000000600052601160045260246000fd5b60006124d082611eac565b91507fffffffffffffffffffffffffffffffffffffffffffffffffffffffffffffffff82141561250357612502612496565b5b600182019050919050565b7f45524332303a20617070726f76652066726f6d20746865207a65726f2061646460008201527f7265737300000000000000000000000000000000000000000000000000000000602082015250565b600061256a602483611d99565b91506125758261250e565b604082019050919050565b600060208201905081810360008301526125998161255d565b9050919050565b7f45524332303a20617070726f766520746f20746865207a65726f20616464726560008201527f7373000000000000000000000000000000000000000000000000000000000000602082015250565b60006125fc602283611d99565b9150612607826125a0565b604082019050919050565b6000602082019050818103600083015261262b816125ef565b9050919050565b7f45524332303a207472616e736665722066726f6d20746865207a65726f20616460008201527f6472657373000000000000000000000000000000000000000000000000000000602082015250565b600061268e602583611d99565b915061269982612632565b604082019050919050565b600060208201905081810360008301526126bd81612681565b9050919050565b7f45524332303a207472616e7366657220746f20746865207a65726f206164647260008201527f6573730000000000000000000000000000000000000000000000000000000000602082015250565b6000612720602383611d99565b915061272b826126c4565b604082019050919050565b6000602082019050818103600083015261274f81612713565b9050919050565b7f45524332303a207472616e7366657220616d6f756e742065786365656473206260008201527f616c616e63650000000000000000000000000000000000000000000000000000602082015250565b60006127b2602683611d99565b91506127bd82612756565b604082019050919050565b600060208201905081810360008301526127e1816127a5565b9050919050565b60006127f382611eac565b91506127fe83611eac565b9250827fffffffffffffffffffffffffffffffffffffffffffffffffffffffffffffffff0382111561283357612832612496565b5b828201905092915050565b7f4e444f4c3a206f6e6c79207661756c7473000000000000000000000000000000600082015250565b6000612874601183611d99565b915061287f8261283e565b602082019050919050565b600060208201905081810360008301526128a381612867565b9050919050565b7f45524332303a206d696e7420746f20746865207a65726f206164647265737300600082015250565b60006128e0601f83611d99565b91506128eb826128aa565b602082019050919050565b6000602082019050818103600083015261290f816128d3565b9050919050565b7f45524332303a206275726e2066726f6d20746865207a65726f2061646472657360008201527f7300000000000000000000000000000000000000000000000000000000000000602082015250565b6000612972602183611d99565b915061297d82612916565b604082019050919050565b600060208201905081810360008301526129a181612965565b9050919050565b7f45524332303a206275726e20616d6f756e7420657863656564732062616c616e60008201527f6365000000000000000000000000000000000000000000000000000000000000602082015250565b6000612a04602283611d99565b9150612a0f826129a8565b604082019050919050565b60006020820190508181036000830152612a33816129f7565b9050919050565b6000612a4582611eac565b9150612a5083611eac565b925082821015612a6357612a62612496565b5b828203905092915050565b7f45434453413a20696e76616c6964207369676e6174757265202773272076616c60008201527f7565000000000000000000000000000000000000000000000000000000000000602082015250565b6000612aca602283611d99565b9150612ad582612a6e565b604082019050919050565b60006020820190508181036000830152612af981612abd565b9050919050565b7f45434453413a20696e76616c6964207369676e6174757265202776272076616c60008201527f7565000000000000000000000000000000000000000000000000000000000000602082015250565b6000612b5c602283611d99565b9150612b6782612b00565b604082019050919050565b60006020820190508181036000830152612b8b81612b4f565b9050919050565b612b9b8161208f565b82525050565b6000608082019050612bb66000830187612b92565b612bc36020830186612039565b612bd06040830185612b92565b612bdd6060830184612b92565b95945050505050565b7f45434453413a20696e76616c6964207369676e61747572650000000000000000600082015250565b6000612c1c601883611d99565b9150612c2782612be6565b602082019050919050565b60006020820190508181036000830152612c4b81612c0f565b9050919050565b7f4c69624469616d6f6e643a20696e76616c696420636f6e7472616374206f776e60008201527f6572000000000000000000000000000000000000000000000000000000000000602082015250565b6000612cae602283611d99565b9150612cb982612c52565b604082019050919050565b60006020820190508181036000830152612cdd81612ca1565b9050919050565b600060a082019050612cf96000830188612b92565b612d066020830187612b92565b612d136040830186612b92565b612d206060830185611f82565b612d2d6080830184611f58565b969550505050505056fea2646970667358221220e733ab156753ae731882eb5324b59bc0adac3f29af87abca30a3b10589cf56d364736f6c634300080a0033",
  "linkReferences": {},
  "deployedLinkReferences": {}
}