{
  "_format": "hh-sol-artifact-1",
  "contractName": "MintFarm",
  "sourceName": "contracts/core/Farm/MintFarm.sol",
  "abi": [
    {
      "anonymous": false,
      "inputs": [
        {
          "indexed": true,
          "internalType": "address",
          "name": "who",
          "type": "address"
        },
        {
          "indexed": false,
          "internalType": "uint256",
          "name": "amountClaimed",
          "type": "uint256"
        }
      ],
      "name": "Claim",
      "type": "event"
    },
    {
      "anonymous": false,
      "inputs": [
        {
          "indexed": true,
          "internalType": "address",
          "name": "previousOwner",
          "type": "address"
        },
        {
          "indexed": true,
          "internalType": "address",
          "name": "newOwner",
          "type": "address"
        }
      ],
      "name": "OwnershipTransferred",
      "type": "event"
    },
    {
      "anonymous": false,
      "inputs": [
        {
          "indexed": true,
          "internalType": "address",
          "name": "who",
          "type": "address"
        },
        {
          "indexed": false,
          "internalType": "uint256",
          "name": "amountStaked",
          "type": "uint256"
        }
      ],
      "name": "Stake",
      "type": "event"
    },
    {
      "anonymous": false,
      "inputs": [
        {
          "indexed": true,
          "internalType": "address",
          "name": "who",
          "type": "address"
        },
        {
          "indexed": false,
          "internalType": "uint256",
          "name": "amountUnstaked",
          "type": "uint256"
        }
      ],
      "name": "Unstake",
      "type": "event"
    },
    {
      "inputs": [],
      "name": "claim",
      "outputs": [],
      "stateMutability": "nonpayable",
      "type": "function"
    },
    {
      "inputs": [
        {
          "internalType": "address",
          "name": "account",
          "type": "address"
        }
      ],
      "name": "claimable",
      "outputs": [
        {
          "internalType": "uint256",
          "name": "",
          "type": "uint256"
        }
      ],
      "stateMutability": "view",
      "type": "function"
    },
    {
      "inputs": [
        {
          "internalType": "address",
          "name": "",
          "type": "address"
        }
      ],
      "name": "claimableReward",
      "outputs": [
        {
          "internalType": "uint256",
          "name": "",
          "type": "uint256"
        }
      ],
      "stateMutability": "view",
      "type": "function"
    },
    {
      "inputs": [],
      "name": "cumulativeRewardPerToken",
      "outputs": [
        {
          "internalType": "uint256",
          "name": "",
          "type": "uint256"
        }
      ],
      "stateMutability": "view",
      "type": "function"
    },
    {
      "inputs": [
        {
          "internalType": "uint256",
          "name": "amount",
          "type": "uint256"
        }
      ],
      "name": "exit",
      "outputs": [],
      "stateMutability": "nonpayable",
      "type": "function"
    },
    {
      "inputs": [
        {
          "internalType": "contract IDistributor",
          "name": "_rewardDistributor",
          "type": "address"
        },
        {
          "internalType": "contract IERC20",
          "name": "_stakingToken",
          "type": "address"
        }
      ],
      "name": "initialize",
      "outputs": [],
      "stateMutability": "nonpayable",
      "type": "function"
    },
    {
      "inputs": [],
      "name": "owner",
      "outputs": [
        {
          "internalType": "address",
          "name": "",
          "type": "address"
        }
      ],
      "stateMutability": "view",
      "type": "function"
    },
    {
      "inputs": [
        {
          "internalType": "address",
          "name": "",
          "type": "address"
        }
      ],
      "name": "previousCumulatedRewardPerToken",
      "outputs": [
        {
          "internalType": "uint256",
          "name": "",
          "type": "uint256"
        }
      ],
      "stateMutability": "view",
      "type": "function"
    },
    {
      "inputs": [],
      "name": "renounceOwnership",
      "outputs": [],
      "stateMutability": "nonpayable",
      "type": "function"
    },
    {
      "inputs": [],
      "name": "rewardDistributor",
      "outputs": [
        {
          "internalType": "contract IDistributor",
          "name": "",
          "type": "address"
        }
      ],
      "stateMutability": "view",
      "type": "function"
    },
    {
      "inputs": [],
      "name": "rewardToken",
      "outputs": [
        {
          "internalType": "contract IERC20",
          "name": "",
          "type": "address"
        }
      ],
      "stateMutability": "view",
      "type": "function"
    },
    {
      "inputs": [
        {
          "internalType": "uint256",
          "name": "amount",
          "type": "uint256"
        }
      ],
      "name": "stake",
      "outputs": [],
      "stateMutability": "nonpayable",
      "type": "function"
    },
    {
      "inputs": [
        {
          "internalType": "address",
          "name": "",
          "type": "address"
        }
      ],
      "name": "staked",
      "outputs": [
        {
          "internalType": "uint256",
          "name": "",
          "type": "uint256"
        }
      ],
      "stateMutability": "view",
      "type": "function"
    },
    {
      "inputs": [],
      "name": "stakingToken",
      "outputs": [
        {
          "internalType": "contract IERC20",
          "name": "",
          "type": "address"
        }
      ],
      "stateMutability": "view",
      "type": "function"
    },
    {
      "inputs": [],
      "name": "totalClaimedRewards",
      "outputs": [
        {
          "internalType": "uint256",
          "name": "",
          "type": "uint256"
        }
      ],
      "stateMutability": "view",
      "type": "function"
    },
    {
      "inputs": [],
      "name": "totalFarmRewards",
      "outputs": [
        {
          "internalType": "uint256",
          "name": "",
          "type": "uint256"
        }
      ],
      "stateMutability": "view",
      "type": "function"
    },
    {
      "inputs": [],
      "name": "totalStaked",
      "outputs": [
        {
          "internalType": "uint256",
          "name": "",
          "type": "uint256"
        }
      ],
      "stateMutability": "view",
      "type": "function"
    },
    {
      "inputs": [
        {
          "internalType": "address",
          "name": "newOwner",
          "type": "address"
        }
      ],
      "name": "transferOwnership",
      "outputs": [],
      "stateMutability": "nonpayable",
      "type": "function"
    },
    {
      "inputs": [
        {
          "internalType": "uint256",
          "name": "amount",
          "type": "uint256"
        }
      ],
      "name": "unstake",
      "outputs": [],
      "stateMutability": "nonpayable",
      "type": "function"
    }
  ],
  "bytecode": "0x60806040523480156200001157600080fd5b5062000032620000266200003860201b60201c565b6200004060201b60201c565b62000104565b600033905090565b60008060009054906101000a900473ffffffffffffffffffffffffffffffffffffffff169050816000806101000a81548173ffffffffffffffffffffffffffffffffffffffff021916908373ffffffffffffffffffffffffffffffffffffffff1602179055508173ffffffffffffffffffffffffffffffffffffffff168173ffffffffffffffffffffffffffffffffffffffff167f8be0079c531659141344cd1fd0a4f28419497f9722a3daafe3b4186f6b6457e060405160405180910390a35050565b612e5380620001146000396000f3fe608060405234801561001057600080fd5b50600436106101215760003560e01c80638da5cb5b116100ad578063e950342511610071578063e9503425146102d0578063ea0cddfe14610300578063f2fde38b1461031e578063f5fc50761461033a578063f7c618c11461035857610121565b80638da5cb5b1461022a57806398807d8414610248578063a694fc3a14610278578063acc2166a14610294578063d578ceab146102b257610121565b80634e71d92d116100f45780634e71d92d146101be578063715018a6146101c857806372f702f3146101d25780637f8661a1146101f0578063817b1cd21461020c57610121565b80632e17de7814610126578063402914f51461014257806344a0841114610172578063485cc955146101a2575b600080fd5b610140600480360381019061013b919061266e565b610376565b005b61015c600480360381019061015791906126f9565b610860565b6040516101699190612735565b60405180910390f35b61018c600480360381019061018791906126f9565b610b27565b6040516101999190612735565b60405180910390f35b6101bc60048036038101906101b791906127cc565b610b3f565b005b6101c6610dee565b005b6101d06112d6565b005b6101da61135e565b6040516101e7919061286b565b60405180910390f35b61020a6004803603810190610205919061266e565b611384565b005b610214611876565b6040516102219190612735565b60405180910390f35b61023261187c565b60405161023f9190612895565b60405180910390f35b610262600480360381019061025d91906126f9565b6118a5565b60405161026f9190612735565b60405180910390f35b610292600480360381019061028d919061266e565b6118bd565b005b61029c611f98565b6040516102a991906128d1565b60405180910390f35b6102ba611fbe565b6040516102c79190612735565b60405180910390f35b6102ea60048036038101906102e591906126f9565b611fc4565b6040516102f79190612735565b60405180910390f35b610308611fdc565b6040516103159190612735565b60405180910390f35b610338600480360381019061033391906126f9565b611fe2565b005b6103426120da565b60405161034f9190612735565b60405180910390f35b6103606120e0565b60405161036d919061286b565b60405180910390f35b6000600260009054906101000a900473ffffffffffffffffffffffffffffffffffffffff1673ffffffffffffffffffffffffffffffffffffffff166370a08231600360009054906101000a900473ffffffffffffffffffffffffffffffffffffffff166040518263ffffffff1660e01b81526004016103f59190612895565b602060405180830381865afa158015610412573d6000803e3d6000fd5b505050506040513d601f19601f820116820180604052508101906104369190612901565b1180156104fe57503073ffffffffffffffffffffffffffffffffffffffff16600360009054906101000a900473ffffffffffffffffffffffffffffffffffffffff1673ffffffffffffffffffffffffffffffffffffffff166338af3eed6040518163ffffffff1660e01b8152600401602060405180830381865afa1580156104c2573d6000803e3d6000fd5b505050506040513d601f19601f820116820180604052508101906104e69190612943565b73ffffffffffffffffffffffffffffffffffffffff16145b1561058657600360009054906101000a900473ffffffffffffffffffffffffffffffffffffffff1673ffffffffffffffffffffffffffffffffffffffff1663e4fc6b6d6040518163ffffffff1660e01b8152600401600060405180830381600087803b15801561056d57600080fd5b505af1158015610581573d6000803e3d6000fd5b505050505b60006106576c0c9f2c9cd04674edea40000000610649600954600260009054906101000a900473ffffffffffffffffffffffffffffffffffffffff1673ffffffffffffffffffffffffffffffffffffffff166370a08231306040518263ffffffff1660e01b81526004016105fa9190612895565b602060405180830381865afa158015610617573d6000803e3d6000fd5b505050506040513d601f19601f8201168201806040525081019061063b9190612901565b61210690919063ffffffff16565b61211c90919063ffffffff16565b90506000610670600a548361213290919063ffffffff16565b905081600a81905550600060045411156106b4576106ad61069c6004548361214890919063ffffffff16565b60065461210690919063ffffffff16565b6006819055505b6107c961077b6c0c9f2c9cd04674edea4000000061076d61071f600760003373ffffffffffffffffffffffffffffffffffffffff1673ffffffffffffffffffffffffffffffffffffffff1681526020019081526020016000205460065461213290919063ffffffff16565b600560003373ffffffffffffffffffffffffffffffffffffffff1673ffffffffffffffffffffffffffffffffffffffff1681526020019081526020016000205461211c90919063ffffffff16565b61214890919063ffffffff16565b600860003373ffffffffffffffffffffffffffffffffffffffff1673ffffffffffffffffffffffffffffffffffffffff1681526020019081526020016000205461210690919063ffffffff16565b600860003373ffffffffffffffffffffffffffffffffffffffff1673ffffffffffffffffffffffffffffffffffffffff16815260200190815260200160002081905550600654600760003373ffffffffffffffffffffffffffffffffffffffff1673ffffffffffffffffffffffffffffffffffffffff1681526020019081526020016000208190555061085b8361215e565b505050565b600080600560008473ffffffffffffffffffffffffffffffffffffffff1673ffffffffffffffffffffffffffffffffffffffff1681526020019081526020016000205414156108f057600860008373ffffffffffffffffffffffffffffffffffffffff1673ffffffffffffffffffffffffffffffffffffffff168152602001908152602001600020549050610b22565b60006109c16c0c9f2c9cd04674edea400000006109b3600954600260009054906101000a900473ffffffffffffffffffffffffffffffffffffffff1673ffffffffffffffffffffffffffffffffffffffff166370a08231306040518263ffffffff1660e01b81526004016109649190612895565b602060405180830381865afa158015610981573d6000803e3d6000fd5b505050506040513d601f19601f820116820180604052508101906109a59190612901565b61210690919063ffffffff16565b61211c90919063ffffffff16565b905060006109da600a548361213290919063ffffffff16565b90506000610a076109f66004548461214890919063ffffffff16565b60065461210690919063ffffffff16565b9050610b1c610ace6c0c9f2c9cd04674edea40000000610ac0610a72600760008b73ffffffffffffffffffffffffffffffffffffffff1673ffffffffffffffffffffffffffffffffffffffff168152602001908152602001600020548661213290919063ffffffff16565b600560008b73ffffffffffffffffffffffffffffffffffffffff1673ffffffffffffffffffffffffffffffffffffffff1681526020019081526020016000205461211c90919063ffffffff16565b61214890919063ffffffff16565b600860008873ffffffffffffffffffffffffffffffffffffffff1673ffffffffffffffffffffffffffffffffffffffff1681526020019081526020016000205461210690919063ffffffff16565b93505050505b919050565b60076020528060005260406000206000915090505481565b610b4761238a565b73ffffffffffffffffffffffffffffffffffffffff16610b6561187c565b73ffffffffffffffffffffffffffffffffffffffff1614610bbb576040517f08c379a0000000000000000000000000000000000000000000000000000000008152600401610bb2906129cd565b60405180910390fd5b80600160006101000a81548173ffffffffffffffffffffffffffffffffffffffff021916908373ffffffffffffffffffffffffffffffffffffffff16021790555081600360006101000a81548173ffffffffffffffffffffffffffffffffffffffff021916908373ffffffffffffffffffffffffffffffffffffffff1602179055508173ffffffffffffffffffffffffffffffffffffffff1663f7c618c16040518163ffffffff1660e01b8152600401602060405180830381865afa158015610c88573d6000803e3d6000fd5b505050506040513d601f19601f82011682018060405250810190610cac9190612a02565b600260006101000a81548173ffffffffffffffffffffffffffffffffffffffff021916908373ffffffffffffffffffffffffffffffffffffffff1602179055503073ffffffffffffffffffffffffffffffffffffffff16600360009054906101000a900473ffffffffffffffffffffffffffffffffffffffff1673ffffffffffffffffffffffffffffffffffffffff166338af3eed6040518163ffffffff1660e01b8152600401602060405180830381865afa158015610d70573d6000803e3d6000fd5b505050506040513d601f19601f82011682018060405250810190610d949190612943565b73ffffffffffffffffffffffffffffffffffffffff1614610dea576040517f08c379a0000000000000000000000000000000000000000000000000000000008152600401610de190612aa1565b60405180910390fd5b5050565b6000600260009054906101000a900473ffffffffffffffffffffffffffffffffffffffff1673ffffffffffffffffffffffffffffffffffffffff166370a08231600360009054906101000a900473ffffffffffffffffffffffffffffffffffffffff166040518263ffffffff1660e01b8152600401610e6d9190612895565b602060405180830381865afa158015610e8a573d6000803e3d6000fd5b505050506040513d601f19601f82011682018060405250810190610eae9190612901565b118015610f7657503073ffffffffffffffffffffffffffffffffffffffff16600360009054906101000a900473ffffffffffffffffffffffffffffffffffffffff1673ffffffffffffffffffffffffffffffffffffffff166338af3eed6040518163ffffffff1660e01b8152600401602060405180830381865afa158015610f3a573d6000803e3d6000fd5b505050506040513d601f19601f82011682018060405250810190610f5e9190612943565b73ffffffffffffffffffffffffffffffffffffffff16145b15610ffe57600360009054906101000a900473ffffffffffffffffffffffffffffffffffffffff1673ffffffffffffffffffffffffffffffffffffffff1663e4fc6b6d6040518163ffffffff1660e01b8152600401600060405180830381600087803b158015610fe557600080fd5b505af1158015610ff9573d6000803e3d6000fd5b505050505b60006110cf6c0c9f2c9cd04674edea400000006110c1600954600260009054906101000a900473ffffffffffffffffffffffffffffffffffffffff1673ffffffffffffffffffffffffffffffffffffffff166370a08231306040518263ffffffff1660e01b81526004016110729190612895565b602060405180830381865afa15801561108f573d6000803e3d6000fd5b505050506040513d601f19601f820116820180604052508101906110b39190612901565b61210690919063ffffffff16565b61211c90919063ffffffff16565b905060006110e8600a548361213290919063ffffffff16565b905081600a819055506000600454111561112c576111256111146004548361214890919063ffffffff16565b60065461210690919063ffffffff16565b6006819055505b6112416111f36c0c9f2c9cd04674edea400000006111e5611197600760003373ffffffffffffffffffffffffffffffffffffffff1673ffffffffffffffffffffffffffffffffffffffff1681526020019081526020016000205460065461213290919063ffffffff16565b600560003373ffffffffffffffffffffffffffffffffffffffff1673ffffffffffffffffffffffffffffffffffffffff1681526020019081526020016000205461211c90919063ffffffff16565b61214890919063ffffffff16565b600860003373ffffffffffffffffffffffffffffffffffffffff1673ffffffffffffffffffffffffffffffffffffffff1681526020019081526020016000205461210690919063ffffffff16565b600860003373ffffffffffffffffffffffffffffffffffffffff1673ffffffffffffffffffffffffffffffffffffffff16815260200190815260200160002081905550600654600760003373ffffffffffffffffffffffffffffffffffffffff1673ffffffffffffffffffffffffffffffffffffffff168152602001908152602001600020819055506112d2612392565b5050565b6112de61238a565b73ffffffffffffffffffffffffffffffffffffffff166112fc61187c565b73ffffffffffffffffffffffffffffffffffffffff1614611352576040517f08c379a0000000000000000000000000000000000000000000000000000000008152600401611349906129cd565b60405180910390fd5b61135c600061256f565b565b600160009054906101000a900473ffffffffffffffffffffffffffffffffffffffff1681565b6000600260009054906101000a900473ffffffffffffffffffffffffffffffffffffffff1673ffffffffffffffffffffffffffffffffffffffff166370a08231600360009054906101000a900473ffffffffffffffffffffffffffffffffffffffff166040518263ffffffff1660e01b81526004016114039190612895565b602060405180830381865afa158015611420573d6000803e3d6000fd5b505050506040513d601f19601f820116820180604052508101906114449190612901565b11801561150c57503073ffffffffffffffffffffffffffffffffffffffff16600360009054906101000a900473ffffffffffffffffffffffffffffffffffffffff1673ffffffffffffffffffffffffffffffffffffffff166338af3eed6040518163ffffffff1660e01b8152600401602060405180830381865afa1580156114d0573d6000803e3d6000fd5b505050506040513d601f19601f820116820180604052508101906114f49190612943565b73ffffffffffffffffffffffffffffffffffffffff16145b1561159457600360009054906101000a900473ffffffffffffffffffffffffffffffffffffffff1673ffffffffffffffffffffffffffffffffffffffff1663e4fc6b6d6040518163ffffffff1660e01b8152600401600060405180830381600087803b15801561157b57600080fd5b505af115801561158f573d6000803e3d6000fd5b505050505b60006116656c0c9f2c9cd04674edea40000000611657600954600260009054906101000a900473ffffffffffffffffffffffffffffffffffffffff1673ffffffffffffffffffffffffffffffffffffffff166370a08231306040518263ffffffff1660e01b81526004016116089190612895565b602060405180830381865afa158015611625573d6000803e3d6000fd5b505050506040513d601f19601f820116820180604052508101906116499190612901565b61210690919063ffffffff16565b61211c90919063ffffffff16565b9050600061167e600a548361213290919063ffffffff16565b905081600a81905550600060045411156116c2576116bb6116aa6004548361214890919063ffffffff16565b60065461210690919063ffffffff16565b6006819055505b6117d76117896c0c9f2c9cd04674edea4000000061177b61172d600760003373ffffffffffffffffffffffffffffffffffffffff1673ffffffffffffffffffffffffffffffffffffffff1681526020019081526020016000205460065461213290919063ffffffff16565b600560003373ffffffffffffffffffffffffffffffffffffffff1673ffffffffffffffffffffffffffffffffffffffff1681526020019081526020016000205461211c90919063ffffffff16565b61214890919063ffffffff16565b600860003373ffffffffffffffffffffffffffffffffffffffff1673ffffffffffffffffffffffffffffffffffffffff1681526020019081526020016000205461210690919063ffffffff16565b600860003373ffffffffffffffffffffffffffffffffffffffff1673ffffffffffffffffffffffffffffffffffffffff16815260200190815260200160002081905550600654600760003373ffffffffffffffffffffffffffffffffffffffff1673ffffffffffffffffffffffffffffffffffffffff168152602001908152602001600020819055506118698361215e565b611871612392565b505050565b60045481565b60008060009054906101000a900473ffffffffffffffffffffffffffffffffffffffff16905090565b60056020528060005260406000206000915090505481565b6000600260009054906101000a900473ffffffffffffffffffffffffffffffffffffffff1673ffffffffffffffffffffffffffffffffffffffff166370a08231600360009054906101000a900473ffffffffffffffffffffffffffffffffffffffff166040518263ffffffff1660e01b815260040161193c9190612895565b602060405180830381865afa158015611959573d6000803e3d6000fd5b505050506040513d601f19601f8201168201806040525081019061197d9190612901565b118015611a4557503073ffffffffffffffffffffffffffffffffffffffff16600360009054906101000a900473ffffffffffffffffffffffffffffffffffffffff1673ffffffffffffffffffffffffffffffffffffffff166338af3eed6040518163ffffffff1660e01b8152600401602060405180830381865afa158015611a09573d6000803e3d6000fd5b505050506040513d601f19601f82011682018060405250810190611a2d9190612943565b73ffffffffffffffffffffffffffffffffffffffff16145b15611acd57600360009054906101000a900473ffffffffffffffffffffffffffffffffffffffff1673ffffffffffffffffffffffffffffffffffffffff1663e4fc6b6d6040518163ffffffff1660e01b8152600401600060405180830381600087803b158015611ab457600080fd5b505af1158015611ac8573d6000803e3d6000fd5b505050505b6000611b9e6c0c9f2c9cd04674edea40000000611b90600954600260009054906101000a900473ffffffffffffffffffffffffffffffffffffffff1673ffffffffffffffffffffffffffffffffffffffff166370a08231306040518263ffffffff1660e01b8152600401611b419190612895565b602060405180830381865afa158015611b5e573d6000803e3d6000fd5b505050506040513d601f19601f82011682018060405250810190611b829190612901565b61210690919063ffffffff16565b61211c90919063ffffffff16565b90506000611bb7600a548361213290919063ffffffff16565b905081600a8190555060006004541115611bfb57611bf4611be36004548361214890919063ffffffff16565b60065461210690919063ffffffff16565b6006819055505b611d10611cc26c0c9f2c9cd04674edea40000000611cb4611c66600760003373ffffffffffffffffffffffffffffffffffffffff1673ffffffffffffffffffffffffffffffffffffffff1681526020019081526020016000205460065461213290919063ffffffff16565b600560003373ffffffffffffffffffffffffffffffffffffffff1673ffffffffffffffffffffffffffffffffffffffff1681526020019081526020016000205461211c90919063ffffffff16565b61214890919063ffffffff16565b600860003373ffffffffffffffffffffffffffffffffffffffff1673ffffffffffffffffffffffffffffffffffffffff1681526020019081526020016000205461210690919063ffffffff16565b600860003373ffffffffffffffffffffffffffffffffffffffff1673ffffffffffffffffffffffffffffffffffffffff16815260200190815260200160002081905550600654600760003373ffffffffffffffffffffffffffffffffffffffff1673ffffffffffffffffffffffffffffffffffffffff168152602001908152602001600020819055506000600860003373ffffffffffffffffffffffffffffffffffffffff1673ffffffffffffffffffffffffffffffffffffffff168152602001908152602001600020541115611dea57611de9612392565b5b611e3c83600560003373ffffffffffffffffffffffffffffffffffffffff1673ffffffffffffffffffffffffffffffffffffffff1681526020019081526020016000205461210690919063ffffffff16565b600560003373ffffffffffffffffffffffffffffffffffffffff1673ffffffffffffffffffffffffffffffffffffffff16815260200190815260200160002081905550611e948360045461210690919063ffffffff16565b600481905550600160009054906101000a900473ffffffffffffffffffffffffffffffffffffffff1673ffffffffffffffffffffffffffffffffffffffff166323b872dd3330866040518463ffffffff1660e01b8152600401611ef993929190612ac1565b6020604051808303816000875af1158015611f18573d6000803e3d6000fd5b505050506040513d601f19601f82011682018060405250810190611f3c9190612b30565b611f4557600080fd5b3373ffffffffffffffffffffffffffffffffffffffff167febedb8b3c678666e7f36970bc8f57abf6d8fa2e828c0da91ea5b75bf68ed101a84604051611f8b9190612735565b60405180910390a2505050565b600360009054906101000a900473ffffffffffffffffffffffffffffffffffffffff1681565b60095481565b60086020528060005260406000206000915090505481565b600a5481565b611fea61238a565b73ffffffffffffffffffffffffffffffffffffffff1661200861187c565b73ffffffffffffffffffffffffffffffffffffffff161461205e576040517f08c379a0000000000000000000000000000000000000000000000000000000008152600401612055906129cd565b60405180910390fd5b600073ffffffffffffffffffffffffffffffffffffffff168173ffffffffffffffffffffffffffffffffffffffff1614156120ce576040517f08c379a00000000000000000000000000000000000000000000000000000000081526004016120c590612bcf565b60405180910390fd5b6120d78161256f565b50565b60065481565b600260009054906101000a900473ffffffffffffffffffffffffffffffffffffffff1681565b600081836121149190612c1e565b905092915050565b6000818361212a9190612c74565b905092915050565b600081836121409190612cce565b905092915050565b600081836121569190612d31565b905092915050565b600560003373ffffffffffffffffffffffffffffffffffffffff1673ffffffffffffffffffffffffffffffffffffffff168152602001908152602001600020548111156121e0576040517f08c379a00000000000000000000000000000000000000000000000000000000081526004016121d790612dd4565b60405180910390fd5b61223281600560003373ffffffffffffffffffffffffffffffffffffffff1673ffffffffffffffffffffffffffffffffffffffff1681526020019081526020016000205461213290919063ffffffff16565b600560003373ffffffffffffffffffffffffffffffffffffffff1673ffffffffffffffffffffffffffffffffffffffff1681526020019081526020016000208190555061228a8160045461213290919063ffffffff16565b600481905550600160009054906101000a900473ffffffffffffffffffffffffffffffffffffffff1673ffffffffffffffffffffffffffffffffffffffff1663a9059cbb33836040518363ffffffff1660e01b81526004016122ed929190612df4565b6020604051808303816000875af115801561230c573d6000803e3d6000fd5b505050506040513d601f19601f820116820180604052508101906123309190612b30565b61233957600080fd5b3373ffffffffffffffffffffffffffffffffffffffff167f85082129d87b2fe11527cb1b3b7a520aeb5aa6913f88a3d8757fe40d1db02fdd8260405161237f9190612735565b60405180910390a250565b600033905090565b6123e6600860003373ffffffffffffffffffffffffffffffffffffffff1673ffffffffffffffffffffffffffffffffffffffff1681526020019081526020016000205460095461210690919063ffffffff16565b6009819055506000600860003373ffffffffffffffffffffffffffffffffffffffff1673ffffffffffffffffffffffffffffffffffffffff1681526020019081526020016000205490506000600860003373ffffffffffffffffffffffffffffffffffffffff1673ffffffffffffffffffffffffffffffffffffffff16815260200190815260200160002081905550600260009054906101000a900473ffffffffffffffffffffffffffffffffffffffff1673ffffffffffffffffffffffffffffffffffffffff1663a9059cbb33836040518363ffffffff1660e01b81526004016124d2929190612df4565b6020604051808303816000875af11580156124f1573d6000803e3d6000fd5b505050506040513d601f19601f820116820180604052508101906125159190612b30565b61251e57600080fd5b3373ffffffffffffffffffffffffffffffffffffffff167f47cee97cb7acd717b3c0aa1435d004cd5b3c8c57d70dbceb4e4458bbd60e39d4826040516125649190612735565b60405180910390a250565b60008060009054906101000a900473ffffffffffffffffffffffffffffffffffffffff169050816000806101000a81548173ffffffffffffffffffffffffffffffffffffffff021916908373ffffffffffffffffffffffffffffffffffffffff1602179055508173ffffffffffffffffffffffffffffffffffffffff168173ffffffffffffffffffffffffffffffffffffffff167f8be0079c531659141344cd1fd0a4f28419497f9722a3daafe3b4186f6b6457e060405160405180910390a35050565b600080fd5b6000819050919050565b61264b81612638565b811461265657600080fd5b50565b60008135905061266881612642565b92915050565b60006020828403121561268457612683612633565b5b600061269284828501612659565b91505092915050565b600073ffffffffffffffffffffffffffffffffffffffff82169050919050565b60006126c68261269b565b9050919050565b6126d6816126bb565b81146126e157600080fd5b50565b6000813590506126f3816126cd565b92915050565b60006020828403121561270f5761270e612633565b5b600061271d848285016126e4565b91505092915050565b61272f81612638565b82525050565b600060208201905061274a6000830184612726565b92915050565b600061275b826126bb565b9050919050565b61276b81612750565b811461277657600080fd5b50565b60008135905061278881612762565b92915050565b6000612799826126bb565b9050919050565b6127a98161278e565b81146127b457600080fd5b50565b6000813590506127c6816127a0565b92915050565b600080604083850312156127e3576127e2612633565b5b60006127f185828601612779565b9250506020612802858286016127b7565b9150509250929050565b6000819050919050565b600061283161282c6128278461269b565b61280c565b61269b565b9050919050565b600061284382612816565b9050919050565b600061285582612838565b9050919050565b6128658161284a565b82525050565b6000602082019050612880600083018461285c565b92915050565b61288f816126bb565b82525050565b60006020820190506128aa6000830184612886565b92915050565b60006128bb82612838565b9050919050565b6128cb816128b0565b82525050565b60006020820190506128e660008301846128c2565b92915050565b6000815190506128fb81612642565b92915050565b60006020828403121561291757612916612633565b5b6000612925848285016128ec565b91505092915050565b60008151905061293d816126cd565b92915050565b60006020828403121561295957612958612633565b5b60006129678482850161292e565b91505092915050565b600082825260208201905092915050565b7f4f776e61626c653a2063616c6c6572206973206e6f7420746865206f776e6572600082015250565b60006129b7602083612970565b91506129c282612981565b602082019050919050565b600060208201905081810360008301526129e6816129aa565b9050919050565b6000815190506129fc816127a0565b92915050565b600060208284031215612a1857612a17612633565b5b6000612a26848285016129ed565b91505092915050565b7f4d696e744661726d3a204469737472696275746f722062656e6566696369617260008201527f79206973206e6f74207365740000000000000000000000000000000000000000602082015250565b6000612a8b602c83612970565b9150612a9682612a2f565b604082019050919050565b60006020820190508181036000830152612aba81612a7e565b9050919050565b6000606082019050612ad66000830186612886565b612ae36020830185612886565b612af06040830184612726565b949350505050565b60008115159050919050565b612b0d81612af8565b8114612b1857600080fd5b50565b600081519050612b2a81612b04565b92915050565b600060208284031215612b4657612b45612633565b5b6000612b5484828501612b1b565b91505092915050565b7f4f776e61626c653a206e6577206f776e657220697320746865207a65726f206160008201527f6464726573730000000000000000000000000000000000000000000000000000602082015250565b6000612bb9602683612970565b9150612bc482612b5d565b604082019050919050565b60006020820190508181036000830152612be881612bac565b9050919050565b7f4e487b7100000000000000000000000000000000000000000000000000000000600052601160045260246000fd5b6000612c2982612638565b9150612c3483612638565b9250827fffffffffffffffffffffffffffffffffffffffffffffffffffffffffffffffff03821115612c6957612c68612bef565b5b828201905092915050565b6000612c7f82612638565b9150612c8a83612638565b9250817fffffffffffffffffffffffffffffffffffffffffffffffffffffffffffffffff0483118215151615612cc357612cc2612bef565b5b828202905092915050565b6000612cd982612638565b9150612ce483612638565b925082821015612cf757612cf6612bef565b5b828203905092915050565b7f4e487b7100000000000000000000000000000000000000000000000000000000600052601260045260246000fd5b6000612d3c82612638565b9150612d4783612638565b925082612d5757612d56612d02565b5b828204905092915050565b7f4d696e744661726d3a2043616e6e6f7420776974686472617720616d6f756e7460008201527f20626967676572207468616e20617661696c61626c652062616c616e63650000602082015250565b6000612dbe603e83612970565b9150612dc982612d62565b604082019050919050565b60006020820190508181036000830152612ded81612db1565b9050919050565b6000604082019050612e096000830185612886565b612e166020830184612726565b939250505056fea2646970667358221220b15fb41fc6c31dbf48d9dca85b3e71a2a104265eb89fefdc174b9f82b58c2c1764736f6c634300080a0033",
  "linkReferences": {},
  "deployedLinkReferences": {}
}