{
  "_format": "hh-sol-artifact-1",
  "contractName": "VM",
  "sourceName": "contracts/weiroll/VM.sol",
  "abi": [
    {
      "inputs": [],
      "stateMutability": "nonpayable",
      "type": "constructor"
    },
    {
      "inputs": [
        {
          "internalType": "bytes32[]",
          "name": "commands",
          "type": "bytes32[]"
        },
        {
          "internalType": "bytes[]",
          "name": "state",
          "type": "bytes[]"
        }
      ],
      "name": "execute",
      "outputs": [
        {
          "internalType": "bytes[]",
          "name": "",
          "type": "bytes[]"
        }
      ],
      "stateMutability": "nonpayable",
      "type": "function"
    }
  ],
  "bytecode": "0x60a060405234801561001057600080fd5b503073ffffffffffffffffffffffffffffffffffffffff1660808173ffffffffffffffffffffffffffffffffffffffff1660601b8152505060805160601c6116216100656000396000606401526116216000f3fe608060405234801561001057600080fd5b506004361061002b5760003560e01c8063de792d5f14610030575b600080fd5b61004a60048036038101906100459190610d7b565b610060565b604051610057919061101c565b60405180910390f35b60607f000000000000000000000000000000000000000000000000000000000000000073ffffffffffffffffffffffffffffffffffffffff163073ffffffffffffffffffffffffffffffffffffffff1614156100bb57600080fd5b600080600080606060005b898990508110156104e8578989828181106100e4576100e36113d0565b5b905060200201359550602086901b60f81c60ff1694506000608060ff168616146101355789898280610115906112f8565b9350818110610127576101266113d0565b5b90506020020135935061015f565b79ffffffffffffffffffffffffffffffffffffffffffffffffffff602887901b60001c1760001b93505b600060ff16600360ff16861614156101fb578560001c73ffffffffffffffffffffffffffffffffffffffff166101a087868b6104f89092919063ffffffff16565b6040516101ad9190611005565b600060405180830381855af49150503d80600081146101e8576040519150601f19603f3d011682016040523d82523d6000602084013e6101ed565b606091505b50809350819450505061044d565b600160ff16600360ff1686161415610299578560001c73ffffffffffffffffffffffffffffffffffffffff1661023c87868b6104f89092919063ffffffff16565b6040516102499190611005565b6000604051808303816000865af19150503d8060008114610286576040519150601f19603f3d011682016040523d82523d6000602084013e61028b565b606091505b50809350819450505061044c565b600260ff16600360ff1686161415610335578560001c73ffffffffffffffffffffffffffffffffffffffff166102da87868b6104f89092919063ffffffff16565b6040516102e79190611005565b600060405180830381855afa9150503d8060008114610322576040519150601f19603f3d011682016040523d82523d6000602084013e610327565b606091505b50809350819450505061044b565b600360ff16600360ff168616141561040f57600080898660f81c60ff1681518110610363576103626113d0565b5b602002602001015190506020810182528760001c73ffffffffffffffffffffffffffffffffffffffff16826103b08a60ff60088b901b60001c1760001b8e6104f89092919063ffffffff16565b6040516103bd9190611005565b60006040518083038185875af1925050503d80600081146103fa576040519150601f19603f3d011682016040523d82523d6000602084013e6103ff565b606091505b508095508196505050505061044a565b6040517f08c379a0000000000000000000000000000000000000000000000000000000008152600401610441906110be565b60405180910390fd5b5b5b5b8261048d576040517f08c379a00000000000000000000000000000000000000000000000000000000081526004016104849061103e565b60405180910390fd5b6000604060ff168616146104b9576104b4605887901b838a6108cb9092919063ffffffff16565b6104d5565b6104d2605887901b838a6109849092919063ffffffff16565b97505b80806104e0906112f8565b9150506100c6565b5086955050505050509392505050565b60606000806060600080600090505b60208110156106d657868160208110610523576105226113d0565b5b1a60f81b60f81c60ff16915060ff82141561053d576106d6565b600060808316146106435760fe8214156105a15760008351141561057e578860405160200161056c919061101c565b60405160208183030381529060405292505b82518561058b91906111f1565b945060208461059a91906111f1565b935061063e565b600089607f8416815181106105b9576105b86113d0565b5b602002602001015151905060006020826105d39190611341565b14610613576040517f08c379a000000000000000000000000000000000000000000000000000000000815260040161060a9061107e565b60405180910390fd5b60208161062091906111f1565b8661062b91906111f1565b955060208561063a91906111f1565b9450505b6106c3565b602089607f84168151811061065b5761065a6113d0565b5b602002602001015151146106a4576040517f08c379a000000000000000000000000000000000000000000000000000000000815260040161069b9061105e565b60405180910390fd5b6020856106b191906111f1565b94506020846106c091906111f1565b93505b80806106ce906112f8565b915050610507565b506004846106e491906111f1565b67ffffffffffffffff8111156106fd576106fc6113ff565b5b6040519080825280601f01601f19166020018201604052801561072f5781602001600182028036833780820191505090505b5094508660208601526000935060005b60208110156108bf5786816020811061075b5761075a6113d0565b5b1a60f81b60f81c60ff16915060ff821415610775576108bf565b6000608083161461086d5760fe8214156107e75783856024880101526107b8836020886004886107a591906111f1565b602088516107b39190611247565b610ab3565b602083516107c69190611247565b846107d191906111f1565b93506020856107e091906111f1565b9450610868565b600089607f8416815181106107ff576107fe6113d0565b5b602002602001015151905084866024890101526108498a607f85168151811061082b5761082a6113d0565b5b602002602001015160008960048961084391906111f1565b85610ab3565b808561085591906111f1565b945060208661086491906111f1565b9550505b6108ac565b600089607f841681518110610885576108846113d0565b5b602002602001015190506020810151866024890101526020866108a891906111f1565b9550505b80806108b7906112f8565b91505061073f565b50505050509392505050565b60008260f81c905060ff8160ff1614156108e5575061097f565b6000602083516108f591906111f1565b67ffffffffffffffff81111561090e5761090d6113ff565b5b6040519080825280601f01601f1916602001820160405280156109405781602001600182028036833780820191505090505b50858360ff1681518110610957576109566113d0565b5b6020026020010181905290506109738360008360208751610ab3565b82518060208301525050505b505050565b606060008360f81c60ff16905060ff8114156109a35784915050610aac565b60006080821614610a405760fe8114156109d257828060200190518101906109cb9190610df7565b9450610a3b565b60006020840151905060208114610a1e576040517f08c379a0000000000000000000000000000000000000000000000000000000008152600401610a15906110de565b60405180910390fd5b60208451036020850152602084016020607f841602602088010152505b610aa7565b6020835114610a84576040517f08c379a0000000000000000000000000000000000000000000000000000000008152600401610a7b9061109e565b60405180910390fd5b8285607f831681518110610a9b57610a9a6113d0565b5b60200260200101819052505b849150505b9392505050565b808260208501018286602089010160045afa505050505050565b6000610ae0610adb84611123565b6110fe565b90508083825260208201905082856020860282011115610b0357610b02611438565b5b60005b85811015610b5157813567ffffffffffffffff811115610b2957610b28611433565b5b808601610b368982610d1f565b85526020850194506020840193505050600181019050610b06565b5050509392505050565b6000610b6e610b6984611123565b6110fe565b90508083825260208201905082856020860282011115610b9157610b90611438565b5b60005b85811015610bdf57815167ffffffffffffffff811115610bb757610bb6611433565b5b808601610bc48982610d4d565b85526020850194506020840193505050600181019050610b94565b5050509392505050565b6000610bfc610bf78461114f565b6110fe565b905082815260208101848484011115610c1857610c1761143d565b5b610c23848285611285565b509392505050565b6000610c3e610c398461114f565b6110fe565b905082815260208101848484011115610c5a57610c5961143d565b5b610c65848285611294565b509392505050565b60008083601f840112610c8357610c82611433565b5b8235905067ffffffffffffffff811115610ca057610c9f61142e565b5b602083019150836020820283011115610cbc57610cbb611438565b5b9250929050565b600082601f830112610cd857610cd7611433565b5b8135610ce8848260208601610acd565b91505092915050565b600082601f830112610d0657610d05611433565b5b8151610d16848260208601610b5b565b91505092915050565b600082601f830112610d3457610d33611433565b5b8135610d44848260208601610be9565b91505092915050565b600082601f830112610d6257610d61611433565b5b8151610d72848260208601610c2b565b91505092915050565b600080600060408486031215610d9457610d93611447565b5b600084013567ffffffffffffffff811115610db257610db1611442565b5b610dbe86828701610c6d565b9350935050602084013567ffffffffffffffff811115610de157610de0611442565b5b610ded86828701610cc3565b9150509250925092565b600060208284031215610e0d57610e0c611447565b5b600082015167ffffffffffffffff811115610e2b57610e2a611442565b5b610e3784828501610cf1565b91505092915050565b6000610e4c8383610ec9565b905092915050565b6000610e5f82611190565b610e6981856111b3565b935083602082028501610e7b85611180565b8060005b85811015610eb75784840389528151610e988582610e40565b9450610ea3836111a6565b925060208a01995050600181019050610e7f565b50829750879550505050505092915050565b6000610ed48261119b565b610ede81856111c4565b9350610eee818560208601611294565b610ef78161144c565b840191505092915050565b6000610f0d8261119b565b610f1781856111d5565b9350610f27818560208601611294565b80840191505092915050565b6000610f40600b836111e0565b9150610f4b8261145d565b602082019050919050565b6000610f636027836111e0565b9150610f6e82611486565b604082019050919050565b6000610f866036836111e0565b9150610f91826114d5565b604082019050919050565b6000610fa96028836111e0565b9150610fb482611524565b604082019050919050565b6000610fcc6010836111e0565b9150610fd782611573565b602082019050919050565b6000610fef602a836111e0565b9150610ffa8261159c565b604082019050919050565b60006110118284610f02565b915081905092915050565b600060208201905081810360008301526110368184610e54565b905092915050565b6000602082019050818103600083015261105781610f33565b9050919050565b6000602082019050818103600083015261107781610f56565b9050919050565b6000602082019050818103600083015261109781610f79565b9050919050565b600060208201905081810360008301526110b781610f9c565b9050919050565b600060208201905081810360008301526110d781610fbf565b9050919050565b600060208201905081810360008301526110f781610fe2565b9050919050565b6000611108611119565b905061111482826112c7565b919050565b6000604051905090565b600067ffffffffffffffff82111561113e5761113d6113ff565b5b602082029050602081019050919050565b600067ffffffffffffffff82111561116a576111696113ff565b5b6111738261144c565b9050602081019050919050565b6000819050602082019050919050565b600081519050919050565b600081519050919050565b6000602082019050919050565b600082825260208201905092915050565b600082825260208201905092915050565b600081905092915050565b600082825260208201905092915050565b60006111fc8261127b565b91506112078361127b565b9250827fffffffffffffffffffffffffffffffffffffffffffffffffffffffffffffffff0382111561123c5761123b611372565b5b828201905092915050565b60006112528261127b565b915061125d8361127b565b9250828210156112705761126f611372565b5b828203905092915050565b6000819050919050565b82818337600083830152505050565b60005b838110156112b2578082015181840152602081019050611297565b838111156112c1576000848401525b50505050565b6112d08261144c565b810181811067ffffffffffffffff821117156112ef576112ee6113ff565b5b80604052505050565b60006113038261127b565b91507fffffffffffffffffffffffffffffffffffffffffffffffffffffffffffffffff82141561133657611335611372565b5b600182019050919050565b600061134c8261127b565b91506113578361127b565b925082611367576113666113a1565b5b828206905092915050565b7f4e487b7100000000000000000000000000000000000000000000000000000000600052601160045260246000fd5b7f4e487b7100000000000000000000000000000000000000000000000000000000600052601260045260246000fd5b7f4e487b7100000000000000000000000000000000000000000000000000000000600052603260045260246000fd5b7f4e487b7100000000000000000000000000000000000000000000000000000000600052604160045260246000fd5b600080fd5b600080fd5b600080fd5b600080fd5b600080fd5b600080fd5b6000601f19601f8301169050919050565b7f43616c6c206661696c6564000000000000000000000000000000000000000000600082015250565b7f537461746963207374617465207661726961626c6573206d757374206265203360008201527f3220627974657300000000000000000000000000000000000000000000000000602082015250565b7f44796e616d6963207374617465207661726961626c6573206d7573742062652060008201527f61206d756c7469706c65206f6620333220627974657300000000000000000000602082015250565b7f4f6e6c79206f6e652072657475726e2076616c7565207065726d69747465642060008201527f2873746174696329000000000000000000000000000000000000000000000000602082015250565b7f496e76616c69642063616c6c7479706500000000000000000000000000000000600082015250565b7f4f6e6c79206f6e652072657475726e2076616c7565207065726d69747465642060008201527f287661726961626c65290000000000000000000000000000000000000000000060208201525056fea2646970667358221220e13f9225779711bd142487bdf2e2ea7f9d9e3e6b46abd001b43f327e4764b10064736f6c63430008070033",
  "linkReferences": {},
  "deployedLinkReferences": {}
}