{
  "_format": "hh-sol-artifact-1",
  "contractName": "NeccFacet",
  "sourceName": "contracts/facets/Necc/NeccFacet.sol",
  "abi": [
    {
      "anonymous": false,
      "inputs": [
        {
          "indexed": true,
          "internalType": "address",
          "name": "owner",
          "type": "address"
        },
        {
          "indexed": true,
          "internalType": "address",
          "name": "spender",
          "type": "address"
        },
        {
          "indexed": false,
          "internalType": "uint256",
          "name": "value",
          "type": "uint256"
        }
      ],
      "name": "Approval",
      "type": "event"
    },
    {
      "anonymous": false,
      "inputs": [
        {
          "indexed": true,
          "internalType": "address",
          "name": "from",
          "type": "address"
        },
        {
          "indexed": true,
          "internalType": "address",
          "name": "to",
          "type": "address"
        },
        {
          "indexed": false,
          "internalType": "uint256",
          "name": "value",
          "type": "uint256"
        }
      ],
      "name": "Transfer",
      "type": "event"
    },
    {
      "inputs": [
        {
          "internalType": "address",
          "name": "_vault",
          "type": "address"
        }
      ],
      "name": "addVault",
      "outputs": [],
      "stateMutability": "nonpayable",
      "type": "function"
    },
    {
      "inputs": [
        {
          "internalType": "address",
          "name": "holder",
          "type": "address"
        },
        {
          "internalType": "address",
          "name": "spender",
          "type": "address"
        }
      ],
      "name": "allowance",
      "outputs": [
        {
          "internalType": "uint256",
          "name": "",
          "type": "uint256"
        }
      ],
      "stateMutability": "view",
      "type": "function"
    },
    {
      "inputs": [
        {
          "internalType": "address",
          "name": "spender",
          "type": "address"
        },
        {
          "internalType": "uint256",
          "name": "amount",
          "type": "uint256"
        }
      ],
      "name": "approve",
      "outputs": [
        {
          "internalType": "bool",
          "name": "",
          "type": "bool"
        }
      ],
      "stateMutability": "nonpayable",
      "type": "function"
    },
    {
      "inputs": [
        {
          "internalType": "address",
          "name": "account",
          "type": "address"
        }
      ],
      "name": "balanceOf",
      "outputs": [
        {
          "internalType": "uint256",
          "name": "",
          "type": "uint256"
        }
      ],
      "stateMutability": "view",
      "type": "function"
    },
    {
      "inputs": [
        {
          "internalType": "uint256",
          "name": "amount",
          "type": "uint256"
        }
      ],
      "name": "burn",
      "outputs": [],
      "stateMutability": "nonpayable",
      "type": "function"
    },
    {
      "inputs": [
        {
          "internalType": "address",
          "name": "_account",
          "type": "address"
        },
        {
          "internalType": "uint256",
          "name": "_amount",
          "type": "uint256"
        }
      ],
      "name": "burnFrom",
      "outputs": [],
      "stateMutability": "nonpayable",
      "type": "function"
    },
    {
      "inputs": [],
      "name": "decimals",
      "outputs": [
        {
          "internalType": "uint8",
          "name": "",
          "type": "uint8"
        }
      ],
      "stateMutability": "view",
      "type": "function"
    },
    {
      "inputs": [
        {
          "internalType": "address",
          "name": "spender",
          "type": "address"
        },
        {
          "internalType": "uint256",
          "name": "amount",
          "type": "uint256"
        }
      ],
      "name": "decreaseAllowance",
      "outputs": [
        {
          "internalType": "bool",
          "name": "",
          "type": "bool"
        }
      ],
      "stateMutability": "nonpayable",
      "type": "function"
    },
    {
      "inputs": [],
      "name": "gov",
      "outputs": [
        {
          "internalType": "address",
          "name": "",
          "type": "address"
        }
      ],
      "stateMutability": "view",
      "type": "function"
    },
    {
      "inputs": [
        {
          "internalType": "address",
          "name": "spender",
          "type": "address"
        },
        {
          "internalType": "uint256",
          "name": "amount",
          "type": "uint256"
        }
      ],
      "name": "increaseAllowance",
      "outputs": [
        {
          "internalType": "bool",
          "name": "",
          "type": "bool"
        }
      ],
      "stateMutability": "nonpayable",
      "type": "function"
    },
    {
      "inputs": [
        {
          "internalType": "address",
          "name": "_vault",
          "type": "address"
        }
      ],
      "name": "initialize",
      "outputs": [],
      "stateMutability": "nonpayable",
      "type": "function"
    },
    {
      "inputs": [
        {
          "internalType": "address",
          "name": "_account",
          "type": "address"
        },
        {
          "internalType": "uint256",
          "name": "_amount",
          "type": "uint256"
        }
      ],
      "name": "mint",
      "outputs": [],
      "stateMutability": "nonpayable",
      "type": "function"
    },
    {
      "inputs": [],
      "name": "name",
      "outputs": [
        {
          "internalType": "string",
          "name": "",
          "type": "string"
        }
      ],
      "stateMutability": "view",
      "type": "function"
    },
    {
      "inputs": [
        {
          "internalType": "address",
          "name": "owner",
          "type": "address"
        }
      ],
      "name": "nonces",
      "outputs": [
        {
          "internalType": "uint256",
          "name": "",
          "type": "uint256"
        }
      ],
      "stateMutability": "view",
      "type": "function"
    },
    {
      "inputs": [
        {
          "internalType": "address",
          "name": "owner",
          "type": "address"
        },
        {
          "internalType": "address",
          "name": "spender",
          "type": "address"
        },
        {
          "internalType": "uint256",
          "name": "amount",
          "type": "uint256"
        },
        {
          "internalType": "uint256",
          "name": "deadline",
          "type": "uint256"
        },
        {
          "internalType": "uint8",
          "name": "v",
          "type": "uint8"
        },
        {
          "internalType": "bytes32",
          "name": "r",
          "type": "bytes32"
        },
        {
          "internalType": "bytes32",
          "name": "s",
          "type": "bytes32"
        }
      ],
      "name": "permit",
      "outputs": [],
      "stateMutability": "nonpayable",
      "type": "function"
    },
    {
      "inputs": [
        {
          "internalType": "address",
          "name": "_vault",
          "type": "address"
        }
      ],
      "name": "removeVault",
      "outputs": [],
      "stateMutability": "nonpayable",
      "type": "function"
    },
    {
      "inputs": [
        {
          "internalType": "address",
          "name": "_newOwner",
          "type": "address"
        }
      ],
      "name": "setGov",
      "outputs": [],
      "stateMutability": "nonpayable",
      "type": "function"
    },
    {
      "inputs": [],
      "name": "symbol",
      "outputs": [
        {
          "internalType": "string",
          "name": "",
          "type": "string"
        }
      ],
      "stateMutability": "view",
      "type": "function"
    },
    {
      "inputs": [],
      "name": "totalSupply",
      "outputs": [
        {
          "internalType": "uint256",
          "name": "",
          "type": "uint256"
        }
      ],
      "stateMutability": "view",
      "type": "function"
    },
    {
      "inputs": [
        {
          "internalType": "address",
          "name": "recipient",
          "type": "address"
        },
        {
          "internalType": "uint256",
          "name": "amount",
          "type": "uint256"
        }
      ],
      "name": "transfer",
      "outputs": [
        {
          "internalType": "bool",
          "name": "",
          "type": "bool"
        }
      ],
      "stateMutability": "nonpayable",
      "type": "function"
    },
    {
      "inputs": [
        {
          "internalType": "address",
          "name": "holder",
          "type": "address"
        },
        {
          "internalType": "address",
          "name": "recipient",
          "type": "address"
        },
        {
          "internalType": "uint256",
          "name": "amount",
          "type": "uint256"
        }
      ],
      "name": "transferFrom",
      "outputs": [
        {
          "internalType": "bool",
          "name": "",
          "type": "bool"
        }
      ],
      "stateMutability": "nonpayable",
      "type": "function"
    },
    {
      "inputs": [
        {
          "internalType": "address",
          "name": "vault",
          "type": "address"
        }
      ],
      "name": "vaults",
      "outputs": [
        {
          "internalType": "bool",
          "name": "",
          "type": "bool"
        }
      ],
      "stateMutability": "view",
      "type": "function"
    }
  ],
  "bytecode": "0x608060405234801561001057600080fd5b50612dc7806100206000396000f3fe608060405234801561001057600080fd5b50600436106101425760003560e01c806379cc6790116100b8578063a9059cbb1161007c578063a9059cbb1461039d578063c4d66de8146103cd578063ceb68c23146103e9578063cfad57a214610405578063d505accf14610421578063dd62ed3e1461043d57610142565b806379cc6790146102d35780637ecebe00146102ef57806395d89b411461031f578063a457c2d71461033d578063a622ee7c1461036d57610142565b8063256b5a021161010a578063256b5a0214610201578063313ce5671461021d578063395093511461023b57806340c10f191461026b57806342966c681461028757806370a08231146102a357610142565b806306fdde0314610147578063095ea7b31461016557806312d43a511461019557806318160ddd146101b357806323b872dd146101d1575b600080fd5b61014f61046d565b60405161015c9190611e54565b60405180910390f35b61017f600480360381019061017a9190611f0f565b610508565b60405161018c9190611f6a565b60405180910390f35b61019d61051f565b6040516101aa9190611f94565b60405180910390f35b6101bb61052e565b6040516101c89190611fbe565b60405180910390f35b6101eb60048036038101906101e69190611fd9565b61053d565b6040516101f89190611f6a565b60405180910390f35b61021b6004803603810190610216919061202c565b61062f565b005b610225610652565b6040516102329190612075565b60405180910390f35b61025560048036038101906102509190611f0f565b610672565b6040516102629190611f6a565b60405180910390f35b61028560048036038101906102809190611f0f565b6107a1565b005b6102a1600480360381019061029c9190612090565b6107cf565b005b6102bd60048036038101906102b8919061202c565b6107dc565b6040516102ca9190611fbe565b60405180910390f35b6102ed60048036038101906102e89190611f0f565b6107ee565b005b6103096004803603810190610304919061202c565b6107fc565b6040516103169190611fbe565b60405180910390f35b61032761084e565b6040516103349190611e54565b60405180910390f35b61035760048036038101906103529190611f0f565b6108e9565b6040516103649190611f6a565b60405180910390f35b6103876004803603810190610382919061202c565b610a16565b6040516103949190611f6a565b60405180910390f35b6103b760048036038101906103b29190611f0f565b610a3e565b6040516103c49190611f6a565b60405180910390f35b6103e760048036038101906103e2919061202c565b610a55565b005b61040360048036038101906103fe919061202c565b610b31565b005b61041f600480360381019061041a919061202c565b610b54565b005b61043b6004803603810190610436919061211f565b610b60565b005b610457600480360381019061045291906121c1565b610d83565b6040516104649190611fbe565b60405180910390f35b6060610477610e13565b600001805461048590612230565b80601f01602080910402602001604051908101604052809291908181526020018280546104b190612230565b80156104fe5780601f106104d3576101008083540402835291602001916104fe565b820191906000526020600020905b8154815290600101906020018083116104e157829003601f168201915b5050505050905090565b6000610515338484610e40565b6001905092915050565b6000610529611014565b905090565b600061053861104c565b905090565b60008061054861105f565b60010160008673ffffffffffffffffffffffffffffffffffffffff1673ffffffffffffffffffffffffffffffffffffffff16815260200190815260200160002060003373ffffffffffffffffffffffffffffffffffffffff1673ffffffffffffffffffffffffffffffffffffffff1681526020019081526020016000205490508281101561060b576040517f08c379a0000000000000000000000000000000000000000000000000000000008152600401610602906122d4565b60405180910390fd5b6106188533858403610e40565b61062385858561108c565b60019150509392505050565b6000610639611318565b905061064e828261134590919063ffffffff16565b5050565b600061065c610e13565b60020160009054906101000a900460ff16905090565b60008061067d61105f565b60010160003373ffffffffffffffffffffffffffffffffffffffff1673ffffffffffffffffffffffffffffffffffffffff168152602001908152602001600020905060008160008673ffffffffffffffffffffffffffffffffffffffff1673ffffffffffffffffffffffffffffffffffffffff168152602001908152602001600020549050808482011015610747576040517f08c379a000000000000000000000000000000000000000000000000000000000815260040161073e90612366565b60405180910390fd5b61079533868684018560008a73ffffffffffffffffffffffffffffffffffffffff1673ffffffffffffffffffffffffffffffffffffffff168152602001908152602001600020819055610e40565b60019250505092915050565b60006107ab611318565b90506107c033826113ab90919063ffffffff16565b6107ca838361143d565b505050565b6107d933826115a3565b50565b60006107e782611783565b9050919050565b6107f882826117d5565b5050565b60006108066117ee565b60000160008373ffffffffffffffffffffffffffffffffffffffff1673ffffffffffffffffffffffffffffffffffffffff168152602001908152602001600020549050919050565b6060610858610e13565b600101805461086690612230565b80601f016020809104026020016040519081016040528092919081815260200182805461089290612230565b80156108df5780601f106108b4576101008083540402835291602001916108df565b820191906000526020600020905b8154815290600101906020018083116108c257829003601f168201915b5050505050905090565b6000806108f461105f565b60010160003373ffffffffffffffffffffffffffffffffffffffff1673ffffffffffffffffffffffffffffffffffffffff168152602001908152602001600020905060008160008673ffffffffffffffffffffffffffffffffffffffff1673ffffffffffffffffffffffffffffffffffffffff168152602001908152602001600020549050808411156109bc576040517f08c379a00000000000000000000000000000000000000000000000000000000081526004016109b3906123f8565b60405180910390fd5b610a0a33868684038560008a73ffffffffffffffffffffffffffffffffffffffff1673ffffffffffffffffffffffffffffffffffffffff168152602001908152602001600020819055610e40565b60019250505092915050565b600080610a21611318565b9050610a36838261181b90919063ffffffff16565b915050919050565b6000610a4b33848461108c565b6001905092915050565b610a5d611874565b6000610a67610e13565b90506000610a73611318565b9050610abd6040518060400160405280600481526020017f4e656363000000000000000000000000000000000000000000000000000000008152508361187e90919063ffffffff16565b610b056040518060400160405280600481526020017f4e454343000000000000000000000000000000000000000000000000000000008152508361189b90919063ffffffff16565b610b196009836118b890919063ffffffff16565b610b2c838261134590919063ffffffff16565b505050565b6000610b3b611318565b9050610b5082826118d990919063ffffffff16565b5050565b610b5d8161193f565b50565b83421115610ba3576040517f08c379a0000000000000000000000000000000000000000000000000000000008152600401610b9a90612464565b60405180910390fd5b600080610bae6117ee565b60000160008a73ffffffffffffffffffffffffffffffffffffffff1673ffffffffffffffffffffffffffffffffffffffff1681526020019081526020016000205490506040517f6e71edae12b1b97f4d1f60370fef10105fa2faae0126114a169c64845d6126c981528960208201528860408201528760608201528160808201528660a082015260c081209250506000610c4661199a565b905060006040517f19010000000000000000000000000000000000000000000000000000000000008152826002820152846022820152604281209150506000610c9c888888856119e5909392919063ffffffff16565b90508b73ffffffffffffffffffffffffffffffffffffffff168173ffffffffffffffffffffffffffffffffffffffff1614610d0c576040517f08c379a0000000000000000000000000000000000000000000000000000000008152600401610d03906124d0565b60405180910390fd5b610d146117ee565b60000160008d73ffffffffffffffffffffffffffffffffffffffff1673ffffffffffffffffffffffffffffffffffffffff1681526020019081526020016000206000815480929190610d659061251f565b9190505550610d758c8c8c610e40565b505050505050505050505050565b6000610d8d61105f565b60010160008473ffffffffffffffffffffffffffffffffffffffff1673ffffffffffffffffffffffffffffffffffffffff16815260200190815260200160002060008373ffffffffffffffffffffffffffffffffffffffff1673ffffffffffffffffffffffffffffffffffffffff16815260200190815260200160002054905092915050565b6000807f2967a798b92539a1b9eefe4d8eb931f96b68d27665e276f1bee2d5db7f74304790508091505090565b600073ffffffffffffffffffffffffffffffffffffffff168373ffffffffffffffffffffffffffffffffffffffff161415610eb0576040517f08c379a0000000000000000000000000000000000000000000000000000000008152600401610ea7906125da565b60405180910390fd5b600073ffffffffffffffffffffffffffffffffffffffff168273ffffffffffffffffffffffffffffffffffffffff161415610f20576040517f08c379a0000000000000000000000000000000000000000000000000000000008152600401610f179061266c565b60405180910390fd5b80610f2961105f565b60010160008573ffffffffffffffffffffffffffffffffffffffff1673ffffffffffffffffffffffffffffffffffffffff16815260200190815260200160002060008473ffffffffffffffffffffffffffffffffffffffff1673ffffffffffffffffffffffffffffffffffffffff168152602001908152602001600020819055508173ffffffffffffffffffffffffffffffffffffffff168373ffffffffffffffffffffffffffffffffffffffff167f8c5be1e5ebec7d5bd14f71427d1e84f3dd0314c0f7b2291e5b200ac8c7c3b925836040516110079190611fbe565b60405180910390a3505050565b60008061101f611b70565b90508060040160009054906101000a900473ffffffffffffffffffffffffffffffffffffffff1691505090565b600061105661105f565b60020154905090565b6000807fc991b2e918acaba8e5721668ed0b1982684e5a8692a621bcd2d7ef326bb015b490508091505090565b600073ffffffffffffffffffffffffffffffffffffffff168373ffffffffffffffffffffffffffffffffffffffff1614156110fc576040517f08c379a00000000000000000000000000000000000000000000000000000000081526004016110f3906126fe565b60405180910390fd5b600073ffffffffffffffffffffffffffffffffffffffff168273ffffffffffffffffffffffffffffffffffffffff16141561116c576040517f08c379a000000000000000000000000000000000000000000000000000000000815260040161116390612790565b60405180910390fd5b611177838383611b9d565b600061118161105f565b905060008160000160008673ffffffffffffffffffffffffffffffffffffffff1673ffffffffffffffffffffffffffffffffffffffff1681526020019081526020016000205490508281101561120c576040517f08c379a000000000000000000000000000000000000000000000000000000000815260040161120390612822565b60405180910390fd5b8281038260000160008773ffffffffffffffffffffffffffffffffffffffff1673ffffffffffffffffffffffffffffffffffffffff16815260200190815260200160002081905550828260000160008673ffffffffffffffffffffffffffffffffffffffff1673ffffffffffffffffffffffffffffffffffffffff16815260200190815260200160002060008282546112a59190612842565b925050819055508373ffffffffffffffffffffffffffffffffffffffff168573ffffffffffffffffffffffffffffffffffffffff167fddf252ad1be2c89b69c2b068fc378daa952ba7f163c4a11628f55a4df523b3ef856040516113099190611fbe565b60405180910390a35050505050565b6000807f5d70cc522e320a58bfb729d340c4fbb499df72d53958e8375b19ef8b8b6c1d6590508091505090565b61134d611874565b60018260000160008373ffffffffffffffffffffffffffffffffffffffff1673ffffffffffffffffffffffffffffffffffffffff16815260200190815260200160002060006101000a81548160ff0219169083151502179055505050565b8160000160008273ffffffffffffffffffffffffffffffffffffffff1673ffffffffffffffffffffffffffffffffffffffff16815260200190815260200160002060009054906101000a900460ff16611439576040517f08c379a0000000000000000000000000000000000000000000000000000000008152600401611430906128e4565b60405180910390fd5b5050565b600073ffffffffffffffffffffffffffffffffffffffff168273ffffffffffffffffffffffffffffffffffffffff1614156114ad576040517f08c379a00000000000000000000000000000000000000000000000000000000081526004016114a490612950565b60405180910390fd5b6114b960008383611b9d565b60006114c361105f565b9050818160020160008282546114d99190612842565b92505081905550818160000160008573ffffffffffffffffffffffffffffffffffffffff1673ffffffffffffffffffffffffffffffffffffffff16815260200190815260200160002060008282546115319190612842565b925050819055508273ffffffffffffffffffffffffffffffffffffffff16600073ffffffffffffffffffffffffffffffffffffffff167fddf252ad1be2c89b69c2b068fc378daa952ba7f163c4a11628f55a4df523b3ef846040516115969190611fbe565b60405180910390a3505050565b600073ffffffffffffffffffffffffffffffffffffffff168273ffffffffffffffffffffffffffffffffffffffff161415611613576040517f08c379a000000000000000000000000000000000000000000000000000000000815260040161160a906129e2565b60405180910390fd5b61161f82600083611b9d565b600061162961105f565b905060008160000160008573ffffffffffffffffffffffffffffffffffffffff1673ffffffffffffffffffffffffffffffffffffffff168152602001908152602001600020549050828110156116b4576040517f08c379a00000000000000000000000000000000000000000000000000000000081526004016116ab90612a74565b60405180910390fd5b8281038260000160008673ffffffffffffffffffffffffffffffffffffffff1673ffffffffffffffffffffffffffffffffffffffff16815260200190815260200160002081905550828260020160008282546117109190612a94565b92505081905550600073ffffffffffffffffffffffffffffffffffffffff168473ffffffffffffffffffffffffffffffffffffffff167fddf252ad1be2c89b69c2b068fc378daa952ba7f163c4a11628f55a4df523b3ef856040516117759190611fbe565b60405180910390a350505050565b600061178d61105f565b60000160008373ffffffffffffffffffffffffffffffffffffffff1673ffffffffffffffffffffffffffffffffffffffff168152602001908152602001600020549050919050565b6117df82826108e9565b506117ea82826115a3565b5050565b6000807fbb9c3660b51e1fafa886fcf600a68efa81371bd50359eccba98f0c4fff2cfeb990508091505090565b60008260000160008373ffffffffffffffffffffffffffffffffffffffff1673ffffffffffffffffffffffffffffffffffffffff16815260200190815260200160002060009054906101000a900460ff16905092915050565b61187c611ba2565b565b80826000019080519060200190611896929190611d18565b505050565b808260010190805190602001906118b3929190611d18565b505050565b808260020160006101000a81548160ff021916908360ff1602179055505050565b6118e1611874565b60008260000160008373ffffffffffffffffffffffffffffffffffffffff1673ffffffffffffffffffffffffffffffffffffffff16815260200190815260200160002060006101000a81548160ff0219169083151502179055505050565b611947611ba2565b6000611951611b70565b9050818160040160006101000a81548173ffffffffffffffffffffffffffffffffffffffff021916908373ffffffffffffffffffffffffffffffffffffffff1602179055505050565b6000806119a56117ee565b60010160006119b2611c3d565b81526020019081526020016000205490506000801b81146119d657809150506119e2565b6119de611c45565b9150505b90565b60007f7fffffffffffffffffffffffffffffff5d576e7357a4501ddfe92f46681b20a08260001c1115611a4d576040517f08c379a0000000000000000000000000000000000000000000000000000000008152600401611a4490612b3a565b60405180910390fd5b601b8460ff161480611a625750601c8460ff16145b611aa1576040517f08c379a0000000000000000000000000000000000000000000000000000000008152600401611a9890612bcc565b60405180910390fd5b600060018686868660405160008152602001604052604051611ac69493929190612bfb565b6020604051602081039080840390855afa158015611ae8573d6000803e3d6000fd5b505050602060405103519050600073ffffffffffffffffffffffffffffffffffffffff168173ffffffffffffffffffffffffffffffffffffffff161415611b64576040517f08c379a0000000000000000000000000000000000000000000000000000000008152600401611b5b90612c8c565b60405180910390fd5b80915050949350505050565b6000807fc8fcad8db84d3cc18b4c41d551ea0ee66dd599cde068d998e57d5e09332c131c90508091505090565b505050565b611baa611b70565b60040160009054906101000a900473ffffffffffffffffffffffffffffffffffffffff1673ffffffffffffffffffffffffffffffffffffffff163373ffffffffffffffffffffffffffffffffffffffff1614611c3b576040517f08c379a0000000000000000000000000000000000000000000000000000000008152600401611c3290612d1e565b60405180910390fd5b565b600046905090565b600080611c50611c3d565b905060007f8b73c3c69bb8fe3d512ecc4cf759cc79239f7b179b0ffacaa9a75d522b39400f611c7d61046d565b805190602001206040518060400160405280600181526020017f3100000000000000000000000000000000000000000000000000000000000000815250805190602001208430604051602001611cd7959493929190612d3e565b60405160208183030381529060405280519060200120905080611cf86117ee565b600101600084815260200190815260200160002081905550809250505090565b828054611d2490612230565b90600052602060002090601f016020900481019282611d465760008555611d8d565b82601f10611d5f57805160ff1916838001178555611d8d565b82800160010185558215611d8d579182015b82811115611d8c578251825591602001919060010190611d71565b5b509050611d9a9190611d9e565b5090565b5b80821115611db7576000816000905550600101611d9f565b5090565b600081519050919050565b600082825260208201905092915050565b60005b83811015611df5578082015181840152602081019050611dda565b83811115611e04576000848401525b50505050565b6000601f19601f8301169050919050565b6000611e2682611dbb565b611e308185611dc6565b9350611e40818560208601611dd7565b611e4981611e0a565b840191505092915050565b60006020820190508181036000830152611e6e8184611e1b565b905092915050565b600080fd5b600073ffffffffffffffffffffffffffffffffffffffff82169050919050565b6000611ea682611e7b565b9050919050565b611eb681611e9b565b8114611ec157600080fd5b50565b600081359050611ed381611ead565b92915050565b6000819050919050565b611eec81611ed9565b8114611ef757600080fd5b50565b600081359050611f0981611ee3565b92915050565b60008060408385031215611f2657611f25611e76565b5b6000611f3485828601611ec4565b9250506020611f4585828601611efa565b9150509250929050565b60008115159050919050565b611f6481611f4f565b82525050565b6000602082019050611f7f6000830184611f5b565b92915050565b611f8e81611e9b565b82525050565b6000602082019050611fa96000830184611f85565b92915050565b611fb881611ed9565b82525050565b6000602082019050611fd36000830184611faf565b92915050565b600080600060608486031215611ff257611ff1611e76565b5b600061200086828701611ec4565b935050602061201186828701611ec4565b925050604061202286828701611efa565b9150509250925092565b60006020828403121561204257612041611e76565b5b600061205084828501611ec4565b91505092915050565b600060ff82169050919050565b61206f81612059565b82525050565b600060208201905061208a6000830184612066565b92915050565b6000602082840312156120a6576120a5611e76565b5b60006120b484828501611efa565b91505092915050565b6120c681612059565b81146120d157600080fd5b50565b6000813590506120e3816120bd565b92915050565b6000819050919050565b6120fc816120e9565b811461210757600080fd5b50565b600081359050612119816120f3565b92915050565b600080600080600080600060e0888a03121561213e5761213d611e76565b5b600061214c8a828b01611ec4565b975050602061215d8a828b01611ec4565b965050604061216e8a828b01611efa565b955050606061217f8a828b01611efa565b94505060806121908a828b016120d4565b93505060a06121a18a828b0161210a565b92505060c06121b28a828b0161210a565b91505092959891949750929550565b600080604083850312156121d8576121d7611e76565b5b60006121e685828601611ec4565b92505060206121f785828601611ec4565b9150509250929050565b7f4e487b7100000000000000000000000000000000000000000000000000000000600052602260045260246000fd5b6000600282049050600182168061224857607f821691505b6020821081141561225c5761225b612201565b5b50919050565b7f45524332303a207472616e7366657220616d6f756e742065786365656473206160008201527f6c6c6f77616e6365000000000000000000000000000000000000000000000000602082015250565b60006122be602883611dc6565b91506122c982612262565b604082019050919050565b600060208201905081810360008301526122ed816122b1565b9050919050565b7f4552433230457874656e6465643a2065786365737369766520616c6c6f77616e60008201527f6365000000000000000000000000000000000000000000000000000000000000602082015250565b6000612350602283611dc6565b915061235b826122f4565b604082019050919050565b6000602082019050818103600083015261237f81612343565b9050919050565b7f4552433230457874656e6465643a20696e73756666696369656e7420616c6c6f60008201527f77616e6365000000000000000000000000000000000000000000000000000000602082015250565b60006123e2602583611dc6565b91506123ed82612386565b604082019050919050565b60006020820190508181036000830152612411816123d5565b9050919050565b7f45524332305065726d69743a206578706972656420646561646c696e65000000600082015250565b600061244e601d83611dc6565b915061245982612418565b602082019050919050565b6000602082019050818103600083015261247d81612441565b9050919050565b7f45524332305065726d69743a20696e76616c6964207369676e61747572650000600082015250565b60006124ba601e83611dc6565b91506124c582612484565b602082019050919050565b600060208201905081810360008301526124e9816124ad565b9050919050565b7f4e487b7100000000000000000000000000000000000000000000000000000000600052601160045260246000fd5b600061252a82611ed9565b91507fffffffffffffffffffffffffffffffffffffffffffffffffffffffffffffffff82141561255d5761255c6124f0565b5b600182019050919050565b7f45524332303a20617070726f76652066726f6d20746865207a65726f2061646460008201527f7265737300000000000000000000000000000000000000000000000000000000602082015250565b60006125c4602483611dc6565b91506125cf82612568565b604082019050919050565b600060208201905081810360008301526125f3816125b7565b9050919050565b7f45524332303a20617070726f766520746f20746865207a65726f20616464726560008201527f7373000000000000000000000000000000000000000000000000000000000000602082015250565b6000612656602283611dc6565b9150612661826125fa565b604082019050919050565b6000602082019050818103600083015261268581612649565b9050919050565b7f45524332303a207472616e736665722066726f6d20746865207a65726f20616460008201527f6472657373000000000000000000000000000000000000000000000000000000602082015250565b60006126e8602583611dc6565b91506126f38261268c565b604082019050919050565b60006020820190508181036000830152612717816126db565b9050919050565b7f45524332303a207472616e7366657220746f20746865207a65726f206164647260008201527f6573730000000000000000000000000000000000000000000000000000000000602082015250565b600061277a602383611dc6565b91506127858261271e565b604082019050919050565b600060208201905081810360008301526127a98161276d565b9050919050565b7f45524332303a207472616e7366657220616d6f756e742065786365656473206260008201527f616c616e63650000000000000000000000000000000000000000000000000000602082015250565b600061280c602683611dc6565b9150612817826127b0565b604082019050919050565b6000602082019050818103600083015261283b816127ff565b9050919050565b600061284d82611ed9565b915061285883611ed9565b9250827fffffffffffffffffffffffffffffffffffffffffffffffffffffffffffffffff0382111561288d5761288c6124f0565b5b828201905092915050565b7f4e444f4c3a206f6e6c79207661756c7473000000000000000000000000000000600082015250565b60006128ce601183611dc6565b91506128d982612898565b602082019050919050565b600060208201905081810360008301526128fd816128c1565b9050919050565b7f45524332303a206d696e7420746f20746865207a65726f206164647265737300600082015250565b600061293a601f83611dc6565b915061294582612904565b602082019050919050565b600060208201905081810360008301526129698161292d565b9050919050565b7f45524332303a206275726e2066726f6d20746865207a65726f2061646472657360008201527f7300000000000000000000000000000000000000000000000000000000000000602082015250565b60006129cc602183611dc6565b91506129d782612970565b604082019050919050565b600060208201905081810360008301526129fb816129bf565b9050919050565b7f45524332303a206275726e20616d6f756e7420657863656564732062616c616e60008201527f6365000000000000000000000000000000000000000000000000000000000000602082015250565b6000612a5e602283611dc6565b9150612a6982612a02565b604082019050919050565b60006020820190508181036000830152612a8d81612a51565b9050919050565b6000612a9f82611ed9565b9150612aaa83611ed9565b925082821015612abd57612abc6124f0565b5b828203905092915050565b7f45434453413a20696e76616c6964207369676e6174757265202773272076616c60008201527f7565000000000000000000000000000000000000000000000000000000000000602082015250565b6000612b24602283611dc6565b9150612b2f82612ac8565b604082019050919050565b60006020820190508181036000830152612b5381612b17565b9050919050565b7f45434453413a20696e76616c6964207369676e6174757265202776272076616c60008201527f7565000000000000000000000000000000000000000000000000000000000000602082015250565b6000612bb6602283611dc6565b9150612bc182612b5a565b604082019050919050565b60006020820190508181036000830152612be581612ba9565b9050919050565b612bf5816120e9565b82525050565b6000608082019050612c106000830187612bec565b612c1d6020830186612066565b612c2a6040830185612bec565b612c376060830184612bec565b95945050505050565b7f45434453413a20696e76616c6964207369676e61747572650000000000000000600082015250565b6000612c76601883611dc6565b9150612c8182612c40565b602082019050919050565b60006020820190508181036000830152612ca581612c69565b9050919050565b7f4c69624469616d6f6e643a20696e76616c696420636f6e7472616374206f776e60008201527f6572000000000000000000000000000000000000000000000000000000000000602082015250565b6000612d08602283611dc6565b9150612d1382612cac565b604082019050919050565b60006020820190508181036000830152612d3781612cfb565b9050919050565b600060a082019050612d536000830188612bec565b612d606020830187612bec565b612d6d6040830186612bec565b612d7a6060830185611faf565b612d876080830184611f85565b969550505050505056fea2646970667358221220e030383118e8113190f8d86afa80961c9a2871d028dd8408dba152d4ed1bde6264736f6c634300080a0033",
  "linkReferences": {},
  "deployedLinkReferences": {}
}