{
  "_format": "hh-sol-artifact-1",
  "contractName": "DistributorFacet",
  "sourceName": "contracts/facets/Bond/DistributorFacet.sol",
  "abi": [
    {
      "inputs": [],
      "name": "distribute",
      "outputs": [
        {
          "internalType": "bool",
          "name": "",
          "type": "bool"
        }
      ],
      "stateMutability": "nonpayable",
      "type": "function"
    },
    {
      "inputs": [
        {
          "internalType": "uint256",
          "name": "_rate",
          "type": "uint256"
        }
      ],
      "name": "nextRewardAt",
      "outputs": [
        {
          "internalType": "uint256",
          "name": "",
          "type": "uint256"
        }
      ],
      "stateMutability": "view",
      "type": "function"
    },
    {
      "inputs": [
        {
          "internalType": "address",
          "name": "_recipient",
          "type": "address"
        }
      ],
      "name": "nextRewardFor",
      "outputs": [
        {
          "internalType": "uint256",
          "name": "",
          "type": "uint256"
        }
      ],
      "stateMutability": "view",
      "type": "function"
    }
  ],
  "bytecode": "0x608060405234801561001057600080fd5b50610b48806100206000396000f3fe608060405234801561001057600080fd5b50600436106100415760003560e01c806336d33f4414610046578063c9fa8b2a14610076578063e4fc6b6d146100a6575b600080fd5b610060600480360381019061005b91906107bd565b6100c4565b60405161006d9190610803565b60405180910390f35b610090600480360381019061008b919061084a565b6101a7565b60405161009d9190610803565b60405180910390f35b6100ae61026a565b6040516100bb9190610892565b60405180910390f35b60008060005b60006011018054905081101561019d578373ffffffffffffffffffffffffffffffffffffffff1660006011018281548110610108576101076108ad565b5b906000526020600020906002020160010160009054906101000a900473ffffffffffffffffffffffffffffffffffffffff1673ffffffffffffffffffffffffffffffffffffffff16141561018a57610187600060110182815481106101705761016f6108ad565b5b9060005260206000209060020201600001546101a7565b91505b80806101959061090b565b9150506100ca565b5080915050919050565b6000610263620f4240610255846000800160009054906101000a900473ffffffffffffffffffffffffffffffffffffffff1673ffffffffffffffffffffffffffffffffffffffff166318160ddd6040518163ffffffff1660e01b8152600401602060405180830381865afa158015610223573d6000803e3d6000fd5b505050506040513d601f19601f820116820180604052508101906102479190610969565b61048390919063ffffffff16565b61049990919063ffffffff16565b9050919050565b60008061027a60006008016104af565b905060006001905060005b8281101561047a57426000600f0160008381526020019081526020016000205411610462576102d86000601701546000600f016000848152602001908152602001600020546104c490919063ffffffff16565b6000600f0160008381526020019081526020016000208190555060005b60006011018054905081101561045c57600080601101828154811061031d5761031c6108ad565b5b906000526020600020906002020160000154111561044957600060040160009054906101000a900473ffffffffffffffffffffffffffffffffffffffff1673ffffffffffffffffffffffffffffffffffffffff16636a20de926000601101838154811061038d5761038c6108ad565b5b906000526020600020906002020160010160009054906101000a900473ffffffffffffffffffffffffffffffffffffffff166103f0600060110185815481106103d9576103d86108ad565b5b9060005260206000209060020201600001546101a7565b6040518363ffffffff1660e01b815260040161040d9291906109a5565b600060405180830381600087803b15801561042757600080fd5b505af115801561043b573d6000803e3d6000fd5b50505050610448816104da565b5b80806104549061090b565b9150506102f5565b50610467565b600091505b80806104729061090b565b915050610285565b50809250505090565b6000818361049191906109ce565b905092915050565b600081836104a79190610a57565b905092915050565b60006104bd82600001610733565b9050919050565b600081836104d29190610a88565b905092915050565b60008060120160008381526020019081526020016000209050600081600101541461072f578060000160009054906101000a900460ff16156105d857610555816001015460006011018481548110610535576105346108ad565b5b9060005260206000209060020201600001546104c490919063ffffffff16565b6000601101838154811061056c5761056b6108ad565b5b90600052602060002090600202016000018190555080600201546000601101838154811061059d5761059c6108ad565b5b906000526020600020906002020160000154106105d3576000806012016000848152602001908152602001600020600101819055505b61072e565b8060010154600060110183815481106105f4576105f36108ad565b5b906000526020600020906002020160000154111561067c5761064b81600101546000601101848154811061062b5761062a6108ad565b5b90600052602060002090600202016000015461074490919063ffffffff16565b60006011018381548110610662576106616108ad565b5b9060005260206000209060020201600001819055506106aa565b6000806011018381548110610694576106936108ad565b5b9060005260206000209060020201600001819055505b8060020154600060110183815481106106c6576106c56108ad565b5b9060005260206000209060020201600001541161072d57600080601201600084815260200190815260200160002060010181905550806002015460006011018381548110610717576107166108ad565b5b9060005260206000209060020201600001819055505b5b5b5050565b600081600001805490509050919050565b600081836107529190610ade565b905092915050565b600080fd5b600073ffffffffffffffffffffffffffffffffffffffff82169050919050565b600061078a8261075f565b9050919050565b61079a8161077f565b81146107a557600080fd5b50565b6000813590506107b781610791565b92915050565b6000602082840312156107d3576107d261075a565b5b60006107e1848285016107a8565b91505092915050565b6000819050919050565b6107fd816107ea565b82525050565b600060208201905061081860008301846107f4565b92915050565b610827816107ea565b811461083257600080fd5b50565b6000813590506108448161081e565b92915050565b6000602082840312156108605761085f61075a565b5b600061086e84828501610835565b91505092915050565b60008115159050919050565b61088c81610877565b82525050565b60006020820190506108a76000830184610883565b92915050565b7f4e487b7100000000000000000000000000000000000000000000000000000000600052603260045260246000fd5b7f4e487b7100000000000000000000000000000000000000000000000000000000600052601160045260246000fd5b6000610916826107ea565b91507fffffffffffffffffffffffffffffffffffffffffffffffffffffffffffffffff821415610949576109486108dc565b5b600182019050919050565b6000815190506109638161081e565b92915050565b60006020828403121561097f5761097e61075a565b5b600061098d84828501610954565b91505092915050565b61099f8161077f565b82525050565b60006040820190506109ba6000830185610996565b6109c760208301846107f4565b9392505050565b60006109d9826107ea565b91506109e4836107ea565b9250817fffffffffffffffffffffffffffffffffffffffffffffffffffffffffffffffff0483118215151615610a1d57610a1c6108dc565b5b828202905092915050565b7f4e487b7100000000000000000000000000000000000000000000000000000000600052601260045260246000fd5b6000610a62826107ea565b9150610a6d836107ea565b925082610a7d57610a7c610a28565b5b828204905092915050565b6000610a93826107ea565b9150610a9e836107ea565b9250827fffffffffffffffffffffffffffffffffffffffffffffffffffffffffffffffff03821115610ad357610ad26108dc565b5b828201905092915050565b6000610ae9826107ea565b9150610af4836107ea565b925082821015610b0757610b066108dc565b5b82820390509291505056fea26469706673582212202421a37387ac0ec857ad6bd4070e9938cd777b66a1e849e868b903b06aaee39864736f6c634300080a0033",
  "linkReferences": {},
  "deployedLinkReferences": {}
}