{
  "_format": "hh-sol-artifact-1",
  "contractName": "DistributorFacet",
  "sourceName": "contracts/facets/Bond/DistributorFacet.sol",
  "abi": [
    {
      "inputs": [],
      "name": "distribute",
      "outputs": [
        {
          "internalType": "bool",
          "name": "",
          "type": "bool"
        }
      ],
      "stateMutability": "nonpayable",
      "type": "function"
    },
    {
      "inputs": [
        {
          "internalType": "uint256",
          "name": "_rate",
          "type": "uint256"
        }
      ],
      "name": "nextRewardAt",
      "outputs": [
        {
          "internalType": "uint256",
          "name": "",
          "type": "uint256"
        }
      ],
      "stateMutability": "view",
      "type": "function"
    },
    {
      "inputs": [
        {
          "internalType": "address",
          "name": "_recipient",
          "type": "address"
        }
      ],
      "name": "nextRewardFor",
      "outputs": [
        {
          "internalType": "uint256",
          "name": "",
          "type": "uint256"
        }
      ],
      "stateMutability": "view",
      "type": "function"
    }
  ],
  "bytecode": "0x608060405234801561001057600080fd5b506108e6806100206000396000f3fe608060405234801561001057600080fd5b50600436106100415760003560e01c806336d33f4414610046578063c9fa8b2a1461009e578063e4fc6b6d146100e0575b600080fd5b6100886004803603602081101561005c57600080fd5b81019080803573ffffffffffffffffffffffffffffffffffffffff169060200190929190505050610100565b6040518082815260200191505060405180910390f35b6100ca600480360360208110156100b457600080fd5b81019080803590602001909291905050506101cf565b6040518082815260200191505060405180910390f35b6100e86102a4565b60405180821515815260200191505060405180910390f35b60008060005b6000601001805490508110156101c5578373ffffffffffffffffffffffffffffffffffffffff166000601001828154811061013d57fe5b906000526020600020906002020160010160009054906101000a900473ffffffffffffffffffffffffffffffffffffffff1673ffffffffffffffffffffffffffffffffffffffff1614156101b8576101b56000601001828154811061019e57fe5b9060005260206000209060020201600001546101cf565b91505b8080600101915050610106565b5080915050919050565b600061029d620f424061028f846000800160009054906101000a900473ffffffffffffffffffffffffffffffffffffffff1673ffffffffffffffffffffffffffffffffffffffff166318160ddd6040518163ffffffff1660e01b815260040160206040518083038186803b15801561024657600080fd5b505afa15801561025a573d6000803e3d6000fd5b505050506040513d602081101561027057600080fd5b81019080805190602001909291905050506104b890919063ffffffff16565b61053e90919063ffffffff16565b9050919050565b6000806102b460006007016105c7565b905060006001905060005b828110156104af57426000600e016000838152602001908152602001600020541161049d576103126000601601546000600e016000848152602001908152602001600020546105dc90919063ffffffff16565b6000600e0160008381526020019081526020016000208190555060005b60006010018054905081101561049757600080601001828154811061035057fe5b906000526020600020906002020160000154111561048a57600060030160009054906101000a900473ffffffffffffffffffffffffffffffffffffffff1673ffffffffffffffffffffffffffffffffffffffff16636a20de92600060100183815481106103b957fe5b906000526020600020906002020160010160009054906101000a900473ffffffffffffffffffffffffffffffffffffffff16610415600060100185815481106103fe57fe5b9060005260206000209060020201600001546101cf565b6040518363ffffffff1660e01b8152600401808373ffffffffffffffffffffffffffffffffffffffff16815260200182815260200192505050600060405180830381600087803b15801561046857600080fd5b505af115801561047c573d6000803e3d6000fd5b5050505061048981610664565b5b808060010191505061032f565b506104a2565b600091505b80806001019150506102bf565b50809250505090565b6000808314156104cb5760009050610538565b60008284029050828482816104dc57fe5b0414610533576040517f08c379a00000000000000000000000000000000000000000000000000000000081526004018080602001828103825260218152602001806108906021913960400191505060405180910390fd5b809150505b92915050565b60008082116105b5576040517f08c379a000000000000000000000000000000000000000000000000000000000815260040180806020018281038252601a8152602001807f536166654d6174683a206469766973696f6e206279207a65726f00000000000081525060200191505060405180910390fd5b8183816105be57fe5b04905092915050565b60006105d5826000016107fb565b9050919050565b60008082840190508381101561065a576040517f08c379a000000000000000000000000000000000000000000000000000000000815260040180806020018281038252601b8152602001807f536166654d6174683a206164646974696f6e206f766572666c6f77000000000081525060200191505060405180910390fd5b8091505092915050565b6000806011016000838152602001908152602001600020905060008160010154146107f7578060000160009054906101000a900460ff161561074d576106d88160010154600060100184815481106106b857fe5b9060005260206000209060020201600001546105dc90919063ffffffff16565b600060100183815481106106e857fe5b90600052602060002090600202016000018190555080600201546000601001838154811061071257fe5b90600052602060002090600202016000015410610748576000806011016000848152602001908152602001600020600101819055505b6107f6565b61078581600101546000601001848154811061076557fe5b90600052602060002090600202016000015461080c90919063ffffffff16565b6000601001838154811061079557fe5b9060005260206000209060020201600001819055508060020154600060100183815481106107bf57fe5b906000526020600020906002020160000154116107f5576000806011016000848152602001908152602001600020600101819055505b5b5b5050565b600081600001805490509050919050565b600082821115610884576040517f08c379a000000000000000000000000000000000000000000000000000000000815260040180806020018281038252601e8152602001807f536166654d6174683a207375627472616374696f6e206f766572666c6f77000081525060200191505060405180910390fd5b81830390509291505056fe536166654d6174683a206d756c7469706c69636174696f6e206f766572666c6f77a264697066735822122098991d26f7bd9de6e25047c74c4776981bdbddd09a74ec6e95a951ea09dbb40964736f6c63430007050033",
  "linkReferences": {},
  "deployedLinkReferences": {}
}