{
  "_format": "hh-sol-artifact-1",
  "contractName": "BondingCalculatorFacet",
  "sourceName": "contracts/facets/Treasury/BondingCalculatorFacet.sol",
  "abi": [
    {
      "inputs": [
        {
          "internalType": "address",
          "name": "_pair",
          "type": "address"
        }
      ],
      "name": "getKValue",
      "outputs": [
        {
          "internalType": "uint256",
          "name": "k_",
          "type": "uint256"
        }
      ],
      "stateMutability": "view",
      "type": "function"
    },
    {
      "inputs": [
        {
          "internalType": "address",
          "name": "_pair",
          "type": "address"
        }
      ],
      "name": "getTotalValue",
      "outputs": [
        {
          "internalType": "uint256",
          "name": "_value",
          "type": "uint256"
        }
      ],
      "stateMutability": "view",
      "type": "function"
    },
    {
      "inputs": [
        {
          "internalType": "address",
          "name": "_pair",
          "type": "address"
        }
      ],
      "name": "markdown",
      "outputs": [
        {
          "internalType": "uint256",
          "name": "",
          "type": "uint256"
        }
      ],
      "stateMutability": "view",
      "type": "function"
    },
    {
      "inputs": [
        {
          "internalType": "address",
          "name": "_pair",
          "type": "address"
        },
        {
          "internalType": "uint256",
          "name": "amount_",
          "type": "uint256"
        }
      ],
      "name": "valuation",
      "outputs": [
        {
          "internalType": "uint256",
          "name": "_value",
          "type": "uint256"
        }
      ],
      "stateMutability": "view",
      "type": "function"
    }
  ],
  "bytecode": "0x608060405234801561001057600080fd5b50611a7e806100206000396000f3fe608060405234801561001057600080fd5b506004361061004c5760003560e01c806332da80a3146100515780634249719f14610081578063490084ef146100b157806368637549146100e1575b600080fd5b61006b600480360381019061006691906110f1565b610111565b6040516100789190611137565b60405180910390f35b61009b6004803603810190610096919061117e565b610477565b6040516100a89190611137565b60405180910390f35b6100cb60048036038101906100c691906110f1565b610540565b6040516100d89190611137565b60405180910390f35b6100fb60048036038101906100f691906110f1565b610877565b6040516101089190611137565b60405180910390f35b60008060008373ffffffffffffffffffffffffffffffffffffffff16630902f1ac6040518163ffffffff1660e01b8152600401606060405180830381865afa158015610161573d6000803e3d6000fd5b505050506040513d601f19601f820116820180604052508101906101859190611240565b506dffffffffffffffffffffffffffff1691506dffffffffffffffffffffffffffff16915060008060010160009054906101000a900473ffffffffffffffffffffffffffffffffffffffff1673ffffffffffffffffffffffffffffffffffffffff168573ffffffffffffffffffffffffffffffffffffffff16630dfe16816040518163ffffffff1660e01b8152600401602060405180830381865afa158015610232573d6000803e3d6000fd5b505050506040513d601f19601f8201168201806040525081019061025691906112a8565b73ffffffffffffffffffffffffffffffffffffffff16141561027a5781905061037f565b600060010160009054906101000a900473ffffffffffffffffffffffffffffffffffffffff1673ffffffffffffffffffffffffffffffffffffffff168573ffffffffffffffffffffffffffffffffffffffff1663d21220a76040518163ffffffff1660e01b8152600401602060405180830381865afa158015610301573d6000803e3d6000fd5b505050506040513d601f19601f8201168201806040525081019061032591906112a8565b73ffffffffffffffffffffffffffffffffffffffff161461037b576040517f08c379a000000000000000000000000000000000000000000000000000000000815260040161037290611332565b60405180910390fd5b8290505b61046d633b9aca0061045f61039388610877565b610451600060010160009054906101000a900473ffffffffffffffffffffffffffffffffffffffff1673ffffffffffffffffffffffffffffffffffffffff1663313ce5676040518163ffffffff1660e01b8152600401602060405180830381865afa158015610406573d6000803e3d6000fd5b505050506040513d601f19601f8201168201806040525081019061042a919061138b565b600a610436919061151a565b60026104429190611565565b866108a490919063ffffffff16565b61091f90919063ffffffff16565b61091f90919063ffffffff16565b9350505050919050565b60008061048384610877565b905060008473ffffffffffffffffffffffffffffffffffffffff166318160ddd6040518163ffffffff1660e01b8152600401602060405180830381865afa1580156104d2573d6000803e3d6000fd5b505050506040513d601f19601f820116820180604052508101906104f691906115d4565b9050610536670de0b6b3a76400006105286105196105148886610969565b610b70565b856108a490919063ffffffff16565b61091f90919063ffffffff16565b9250505092915050565b6000808273ffffffffffffffffffffffffffffffffffffffff16630dfe16816040518163ffffffff1660e01b8152600401602060405180830381865afa15801561058e573d6000803e3d6000fd5b505050506040513d601f19601f820116820180604052508101906105b291906112a8565b73ffffffffffffffffffffffffffffffffffffffff1663313ce5676040518163ffffffff1660e01b8152600401602060405180830381865afa1580156105fc573d6000803e3d6000fd5b505050506040513d601f19601f82011682018060405250810190610620919061138b565b60ff16905060008373ffffffffffffffffffffffffffffffffffffffff1663d21220a76040518163ffffffff1660e01b8152600401602060405180830381865afa158015610672573d6000803e3d6000fd5b505050506040513d601f19601f8201168201806040525081019061069691906112a8565b73ffffffffffffffffffffffffffffffffffffffff1663313ce5676040518163ffffffff1660e01b8152600401602060405180830381865afa1580156106e0573d6000803e3d6000fd5b505050506040513d601f19601f82011682018060405250810190610704919061138b565b60ff16905060006107a18573ffffffffffffffffffffffffffffffffffffffff1663313ce5676040518163ffffffff1660e01b8152600401602060405180830381865afa158015610759573d6000803e3d6000fd5b505050506040513d601f19601f8201168201806040525081019061077d919061138b565b60ff166107938486610bae90919063ffffffff16565b610c0c90919063ffffffff16565b90506000808673ffffffffffffffffffffffffffffffffffffffff16630902f1ac6040518163ffffffff1660e01b8152600401606060405180830381865afa1580156107f1573d6000803e3d6000fd5b505050506040513d601f19601f820116820180604052508101906108159190611240565b506dffffffffffffffffffffffffffff1691506dffffffffffffffffffffffffffff16915061086b83600a61084a9190611601565b61085d83856108a490919063ffffffff16565b61091f90919063ffffffff16565b95505050505050919050565b600061089d600261088f61088a85610540565b610c56565b6108a490919063ffffffff16565b9050919050565b6000808314156108b75760009050610919565b600082846108c59190611565565b90508284826108d4919061167b565b14610914576040517f08c379a000000000000000000000000000000000000000000000000000000000815260040161090b9061171e565b60405180910390fd5b809150505b92915050565b600061096183836040518060400160405280601a81526020017f536166654d6174683a206469766973696f6e206279207a65726f000000000000815250610cc6565b905092915050565b61097161105d565b600082116109b4576040517f08c379a00000000000000000000000000000000000000000000000000000000081526004016109ab906117b0565b60405180910390fd5b60008314156109f257604051806020016040528060007bffffffffffffffffffffffffffffffffffffffffffffffffffffffff168152509050610b6a565b71ffffffffffffffffffffffffffffffffffff80168311610aba57600082607060ff1685901b610a22919061167b565b90507bffffffffffffffffffffffffffffffffffffffffffffffffffffffff8016811115610a85576040517f08c379a0000000000000000000000000000000000000000000000000000000008152600401610a7c9061181c565b60405180910390fd5b6040518060200160405280827bffffffffffffffffffffffffffffffffffffffffffffffffffffffff16815250915050610b6a565b6000610ad6846e01000000000000000000000000000085610d29565b90507bffffffffffffffffffffffffffffffffffffffffffffffffffffffff8016811115610b39576040517f08c379a0000000000000000000000000000000000000000000000000000000008152600401610b309061181c565b60405180910390fd5b6040518060200160405280827bffffffffffffffffffffffffffffffffffffffffffffffffffffffff168152509150505b92915050565b60006612725dd1d243ab82600001517bffffffffffffffffffffffffffffffffffffffffffffffffffffffff16610ba7919061167b565b9050919050565b6000808284610bbd919061183c565b905083811015610c02576040517f08c379a0000000000000000000000000000000000000000000000000000000008152600401610bf9906118de565b60405180910390fd5b8091505092915050565b6000610c4e83836040518060400160405280601e81526020017f536166654d6174683a207375627472616374696f6e206f766572666c6f770000815250610dd1565b905092915050565b60006003821115610cb3578190506000610c7b610c7484600261091f565b6001610bae565b90505b81811015610cad57809150610ca6610c9f610c99858461091f565b83610bae565b600261091f565b9050610c7e565b50610cc1565b60008214610cc057600190505b5b919050565b60008083118290610d0d576040517f08c379a0000000000000000000000000000000000000000000000000000000008152600401610d049190611986565b60405180910390fd5b5060008385610d1c919061167b565b9050809150509392505050565b6000806000610d388686610e35565b9150915060008480610d4d57610d4c61164c565b5b868809905082811115610d6a57600182610d6791906119a8565b91505b8083610d7691906119a8565b9250848210610dba576040517f08c379a0000000000000000000000000000000000000000000000000000000008152600401610db190611a28565b60405180910390fd5b610dc5838387610eaa565b93505050509392505050565b6000838311158290610e19576040517f08c379a0000000000000000000000000000000000000000000000000000000008152600401610e109190611986565b60405180910390fd5b5060008385610e2891906119a8565b9050809150509392505050565b60008060007fffffffffffffffffffffffffffffffffffffffffffffffffffffffffffffffff80610e6957610e6861164c565b5b84860990508385610e7a9190611565565b92508281610e8891906119a8565b915082811015610ea257600182610e9f91906119a8565b91505b509250929050565b60008060018319610ebb919061183c565b831690508083610ecb919061167b565b92508085610ed9919061167b565b945060018160018319610eec919061183c565b610ef6919061167b565b610f00919061183c565b84610f0b9190611565565b85610f16919061183c565b94506000600190508084610f2a9190611565565b6002610f3691906119a8565b81610f419190611565565b90508084610f4f9190611565565b6002610f5b91906119a8565b81610f669190611565565b90508084610f749190611565565b6002610f8091906119a8565b81610f8b9190611565565b90508084610f999190611565565b6002610fa591906119a8565b81610fb09190611565565b90508084610fbe9190611565565b6002610fca91906119a8565b81610fd59190611565565b90508084610fe39190611565565b6002610fef91906119a8565b81610ffa9190611565565b905080846110089190611565565b600261101491906119a8565b8161101f9190611565565b9050808461102d9190611565565b600261103991906119a8565b816110449190611565565b905080866110529190611565565b925050509392505050565b604051806020016040528060007bffffffffffffffffffffffffffffffffffffffffffffffffffffffff1681525090565b600080fd5b600073ffffffffffffffffffffffffffffffffffffffff82169050919050565b60006110be82611093565b9050919050565b6110ce816110b3565b81146110d957600080fd5b50565b6000813590506110eb816110c5565b92915050565b6000602082840312156111075761110661108e565b5b6000611115848285016110dc565b91505092915050565b6000819050919050565b6111318161111e565b82525050565b600060208201905061114c6000830184611128565b92915050565b61115b8161111e565b811461116657600080fd5b50565b60008135905061117881611152565b92915050565b600080604083850312156111955761119461108e565b5b60006111a3858286016110dc565b92505060206111b485828601611169565b9150509250929050565b60006dffffffffffffffffffffffffffff82169050919050565b6111e1816111be565b81146111ec57600080fd5b50565b6000815190506111fe816111d8565b92915050565b600063ffffffff82169050919050565b61121d81611204565b811461122857600080fd5b50565b60008151905061123a81611214565b92915050565b6000806000606084860312156112595761125861108e565b5b6000611267868287016111ef565b9350506020611278868287016111ef565b92505060406112898682870161122b565b9150509250925092565b6000815190506112a2816110c5565b92915050565b6000602082840312156112be576112bd61108e565b5b60006112cc84828501611293565b91505092915050565b600082825260208201905092915050565b7f496e76616c696420706169720000000000000000000000000000000000000000600082015250565b600061131c600c836112d5565b9150611327826112e6565b602082019050919050565b6000602082019050818103600083015261134b8161130f565b9050919050565b600060ff82169050919050565b61136881611352565b811461137357600080fd5b50565b6000815190506113858161135f565b92915050565b6000602082840312156113a1576113a061108e565b5b60006113af84828501611376565b91505092915050565b7f4e487b7100000000000000000000000000000000000000000000000000000000600052601160045260246000fd5b60008160011c9050919050565b6000808291508390505b600185111561143e5780860481111561141a576114196113b8565b5b60018516156114295780820291505b8081029050611437856113e7565b94506113fe565b94509492505050565b6000826114575760019050611513565b816114655760009050611513565b816001811461147b5760028114611485576114b4565b6001915050611513565b60ff841115611497576114966113b8565b5b8360020a9150848211156114ae576114ad6113b8565b5b50611513565b5060208310610133831016604e8410600b84101617156114e95782820a9050838111156114e4576114e36113b8565b5b611513565b6114f684848460016113f4565b9250905081840481111561150d5761150c6113b8565b5b81810290505b9392505050565b60006115258261111e565b915061153083611352565b925061155d7fffffffffffffffffffffffffffffffffffffffffffffffffffffffffffffffff8484611447565b905092915050565b60006115708261111e565b915061157b8361111e565b9250817fffffffffffffffffffffffffffffffffffffffffffffffffffffffffffffffff04831182151516156115b4576115b36113b8565b5b828202905092915050565b6000815190506115ce81611152565b92915050565b6000602082840312156115ea576115e961108e565b5b60006115f8848285016115bf565b91505092915050565b600061160c8261111e565b91506116178361111e565b92506116447fffffffffffffffffffffffffffffffffffffffffffffffffffffffffffffffff8484611447565b905092915050565b7f4e487b7100000000000000000000000000000000000000000000000000000000600052601260045260246000fd5b60006116868261111e565b91506116918361111e565b9250826116a1576116a061164c565b5b828204905092915050565b7f536166654d6174683a206d756c7469706c69636174696f6e206f766572666c6f60008201527f7700000000000000000000000000000000000000000000000000000000000000602082015250565b60006117086021836112d5565b9150611713826116ac565b604082019050919050565b60006020820190508181036000830152611737816116fb565b9050919050565b7f4669786564506f696e743a3a6672616374696f6e3a206469766973696f6e206260008201527f79207a65726f0000000000000000000000000000000000000000000000000000602082015250565b600061179a6026836112d5565b91506117a58261173e565b604082019050919050565b600060208201905081810360008301526117c98161178d565b9050919050565b7f4669786564506f696e743a3a6672616374696f6e3a206f766572666c6f770000600082015250565b6000611806601e836112d5565b9150611811826117d0565b602082019050919050565b60006020820190508181036000830152611835816117f9565b9050919050565b60006118478261111e565b91506118528361111e565b9250827fffffffffffffffffffffffffffffffffffffffffffffffffffffffffffffffff03821115611887576118866113b8565b5b828201905092915050565b7f536166654d6174683a206164646974696f6e206f766572666c6f770000000000600082015250565b60006118c8601b836112d5565b91506118d382611892565b602082019050919050565b600060208201905081810360008301526118f7816118bb565b9050919050565b600081519050919050565b60005b8381101561192757808201518184015260208101905061190c565b83811115611936576000848401525b50505050565b6000601f19601f8301169050919050565b6000611958826118fe565b61196281856112d5565b9350611972818560208601611909565b61197b8161193c565b840191505092915050565b600060208201905081810360008301526119a0818461194d565b905092915050565b60006119b38261111e565b91506119be8361111e565b9250828210156119d1576119d06113b8565b5b828203905092915050565b7f46756c6c4d6174683a3a6d756c4469763a206f766572666c6f77000000000000600082015250565b6000611a12601a836112d5565b9150611a1d826119dc565b602082019050919050565b60006020820190508181036000830152611a4181611a05565b905091905056fea26469706673582212204fc4fb06586692bab535ba480fe2454fcf628825adc85a7b7aa5fda55a75d67964736f6c634300080a0033",
  "linkReferences": {},
  "deployedLinkReferences": {}
}