{
  "_format": "hh-sol-artifact-1",
  "contractName": "VaultNUSDFacet",
  "sourceName": "contracts/facets/Vault/VaultNUSDFacet.sol",
  "abi": [
    {
      "anonymous": false,
      "inputs": [
        {
          "indexed": false,
          "internalType": "address",
          "name": "account",
          "type": "address"
        },
        {
          "indexed": false,
          "internalType": "address",
          "name": "token",
          "type": "address"
        },
        {
          "indexed": false,
          "internalType": "uint256",
          "name": "tokenAmount",
          "type": "uint256"
        },
        {
          "indexed": false,
          "internalType": "uint256",
          "name": "nusdAmount",
          "type": "uint256"
        }
      ],
      "name": "BuyNUSD",
      "type": "event"
    },
    {
      "anonymous": false,
      "inputs": [
        {
          "indexed": false,
          "internalType": "address",
          "name": "account",
          "type": "address"
        },
        {
          "indexed": false,
          "internalType": "address",
          "name": "token",
          "type": "address"
        },
        {
          "indexed": false,
          "internalType": "uint256",
          "name": "nusdAmount",
          "type": "uint256"
        },
        {
          "indexed": false,
          "internalType": "uint256",
          "name": "tokenAmount",
          "type": "uint256"
        }
      ],
      "name": "SellNUSD",
      "type": "event"
    },
    {
      "anonymous": false,
      "inputs": [
        {
          "indexed": false,
          "internalType": "address",
          "name": "account",
          "type": "address"
        },
        {
          "indexed": false,
          "internalType": "address",
          "name": "tokenIn",
          "type": "address"
        },
        {
          "indexed": false,
          "internalType": "address",
          "name": "tokenOut",
          "type": "address"
        },
        {
          "indexed": false,
          "internalType": "uint256",
          "name": "amountIn",
          "type": "uint256"
        },
        {
          "indexed": false,
          "internalType": "uint256",
          "name": "amountOut",
          "type": "uint256"
        }
      ],
      "name": "Swap",
      "type": "event"
    },
    {
      "inputs": [
        {
          "internalType": "address",
          "name": "_token",
          "type": "address"
        }
      ],
      "name": "availableReserve",
      "outputs": [
        {
          "internalType": "uint256",
          "name": "",
          "type": "uint256"
        }
      ],
      "stateMutability": "view",
      "type": "function"
    },
    {
      "inputs": [
        {
          "internalType": "address",
          "name": "_token",
          "type": "address"
        },
        {
          "internalType": "address",
          "name": "_receiver",
          "type": "address"
        }
      ],
      "name": "buyNUSD",
      "outputs": [
        {
          "internalType": "uint256",
          "name": "",
          "type": "uint256"
        }
      ],
      "stateMutability": "nonpayable",
      "type": "function"
    },
    {
      "inputs": [
        {
          "internalType": "address",
          "name": "_token",
          "type": "address"
        }
      ],
      "name": "feeReserves",
      "outputs": [
        {
          "internalType": "uint256",
          "name": "",
          "type": "uint256"
        }
      ],
      "stateMutability": "view",
      "type": "function"
    },
    {
      "inputs": [
        {
          "internalType": "address",
          "name": "_token",
          "type": "address"
        },
        {
          "internalType": "uint256",
          "name": "_nusdAmount",
          "type": "uint256"
        }
      ],
      "name": "getRedemptionAmount",
      "outputs": [
        {
          "internalType": "uint256",
          "name": "",
          "type": "uint256"
        }
      ],
      "stateMutability": "view",
      "type": "function"
    },
    {
      "inputs": [
        {
          "internalType": "address",
          "name": "_token",
          "type": "address"
        }
      ],
      "name": "getRedemptionBasisPoints",
      "outputs": [
        {
          "internalType": "uint256",
          "name": "",
          "type": "uint256"
        }
      ],
      "stateMutability": "view",
      "type": "function"
    },
    {
      "inputs": [
        {
          "internalType": "address",
          "name": "_token",
          "type": "address"
        }
      ],
      "name": "getRedemptionCollateral",
      "outputs": [
        {
          "internalType": "uint256",
          "name": "",
          "type": "uint256"
        }
      ],
      "stateMutability": "view",
      "type": "function"
    },
    {
      "inputs": [
        {
          "internalType": "address",
          "name": "_token",
          "type": "address"
        }
      ],
      "name": "getRedemptionCollateralUsd",
      "outputs": [
        {
          "internalType": "uint256",
          "name": "",
          "type": "uint256"
        }
      ],
      "stateMutability": "view",
      "type": "function"
    },
    {
      "inputs": [
        {
          "internalType": "address",
          "name": "_token",
          "type": "address"
        },
        {
          "internalType": "uint256",
          "name": "_fee",
          "type": "uint256"
        }
      ],
      "name": "getTargetAdjustedFee",
      "outputs": [
        {
          "internalType": "uint256",
          "name": "",
          "type": "uint256"
        }
      ],
      "stateMutability": "view",
      "type": "function"
    },
    {
      "inputs": [
        {
          "internalType": "address",
          "name": "_token",
          "type": "address"
        }
      ],
      "name": "guaranteedUsd",
      "outputs": [
        {
          "internalType": "uint256",
          "name": "",
          "type": "uint256"
        }
      ],
      "stateMutability": "view",
      "type": "function"
    },
    {
      "inputs": [],
      "name": "nusd",
      "outputs": [
        {
          "internalType": "address",
          "name": "",
          "type": "address"
        }
      ],
      "stateMutability": "view",
      "type": "function"
    },
    {
      "inputs": [
        {
          "internalType": "address",
          "name": "_token",
          "type": "address"
        }
      ],
      "name": "nusdAmounts",
      "outputs": [
        {
          "internalType": "uint256",
          "name": "",
          "type": "uint256"
        }
      ],
      "stateMutability": "view",
      "type": "function"
    },
    {
      "inputs": [
        {
          "internalType": "address",
          "name": "_token",
          "type": "address"
        }
      ],
      "name": "poolAmounts",
      "outputs": [
        {
          "internalType": "uint256",
          "name": "",
          "type": "uint256"
        }
      ],
      "stateMutability": "view",
      "type": "function"
    },
    {
      "inputs": [
        {
          "internalType": "address",
          "name": "_token",
          "type": "address"
        }
      ],
      "name": "reservedAmounts",
      "outputs": [
        {
          "internalType": "uint256",
          "name": "",
          "type": "uint256"
        }
      ],
      "stateMutability": "view",
      "type": "function"
    },
    {
      "inputs": [
        {
          "internalType": "address",
          "name": "_token",
          "type": "address"
        },
        {
          "internalType": "address",
          "name": "_receiver",
          "type": "address"
        }
      ],
      "name": "sellNUSD",
      "outputs": [
        {
          "internalType": "uint256",
          "name": "",
          "type": "uint256"
        }
      ],
      "stateMutability": "nonpayable",
      "type": "function"
    },
    {
      "inputs": [
        {
          "internalType": "address",
          "name": "_tokenIn",
          "type": "address"
        },
        {
          "internalType": "address",
          "name": "_tokenOut",
          "type": "address"
        },
        {
          "internalType": "address",
          "name": "_receiver",
          "type": "address"
        }
      ],
      "name": "swap",
      "outputs": [
        {
          "internalType": "uint256",
          "name": "",
          "type": "uint256"
        }
      ],
      "stateMutability": "nonpayable",
      "type": "function"
    },
    {
      "inputs": [],
      "name": "swapFeeBasisPoints",
      "outputs": [
        {
          "internalType": "uint256",
          "name": "",
          "type": "uint256"
        }
      ],
      "stateMutability": "pure",
      "type": "function"
    }
  ],
  "bytecode": "0x608060405234801561001057600080fd5b5060008060000160006101000a81548160ff0219169083151502179055506137678061003d6000396000f3fe608060405234801561001057600080fd5b50600436106101005760003560e01c8063815b3c7411610097578063b319ce0f11610066578063b319ce0f14610551578063c3c7b9e9146105b3578063e62b39801461060b578063f07456ce1461066357610100565b8063815b3c74146103eb5780639331621214610443578063a22f2392146104db578063b136ca49146104f957610100565b80632c668ec1116100d35780632c668ec1146102615780632ef1477a146102c357806352f55eed1461033b5780637fed3cb41461039357610100565b80630d4b04971461010557806314db20ac1461017d5780631ce9cb8f146101b157806329ff961514610209575b600080fd5b6101676004803603604081101561011b57600080fd5b81019080803573ffffffffffffffffffffffffffffffffffffffff169060200190929190803573ffffffffffffffffffffffffffffffffffffffff1690602001909291905050506106bb565b6040518082815260200191505060405180910390f35b610185610a22565b604051808273ffffffffffffffffffffffffffffffffffffffff16815260200191505060405180910390f35b6101f3600480360360208110156101c757600080fd5b81019080803573ffffffffffffffffffffffffffffffffffffffff169060200190929190505050610a4e565b6040518082815260200191505060405180910390f35b61024b6004803603602081101561021f57600080fd5b81019080803573ffffffffffffffffffffffffffffffffffffffff169060200190929190505050610a99565b6040518082815260200191505060405180910390f35b6102ad6004803603604081101561027757600080fd5b81019080803573ffffffffffffffffffffffffffffffffffffffff16906020019092919080359060200190929190505050610ab6565b6040518082815260200191505060405180910390f35b610325600480360360408110156102d957600080fd5b81019080803573ffffffffffffffffffffffffffffffffffffffff169060200190929190803573ffffffffffffffffffffffffffffffffffffffff169060200190929190505050610b43565b6040518082815260200191505060405180910390f35b61037d6004803603602081101561035157600080fd5b81019080803573ffffffffffffffffffffffffffffffffffffffff169060200190929190505050610ed4565b6040518082815260200191505060405180910390f35b6103d5600480360360208110156103a957600080fd5b81019080803573ffffffffffffffffffffffffffffffffffffffff169060200190929190505050610f1f565b6040518082815260200191505060405180910390f35b61042d6004803603602081101561040157600080fd5b81019080803573ffffffffffffffffffffffffffffffffffffffff169060200190929190505050610f6a565b6040518082815260200191505060405180910390f35b6104c56004803603606081101561045957600080fd5b81019080803573ffffffffffffffffffffffffffffffffffffffff169060200190929190803573ffffffffffffffffffffffffffffffffffffffff169060200190929190803573ffffffffffffffffffffffffffffffffffffffff16906020019092919050505061106e565b6040518082815260200191505060405180910390f35b6104e3611434565b6040518082815260200191505060405180910390f35b61053b6004803603602081101561050f57600080fd5b81019080803573ffffffffffffffffffffffffffffffffffffffff16906020019092919050505061143d565b6040518082815260200191505060405180910390f35b61059d6004803603604081101561056757600080fd5b81019080803573ffffffffffffffffffffffffffffffffffffffff16906020019092919080359060200190929190505050611541565b6040518082815260200191505060405180910390f35b6105f5600480360360208110156105c957600080fd5b81019080803573ffffffffffffffffffffffffffffffffffffffff1690602001909291905050506115f8565b6040518082815260200191505060405180910390f35b61064d6004803603602081101561062157600080fd5b81019080803573ffffffffffffffffffffffffffffffffffffffff169060200190929190505050611643565b6040518082815260200191505060405180910390f35b6106a56004803603602081101561067957600080fd5b81019080803573ffffffffffffffffffffffffffffffffffffffff16906020019092919050505061168e565b6040518082815260200191505060405180910390f35b60006106c56116d9565b6106d060008461177d565b600061070160008060020160009054906101000a900473ffffffffffffffffffffffffffffffffffffffff16611842565b905060008111610779576040517f08c379a00000000000000000000000000000000000000000000000000000000081526004018080602001828103825260198152602001807f5661756c743a20696e76616c6964206e757364416d6f756e740000000000000081525060200191505060405180910390fd5b610784600085611992565b60006107908583610ab6565b905060008111610808576040517f08c379a000000000000000000000000000000000000000000000000000000000815260040180806020018281038252601f8152602001807f5661756c743a20696e76616c696420726564656d7074696f6e416d6f756e740081525060200191505060405180910390fd5b61081460008683611c62565b61082060008684611da0565b600060020160009054906101000a900473ffffffffffffffffffffffffffffffffffffffff1673ffffffffffffffffffffffffffffffffffffffff16639dc29fac30846040518363ffffffff1660e01b8152600401808373ffffffffffffffffffffffffffffffffffffffff16815260200182815260200192505050600060405180830381600087803b1580156108b657600080fd5b505af11580156108ca573d6000803e3d6000fd5b505050506108fd60008060020160009054906101000a900473ffffffffffffffffffffffffffffffffffffffff16611f43565b600061090d600087846000612034565b91505060008111610986576040517f08c379a000000000000000000000000000000000000000000000000000000000815260040180806020018281038252601a8152602001807f5661756c743a20696e76616c696420746f6b656e416d6f756e7400000000000081525060200191505060405180910390fd5b7ff43bbb0dc03c77d9da8fef3a487ede08ca6d460d004d1734a49f16b8effb571d85878584604051808573ffffffffffffffffffffffffffffffffffffffff1681526020018473ffffffffffffffffffffffffffffffffffffffff16815260200183815260200182815260200194505050505060405180910390a1610a0e60008783886121bc565b610a166122e6565b80935050505092915050565b60008060020160009054906101000a900473ffffffffffffffffffffffffffffffffffffffff16905090565b60008060110160008373ffffffffffffffffffffffffffffffffffffffff1673ffffffffffffffffffffffffffffffffffffffff168152602001908152602001600020549050919050565b6000610aaf600083610aaa8561143d565b612305565b9050919050565b600080610ad584600060020160149054906101000a900460ff166123b1565b9050610b3a6000610b0e83610b006c0c9f2c9cd04674edea400000008861247290919063ffffffff16565b6124f890919063ffffffff16565b600060020160009054906101000a900473ffffffffffffffffffffffffffffffffffffffff1687612581565b91505092915050565b6000610b4d6116d9565b600060020160159054906101000a900460ff16610bd2576040517f08c379a00000000000000000000000000000000000000000000000000000000081526004018080602001828103825260168152602001807f5661756c743a206e6f7420696e697469616c697a65640000000000000000000081525060200191505060405180910390fd5b610bdd60008461177d565b6000610bfb84600060020160149054906101000a900460ff16612703565b90506000610c0a600086611842565b905060008111610c82576040517f08c379a000000000000000000000000000000000000000000000000000000000815260040180806020018281038252601a8152602001807f5661756c743a20696e76616c696420746f6b656e416d6f756e7400000000000081525060200191505060405180910390fd5b610c8d600086611992565b6000610c9d600087846001612034565b9150506000610d056000610cd96c0c9f2c9cd04674edea40000000610ccb888761247290919063ffffffff16565b6124f890919063ffffffff16565b89600060020160009054906101000a900473ffffffffffffffffffffffffffffffffffffffff16612581565b905060008111610d7d576040517f08c379a00000000000000000000000000000000000000000000000000000000081526004018080602001828103825260198152602001807f5661756c743a20696e76616c6964206e757364416d6f756e740000000000000081525060200191505060405180910390fd5b610d89600088846127c4565b50610d9660008883612909565b7f476f011d8c2a9058922b2e97ecf3623534fdb3dd8e1cdacf19faa16c145ad1d286888584604051808573ffffffffffffffffffffffffffffffffffffffff1681526020018473ffffffffffffffffffffffffffffffffffffffff16815260200183815260200182815260200194505050505060405180910390a1600060020160009054906101000a900473ffffffffffffffffffffffffffffffffffffffff1673ffffffffffffffffffffffffffffffffffffffff166340c10f1987836040518363ffffffff1660e01b8152600401808373ffffffffffffffffffffffffffffffffffffffff16815260200182815260200192505050600060405180830381600087803b158015610ea757600080fd5b505af1158015610ebb573d6000803e3d6000fd5b50505050610ec76122e6565b8094505050505092915050565b600080600c0160008373ffffffffffffffffffffffffffffffffffffffff1673ffffffffffffffffffffffffffffffffffffffff168152602001908152602001600020549050919050565b600080600b0160008373ffffffffffffffffffffffffffffffffffffffff1673ffffffffffffffffffffffffffffffffffffffff168152602001908152602001600020549050919050565b6000808273ffffffffffffffffffffffffffffffffffffffff166370a08231306040518263ffffffff1660e01b8152600401808273ffffffffffffffffffffffffffffffffffffffff16815260200191505060206040518083038186803b158015610fd457600080fd5b505afa158015610fe8573d6000803e3d6000fd5b505050506040513d6020811015610ffe57600080fd5b810190808051906020019092919050505090506110666000600d0160008573ffffffffffffffffffffffffffffffffffffffff1673ffffffffffffffffffffffffffffffffffffffff16815260200190815260200160002054826129fc90919063ffffffff16565b915050919050565b60006110786116d9565b600060020160159054906101000a900460ff166110fd576040517f08c379a00000000000000000000000000000000000000000000000000000000081526004018080602001828103825260168152602001807f5661756c743a206e6f7420696e697469616c697a65640000000000000000000081525060200191505060405180910390fd5b8273ffffffffffffffffffffffffffffffffffffffff168473ffffffffffffffffffffffffffffffffffffffff16141561119f576040517f08c379a00000000000000000000000000000000000000000000000000000000081526004018080602001828103825260158152602001807f5661756c743a20696e76616c696420746f6b656e73000000000000000000000081525060200191505060405180910390fd5b6111aa60008561177d565b6111b560008461177d565b6111c0600085611992565b6111cb600084611992565b60006111d8600086611842565b905060008111611250576040517f08c379a00000000000000000000000000000000000000000000000000000000081526004018080602001828103825260178152602001807f5661756c743a20696e76616c696420616d6f756e74496e00000000000000000081525060200191505060405180910390fd5b600061126e86600060020160149054906101000a900460ff16612703565b9050600061128e86600060020160149054906101000a900460ff166123b1565b905060006112b7826112a9858761247290919063ffffffff16565b6124f890919063ffffffff16565b90506112c66000828a8a612581565b905060006112d8600089846000612034565b915050600061130f6c0c9f2c9cd04674edea40000000611301878961247290919063ffffffff16565b6124f890919063ffffffff16565b90506113436000828c600060020160009054906101000a900473ffffffffffffffffffffffffffffffffffffffff16612581565b905061135160008b83612909565b61135d60008a83611da0565b61136960008b886127c4565b5061137660008a85611c62565b7fcd3829a3813dc3cdd188fd3d01dcf3268c16be2fdd2dd21d0665418816e46062888b8b8986604051808673ffffffffffffffffffffffffffffffffffffffff1681526020018573ffffffffffffffffffffffffffffffffffffffff1681526020018473ffffffffffffffffffffffffffffffffffffffff1681526020018381526020018281526020019550505050505060405180910390a161141c60008a848b6121bc565b6114246122e6565b8196505050505050509392505050565b6000601e905090565b60008061148e6000846000600e0160008773ffffffffffffffffffffffffffffffffffffffff1673ffffffffffffffffffffffffffffffffffffffff16815260200190815260200160002054612a7f565b90506115396000600d0160008573ffffffffffffffffffffffffffffffffffffffff1673ffffffffffffffffffffffffffffffffffffffff1681526020019081526020016000205461152b6000600c0160008773ffffffffffffffffffffffffffffffffffffffff1673ffffffffffffffffffffffffffffffffffffffff1681526020019081526020016000205484612ac290919063ffffffff16565b6129fc90919063ffffffff16565b915050919050565b6000806000600b0160008573ffffffffffffffffffffffffffffffffffffffff1673ffffffffffffffffffffffffffffffffffffffff1681526020019081526020016000205490506000611596600086612b4a565b905060008114806115a75750600082145b156115b65783925050506115f2565b808211156115c85783925050506115f2565b6115ed816115df848761247290919063ffffffff16565b6124f890919063ffffffff16565b925050505b92915050565b600080600d0160008373ffffffffffffffffffffffffffffffffffffffff1673ffffffffffffffffffffffffffffffffffffffff168152602001908152602001600020549050919050565b60008060080160008373ffffffffffffffffffffffffffffffffffffffff1673ffffffffffffffffffffffffffffffffffffffff168152602001908152602001600020549050919050565b600080600e0160008373ffffffffffffffffffffffffffffffffffffffff1673ffffffffffffffffffffffffffffffffffffffff168152602001908152602001600020549050919050565b6000800160009054906101000a900460ff161561175e576040517f08c379a00000000000000000000000000000000000000000000000000000000081526004018080602001828103825260188152602001807f436f6e747261637420616c726561647920656e7465726564000000000000000081525060200191505060405180910390fd5b60016000800160006101000a81548160ff021916908315150217905550565b8160050160008273ffffffffffffffffffffffffffffffffffffffff1673ffffffffffffffffffffffffffffffffffffffff16815260200190815260200160002060009054906101000a900460ff1661183e576040517f08c379a000000000000000000000000000000000000000000000000000000000815260040180806020018281038252601c8152602001807f5661756c743a20746f6b656e206e6f742077686974656c69737465640000000081525060200191505060405180910390fd5b5050565b60008083600a0160008473ffffffffffffffffffffffffffffffffffffffff1673ffffffffffffffffffffffffffffffffffffffff16815260200190815260200160002054905060008373ffffffffffffffffffffffffffffffffffffffff166370a08231306040518263ffffffff1660e01b8152600401808273ffffffffffffffffffffffffffffffffffffffff16815260200191505060206040518083038186803b1580156118f257600080fd5b505afa158015611906573d6000803e3d6000fd5b505050506040513d602081101561191c57600080fd5b810190808051906020019092919050505090508085600a0160008673ffffffffffffffffffffffffffffffffffffffff1673ffffffffffffffffffffffffffffffffffffffff1681526020019081526020016000208190555061198882826129fc90919063ffffffff16565b9250505092915050565b60008260100160008373ffffffffffffffffffffffffffffffffffffffff1673ffffffffffffffffffffffffffffffffffffffff168152602001908152602001600020541415611a4f57611a056170806119f7617080426124f890919063ffffffff16565b61247290919063ffffffff16565b8260100160008373ffffffffffffffffffffffffffffffffffffffff1673ffffffffffffffffffffffffffffffffffffffff16815260200190815260200160002081905550611c5e565b42611aa66170808460100160008573ffffffffffffffffffffffffffffffffffffffff1673ffffffffffffffffffffffffffffffffffffffff16815260200190815260200160002054612ac290919063ffffffff16565b1115611ab157611c5e565b6000611abd8383612c81565b9050611b138184600f0160008573ffffffffffffffffffffffffffffffffffffffff1673ffffffffffffffffffffffffffffffffffffffff16815260200190815260200160002054612ac290919063ffffffff16565b83600f0160008473ffffffffffffffffffffffffffffffffffffffff1673ffffffffffffffffffffffffffffffffffffffff16815260200190815260200160002081905550611b81617080611b73617080426124f890919063ffffffff16565b61247290919063ffffffff16565b8360100160008473ffffffffffffffffffffffffffffffffffffffff1673ffffffffffffffffffffffffffffffffffffffff168152602001908152602001600020819055507fa146fc154e1913322e9817d49f0d5c37466c24326e15de10e739a948be815eab8284600f0160008573ffffffffffffffffffffffffffffffffffffffff1673ffffffffffffffffffffffffffffffffffffffff16815260200190815260200160002054604051808373ffffffffffffffffffffffffffffffffffffffff1681526020018281526020019250505060405180910390a1505b5050565b611ced816040518060400160405280601a81526020017f5661756c743a20706f6f6c416d6f756e7420657863656564656400000000000081525085600c0160008673ffffffffffffffffffffffffffffffffffffffff1673ffffffffffffffffffffffffffffffffffffffff16815260200190815260200160002054612e349092919063ffffffff16565b83600c0160008473ffffffffffffffffffffffffffffffffffffffff1673ffffffffffffffffffffffffffffffffffffffff16815260200190815260200160002081905550611d3c8383612eee565b611d468383612fea565b7f112726233fbeaeed0f5b1dba5cb0b2b81883dee49fb35ff99fd98ed9f6d31eb08282604051808373ffffffffffffffffffffffffffffffffffffffff1681526020018281526020019250505060405180910390a1505050565b600083600b0160008473ffffffffffffffffffffffffffffffffffffffff1673ffffffffffffffffffffffffffffffffffffffff168152602001908152602001600020549050818111611e8f57600084600b0160008573ffffffffffffffffffffffffffffffffffffffff1673ffffffffffffffffffffffffffffffffffffffff168152602001908152602001600020819055507f8e97f52ebe0fff2b2bf547c79160e7d99d6cd067752899e0fe2fa4184ae14f0e8382604051808373ffffffffffffffffffffffffffffffffffffffff1681526020018281526020019250505060405180910390a150611f3e565b611ea282826129fc90919063ffffffff16565b84600b0160008573ffffffffffffffffffffffffffffffffffffffff1673ffffffffffffffffffffffffffffffffffffffff168152602001908152602001600020819055507f8e97f52ebe0fff2b2bf547c79160e7d99d6cd067752899e0fe2fa4184ae14f0e8383604051808373ffffffffffffffffffffffffffffffffffffffff1681526020018281526020019250505060405180910390a1505b505050565b60008173ffffffffffffffffffffffffffffffffffffffff166370a08231306040518263ffffffff1660e01b8152600401808273ffffffffffffffffffffffffffffffffffffffff16815260200191505060206040518083038186803b158015611fac57600080fd5b505afa158015611fc0573d6000803e3d6000fd5b505050506040513d6020811015611fd657600080fd5b810190808051906020019092919050505090508083600a0160008473ffffffffffffffffffffffffffffffffffffffff1673ffffffffffffffffffffffffffffffffffffffff16815260200190815260200160002081905550505050565b60008060006120458787601e61314c565b905060006120916127106120836120748861206157601e612063565b855b6127106129fc90919063ffffffff16565b8961247290919063ffffffff16565b6124f890919063ffffffff16565b905060006120a882886129fc90919063ffffffff16565b90506120fe818a60110160008b73ffffffffffffffffffffffffffffffffffffffff1673ffffffffffffffffffffffffffffffffffffffff16815260200190815260200160002054612ac290919063ffffffff16565b8960110160008a73ffffffffffffffffffffffffffffffffffffffff1673ffffffffffffffffffffffffffffffffffffffff168152602001908152602001600020819055507f47cd9dda0e50ce30bcaaacd0488452b596221c07ac402a581cfae4d3933cac2b886121708b8b85612305565b83604051808473ffffffffffffffffffffffffffffffffffffffff168152602001838152602001828152602001935050505060405180910390a180829450945050505094509492505050565b612270828473ffffffffffffffffffffffffffffffffffffffff166370a08231306040518263ffffffff1660e01b8152600401808273ffffffffffffffffffffffffffffffffffffffff16815260200191505060206040518083038186803b15801561222757600080fd5b505afa15801561223b573d6000803e3d6000fd5b505050506040513d602081101561225157600080fd5b81019080805190602001909291905050506129fc90919063ffffffff16565b84600a0160008573ffffffffffffffffffffffffffffffffffffffff1673ffffffffffffffffffffffffffffffffffffffff168152602001908152602001600020819055506122e081838573ffffffffffffffffffffffffffffffffffffffff166132029092919063ffffffff16565b50505050565b60008060000160006101000a81548160ff021916908315150217905550565b60008082141561231857600090506123aa565b6000612335848660020160149054906101000a900460ff16612703565b905060008560070160008673ffffffffffffffffffffffffffffffffffffffff1673ffffffffffffffffffffffffffffffffffffffff1681526020019081526020016000205490506123a581600a0a612397848761247290919063ffffffff16565b6124f890919063ffffffff16565b925050505b9392505050565b60003073ffffffffffffffffffffffffffffffffffffffff16635ae69163846001856040518463ffffffff1660e01b8152600401808473ffffffffffffffffffffffffffffffffffffffff16815260200183151581526020018215158152602001935050505060206040518083038186803b15801561242f57600080fd5b505afa158015612443573d6000803e3d6000fd5b505050506040513d602081101561245957600080fd5b8101908080519060200190929190505050905092915050565b60008083141561248557600090506124f2565b600082840290508284828161249657fe5b04146124ed576040517f08c379a00000000000000000000000000000000000000000000000000000000081526004018080602001828103825260218152602001806136e76021913960400191505060405180910390fd5b809150505b92915050565b600080821161256f576040517f08c379a000000000000000000000000000000000000000000000000000000000815260040180806020018281038252601a8152602001807f536166654d6174683a206469766973696f6e206279207a65726f00000000000081525060200191505060405180910390fd5b81838161257857fe5b04905092915050565b6000808560020160009054906101000a900473ffffffffffffffffffffffffffffffffffffffff1673ffffffffffffffffffffffffffffffffffffffff168473ffffffffffffffffffffffffffffffffffffffff1614612622578560070160008573ffffffffffffffffffffffffffffffffffffffff1673ffffffffffffffffffffffffffffffffffffffff16815260200190815260200160002054612625565b60125b905060008660020160009054906101000a900473ffffffffffffffffffffffffffffffffffffffff1673ffffffffffffffffffffffffffffffffffffffff168473ffffffffffffffffffffffffffffffffffffffff16146126c7578660070160008573ffffffffffffffffffffffffffffffffffffffff1673ffffffffffffffffffffffffffffffffffffffff168152602001908152602001600020546126ca565b60125b90506126f782600a0a6126e983600a0a8961247290919063ffffffff16565b6124f890919063ffffffff16565b92505050949350505050565b60003073ffffffffffffffffffffffffffffffffffffffff16635ae69163846000856040518463ffffffff1660e01b8152600401808473ffffffffffffffffffffffffffffffffffffffff16815260200183151581526020018215158152602001935050505060206040518083038186803b15801561278157600080fd5b505afa158015612795573d6000803e3d6000fd5b505050506040513d60208110156127ab57600080fd5b8101908080519060200190929190505050905092915050565b600061281a8285600c0160008673ffffffffffffffffffffffffffffffffffffffff1673ffffffffffffffffffffffffffffffffffffffff16815260200190815260200160002054612ac290919063ffffffff16565b84600c0160008573ffffffffffffffffffffffffffffffffffffffff1673ffffffffffffffffffffffffffffffffffffffff168152602001908152602001600020819055506128698484612fea565b7f976177fbe09a15e5e43f848844963a42b41ef919ef17ff21a17a5421de8f47378383604051808373ffffffffffffffffffffffffffffffffffffffff1681526020018281526020019250505060405180910390a183600c0160008473ffffffffffffffffffffffffffffffffffffffff1673ffffffffffffffffffffffffffffffffffffffff1681526020019081526020016000205490509392505050565b61295d8184600b0160008573ffffffffffffffffffffffffffffffffffffffff1673ffffffffffffffffffffffffffffffffffffffff16815260200190815260200160002054612ac290919063ffffffff16565b83600b0160008473ffffffffffffffffffffffffffffffffffffffff1673ffffffffffffffffffffffffffffffffffffffff168152602001908152602001600020819055507f8cd98f2655650a84cafa3bf07b0f32dd1b3548f0d3cdaba5889c6035fe6928ad8282604051808373ffffffffffffffffffffffffffffffffffffffff1681526020018281526020019250505060405180910390a1505050565b600082821115612a74576040517f08c379a000000000000000000000000000000000000000000000000000000000815260040180806020018281038252601e8152602001807f536166654d6174683a207375627472616374696f6e206f766572666c6f77000081525060200191505060405180910390fd5b818303905092915050565b600080821415612a925760009050612abb565b612ab8848484612ab3878960020160149054906101000a900460ff166123b1565b6132a4565b90505b9392505050565b600080828401905083811015612b40576040517f08c379a000000000000000000000000000000000000000000000000000000000815260040180806020018281038252601b8152602001807f536166654d6174683a206164646974696f6e206f766572666c6f77000000000081525060200191505060405180910390fd5b8091505092915050565b6000808360020160009054906101000a900473ffffffffffffffffffffffffffffffffffffffff1673ffffffffffffffffffffffffffffffffffffffff166318160ddd6040518163ffffffff1660e01b815260040160206040518083038186803b158015612bb757600080fd5b505afa158015612bcb573d6000803e3d6000fd5b505050506040513d6020811015612be157600080fd5b810190808051906020019092919050505090506000811415612c07576000915050612c7b565b60008460120160008573ffffffffffffffffffffffffffffffffffffffff1673ffffffffffffffffffffffffffffffffffffffff168152602001908152602001600020549050612c768560130154612c68838561247290919063ffffffff16565b6124f890919063ffffffff16565b925050505b92915050565b600042612cda6170808560100160008673ffffffffffffffffffffffffffffffffffffffff1673ffffffffffffffffffffffffffffffffffffffff16815260200190815260200160002054612ac290919063ffffffff16565b1115612ce95760009050612e2e565b6000612d53617080612d458660100160008773ffffffffffffffffffffffffffffffffffffffff1673ffffffffffffffffffffffffffffffffffffffff16815260200190815260200160002054426129fc90919063ffffffff16565b6124f890919063ffffffff16565b9050600084600c0160008573ffffffffffffffffffffffffffffffffffffffff1673ffffffffffffffffffffffffffffffffffffffff1681526020019081526020016000205490506000811415612daf57600092505050612e2e565b612e2981612e1b84612e0d89600d0160008a73ffffffffffffffffffffffffffffffffffffffff1673ffffffffffffffffffffffffffffffffffffffff1681526020019081526020016000205461025861247290919063ffffffff16565b61247290919063ffffffff16565b6124f890919063ffffffff16565b925050505b92915050565b6000838311158290612ee1576040517f08c379a00000000000000000000000000000000000000000000000000000000081526004018080602001828103825283818151815260200191508051906020019080838360005b83811015612ea6578082015181840152602081019050612e8b565b50505050905090810190601f168015612ed35780820380516001836020036101000a031916815260200191505b509250505060405180910390fd5b5082840390509392505050565b81600c0160008273ffffffffffffffffffffffffffffffffffffffff1673ffffffffffffffffffffffffffffffffffffffff1681526020019081526020016000205482600d0160008373ffffffffffffffffffffffffffffffffffffffff1673ffffffffffffffffffffffffffffffffffffffff168152602001908152602001600020541115612fe6576040517f08c379a000000000000000000000000000000000000000000000000000000000815260040180806020018281038252601b8152602001807f5661756c743a2072657365727665206578636565647320706f6f6c000000000081525060200191505060405180910390fd5b5050565b60008173ffffffffffffffffffffffffffffffffffffffff166370a08231306040518263ffffffff1660e01b8152600401808273ffffffffffffffffffffffffffffffffffffffff16815260200191505060206040518083038186803b15801561305357600080fd5b505afa158015613067573d6000803e3d6000fd5b505050506040513d602081101561307d57600080fd5b810190808051906020019092919050505090508083600c0160008473ffffffffffffffffffffffffffffffffffffffff1673ffffffffffffffffffffffffffffffffffffffff168152602001908152602001600020541115613147576040517f08c379a00000000000000000000000000000000000000000000000000000000081526004018080602001828103825260178152602001807f5661756c743a20696e76616c696420696e63726561736500000000000000000081525060200191505060405180910390fd5b505050565b60008084600b0160008573ffffffffffffffffffffffffffffffffffffffff1673ffffffffffffffffffffffffffffffffffffffff168152602001908152602001600020549050600061319f8686612b4a565b905060008114806131b05750600082145b156131bf5783925050506131fb565b808211156131d15783925050506131fb565b6131f6816131e8848761247290919063ffffffff16565b6124f890919063ffffffff16565b925050505b9392505050565b61329f8363a9059cbb60e01b8484604051602401808373ffffffffffffffffffffffffffffffffffffffff16815260200182815260200192505050604051602081830303815290604052907bffffffffffffffffffffffffffffffffffffffffffffffffffffffff19166020820180517bffffffffffffffffffffffffffffffffffffffffffffffffffffffff8381831617835250505050613331565b505050565b6000808314156132b75760009050613329565b60008560070160008673ffffffffffffffffffffffffffffffffffffffff1673ffffffffffffffffffffffffffffffffffffffff1681526020019081526020016000205490506133258361331783600a0a8761247290919063ffffffff16565b6124f890919063ffffffff16565b9150505b949350505050565b6060613393826040518060400160405280602081526020017f5361666545524332303a206c6f772d6c6576656c2063616c6c206661696c65648152508573ffffffffffffffffffffffffffffffffffffffff166134209092919063ffffffff16565b905060008151111561341b578080602001905160208110156133b457600080fd5b810190808051906020019092919050505061341a576040517f08c379a000000000000000000000000000000000000000000000000000000000815260040180806020018281038252602a815260200180613708602a913960400191505060405180910390fd5b5b505050565b606061342f8484600085613438565b90509392505050565b606082471015613493576040517f08c379a00000000000000000000000000000000000000000000000000000000081526004018080602001828103825260268152602001806136c16026913960400191505060405180910390fd5b61349c856135e1565b61350e576040517f08c379a000000000000000000000000000000000000000000000000000000000815260040180806020018281038252601d8152602001807f416464726573733a2063616c6c20746f206e6f6e2d636f6e747261637400000081525060200191505060405180910390fd5b600060608673ffffffffffffffffffffffffffffffffffffffff1685876040518082805190602001908083835b6020831061355e578051825260208201915060208101905060208303925061353b565b6001836020036101000a03801982511681845116808217855250505050505090500191505060006040518083038185875af1925050503d80600081146135c0576040519150601f19603f3d011682016040523d82523d6000602084013e6135c5565b606091505b50915091506135d58282866135f4565b92505050949350505050565b600080823b905060008111915050919050565b60608315613604578290506136b9565b6000835111156136175782518084602001fd5b816040517f08c379a00000000000000000000000000000000000000000000000000000000081526004018080602001828103825283818151815260200191508051906020019080838360005b8381101561367e578082015181840152602081019050613663565b50505050905090810190601f1680156136ab5780820380516001836020036101000a031916815260200191505b509250505060405180910390fd5b939250505056fe416464726573733a20696e73756666696369656e742062616c616e636520666f722063616c6c536166654d6174683a206d756c7469706c69636174696f6e206f766572666c6f775361666545524332303a204552433230206f7065726174696f6e20646964206e6f742073756363656564a26469706673582212208deb2cc15d971edeb26deca1ad13fff567c618ced2d955741cd6d6e75b27378f64736f6c63430007050033",
  "linkReferences": {},
  "deployedLinkReferences": {}
}