{
  "_format": "hh-sol-artifact-1",
  "contractName": "LibDiamond",
  "sourceName": "contracts/lib/LibDiamond.sol",
  "abi": [
    {
      "anonymous": false,
      "inputs": [
        {
          "indexed": true,
          "internalType": "address",
          "name": "previousOwner",
          "type": "address"
        },
        {
          "indexed": true,
          "internalType": "address",
          "name": "newOwner",
          "type": "address"
        }
      ],
      "name": "OwnershipTransferred",
      "type": "event"
    },
    {
      "inputs": [],
      "name": "DIAMOND_STORAGE_POSITION",
      "outputs": [
        {
          "internalType": "bytes32",
          "name": "",
          "type": "bytes32"
        }
      ],
      "stateMutability": "view",
      "type": "function"
    },
    {
      "inputs": [],
      "name": "contractOwner",
      "outputs": [
        {
          "internalType": "address",
          "name": "",
          "type": "address"
        }
      ],
      "stateMutability": "view",
      "type": "function"
    }
  ],
  "bytecode": "0x61048e610026600b82828239805160001a60731461001957fe5b30600052607381538281f3fe730000000000000000000000000000000000000000301460806040526004361061004b5760003560e01c8063a34d42b814610050578063b2bebf5514610079578063ce606ee014610097575b600080fd5b81801561005c57600080fd5b50610077600480360381019061007291906102f1565b6100b5565b005b6100816101b8565b60405161008e91906103b9565b60405180910390f35b61009f6101dc565b6040516100ac919061039e565b60405180910390f35b6100bd610214565b60006100c76102af565b905060008160040160009054906101000a900473ffffffffffffffffffffffffffffffffffffffff169050828260040160006101000a81548173ffffffffffffffffffffffffffffffffffffffff021916908373ffffffffffffffffffffffffffffffffffffffff1602179055508160040160009054906101000a900473ffffffffffffffffffffffffffffffffffffffff1673ffffffffffffffffffffffffffffffffffffffff168173ffffffffffffffffffffffffffffffffffffffff167f8be0079c531659141344cd1fd0a4f28419497f9722a3daafe3b4186f6b6457e060405160405180910390a3505050565b7fc8fcad8db84d3cc18b4c41d551ea0ee66dd599cde068d998e57d5e09332c131c81565b6000806101e76102af565b90508060040160009054906101000a900473ffffffffffffffffffffffffffffffffffffffff1691505090565b61021c6102af565b60040160009054906101000a900473ffffffffffffffffffffffffffffffffffffffff1673ffffffffffffffffffffffffffffffffffffffff163373ffffffffffffffffffffffffffffffffffffffff16146102ad576040517f08c379a00000000000000000000000000000000000000000000000000000000081526004016102a4906103d4565b60405180910390fd5b565b6000807fc8fcad8db84d3cc18b4c41d551ea0ee66dd599cde068d998e57d5e09332c131c90508091505090565b6000813590506102eb81610441565b92915050565b60006020828403121561030357600080fd5b6000610311848285016102dc565b91505092915050565b61032381610405565b82525050565b61033281610417565b82525050565b60006103456022836103f4565b91507f4c69624469616d6f6e643a20696e76616c696420636f6e7472616374206f776e60008301527f65720000000000000000000000000000000000000000000000000000000000006020830152604082019050919050565b60006020820190506103b3600083018461031a565b92915050565b60006020820190506103ce6000830184610329565b92915050565b600060208201905081810360008301526103ed81610338565b9050919050565b600082825260208201905092915050565b600061041082610421565b9050919050565b6000819050919050565b600073ffffffffffffffffffffffffffffffffffffffff82169050919050565b61044a81610405565b811461045557600080fd5b5056fea26469706673582212207e4036fda5d5f652a0f2ca238abba2a5d388f791050f411e40faff98d32502d964736f6c63430007050033",
  "linkReferences": {},
  "deployedLinkReferences": {}
}