{
  "_format": "hh-sol-artifact-1",
  "contractName": "LibDiamond",
  "sourceName": "contracts/lib/LibDiamond.sol",
  "abi": [
    {
      "inputs": [],
      "name": "DIAMOND_STORAGE_POSITION",
      "outputs": [
        {
          "internalType": "bytes32",
          "name": "",
          "type": "bytes32"
        }
      ],
      "stateMutability": "view",
      "type": "function"
    }
  ],
  "bytecode": "0x60dc610052600b82828239805160001a607314610045577f4e487b7100000000000000000000000000000000000000000000000000000000600052600060045260246000fd5b30600052607381538281f3fe730000000000000000000000000000000000000000301460806040526004361060335760003560e01c8063b2bebf55146038575b600080fd5b603e6052565b60405160499190608d565b60405180910390f35b7fc8fcad8db84d3cc18b4c41d551ea0ee66dd599cde068d998e57d5e09332c131c81565b6000819050919050565b6087816076565b82525050565b600060208201905060a060008301846080565b9291505056fea26469706673582212203b8389c213e26f94e374d394781d8847b05ccbcfb6174a4918f3a5d771ae7db864736f6c634300080a0033",
  "linkReferences": {},
  "deployedLinkReferences": {}
}