{
  "_format": "hh-sol-artifact-1",
  "contractName": "PriceFeed",
  "sourceName": "contracts/peripherals/PriceFeed.sol",
  "abi": [
    {
      "inputs": [],
      "stateMutability": "nonpayable",
      "type": "constructor"
    },
    {
      "inputs": [],
      "name": "aggregator",
      "outputs": [
        {
          "internalType": "address",
          "name": "",
          "type": "address"
        }
      ],
      "stateMutability": "view",
      "type": "function"
    },
    {
      "inputs": [],
      "name": "answer",
      "outputs": [
        {
          "internalType": "int256",
          "name": "",
          "type": "int256"
        }
      ],
      "stateMutability": "view",
      "type": "function"
    },
    {
      "inputs": [
        {
          "internalType": "uint80",
          "name": "",
          "type": "uint80"
        }
      ],
      "name": "answers",
      "outputs": [
        {
          "internalType": "int256",
          "name": "",
          "type": "int256"
        }
      ],
      "stateMutability": "view",
      "type": "function"
    },
    {
      "inputs": [],
      "name": "decimals",
      "outputs": [
        {
          "internalType": "uint256",
          "name": "",
          "type": "uint256"
        }
      ],
      "stateMutability": "view",
      "type": "function"
    },
    {
      "inputs": [],
      "name": "description",
      "outputs": [
        {
          "internalType": "string",
          "name": "",
          "type": "string"
        }
      ],
      "stateMutability": "view",
      "type": "function"
    },
    {
      "inputs": [
        {
          "internalType": "uint80",
          "name": "_roundId",
          "type": "uint80"
        }
      ],
      "name": "getRoundData",
      "outputs": [
        {
          "internalType": "uint80",
          "name": "",
          "type": "uint80"
        },
        {
          "internalType": "int256",
          "name": "",
          "type": "int256"
        },
        {
          "internalType": "uint256",
          "name": "",
          "type": "uint256"
        },
        {
          "internalType": "uint256",
          "name": "",
          "type": "uint256"
        },
        {
          "internalType": "uint80",
          "name": "",
          "type": "uint80"
        }
      ],
      "stateMutability": "view",
      "type": "function"
    },
    {
      "inputs": [],
      "name": "gov",
      "outputs": [
        {
          "internalType": "address",
          "name": "",
          "type": "address"
        }
      ],
      "stateMutability": "view",
      "type": "function"
    },
    {
      "inputs": [
        {
          "internalType": "address",
          "name": "",
          "type": "address"
        }
      ],
      "name": "isAdmin",
      "outputs": [
        {
          "internalType": "bool",
          "name": "",
          "type": "bool"
        }
      ],
      "stateMutability": "view",
      "type": "function"
    },
    {
      "inputs": [],
      "name": "latestAnswer",
      "outputs": [
        {
          "internalType": "int256",
          "name": "",
          "type": "int256"
        }
      ],
      "stateMutability": "view",
      "type": "function"
    },
    {
      "inputs": [],
      "name": "latestRound",
      "outputs": [
        {
          "internalType": "uint80",
          "name": "",
          "type": "uint80"
        }
      ],
      "stateMutability": "view",
      "type": "function"
    },
    {
      "inputs": [],
      "name": "roundId",
      "outputs": [
        {
          "internalType": "uint80",
          "name": "",
          "type": "uint80"
        }
      ],
      "stateMutability": "view",
      "type": "function"
    },
    {
      "inputs": [
        {
          "internalType": "address",
          "name": "_account",
          "type": "address"
        },
        {
          "internalType": "bool",
          "name": "_isAdmin",
          "type": "bool"
        }
      ],
      "name": "setAdmin",
      "outputs": [],
      "stateMutability": "nonpayable",
      "type": "function"
    },
    {
      "inputs": [
        {
          "internalType": "int256",
          "name": "_answer",
          "type": "int256"
        }
      ],
      "name": "setLatestAnswer",
      "outputs": [],
      "stateMutability": "nonpayable",
      "type": "function"
    }
  ],
  "bytecode": "0x60806040526040518060400160405280600981526020017f50726963654665656400000000000000000000000000000000000000000000008152506002908051906020019061004f9291906100fb565b5034801561005c57600080fd5b5033600560006101000a81548173ffffffffffffffffffffffffffffffffffffffff021916908373ffffffffffffffffffffffffffffffffffffffff1602179055506001600760003373ffffffffffffffffffffffffffffffffffffffff1673ffffffffffffffffffffffffffffffffffffffff16815260200190815260200160002060006101000a81548160ff0219169083151502179055506101ff565b828054610107906101cd565b90600052602060002090601f0160209004810192826101295760008555610170565b82601f1061014257805160ff1916838001178555610170565b82800160010185558215610170579182015b8281111561016f578251825591602001919060010190610154565b5b50905061017d9190610181565b5090565b5b8082111561019a576000816000905550600101610182565b5090565b7f4e487b7100000000000000000000000000000000000000000000000000000000600052602260045260246000fd5b600060028204905060018216806101e557607f821691505b602082108114156101f9576101f861019e565b5b50919050565b610bb1806200020f6000396000f3fe608060405234801561001057600080fd5b50600436106100cf5760003560e01c80634c295ca31161008c5780637284e416116100665780637284e4161461020257806385bb7d69146102205780638cd221c91461023e5780639a6fc8f51461025c576100cf565b80634c295ca31461019657806350d25bcd146101c6578063668a0f02146101e4576100cf565b806304ea97b0146100d457806312d43a51146100f0578063245a7bfc1461010e57806324d7806c1461012c578063313ce5671461015c5780634b0bddd21461017a575b600080fd5b6100ee60048036038101906100e991906106b6565b610290565b005b6100f86103e0565b6040516101059190610724565b60405180910390f35b610116610406565b6040516101239190610724565b60405180910390f35b6101466004803603810190610141919061076b565b61042c565b60405161015391906107b3565b60405180910390f35b61016461044c565b60405161017191906107e7565b60405180910390f35b610194600480360381019061018f919061082e565b610452565b005b6101b060048036038101906101ab91906108b0565b61053d565b6040516101bd91906108ec565b60405180910390f35b6101ce610555565b6040516101db91906108ec565b60405180910390f35b6101ec61055e565b6040516101f99190610916565b60405180910390f35b61020a61057e565b60405161021791906109ca565b60405180910390f35b61022861060c565b60405161023591906108ec565b60405180910390f35b610246610612565b6040516102539190610916565b60405180910390f35b610276600480360381019061027191906108b0565b61062e565b6040516102879594939291906109ec565b60405180910390f35b60076000600560009054906101000a900473ffffffffffffffffffffffffffffffffffffffff1673ffffffffffffffffffffffffffffffffffffffff1673ffffffffffffffffffffffffffffffffffffffff16815260200190815260200160002060009054906101000a900460ff1661033e576040517f08c379a000000000000000000000000000000000000000000000000000000000815260040161033590610a8b565b60405180910390fd5b60018060009054906101000a900469ffffffffffffffffffff166103629190610ada565b600160006101000a81548169ffffffffffffffffffff021916908369ffffffffffffffffffff160217905550806000819055508060066000600160009054906101000a900469ffffffffffffffffffff1669ffffffffffffffffffff1669ffffffffffffffffffff1681526020019081526020016000208190555050565b600560009054906101000a900473ffffffffffffffffffffffffffffffffffffffff1681565b600360009054906101000a900473ffffffffffffffffffffffffffffffffffffffff1681565b60076020528060005260406000206000915054906101000a900460ff1681565b60045481565b600560009054906101000a900473ffffffffffffffffffffffffffffffffffffffff1673ffffffffffffffffffffffffffffffffffffffff163373ffffffffffffffffffffffffffffffffffffffff16146104e2576040517f08c379a00000000000000000000000000000000000000000000000000000000081526004016104d990610a8b565b60405180910390fd5b80600760008473ffffffffffffffffffffffffffffffffffffffff1673ffffffffffffffffffffffffffffffffffffffff16815260200190815260200160002060006101000a81548160ff0219169083151502179055505050565b60066020528060005260406000206000915090505481565b60008054905090565b6000600160009054906101000a900469ffffffffffffffffffff16905090565b6002805461058b90610b49565b80601f01602080910402602001604051908101604052809291908181526020018280546105b790610b49565b80156106045780601f106105d957610100808354040283529160200191610604565b820191906000526020600020905b8154815290600101906020018083116105e757829003601f168201915b505050505081565b60005481565b600160009054906101000a900469ffffffffffffffffffff1681565b600080600080600085600660008869ffffffffffffffffffff1669ffffffffffffffffffff1681526020019081526020016000205460008060009450945094509450945091939590929450565b600080fd5b6000819050919050565b61069381610680565b811461069e57600080fd5b50565b6000813590506106b08161068a565b92915050565b6000602082840312156106cc576106cb61067b565b5b60006106da848285016106a1565b91505092915050565b600073ffffffffffffffffffffffffffffffffffffffff82169050919050565b600061070e826106e3565b9050919050565b61071e81610703565b82525050565b60006020820190506107396000830184610715565b92915050565b61074881610703565b811461075357600080fd5b50565b6000813590506107658161073f565b92915050565b6000602082840312156107815761078061067b565b5b600061078f84828501610756565b91505092915050565b60008115159050919050565b6107ad81610798565b82525050565b60006020820190506107c860008301846107a4565b92915050565b6000819050919050565b6107e1816107ce565b82525050565b60006020820190506107fc60008301846107d8565b92915050565b61080b81610798565b811461081657600080fd5b50565b60008135905061082881610802565b92915050565b600080604083850312156108455761084461067b565b5b600061085385828601610756565b925050602061086485828601610819565b9150509250929050565b600069ffffffffffffffffffff82169050919050565b61088d8161086e565b811461089857600080fd5b50565b6000813590506108aa81610884565b92915050565b6000602082840312156108c6576108c561067b565b5b60006108d48482850161089b565b91505092915050565b6108e681610680565b82525050565b600060208201905061090160008301846108dd565b92915050565b6109108161086e565b82525050565b600060208201905061092b6000830184610907565b92915050565b600081519050919050565b600082825260208201905092915050565b60005b8381101561096b578082015181840152602081019050610950565b8381111561097a576000848401525b50505050565b6000601f19601f8301169050919050565b600061099c82610931565b6109a6818561093c565b93506109b681856020860161094d565b6109bf81610980565b840191505092915050565b600060208201905081810360008301526109e48184610991565b905092915050565b600060a082019050610a016000830188610907565b610a0e60208301876108dd565b610a1b60408301866107d8565b610a2860608301856107d8565b610a356080830184610907565b9695505050505050565b7f5072696365466565643a20666f7262696464656e000000000000000000000000600082015250565b6000610a7560148361093c565b9150610a8082610a3f565b602082019050919050565b60006020820190508181036000830152610aa481610a68565b9050919050565b7f4e487b7100000000000000000000000000000000000000000000000000000000600052601160045260246000fd5b6000610ae58261086e565b9150610af08361086e565b92508269ffffffffffffffffffff03821115610b0f57610b0e610aab565b5b828201905092915050565b7f4e487b7100000000000000000000000000000000000000000000000000000000600052602260045260246000fd5b60006002820490506001821680610b6157607f821691505b60208210811415610b7557610b74610b1a565b5b5091905056fea264697066735822122054d295a83be01c0c01e58a72dfc47078dc6f4742a1cf1952911ad7b36d74931b64736f6c634300080a0033",
  "linkReferences": {},
  "deployedLinkReferences": {}
}