{
  "_format": "hh-sol-artifact-1",
  "contractName": "MintDistributor",
  "sourceName": "contracts/core/Farm/MintDistributor.sol",
  "abi": [
    {
      "anonymous": false,
      "inputs": [
        {
          "indexed": false,
          "internalType": "uint256",
          "name": "amount",
          "type": "uint256"
        }
      ],
      "name": "Distributed",
      "type": "event"
    },
    {
      "anonymous": false,
      "inputs": [
        {
          "indexed": true,
          "internalType": "address",
          "name": "previousOwner",
          "type": "address"
        },
        {
          "indexed": true,
          "internalType": "address",
          "name": "newOwner",
          "type": "address"
        }
      ],
      "name": "OwnershipTransferred",
      "type": "event"
    },
    {
      "inputs": [],
      "name": "amount",
      "outputs": [
        {
          "internalType": "uint256",
          "name": "",
          "type": "uint256"
        }
      ],
      "stateMutability": "view",
      "type": "function"
    },
    {
      "inputs": [],
      "name": "beneficiary",
      "outputs": [
        {
          "internalType": "address",
          "name": "",
          "type": "address"
        }
      ],
      "stateMutability": "view",
      "type": "function"
    },
    {
      "inputs": [],
      "name": "distribute",
      "outputs": [],
      "stateMutability": "nonpayable",
      "type": "function"
    },
    {
      "inputs": [],
      "name": "empty",
      "outputs": [],
      "stateMutability": "nonpayable",
      "type": "function"
    },
    {
      "inputs": [],
      "name": "halt",
      "outputs": [],
      "stateMutability": "nonpayable",
      "type": "function"
    },
    {
      "inputs": [],
      "name": "halted",
      "outputs": [
        {
          "internalType": "bool",
          "name": "",
          "type": "bool"
        }
      ],
      "stateMutability": "view",
      "type": "function"
    },
    {
      "inputs": [
        {
          "internalType": "address",
          "name": "_beneficiary",
          "type": "address"
        },
        {
          "internalType": "contract IERC20",
          "name": "_rewardToken",
          "type": "address"
        }
      ],
      "name": "initialize",
      "outputs": [],
      "stateMutability": "nonpayable",
      "type": "function"
    },
    {
      "inputs": [],
      "name": "owner",
      "outputs": [
        {
          "internalType": "address",
          "name": "",
          "type": "address"
        }
      ],
      "stateMutability": "view",
      "type": "function"
    },
    {
      "inputs": [],
      "name": "renounceOwnership",
      "outputs": [],
      "stateMutability": "nonpayable",
      "type": "function"
    },
    {
      "inputs": [],
      "name": "rewardToken",
      "outputs": [
        {
          "internalType": "contract IERC20",
          "name": "",
          "type": "address"
        }
      ],
      "stateMutability": "view",
      "type": "function"
    },
    {
      "inputs": [
        {
          "internalType": "address",
          "name": "newOwner",
          "type": "address"
        }
      ],
      "name": "transferOwnership",
      "outputs": [],
      "stateMutability": "nonpayable",
      "type": "function"
    },
    {
      "inputs": [],
      "name": "unHalt",
      "outputs": [],
      "stateMutability": "nonpayable",
      "type": "function"
    }
  ],
  "bytecode": "0x608060405234801561001057600080fd5b5061002d61002261003260201b60201c565b61003a60201b60201c565b6100fe565b600033905090565b60008060009054906101000a900473ffffffffffffffffffffffffffffffffffffffff169050816000806101000a81548173ffffffffffffffffffffffffffffffffffffffff021916908373ffffffffffffffffffffffffffffffffffffffff1602179055508173ffffffffffffffffffffffffffffffffffffffff168173ffffffffffffffffffffffffffffffffffffffff167f8be0079c531659141344cd1fd0a4f28419497f9722a3daafe3b4186f6b6457e060405160405180910390a35050565b6115718061010d6000396000f3fe608060405234801561001057600080fd5b50600436106100b45760003560e01c8063aa8c217c11610071578063aa8c217c1461012f578063b9b8af0b1461014d578063e4fc6b6d1461016b578063f2a75fe414610175578063f2fde38b1461017f578063f7c618c11461019b576100b4565b806338af3eed146100b9578063485cc955146100d75780635ed7ca5b146100f3578063715018a6146100fd57806376865eea146101075780638da5cb5b14610111575b600080fd5b6100c16101b9565b6040516100ce9190610e4c565b60405180910390f35b6100f160048036038101906100ec9190610ed6565b6101df565b005b6100fb610361565b005b6101056103fa565b005b61010f610482565b005b61011961051b565b6040516101269190610e4c565b60405180910390f35b610137610544565b6040516101449190610f2f565b60405180910390f35b61015561054a565b6040516101629190610f65565b60405180910390f35b61017361055d565b005b61017d61070a565b005b61019960048036038101906101949190610f80565b610878565b005b6101a3610970565b6040516101b0919061100c565b60405180910390f35b600260009054906101000a900473ffffffffffffffffffffffffffffffffffffffff1681565b6101e7610996565b73ffffffffffffffffffffffffffffffffffffffff1661020561051b565b73ffffffffffffffffffffffffffffffffffffffff161461025b576040517f08c379a000000000000000000000000000000000000000000000000000000000815260040161025290611084565b60405180910390fd5b81600260006101000a81548173ffffffffffffffffffffffffffffffffffffffff021916908373ffffffffffffffffffffffffffffffffffffffff16021790555080600160006101000a81548173ffffffffffffffffffffffffffffffffffffffff021916908373ffffffffffffffffffffffffffffffffffffffff1602179055508073ffffffffffffffffffffffffffffffffffffffff166370a08231306040518263ffffffff1660e01b81526004016103169190610e4c565b602060405180830381865afa158015610333573d6000803e3d6000fd5b505050506040513d601f19601f8201168201806040525081019061035791906110d0565b6003819055505050565b610369610996565b73ffffffffffffffffffffffffffffffffffffffff1661038761051b565b73ffffffffffffffffffffffffffffffffffffffff16146103dd576040517f08c379a00000000000000000000000000000000000000000000000000000000081526004016103d490611084565b60405180910390fd5b6001600460006101000a81548160ff021916908315150217905550565b610402610996565b73ffffffffffffffffffffffffffffffffffffffff1661042061051b565b73ffffffffffffffffffffffffffffffffffffffff1614610476576040517f08c379a000000000000000000000000000000000000000000000000000000000815260040161046d90611084565b60405180910390fd5b610480600061099e565b565b61048a610996565b73ffffffffffffffffffffffffffffffffffffffff166104a861051b565b73ffffffffffffffffffffffffffffffffffffffff16146104fe576040517f08c379a00000000000000000000000000000000000000000000000000000000081526004016104f590611084565b60405180910390fd5b6000600460006101000a81548160ff021916908315150217905550565b60008060009054906101000a900473ffffffffffffffffffffffffffffffffffffffff16905090565b60035481565b600460009054906101000a900460ff1681565b610565610a62565b61056d610af4565b6000600160009054906101000a900473ffffffffffffffffffffffffffffffffffffffff1673ffffffffffffffffffffffffffffffffffffffff166370a08231306040518263ffffffff1660e01b81526004016105ca9190610e4c565b602060405180830381865afa1580156105e7573d6000803e3d6000fd5b505050506040513d601f19601f8201168201806040525081019061060b91906110d0565b9050600160009054906101000a900473ffffffffffffffffffffffffffffffffffffffff1673ffffffffffffffffffffffffffffffffffffffff1663a9059cbb600260009054906101000a900473ffffffffffffffffffffffffffffffffffffffff16836040518363ffffffff1660e01b815260040161068c9291906110fd565b6020604051808303816000875af11580156106ab573d6000803e3d6000fd5b505050506040513d601f19601f820116820180604052508101906106cf9190611152565b507fddc9c30275a04c48091f24199f9c405765de34d979d6847f5b9798a57232d2e5816040516106ff9190610f2f565b60405180910390a150565b610712610996565b73ffffffffffffffffffffffffffffffffffffffff1661073061051b565b73ffffffffffffffffffffffffffffffffffffffff1614610786576040517f08c379a000000000000000000000000000000000000000000000000000000000815260040161077d90611084565b60405180910390fd5b61086e33600160009054906101000a900473ffffffffffffffffffffffffffffffffffffffff1673ffffffffffffffffffffffffffffffffffffffff166370a08231306040518263ffffffff1660e01b81526004016107e59190610e4c565b602060405180830381865afa158015610802573d6000803e3d6000fd5b505050506040513d601f19601f8201168201806040525081019061082691906110d0565b600160009054906101000a900473ffffffffffffffffffffffffffffffffffffffff1673ffffffffffffffffffffffffffffffffffffffff16610b189092919063ffffffff16565b610876610361565b565b610880610996565b73ffffffffffffffffffffffffffffffffffffffff1661089e61051b565b73ffffffffffffffffffffffffffffffffffffffff16146108f4576040517f08c379a00000000000000000000000000000000000000000000000000000000081526004016108eb90611084565b60405180910390fd5b600073ffffffffffffffffffffffffffffffffffffffff168173ffffffffffffffffffffffffffffffffffffffff161415610964576040517f08c379a000000000000000000000000000000000000000000000000000000000815260040161095b906111f1565b60405180910390fd5b61096d8161099e565b50565b600160009054906101000a900473ffffffffffffffffffffffffffffffffffffffff1681565b600033905090565b60008060009054906101000a900473ffffffffffffffffffffffffffffffffffffffff169050816000806101000a81548173ffffffffffffffffffffffffffffffffffffffff021916908373ffffffffffffffffffffffffffffffffffffffff1602179055508173ffffffffffffffffffffffffffffffffffffffff168173ffffffffffffffffffffffffffffffffffffffff167f8be0079c531659141344cd1fd0a4f28419497f9722a3daafe3b4186f6b6457e060405160405180910390a35050565b600260009054906101000a900473ffffffffffffffffffffffffffffffffffffffff1673ffffffffffffffffffffffffffffffffffffffff163373ffffffffffffffffffffffffffffffffffffffff1614610af2576040517f08c379a0000000000000000000000000000000000000000000000000000000008152600401610ae990611283565b60405180910390fd5b565b60011515600460009054906101000a900460ff1615151415610b1557610b16565b5b565b610b998363a9059cbb60e01b8484604051602401610b379291906110fd565b604051602081830303815290604052907bffffffffffffffffffffffffffffffffffffffffffffffffffffffff19166020820180517bffffffffffffffffffffffffffffffffffffffffffffffffffffffff8381831617835250505050610b9e565b505050565b6000610c00826040518060400160405280602081526020017f5361666545524332303a206c6f772d6c6576656c2063616c6c206661696c65648152508573ffffffffffffffffffffffffffffffffffffffff16610c659092919063ffffffff16565b9050600081511115610c605780806020019051810190610c209190611152565b610c5f576040517f08c379a0000000000000000000000000000000000000000000000000000000008152600401610c5690611315565b60405180910390fd5b5b505050565b6060610c748484600085610c7d565b90509392505050565b606082471015610cc2576040517f08c379a0000000000000000000000000000000000000000000000000000000008152600401610cb9906113a7565b60405180910390fd5b610ccb85610d91565b610d0a576040517f08c379a0000000000000000000000000000000000000000000000000000000008152600401610d0190611413565b60405180910390fd5b6000808673ffffffffffffffffffffffffffffffffffffffff168587604051610d3391906114ad565b60006040518083038185875af1925050503d8060008114610d70576040519150601f19603f3d011682016040523d82523d6000602084013e610d75565b606091505b5091509150610d85828286610da4565b92505050949350505050565b600080823b905060008111915050919050565b60608315610db457829050610e04565b600083511115610dc75782518084602001fd5b816040517f08c379a0000000000000000000000000000000000000000000000000000000008152600401610dfb9190611519565b60405180910390fd5b9392505050565b600073ffffffffffffffffffffffffffffffffffffffff82169050919050565b6000610e3682610e0b565b9050919050565b610e4681610e2b565b82525050565b6000602082019050610e616000830184610e3d565b92915050565b600080fd5b610e7581610e2b565b8114610e8057600080fd5b50565b600081359050610e9281610e6c565b92915050565b6000610ea382610e2b565b9050919050565b610eb381610e98565b8114610ebe57600080fd5b50565b600081359050610ed081610eaa565b92915050565b60008060408385031215610eed57610eec610e67565b5b6000610efb85828601610e83565b9250506020610f0c85828601610ec1565b9150509250929050565b6000819050919050565b610f2981610f16565b82525050565b6000602082019050610f446000830184610f20565b92915050565b60008115159050919050565b610f5f81610f4a565b82525050565b6000602082019050610f7a6000830184610f56565b92915050565b600060208284031215610f9657610f95610e67565b5b6000610fa484828501610e83565b91505092915050565b6000819050919050565b6000610fd2610fcd610fc884610e0b565b610fad565b610e0b565b9050919050565b6000610fe482610fb7565b9050919050565b6000610ff682610fd9565b9050919050565b61100681610feb565b82525050565b60006020820190506110216000830184610ffd565b92915050565b600082825260208201905092915050565b7f4f776e61626c653a2063616c6c6572206973206e6f7420746865206f776e6572600082015250565b600061106e602083611027565b915061107982611038565b602082019050919050565b6000602082019050818103600083015261109d81611061565b9050919050565b6110ad81610f16565b81146110b857600080fd5b50565b6000815190506110ca816110a4565b92915050565b6000602082840312156110e6576110e5610e67565b5b60006110f4848285016110bb565b91505092915050565b60006040820190506111126000830185610e3d565b61111f6020830184610f20565b9392505050565b61112f81610f4a565b811461113a57600080fd5b50565b60008151905061114c81611126565b92915050565b60006020828403121561116857611167610e67565b5b60006111768482850161113d565b91505092915050565b7f4f776e61626c653a206e6577206f776e657220697320746865207a65726f206160008201527f6464726573730000000000000000000000000000000000000000000000000000602082015250565b60006111db602683611027565b91506111e68261117f565b604082019050919050565b6000602082019050818103600083015261120a816111ce565b9050919050565b7f4172626974726172794469737472696275746f723a204f6e6c792062656e656660008201527f6963696172792063616e207265636569766520746f6b656e7300000000000000602082015250565b600061126d603983611027565b915061127882611211565b604082019050919050565b6000602082019050818103600083015261129c81611260565b9050919050565b7f5361666545524332303a204552433230206f7065726174696f6e20646964206e60008201527f6f74207375636365656400000000000000000000000000000000000000000000602082015250565b60006112ff602a83611027565b915061130a826112a3565b604082019050919050565b6000602082019050818103600083015261132e816112f2565b9050919050565b7f416464726573733a20696e73756666696369656e742062616c616e636520666f60008201527f722063616c6c0000000000000000000000000000000000000000000000000000602082015250565b6000611391602683611027565b915061139c82611335565b604082019050919050565b600060208201905081810360008301526113c081611384565b9050919050565b7f416464726573733a2063616c6c20746f206e6f6e2d636f6e7472616374000000600082015250565b60006113fd601d83611027565b9150611408826113c7565b602082019050919050565b6000602082019050818103600083015261142c816113f0565b9050919050565b600081519050919050565b600081905092915050565b60005b8381101561146757808201518184015260208101905061144c565b83811115611476576000848401525b50505050565b600061148782611433565b611491818561143e565b93506114a1818560208601611449565b80840191505092915050565b60006114b9828461147c565b915081905092915050565b600081519050919050565b6000601f19601f8301169050919050565b60006114eb826114c4565b6114f58185611027565b9350611505818560208601611449565b61150e816114cf565b840191505092915050565b6000602082019050818103600083015261153381846114e0565b90509291505056fea2646970667358221220bddf5f7523bd64c1ebd8343700c4456124792512f01b0f21dffb08e994d8a46864736f6c634300080a0033",
  "linkReferences": {},
  "deployedLinkReferences": {}
}